{
	"contracts/base/UUPSProxy.sol": {
		"UUPSProxy": {
			"abi": [
				{
					"inputs": [],
					"name": "Initialized",
					"type": "error"
				},
				{
					"inputs": [],
					"name": "ZeroAddress",
					"type": "error"
				},
				{
					"stateMutability": "payable",
					"type": "fallback"
				},
				{
					"inputs": [
						{
							"internalType": "address",
							"name": "initialAddress",
							"type": "address"
						}
					],
					"name": "initializeProxy",
					"outputs": [],
					"stateMutability": "nonpayable",
					"type": "function"
				},
				{
					"stateMutability": "payable",
					"type": "receive"
				}
			],
			"devdoc": {
				"author": "jtriley.eth",
				"details": "`initializeProxy(address)` is called by the Super Token Factory The call to the factory should be in the same transaction to avoid being front run",
				"kind": "dev",
				"methods": {
					"initializeProxy(address)": {
						"details": "Called by the SuperTokenFactory contract on upgrade",
						"params": {
							"initialAddress": "logic contract address"
						}
					}
				},
				"title": "UUPS Proxy implementation contract",
				"version": 1
			},
			"evm": {
				"assembly": "    /* \"contracts/base/UUPSProxy.sol\":434:1549  contract UUPSProxy is Proxy {... */\n  mstore(0x40, 0x80)\n  callvalue\n  dup1\n  iszero\n  tag_1\n  jumpi\n  0x00\n  dup1\n  revert\ntag_1:\n  pop\n  dataSize(sub_0)\n  dup1\n  dataOffset(sub_0)\n  0x00\n  codecopy\n  0x00\n  return\nstop\n\nsub_0: assembly {\n        /* \"contracts/base/UUPSProxy.sol\":434:1549  contract UUPSProxy is Proxy {... */\n      mstore(0x40, 0x80)\n      jumpi(tag_1, lt(calldatasize, 0x04))\n      shr(0xe0, calldataload(0x00))\n      dup1\n      0x4a0687ef\n      eq\n      tag_3\n      jumpi\n      jump(tag_2)\n    tag_1:\n      jumpi(tag_2, calldatasize)\n        /* \"@openzeppelin/contracts/proxy/Proxy.sol\":2898:2909  _fallback() */\n      tag_6\n        /* \"@openzeppelin/contracts/proxy/Proxy.sol\":2898:2907  _fallback */\n      tag_7\n        /* \"@openzeppelin/contracts/proxy/Proxy.sol\":2898:2909  _fallback() */\n      jump\t// in\n    tag_6:\n        /* \"contracts/base/UUPSProxy.sol\":434:1549  contract UUPSProxy is Proxy {... */\n      stop\n    tag_2:\n        /* \"@openzeppelin/contracts/proxy/Proxy.sol\":2675:2686  _fallback() */\n      tag_10\n        /* \"@openzeppelin/contracts/proxy/Proxy.sol\":2675:2684  _fallback */\n      tag_7\n        /* \"@openzeppelin/contracts/proxy/Proxy.sol\":2675:2686  _fallback() */\n      jump\t// in\n    tag_10:\n        /* \"contracts/base/UUPSProxy.sol\":434:1549  contract UUPSProxy is Proxy {... */\n      stop\n        /* \"contracts/base/UUPSProxy.sol\":1049:1295  function initializeProxy(address initialAddress) external {... */\n    tag_3:\n      callvalue\n      dup1\n      iszero\n      tag_11\n      jumpi\n      0x00\n      dup1\n      revert\n    tag_11:\n      pop\n      tag_12\n      0x04\n      dup1\n      calldatasize\n      sub\n      dup2\n      add\n      swap1\n      tag_13\n      swap2\n      swap1\n      tag_14\n      jump\t// in\n    tag_13:\n      tag_15\n      jump\t// in\n    tag_12:\n      stop\n        /* \"@openzeppelin/contracts/proxy/Proxy.sol\":2322:2432  function _fallback() internal virtual {... */\n    tag_7:\n        /* \"@openzeppelin/contracts/proxy/Proxy.sol\":2370:2387  _beforeFallback() */\n      tag_17\n        /* \"@openzeppelin/contracts/proxy/Proxy.sol\":2370:2385  _beforeFallback */\n      tag_18\n        /* \"@openzeppelin/contracts/proxy/Proxy.sol\":2370:2387  _beforeFallback() */\n      jump\t// in\n    tag_17:\n        /* \"@openzeppelin/contracts/proxy/Proxy.sol\":2397:2425  _delegate(_implementation()) */\n      tag_19\n        /* \"@openzeppelin/contracts/proxy/Proxy.sol\":2407:2424  _implementation() */\n      tag_20\n        /* \"@openzeppelin/contracts/proxy/Proxy.sol\":2407:2422  _implementation */\n      tag_21\n        /* \"@openzeppelin/contracts/proxy/Proxy.sol\":2407:2424  _implementation() */\n      jump\t// in\n    tag_20:\n        /* \"@openzeppelin/contracts/proxy/Proxy.sol\":2397:2406  _delegate */\n      tag_22\n        /* \"@openzeppelin/contracts/proxy/Proxy.sol\":2397:2425  _delegate(_implementation()) */\n      jump\t// in\n    tag_19:\n        /* \"@openzeppelin/contracts/proxy/Proxy.sol\":2322:2432  function _fallback() internal virtual {... */\n      jump\t// out\n        /* \"contracts/base/UUPSProxy.sol\":1049:1295  function initializeProxy(address initialAddress) external {... */\n    tag_15:\n        /* \"contracts/base/UUPSProxy.sol\":1141:1142  0 */\n      0x00\n        /* \"contracts/base/UUPSProxy.sol\":1115:1143  initialAddress == address(0) */\n      0xffffffffffffffffffffffffffffffffffffffff\n      and\n        /* \"contracts/base/UUPSProxy.sol\":1115:1129  initialAddress */\n      dup2\n        /* \"contracts/base/UUPSProxy.sol\":1115:1143  initialAddress == address(0) */\n      0xffffffffffffffffffffffffffffffffffffffff\n      and\n      sub\n        /* \"contracts/base/UUPSProxy.sol\":1111:1165  if (initialAddress == address(0)) revert ZeroAddress() */\n      tag_24\n      jumpi\n        /* \"contracts/base/UUPSProxy.sol\":1152:1165  ZeroAddress() */\n      mload(0x40)\n      0xd92e233d00000000000000000000000000000000000000000000000000000000\n      dup2\n      mstore\n      0x04\n      add\n      mload(0x40)\n      dup1\n      swap2\n      sub\n      swap1\n      revert\n        /* \"contracts/base/UUPSProxy.sol\":1111:1165  if (initialAddress == address(0)) revert ZeroAddress() */\n    tag_24:\n        /* \"contracts/base/UUPSProxy.sol\":1202:1203  0 */\n      0x00\n        /* \"contracts/base/UUPSProxy.sol\":1173:1204  _implementation() != address(0) */\n      0xffffffffffffffffffffffffffffffffffffffff\n      and\n        /* \"contracts/base/UUPSProxy.sol\":1173:1190  _implementation() */\n      tag_25\n        /* \"contracts/base/UUPSProxy.sol\":1173:1188  _implementation */\n      tag_21\n        /* \"contracts/base/UUPSProxy.sol\":1173:1190  _implementation() */\n      jump\t// in\n    tag_25:\n        /* \"contracts/base/UUPSProxy.sol\":1173:1204  _implementation() != address(0) */\n      0xffffffffffffffffffffffffffffffffffffffff\n      and\n      eq\n        /* \"contracts/base/UUPSProxy.sol\":1169:1226  if (_implementation() != address(0)) revert Initialized() */\n      tag_26\n      jumpi\n        /* \"contracts/base/UUPSProxy.sol\":1213:1226  Initialized() */\n      mload(0x40)\n      0x5daa87a000000000000000000000000000000000000000000000000000000000\n      dup2\n      mstore\n      0x04\n      add\n      mload(0x40)\n      dup1\n      swap2\n      sub\n      swap1\n      revert\n        /* \"contracts/base/UUPSProxy.sol\":1169:1226  if (_implementation() != address(0)) revert Initialized() */\n    tag_26:\n        /* \"contracts/base/UUPSProxy.sol\":1273:1287  initialAddress */\n      dup1\n        /* \"contracts/base/UUPSProxy.sol\":1251:1271  _IMPLEMENTATION_SLOT */\n      0x360894a13ba1a3210667c828492db98dca3e2076cc3735a920a3ca505d382bbc\n        /* \"contracts/base/UUPSProxy.sol\":1244:1288  sstore(_IMPLEMENTATION_SLOT, initialAddress) */\n      sstore\n        /* \"contracts/base/UUPSProxy.sol\":1049:1295  function initializeProxy(address initialAddress) external {... */\n      pop\n      jump\t// out\n        /* \"@openzeppelin/contracts/proxy/Proxy.sol\":3198:3244  function _beforeFallback() internal virtual {} */\n    tag_18:\n      jump\t// out\n        /* \"contracts/base/UUPSProxy.sol\":1395:1547  function _implementation()... */\n    tag_21:\n        /* \"contracts/base/UUPSProxy.sol\":1472:1484  address impl */\n      0x00\n        /* \"contracts/base/UUPSProxy.sol\":1519:1539  _IMPLEMENTATION_SLOT */\n      0x360894a13ba1a3210667c828492db98dca3e2076cc3735a920a3ca505d382bbc\n        /* \"contracts/base/UUPSProxy.sol\":1513:1540  sload(_IMPLEMENTATION_SLOT) */\n      sload\n        /* \"contracts/base/UUPSProxy.sol\":1505:1540  impl := sload(_IMPLEMENTATION_SLOT) */\n      swap1\n      pop\n        /* \"contracts/base/UUPSProxy.sol\":1395:1547  function _implementation()... */\n      swap1\n      jump\t// out\n        /* \"@openzeppelin/contracts/proxy/Proxy.sol\":948:1843  function _delegate(address implementation) internal virtual {... */\n    tag_22:\n        /* \"@openzeppelin/contracts/proxy/Proxy.sol\":1286:1300  calldatasize() */\n      calldatasize\n        /* \"@openzeppelin/contracts/proxy/Proxy.sol\":1283:1284  0 */\n      0x00\n        /* \"@openzeppelin/contracts/proxy/Proxy.sol\":1280:1281  0 */\n      dup1\n        /* \"@openzeppelin/contracts/proxy/Proxy.sol\":1267:1301  calldatacopy(0, 0, calldatasize()) */\n      calldatacopy\n        /* \"@openzeppelin/contracts/proxy/Proxy.sol\":1500:1501  0 */\n      0x00\n        /* \"@openzeppelin/contracts/proxy/Proxy.sol\":1497:1498  0 */\n      dup1\n        /* \"@openzeppelin/contracts/proxy/Proxy.sol\":1481:1495  calldatasize() */\n      calldatasize\n        /* \"@openzeppelin/contracts/proxy/Proxy.sol\":1478:1479  0 */\n      0x00\n        /* \"@openzeppelin/contracts/proxy/Proxy.sol\":1462:1476  implementation */\n      dup5\n        /* \"@openzeppelin/contracts/proxy/Proxy.sol\":1455:1460  gas() */\n      gas\n        /* \"@openzeppelin/contracts/proxy/Proxy.sol\":1442:1502  delegatecall(gas(), implementation, 0, calldatasize(), 0, 0) */\n      delegatecall\n        /* \"@openzeppelin/contracts/proxy/Proxy.sol\":1576:1592  returndatasize() */\n      returndatasize\n        /* \"@openzeppelin/contracts/proxy/Proxy.sol\":1573:1574  0 */\n      0x00\n        /* \"@openzeppelin/contracts/proxy/Proxy.sol\":1570:1571  0 */\n      dup1\n        /* \"@openzeppelin/contracts/proxy/Proxy.sol\":1555:1593  returndatacopy(0, 0, returndatasize()) */\n      returndatacopy\n        /* \"@openzeppelin/contracts/proxy/Proxy.sol\":1614:1620  result */\n      dup1\n        /* \"@openzeppelin/contracts/proxy/Proxy.sol\":1686:1687  0 */\n      0x00\n        /* \"@openzeppelin/contracts/proxy/Proxy.sol\":1681:1747  case 0 {... */\n      dup2\n      eq\n      tag_31\n      jumpi\n        /* \"@openzeppelin/contracts/proxy/Proxy.sol\":1796:1812  returndatasize() */\n      returndatasize\n        /* \"@openzeppelin/contracts/proxy/Proxy.sol\":1793:1794  0 */\n      0x00\n        /* \"@openzeppelin/contracts/proxy/Proxy.sol\":1786:1813  return(0, returndatasize()) */\n      return\n        /* \"@openzeppelin/contracts/proxy/Proxy.sol\":1681:1747  case 0 {... */\n    tag_31:\n        /* \"@openzeppelin/contracts/proxy/Proxy.sol\":1716:1732  returndatasize() */\n      returndatasize\n        /* \"@openzeppelin/contracts/proxy/Proxy.sol\":1713:1714  0 */\n      0x00\n        /* \"@openzeppelin/contracts/proxy/Proxy.sol\":1706:1733  revert(0, returndatasize()) */\n      revert\n        /* \"#utility.yul\":88:205   */\n    tag_33:\n        /* \"#utility.yul\":197:198   */\n      0x00\n        /* \"#utility.yul\":194:195   */\n      dup1\n        /* \"#utility.yul\":187:199   */\n      revert\n        /* \"#utility.yul\":334:460   */\n    tag_35:\n        /* \"#utility.yul\":371:378   */\n      0x00\n        /* \"#utility.yul\":411:453   */\n      0xffffffffffffffffffffffffffffffffffffffff\n        /* \"#utility.yul\":404:409   */\n      dup3\n        /* \"#utility.yul\":400:454   */\n      and\n        /* \"#utility.yul\":389:454   */\n      swap1\n      pop\n        /* \"#utility.yul\":334:460   */\n      swap2\n      swap1\n      pop\n      jump\t// out\n        /* \"#utility.yul\":466:562   */\n    tag_36:\n        /* \"#utility.yul\":503:510   */\n      0x00\n        /* \"#utility.yul\":532:556   */\n      tag_45\n        /* \"#utility.yul\":550:555   */\n      dup3\n        /* \"#utility.yul\":532:556   */\n      tag_35\n      jump\t// in\n    tag_45:\n        /* \"#utility.yul\":521:556   */\n      swap1\n      pop\n        /* \"#utility.yul\":466:562   */\n      swap2\n      swap1\n      pop\n      jump\t// out\n        /* \"#utility.yul\":568:690   */\n    tag_37:\n        /* \"#utility.yul\":641:665   */\n      tag_47\n        /* \"#utility.yul\":659:664   */\n      dup2\n        /* \"#utility.yul\":641:665   */\n      tag_36\n      jump\t// in\n    tag_47:\n        /* \"#utility.yul\":634:639   */\n      dup2\n        /* \"#utility.yul\":631:666   */\n      eq\n        /* \"#utility.yul\":621:684   */\n      tag_48\n      jumpi\n        /* \"#utility.yul\":680:681   */\n      0x00\n        /* \"#utility.yul\":677:678   */\n      dup1\n        /* \"#utility.yul\":670:682   */\n      revert\n        /* \"#utility.yul\":621:684   */\n    tag_48:\n        /* \"#utility.yul\":568:690   */\n      pop\n      jump\t// out\n        /* \"#utility.yul\":696:835   */\n    tag_38:\n        /* \"#utility.yul\":742:747   */\n      0x00\n        /* \"#utility.yul\":780:786   */\n      dup2\n        /* \"#utility.yul\":767:787   */\n      calldataload\n        /* \"#utility.yul\":758:787   */\n      swap1\n      pop\n        /* \"#utility.yul\":796:829   */\n      tag_50\n        /* \"#utility.yul\":823:828   */\n      dup2\n        /* \"#utility.yul\":796:829   */\n      tag_37\n      jump\t// in\n    tag_50:\n        /* \"#utility.yul\":696:835   */\n      swap3\n      swap2\n      pop\n      pop\n      jump\t// out\n        /* \"#utility.yul\":841:1170   */\n    tag_14:\n        /* \"#utility.yul\":900:906   */\n      0x00\n        /* \"#utility.yul\":949:951   */\n      0x20\n        /* \"#utility.yul\":937:946   */\n      dup3\n        /* \"#utility.yul\":928:935   */\n      dup5\n        /* \"#utility.yul\":924:947   */\n      sub\n        /* \"#utility.yul\":920:952   */\n      slt\n        /* \"#utility.yul\":917:1036   */\n      iszero\n      tag_52\n      jumpi\n        /* \"#utility.yul\":955:1034   */\n      tag_53\n      tag_33\n      jump\t// in\n    tag_53:\n        /* \"#utility.yul\":917:1036   */\n    tag_52:\n        /* \"#utility.yul\":1075:1076   */\n      0x00\n        /* \"#utility.yul\":1100:1153   */\n      tag_54\n        /* \"#utility.yul\":1145:1152   */\n      dup5\n        /* \"#utility.yul\":1136:1142   */\n      dup3\n        /* \"#utility.yul\":1125:1134   */\n      dup6\n        /* \"#utility.yul\":1121:1143   */\n      add\n        /* \"#utility.yul\":1100:1153   */\n      tag_38\n      jump\t// in\n    tag_54:\n        /* \"#utility.yul\":1090:1153   */\n      swap2\n      pop\n        /* \"#utility.yul\":1046:1163   */\n      pop\n        /* \"#utility.yul\":841:1170   */\n      swap3\n      swap2\n      pop\n      pop\n      jump\t// out\n\n    auxdata: 0xa264697066735822122080a137255c6ffc8a4d4838fe8a7bcf014ae8796438aec993b2aaa206ce78697964736f6c63430008120033\n}\n",
				"bytecode": {
					"linkReferences": {},
					"object": "608060405234801561001057600080fd5b5061028e806100206000396000f3fe6080604052600436106100225760003560e01c80634a0687ef1461003b57610031565b366100315761002f610064565b005b610039610064565b005b34801561004757600080fd5b50610062600480360381019061005d919061022b565b61007e565b005b61006c610177565b61007c610077610179565b6101a2565b565b600073ffffffffffffffffffffffffffffffffffffffff168173ffffffffffffffffffffffffffffffffffffffff16036100e4576040517fd92e233d00000000000000000000000000000000000000000000000000000000815260040160405180910390fd5b600073ffffffffffffffffffffffffffffffffffffffff16610104610179565b73ffffffffffffffffffffffffffffffffffffffff1614610151576040517f5daa87a000000000000000000000000000000000000000000000000000000000815260040160405180910390fd5b807f360894a13ba1a3210667c828492db98dca3e2076cc3735a920a3ca505d382bbc5550565b565b60007f360894a13ba1a3210667c828492db98dca3e2076cc3735a920a3ca505d382bbc54905090565b3660008037600080366000845af43d6000803e80600081146101c3573d6000f35b3d6000fd5b600080fd5b600073ffffffffffffffffffffffffffffffffffffffff82169050919050565b60006101f8826101cd565b9050919050565b610208816101ed565b811461021357600080fd5b50565b600081359050610225816101ff565b92915050565b600060208284031215610241576102406101c8565b5b600061024f84828501610216565b9150509291505056fea264697066735822122080a137255c6ffc8a4d4838fe8a7bcf014ae8796438aec993b2aaa206ce78697964736f6c63430008120033",
					"opcodes": "PUSH1 0x80 PUSH1 0x40 MSTORE CALLVALUE DUP1 ISZERO PUSH2 0x10 JUMPI PUSH1 0x0 DUP1 REVERT JUMPDEST POP PUSH2 0x28E DUP1 PUSH2 0x20 PUSH1 0x0 CODECOPY PUSH1 0x0 RETURN INVALID PUSH1 0x80 PUSH1 0x40 MSTORE PUSH1 0x4 CALLDATASIZE LT PUSH2 0x22 JUMPI PUSH1 0x0 CALLDATALOAD PUSH1 0xE0 SHR DUP1 PUSH4 0x4A0687EF EQ PUSH2 0x3B JUMPI PUSH2 0x31 JUMP JUMPDEST CALLDATASIZE PUSH2 0x31 JUMPI PUSH2 0x2F PUSH2 0x64 JUMP JUMPDEST STOP JUMPDEST PUSH2 0x39 PUSH2 0x64 JUMP JUMPDEST STOP JUMPDEST CALLVALUE DUP1 ISZERO PUSH2 0x47 JUMPI PUSH1 0x0 DUP1 REVERT JUMPDEST POP PUSH2 0x62 PUSH1 0x4 DUP1 CALLDATASIZE SUB DUP2 ADD SWAP1 PUSH2 0x5D SWAP2 SWAP1 PUSH2 0x22B JUMP JUMPDEST PUSH2 0x7E JUMP JUMPDEST STOP JUMPDEST PUSH2 0x6C PUSH2 0x177 JUMP JUMPDEST PUSH2 0x7C PUSH2 0x77 PUSH2 0x179 JUMP JUMPDEST PUSH2 0x1A2 JUMP JUMPDEST JUMP JUMPDEST PUSH1 0x0 PUSH20 0xFFFFFFFFFFFFFFFFFFFFFFFFFFFFFFFFFFFFFFFF AND DUP2 PUSH20 0xFFFFFFFFFFFFFFFFFFFFFFFFFFFFFFFFFFFFFFFF AND SUB PUSH2 0xE4 JUMPI PUSH1 0x40 MLOAD PUSH32 0xD92E233D00000000000000000000000000000000000000000000000000000000 DUP2 MSTORE PUSH1 0x4 ADD PUSH1 0x40 MLOAD DUP1 SWAP2 SUB SWAP1 REVERT JUMPDEST PUSH1 0x0 PUSH20 0xFFFFFFFFFFFFFFFFFFFFFFFFFFFFFFFFFFFFFFFF AND PUSH2 0x104 PUSH2 0x179 JUMP JUMPDEST PUSH20 0xFFFFFFFFFFFFFFFFFFFFFFFFFFFFFFFFFFFFFFFF AND EQ PUSH2 0x151 JUMPI PUSH1 0x40 MLOAD PUSH32 0x5DAA87A000000000000000000000000000000000000000000000000000000000 DUP2 MSTORE PUSH1 0x4 ADD PUSH1 0x40 MLOAD DUP1 SWAP2 SUB SWAP1 REVERT JUMPDEST DUP1 PUSH32 0x360894A13BA1A3210667C828492DB98DCA3E2076CC3735A920A3CA505D382BBC SSTORE POP JUMP JUMPDEST JUMP JUMPDEST PUSH1 0x0 PUSH32 0x360894A13BA1A3210667C828492DB98DCA3E2076CC3735A920A3CA505D382BBC SLOAD SWAP1 POP SWAP1 JUMP JUMPDEST CALLDATASIZE PUSH1 0x0 DUP1 CALLDATACOPY PUSH1 0x0 DUP1 CALLDATASIZE PUSH1 0x0 DUP5 GAS DELEGATECALL RETURNDATASIZE PUSH1 0x0 DUP1 RETURNDATACOPY DUP1 PUSH1 0x0 DUP2 EQ PUSH2 0x1C3 JUMPI RETURNDATASIZE PUSH1 0x0 RETURN JUMPDEST RETURNDATASIZE PUSH1 0x0 REVERT JUMPDEST PUSH1 0x0 DUP1 REVERT JUMPDEST PUSH1 0x0 PUSH20 0xFFFFFFFFFFFFFFFFFFFFFFFFFFFFFFFFFFFFFFFF DUP3 AND SWAP1 POP SWAP2 SWAP1 POP JUMP JUMPDEST PUSH1 0x0 PUSH2 0x1F8 DUP3 PUSH2 0x1CD JUMP JUMPDEST SWAP1 POP SWAP2 SWAP1 POP JUMP JUMPDEST PUSH2 0x208 DUP2 PUSH2 0x1ED JUMP JUMPDEST DUP2 EQ PUSH2 0x213 JUMPI PUSH1 0x0 DUP1 REVERT JUMPDEST POP JUMP JUMPDEST PUSH1 0x0 DUP2 CALLDATALOAD SWAP1 POP PUSH2 0x225 DUP2 PUSH2 0x1FF JUMP JUMPDEST SWAP3 SWAP2 POP POP JUMP JUMPDEST PUSH1 0x0 PUSH1 0x20 DUP3 DUP5 SUB SLT ISZERO PUSH2 0x241 JUMPI PUSH2 0x240 PUSH2 0x1C8 JUMP JUMPDEST JUMPDEST PUSH1 0x0 PUSH2 0x24F DUP5 DUP3 DUP6 ADD PUSH2 0x216 JUMP JUMPDEST SWAP2 POP POP SWAP3 SWAP2 POP POP JUMP INVALID LOG2 PUSH5 0x6970667358 0x22 SLT KECCAK256 DUP1 LOG1 CALLDATACOPY 0x25 0x5C PUSH16 0xFC8A4D4838FE8A7BCF014AE8796438AE 0xC9 SWAP4 0xB2 0xAA LOG2 MOD 0xCE PUSH25 0x697964736F6C63430008120033000000000000000000000000 "
				},
				"gasEstimates": {
					"creation": {
						"codeDepositCost": "130800",
						"executionCost": "177",
						"totalCost": "130977"
					},
					"external": {
						"": "infinite",
						"initializeProxy(address)": "24744"
					},
					"internal": {
						"_implementation()": "2123"
					}
				},
				"methodIdentifiers": {
					"initializeProxy(address)": "4a0687ef"
				}
			},
			"storageLayout": {
				"storage": [],
				"types": null
			},
			"userdoc": {
				"errors": {
					"Initialized()": [
						{
							"notice": "Thrown when the logic contract has been set"
						}
					],
					"ZeroAddress()": [
						{
							"notice": "Thrown when the logic contract address is zero"
						}
					]
				},
				"kind": "user",
				"methods": {
					"initializeProxy(address)": {
						"notice": "Stores the logic contract address only once."
					}
				},
				"notice": "Stores the logic contract's address at the _IMPLEMENTATION_SLOT",
				"version": 1
			}
		}
	}
}