{
	"contracts/BurnMintSuperToken.sol": {
		"BurnMintSuperToken": {
			"abi": [
				{
					"inputs": [],
					"stateMutability": "nonpayable",
					"type": "constructor"
				},
				{
					"inputs": [],
					"name": "Initialized",
					"type": "error"
				},
				{
					"inputs": [],
					"name": "ZeroAddress",
					"type": "error"
				},
				{
					"anonymous": false,
					"inputs": [
						{
							"indexed": true,
							"internalType": "bytes32",
							"name": "role",
							"type": "bytes32"
						},
						{
							"indexed": true,
							"internalType": "bytes32",
							"name": "previousAdminRole",
							"type": "bytes32"
						},
						{
							"indexed": true,
							"internalType": "bytes32",
							"name": "newAdminRole",
							"type": "bytes32"
						}
					],
					"name": "RoleAdminChanged",
					"type": "event"
				},
				{
					"anonymous": false,
					"inputs": [
						{
							"indexed": true,
							"internalType": "bytes32",
							"name": "role",
							"type": "bytes32"
						},
						{
							"indexed": true,
							"internalType": "address",
							"name": "account",
							"type": "address"
						},
						{
							"indexed": true,
							"internalType": "address",
							"name": "sender",
							"type": "address"
						}
					],
					"name": "RoleGranted",
					"type": "event"
				},
				{
					"anonymous": false,
					"inputs": [
						{
							"indexed": true,
							"internalType": "bytes32",
							"name": "role",
							"type": "bytes32"
						},
						{
							"indexed": true,
							"internalType": "address",
							"name": "account",
							"type": "address"
						},
						{
							"indexed": true,
							"internalType": "address",
							"name": "sender",
							"type": "address"
						}
					],
					"name": "RoleRevoked",
					"type": "event"
				},
				{
					"stateMutability": "payable",
					"type": "fallback"
				},
				{
					"inputs": [],
					"name": "BURNER_ROLE",
					"outputs": [
						{
							"internalType": "bytes32",
							"name": "",
							"type": "bytes32"
						}
					],
					"stateMutability": "view",
					"type": "function"
				},
				{
					"inputs": [],
					"name": "DEFAULT_ADMIN_ROLE",
					"outputs": [
						{
							"internalType": "bytes32",
							"name": "",
							"type": "bytes32"
						}
					],
					"stateMutability": "view",
					"type": "function"
				},
				{
					"inputs": [],
					"name": "MINTER_ROLE",
					"outputs": [
						{
							"internalType": "bytes32",
							"name": "",
							"type": "bytes32"
						}
					],
					"stateMutability": "view",
					"type": "function"
				},
				{
					"inputs": [
						{
							"internalType": "uint256",
							"name": "amount",
							"type": "uint256"
						},
						{
							"internalType": "bytes",
							"name": "userData",
							"type": "bytes"
						}
					],
					"name": "burn",
					"outputs": [],
					"stateMutability": "nonpayable",
					"type": "function"
				},
				{
					"inputs": [
						{
							"internalType": "bytes32",
							"name": "role",
							"type": "bytes32"
						}
					],
					"name": "getRoleAdmin",
					"outputs": [
						{
							"internalType": "bytes32",
							"name": "",
							"type": "bytes32"
						}
					],
					"stateMutability": "view",
					"type": "function"
				},
				{
					"inputs": [
						{
							"internalType": "bytes32",
							"name": "role",
							"type": "bytes32"
						},
						{
							"internalType": "address",
							"name": "account",
							"type": "address"
						}
					],
					"name": "grantRole",
					"outputs": [],
					"stateMutability": "nonpayable",
					"type": "function"
				},
				{
					"inputs": [
						{
							"internalType": "bytes32",
							"name": "role",
							"type": "bytes32"
						},
						{
							"internalType": "address",
							"name": "account",
							"type": "address"
						}
					],
					"name": "hasRole",
					"outputs": [
						{
							"internalType": "bool",
							"name": "",
							"type": "bool"
						}
					],
					"stateMutability": "view",
					"type": "function"
				},
				{
					"inputs": [
						{
							"internalType": "address",
							"name": "factory",
							"type": "address"
						},
						{
							"internalType": "string",
							"name": "name",
							"type": "string"
						},
						{
							"internalType": "string",
							"name": "symbol",
							"type": "string"
						},
						{
							"internalType": "uint256",
							"name": "initialSupply",
							"type": "uint256"
						},
						{
							"internalType": "address",
							"name": "receiver",
							"type": "address"
						},
						{
							"internalType": "bytes",
							"name": "userData",
							"type": "bytes"
						}
					],
					"name": "initialize",
					"outputs": [],
					"stateMutability": "nonpayable",
					"type": "function"
				},
				{
					"inputs": [
						{
							"internalType": "address",
							"name": "initialAddress",
							"type": "address"
						}
					],
					"name": "initializeProxy",
					"outputs": [],
					"stateMutability": "nonpayable",
					"type": "function"
				},
				{
					"inputs": [
						{
							"internalType": "address",
							"name": "receiver",
							"type": "address"
						},
						{
							"internalType": "uint256",
							"name": "amount",
							"type": "uint256"
						},
						{
							"internalType": "bytes",
							"name": "userData",
							"type": "bytes"
						}
					],
					"name": "mint",
					"outputs": [],
					"stateMutability": "nonpayable",
					"type": "function"
				},
				{
					"inputs": [
						{
							"internalType": "bytes32",
							"name": "role",
							"type": "bytes32"
						},
						{
							"internalType": "address",
							"name": "account",
							"type": "address"
						}
					],
					"name": "renounceRole",
					"outputs": [],
					"stateMutability": "nonpayable",
					"type": "function"
				},
				{
					"inputs": [
						{
							"internalType": "bytes32",
							"name": "role",
							"type": "bytes32"
						},
						{
							"internalType": "address",
							"name": "account",
							"type": "address"
						}
					],
					"name": "revokeRole",
					"outputs": [],
					"stateMutability": "nonpayable",
					"type": "function"
				},
				{
					"inputs": [
						{
							"internalType": "bytes4",
							"name": "interfaceId",
							"type": "bytes4"
						}
					],
					"name": "supportsInterface",
					"outputs": [
						{
							"internalType": "bool",
							"name": "",
							"type": "bool"
						}
					],
					"stateMutability": "view",
					"type": "function"
				},
				{
					"stateMutability": "payable",
					"type": "receive"
				}
			],
			"devdoc": {
				"author": "jtriley.eth",
				"events": {
					"RoleAdminChanged(bytes32,bytes32,bytes32)": {
						"details": "Emitted when `newAdminRole` is set as ``role``'s admin role, replacing `previousAdminRole` `DEFAULT_ADMIN_ROLE` is the starting admin for all roles, despite {RoleAdminChanged} not being emitted signaling this. _Available since v3.1._"
					},
					"RoleGranted(bytes32,address,address)": {
						"details": "Emitted when `account` is granted `role`. `sender` is the account that originated the contract call, an admin role bearer except when using {AccessControl-_setupRole}."
					},
					"RoleRevoked(bytes32,address,address)": {
						"details": "Emitted when `account` is revoked `role`. `sender` is the account that originated the contract call:   - if using `revokeRole`, it is the admin role bearer   - if using `renounceRole`, it is the role bearer (i.e. `account`)"
					}
				},
				"kind": "dev",
				"methods": {
					"burn(uint256,bytes)": {
						"params": {
							"amount": "Amount to burn"
						}
					},
					"getRoleAdmin(bytes32)": {
						"details": "Returns the admin role that controls `role`. See {grantRole} and {revokeRole}. To change a role's admin, use {_setRoleAdmin}."
					},
					"grantRole(bytes32,address)": {
						"details": "Grants `role` to `account`. If `account` had not been already granted `role`, emits a {RoleGranted} event. Requirements: - the caller must have ``role``'s admin role. May emit a {RoleGranted} event."
					},
					"hasRole(bytes32,address)": {
						"details": "Returns `true` if `account` has been granted `role`."
					},
					"initialize(address,string,string,uint256,address,bytes)": {
						"details": "We MUST mint here, there is no other way to mint tokens",
						"params": {
							"factory": "Super Token factory for initialization",
							"initialSupply": "Initial token supply to pre-mint",
							"name": "Name of Super Token",
							"receiver": "Receiver of pre-mint",
							"symbol": "Symbol of Super Token",
							"userData": "Arbitrary user data for pre-mint"
						}
					},
					"initializeProxy(address)": {
						"details": "Called by the SuperTokenFactory contract on upgrade",
						"params": {
							"initialAddress": "logic contract address"
						}
					},
					"mint(address,uint256,bytes)": {
						"params": {
							"amount": "Amount to mint",
							"receiver": "Receiver of minted tokens"
						}
					},
					"renounceRole(bytes32,address)": {
						"details": "Revokes `role` from the calling account. Roles are often managed via {grantRole} and {revokeRole}: this function's purpose is to provide a mechanism for accounts to lose their privileges if they are compromised (such as when a trusted device is misplaced). If the calling account had been revoked `role`, emits a {RoleRevoked} event. Requirements: - the caller must be `account`. May emit a {RoleRevoked} event."
					},
					"revokeRole(bytes32,address)": {
						"details": "Revokes `role` from `account`. If `account` had been granted `role`, emits a {RoleRevoked} event. Requirements: - the caller must have ``role``'s admin role. May emit a {RoleRevoked} event."
					},
					"supportsInterface(bytes4)": {
						"details": "See {IERC165-supportsInterface}."
					}
				},
				"title": "Burnable and Mintable Pure Super Token",
				"version": 1
			},
			"evm": {
				"assembly": "    /* \"contracts/BurnMintSuperToken.sol\":328:1817  contract BurnMintSuperToken is SuperTokenBase, AccessControl {... */\n  mstore(0x40, 0x80)\n    /* \"contracts/BurnMintSuperToken.sol\":577:650  constructor() {... */\n  callvalue\n  dup1\n  iszero\n  tag_1\n  jumpi\n  0x00\n  dup1\n  revert\ntag_1:\n  pop\n    /* \"contracts/BurnMintSuperToken.sol\":601:643  _setupRole(DEFAULT_ADMIN_ROLE, msg.sender) */\n  tag_4\n    /* \"@openzeppelin/contracts/access/AccessControl.sol\":2072:2076  0x00 */\n  0x00\n    /* \"contracts/BurnMintSuperToken.sol\":612:630  DEFAULT_ADMIN_ROLE */\n  dup1\n  shl\n    /* \"contracts/BurnMintSuperToken.sol\":632:642  msg.sender */\n  caller\n    /* \"contracts/BurnMintSuperToken.sol\":601:611  _setupRole */\n  shl(0x20, tag_5)\n    /* \"contracts/BurnMintSuperToken.sol\":601:643  _setupRole(DEFAULT_ADMIN_ROLE, msg.sender) */\n  0x20\n  shr\n  jump\t// in\ntag_4:\n    /* \"contracts/BurnMintSuperToken.sol\":328:1817  contract BurnMintSuperToken is SuperTokenBase, AccessControl {... */\n  jump(tag_6)\n    /* \"@openzeppelin/contracts/access/AccessControl.sol\":6811:6921  function _setupRole(bytes32 role, address account) internal virtual {... */\ntag_5:\n    /* \"@openzeppelin/contracts/access/AccessControl.sol\":6889:6914  _grantRole(role, account) */\n  tag_8\n    /* \"@openzeppelin/contracts/access/AccessControl.sol\":6900:6904  role */\n  dup3\n    /* \"@openzeppelin/contracts/access/AccessControl.sol\":6906:6913  account */\n  dup3\n    /* \"@openzeppelin/contracts/access/AccessControl.sol\":6889:6899  _grantRole */\n  shl(0x20, tag_9)\n    /* \"@openzeppelin/contracts/access/AccessControl.sol\":6889:6914  _grantRole(role, account) */\n  0x20\n  shr\n  jump\t// in\ntag_8:\n    /* \"@openzeppelin/contracts/access/AccessControl.sol\":6811:6921  function _setupRole(bytes32 role, address account) internal virtual {... */\n  pop\n  pop\n  jump\t// out\n    /* \"@openzeppelin/contracts/access/AccessControl.sol\":7461:7694  function _grantRole(bytes32 role, address account) internal virtual {... */\ntag_9:\n    /* \"@openzeppelin/contracts/access/AccessControl.sol\":7544:7566  hasRole(role, account) */\n  tag_11\n    /* \"@openzeppelin/contracts/access/AccessControl.sol\":7552:7556  role */\n  dup3\n    /* \"@openzeppelin/contracts/access/AccessControl.sol\":7558:7565  account */\n  dup3\n    /* \"@openzeppelin/contracts/access/AccessControl.sol\":7544:7551  hasRole */\n  shl(0x20, tag_12)\n    /* \"@openzeppelin/contracts/access/AccessControl.sol\":7544:7566  hasRole(role, account) */\n  0x20\n  shr\n  jump\t// in\ntag_11:\n    /* \"@openzeppelin/contracts/access/AccessControl.sol\":7539:7688  if (!hasRole(role, account)) {... */\n  tag_13\n  jumpi\n    /* \"@openzeppelin/contracts/access/AccessControl.sol\":7614:7618  true */\n  0x01\n    /* \"@openzeppelin/contracts/access/AccessControl.sol\":7582:7588  _roles */\n  0x20\n    /* \"@openzeppelin/contracts/access/AccessControl.sol\":7582:7594  _roles[role] */\n  0x00\n    /* \"@openzeppelin/contracts/access/AccessControl.sol\":7589:7593  role */\n  dup5\n    /* \"@openzeppelin/contracts/access/AccessControl.sol\":7582:7594  _roles[role] */\n  dup2\n  mstore\n  0x20\n  add\n  swap1\n  dup2\n  mstore\n  0x20\n  add\n  0x00\n  keccak256\n    /* \"@openzeppelin/contracts/access/AccessControl.sol\":7582:7602  _roles[role].members */\n  0x00\n  add\n    /* \"@openzeppelin/contracts/access/AccessControl.sol\":7582:7611  _roles[role].members[account] */\n  0x00\n    /* \"@openzeppelin/contracts/access/AccessControl.sol\":7603:7610  account */\n  dup4\n    /* \"@openzeppelin/contracts/access/AccessControl.sol\":7582:7611  _roles[role].members[account] */\n  0xffffffffffffffffffffffffffffffffffffffff\n  and\n  0xffffffffffffffffffffffffffffffffffffffff\n  and\n  dup2\n  mstore\n  0x20\n  add\n  swap1\n  dup2\n  mstore\n  0x20\n  add\n  0x00\n  keccak256\n  0x00\n    /* \"@openzeppelin/contracts/access/AccessControl.sol\":7582:7618  _roles[role].members[account] = true */\n  0x0100\n  exp\n  dup2\n  sload\n  dup2\n  0xff\n  mul\n  not\n  and\n  swap1\n  dup4\n  iszero\n  iszero\n  mul\n  or\n  swap1\n  sstore\n  pop\n    /* \"@openzeppelin/contracts/access/AccessControl.sol\":7664:7676  _msgSender() */\n  tag_14\n    /* \"@openzeppelin/contracts/access/AccessControl.sol\":7664:7674  _msgSender */\n  shl(0x20, tag_15)\n    /* \"@openzeppelin/contracts/access/AccessControl.sol\":7664:7676  _msgSender() */\n  0x20\n  shr\n  jump\t// in\ntag_14:\n    /* \"@openzeppelin/contracts/access/AccessControl.sol\":7637:7677  RoleGranted(role, account, _msgSender()) */\n  0xffffffffffffffffffffffffffffffffffffffff\n  and\n    /* \"@openzeppelin/contracts/access/AccessControl.sol\":7655:7662  account */\n  dup2\n    /* \"@openzeppelin/contracts/access/AccessControl.sol\":7637:7677  RoleGranted(role, account, _msgSender()) */\n  0xffffffffffffffffffffffffffffffffffffffff\n  and\n    /* \"@openzeppelin/contracts/access/AccessControl.sol\":7649:7653  role */\n  dup4\n    /* \"@openzeppelin/contracts/access/AccessControl.sol\":7637:7677  RoleGranted(role, account, _msgSender()) */\n  0x2f8788117e7eff1d82e926ec794901d17c78024a50270940304540a733656f0d\n  mload(0x40)\n  mload(0x40)\n  dup1\n  swap2\n  sub\n  swap1\n  log4\n    /* \"@openzeppelin/contracts/access/AccessControl.sol\":7539:7688  if (!hasRole(role, account)) {... */\ntag_13:\n    /* \"@openzeppelin/contracts/access/AccessControl.sol\":7461:7694  function _grantRole(bytes32 role, address account) internal virtual {... */\n  pop\n  pop\n  jump\t// out\n    /* \"@openzeppelin/contracts/access/AccessControl.sol\":2895:3040  function hasRole(bytes32 role, address account) public view virtual override returns (bool) {... */\ntag_12:\n    /* \"@openzeppelin/contracts/access/AccessControl.sol\":2981:2985  bool */\n  0x00\n    /* \"@openzeppelin/contracts/access/AccessControl.sol\":3004:3010  _roles */\n  0x20\n    /* \"@openzeppelin/contracts/access/AccessControl.sol\":3004:3016  _roles[role] */\n  0x00\n    /* \"@openzeppelin/contracts/access/AccessControl.sol\":3011:3015  role */\n  dup5\n    /* \"@openzeppelin/contracts/access/AccessControl.sol\":3004:3016  _roles[role] */\n  dup2\n  mstore\n  0x20\n  add\n  swap1\n  dup2\n  mstore\n  0x20\n  add\n  0x00\n  keccak256\n    /* \"@openzeppelin/contracts/access/AccessControl.sol\":3004:3024  _roles[role].members */\n  0x00\n  add\n    /* \"@openzeppelin/contracts/access/AccessControl.sol\":3004:3033  _roles[role].members[account] */\n  0x00\n    /* \"@openzeppelin/contracts/access/AccessControl.sol\":3025:3032  account */\n  dup4\n    /* \"@openzeppelin/contracts/access/AccessControl.sol\":3004:3033  _roles[role].members[account] */\n  0xffffffffffffffffffffffffffffffffffffffff\n  and\n  0xffffffffffffffffffffffffffffffffffffffff\n  and\n  dup2\n  mstore\n  0x20\n  add\n  swap1\n  dup2\n  mstore\n  0x20\n  add\n  0x00\n  keccak256\n  0x00\n  swap1\n  sload\n  swap1\n  0x0100\n  exp\n  swap1\n  div\n  0xff\n  and\n    /* \"@openzeppelin/contracts/access/AccessControl.sol\":2997:3033  return _roles[role].members[account] */\n  swap1\n  pop\n    /* \"@openzeppelin/contracts/access/AccessControl.sol\":2895:3040  function hasRole(bytes32 role, address account) public view virtual override returns (bool) {... */\n  swap3\n  swap2\n  pop\n  pop\n  jump\t// out\n    /* \"@openzeppelin/contracts/utils/Context.sol\":640:736  function _msgSender() internal view virtual returns (address) {... */\ntag_15:\n    /* \"@openzeppelin/contracts/utils/Context.sol\":693:700  address */\n  0x00\n    /* \"@openzeppelin/contracts/utils/Context.sol\":719:729  msg.sender */\n  caller\n    /* \"@openzeppelin/contracts/utils/Context.sol\":712:729  return msg.sender */\n  swap1\n  pop\n    /* \"@openzeppelin/contracts/utils/Context.sol\":640:736  function _msgSender() internal view virtual returns (address) {... */\n  swap1\n  jump\t// out\n    /* \"contracts/BurnMintSuperToken.sol\":328:1817  contract BurnMintSuperToken is SuperTokenBase, AccessControl {... */\ntag_6:\n  dataSize(sub_0)\n  dup1\n  dataOffset(sub_0)\n  0x00\n  codecopy\n  0x00\n  return\nstop\n\nsub_0: assembly {\n        /* \"contracts/BurnMintSuperToken.sol\":328:1817  contract BurnMintSuperToken is SuperTokenBase, AccessControl {... */\n      mstore(0x40, 0x80)\n      jumpi(tag_1, lt(calldatasize, 0x04))\n      shr(0xe0, calldataload(0x00))\n      dup1\n      0x91d14854\n      gt\n      tag_16\n      jumpi\n      dup1\n      0xa6a05598\n      gt\n      tag_17\n      jumpi\n      dup1\n      0xa6a05598\n      eq\n      tag_12\n      jumpi\n      dup1\n      0xd5391393\n      eq\n      tag_13\n      jumpi\n      dup1\n      0xd547741f\n      eq\n      tag_14\n      jumpi\n      dup1\n      0xfe9d9303\n      eq\n      tag_15\n      jumpi\n      jump(tag_2)\n    tag_17:\n      dup1\n      0x91d14854\n      eq\n      tag_9\n      jumpi\n      dup1\n      0x94d008ef\n      eq\n      tag_10\n      jumpi\n      dup1\n      0xa217fddf\n      eq\n      tag_11\n      jumpi\n      jump(tag_2)\n    tag_16:\n      dup1\n      0x01ffc9a7\n      eq\n      tag_3\n      jumpi\n      dup1\n      0x248a9ca3\n      eq\n      tag_4\n      jumpi\n      dup1\n      0x282c51f3\n      eq\n      tag_5\n      jumpi\n      dup1\n      0x2f2ff15d\n      eq\n      tag_6\n      jumpi\n      dup1\n      0x36568abe\n      eq\n      tag_7\n      jumpi\n      dup1\n      0x4a0687ef\n      eq\n      tag_8\n      jumpi\n      jump(tag_2)\n    tag_1:\n      jumpi(tag_2, calldatasize)\n        /* \"@openzeppelin/contracts/proxy/Proxy.sol\":2898:2909  _fallback() */\n      tag_20\n        /* \"@openzeppelin/contracts/proxy/Proxy.sol\":2898:2907  _fallback */\n      tag_21\n        /* \"@openzeppelin/contracts/proxy/Proxy.sol\":2898:2909  _fallback() */\n      jump\t// in\n    tag_20:\n        /* \"contracts/BurnMintSuperToken.sol\":328:1817  contract BurnMintSuperToken is SuperTokenBase, AccessControl {... */\n      stop\n    tag_2:\n        /* \"@openzeppelin/contracts/proxy/Proxy.sol\":2675:2686  _fallback() */\n      tag_24\n        /* \"@openzeppelin/contracts/proxy/Proxy.sol\":2675:2684  _fallback */\n      tag_21\n        /* \"@openzeppelin/contracts/proxy/Proxy.sol\":2675:2686  _fallback() */\n      jump\t// in\n    tag_24:\n        /* \"contracts/BurnMintSuperToken.sol\":328:1817  contract BurnMintSuperToken is SuperTokenBase, AccessControl {... */\n      stop\n        /* \"@openzeppelin/contracts/access/AccessControl.sol\":2606:2808  function supportsInterface(bytes4 interfaceId) public view virtual override returns (bool) {... */\n    tag_3:\n      callvalue\n      dup1\n      iszero\n      tag_25\n      jumpi\n      0x00\n      dup1\n      revert\n    tag_25:\n      pop\n      tag_26\n      0x04\n      dup1\n      calldatasize\n      sub\n      dup2\n      add\n      swap1\n      tag_27\n      swap2\n      swap1\n      tag_28\n      jump\t// in\n    tag_27:\n      tag_29\n      jump\t// in\n    tag_26:\n      mload(0x40)\n      tag_30\n      swap2\n      swap1\n      tag_31\n      jump\t// in\n    tag_30:\n      mload(0x40)\n      dup1\n      swap2\n      sub\n      swap1\n      return\n        /* \"@openzeppelin/contracts/access/AccessControl.sol\":4378:4507  function getRoleAdmin(bytes32 role) public view virtual override returns (bytes32) {... */\n    tag_4:\n      callvalue\n      dup1\n      iszero\n      tag_32\n      jumpi\n      0x00\n      dup1\n      revert\n    tag_32:\n      pop\n      tag_33\n      0x04\n      dup1\n      calldatasize\n      sub\n      dup2\n      add\n      swap1\n      tag_34\n      swap2\n      swap1\n      tag_35\n      jump\t// in\n    tag_34:\n      tag_36\n      jump\t// in\n    tag_33:\n      mload(0x40)\n      tag_37\n      swap2\n      swap1\n      tag_38\n      jump\t// in\n    tag_37:\n      mload(0x40)\n      dup1\n      swap2\n      sub\n      swap1\n      return\n        /* \"contracts/BurnMintSuperToken.sol\":508:570  bytes32 public constant BURNER_ROLE = keccak256(\"BURNER_ROLE\") */\n    tag_5:\n      callvalue\n      dup1\n      iszero\n      tag_39\n      jumpi\n      0x00\n      dup1\n      revert\n    tag_39:\n      pop\n      tag_40\n      tag_41\n      jump\t// in\n    tag_40:\n      mload(0x40)\n      tag_42\n      swap2\n      swap1\n      tag_38\n      jump\t// in\n    tag_42:\n      mload(0x40)\n      dup1\n      swap2\n      sub\n      swap1\n      return\n        /* \"@openzeppelin/contracts/access/AccessControl.sol\":4803:4948  function grantRole(bytes32 role, address account) public virtual override onlyRole(getRoleAdmin(role)) {... */\n    tag_6:\n      callvalue\n      dup1\n      iszero\n      tag_43\n      jumpi\n      0x00\n      dup1\n      revert\n    tag_43:\n      pop\n      tag_44\n      0x04\n      dup1\n      calldatasize\n      sub\n      dup2\n      add\n      swap1\n      tag_45\n      swap2\n      swap1\n      tag_46\n      jump\t// in\n    tag_45:\n      tag_47\n      jump\t// in\n    tag_44:\n      stop\n        /* \"@openzeppelin/contracts/access/AccessControl.sol\":5912:6126  function renounceRole(bytes32 role, address account) public virtual override {... */\n    tag_7:\n      callvalue\n      dup1\n      iszero\n      tag_48\n      jumpi\n      0x00\n      dup1\n      revert\n    tag_48:\n      pop\n      tag_49\n      0x04\n      dup1\n      calldatasize\n      sub\n      dup2\n      add\n      swap1\n      tag_50\n      swap2\n      swap1\n      tag_46\n      jump\t// in\n    tag_50:\n      tag_51\n      jump\t// in\n    tag_49:\n      stop\n        /* \"contracts/base/UUPSProxy.sol\":1049:1295  function initializeProxy(address initialAddress) external {... */\n    tag_8:\n      callvalue\n      dup1\n      iszero\n      tag_52\n      jumpi\n      0x00\n      dup1\n      revert\n    tag_52:\n      pop\n      tag_53\n      0x04\n      dup1\n      calldatasize\n      sub\n      dup2\n      add\n      swap1\n      tag_54\n      swap2\n      swap1\n      tag_55\n      jump\t// in\n    tag_54:\n      tag_56\n      jump\t// in\n    tag_53:\n      stop\n        /* \"@openzeppelin/contracts/access/AccessControl.sol\":2895:3040  function hasRole(bytes32 role, address account) public view virtual override returns (bool) {... */\n    tag_9:\n      callvalue\n      dup1\n      iszero\n      tag_57\n      jumpi\n      0x00\n      dup1\n      revert\n    tag_57:\n      pop\n      tag_58\n      0x04\n      dup1\n      calldatasize\n      sub\n      dup2\n      add\n      swap1\n      tag_59\n      swap2\n      swap1\n      tag_46\n      jump\t// in\n    tag_59:\n      tag_60\n      jump\t// in\n    tag_58:\n      mload(0x40)\n      tag_61\n      swap2\n      swap1\n      tag_31\n      jump\t// in\n    tag_61:\n      mload(0x40)\n      dup1\n      swap2\n      sub\n      swap1\n      return\n        /* \"contracts/BurnMintSuperToken.sol\":1455:1607  function mint(... */\n    tag_10:\n      callvalue\n      dup1\n      iszero\n      tag_62\n      jumpi\n      0x00\n      dup1\n      revert\n    tag_62:\n      pop\n      tag_63\n      0x04\n      dup1\n      calldatasize\n      sub\n      dup2\n      add\n      swap1\n      tag_64\n      swap2\n      swap1\n      tag_65\n      jump\t// in\n    tag_64:\n      tag_66\n      jump\t// in\n    tag_63:\n      stop\n        /* \"@openzeppelin/contracts/access/AccessControl.sol\":2027:2076  bytes32 public constant DEFAULT_ADMIN_ROLE = 0x00 */\n    tag_11:\n      callvalue\n      dup1\n      iszero\n      tag_67\n      jumpi\n      0x00\n      dup1\n      revert\n    tag_67:\n      pop\n      tag_68\n      tag_69\n      jump\t// in\n    tag_68:\n      mload(0x40)\n      tag_70\n      swap2\n      swap1\n      tag_38\n      jump\t// in\n    tag_70:\n      mload(0x40)\n      dup1\n      swap2\n      sub\n      swap1\n      return\n        /* \"contracts/BurnMintSuperToken.sol\":1064:1317  function initialize(... */\n    tag_12:\n      callvalue\n      dup1\n      iszero\n      tag_71\n      jumpi\n      0x00\n      dup1\n      revert\n    tag_71:\n      pop\n      tag_72\n      0x04\n      dup1\n      calldatasize\n      sub\n      dup2\n      add\n      swap1\n      tag_73\n      swap2\n      swap1\n      tag_74\n      jump\t// in\n    tag_73:\n      tag_75\n      jump\t// in\n    tag_72:\n      stop\n        /* \"contracts/BurnMintSuperToken.sol\":417:479  bytes32 public constant MINTER_ROLE = keccak256(\"MINTER_ROLE\") */\n    tag_13:\n      callvalue\n      dup1\n      iszero\n      tag_76\n      jumpi\n      0x00\n      dup1\n      revert\n    tag_76:\n      pop\n      tag_77\n      tag_78\n      jump\t// in\n    tag_77:\n      mload(0x40)\n      tag_79\n      swap2\n      swap1\n      tag_38\n      jump\t// in\n    tag_79:\n      mload(0x40)\n      dup1\n      swap2\n      sub\n      swap1\n      return\n        /* \"@openzeppelin/contracts/access/AccessControl.sol\":5228:5375  function revokeRole(bytes32 role, address account) public virtual override onlyRole(getRoleAdmin(role)) {... */\n    tag_14:\n      callvalue\n      dup1\n      iszero\n      tag_80\n      jumpi\n      0x00\n      dup1\n      revert\n    tag_80:\n      pop\n      tag_81\n      0x04\n      dup1\n      calldatasize\n      sub\n      dup2\n      add\n      swap1\n      tag_82\n      swap2\n      swap1\n      tag_46\n      jump\t// in\n    tag_82:\n      tag_83\n      jump\t// in\n    tag_81:\n      stop\n        /* \"contracts/BurnMintSuperToken.sol\":1683:1815  function burn(uint256 amount, bytes memory userData)... */\n    tag_15:\n      callvalue\n      dup1\n      iszero\n      tag_84\n      jumpi\n      0x00\n      dup1\n      revert\n    tag_84:\n      pop\n      tag_85\n      0x04\n      dup1\n      calldatasize\n      sub\n      dup2\n      add\n      swap1\n      tag_86\n      swap2\n      swap1\n      tag_87\n      jump\t// in\n    tag_86:\n      tag_88\n      jump\t// in\n    tag_85:\n      stop\n        /* \"@openzeppelin/contracts/proxy/Proxy.sol\":2322:2432  function _fallback() internal virtual {... */\n    tag_21:\n        /* \"@openzeppelin/contracts/proxy/Proxy.sol\":2370:2387  _beforeFallback() */\n      tag_90\n        /* \"@openzeppelin/contracts/proxy/Proxy.sol\":2370:2385  _beforeFallback */\n      tag_91\n        /* \"@openzeppelin/contracts/proxy/Proxy.sol\":2370:2387  _beforeFallback() */\n      jump\t// in\n    tag_90:\n        /* \"@openzeppelin/contracts/proxy/Proxy.sol\":2397:2425  _delegate(_implementation()) */\n      tag_92\n        /* \"@openzeppelin/contracts/proxy/Proxy.sol\":2407:2424  _implementation() */\n      tag_93\n        /* \"@openzeppelin/contracts/proxy/Proxy.sol\":2407:2422  _implementation */\n      tag_94\n        /* \"@openzeppelin/contracts/proxy/Proxy.sol\":2407:2424  _implementation() */\n      jump\t// in\n    tag_93:\n        /* \"@openzeppelin/contracts/proxy/Proxy.sol\":2397:2406  _delegate */\n      tag_95\n        /* \"@openzeppelin/contracts/proxy/Proxy.sol\":2397:2425  _delegate(_implementation()) */\n      jump\t// in\n    tag_92:\n        /* \"@openzeppelin/contracts/proxy/Proxy.sol\":2322:2432  function _fallback() internal virtual {... */\n      jump\t// out\n        /* \"@openzeppelin/contracts/access/AccessControl.sol\":2606:2808  function supportsInterface(bytes4 interfaceId) public view virtual override returns (bool) {... */\n    tag_29:\n        /* \"@openzeppelin/contracts/access/AccessControl.sol\":2691:2695  bool */\n      0x00\n        /* \"@openzeppelin/contracts/access/AccessControl.sol\":2729:2761  type(IAccessControl).interfaceId */\n      0x7965db0b00000000000000000000000000000000000000000000000000000000\n        /* \"@openzeppelin/contracts/access/AccessControl.sol\":2714:2761  interfaceId == type(IAccessControl).interfaceId */\n      not(0xffffffffffffffffffffffffffffffffffffffffffffffffffffffff)\n      and\n        /* \"@openzeppelin/contracts/access/AccessControl.sol\":2714:2725  interfaceId */\n      dup3\n        /* \"@openzeppelin/contracts/access/AccessControl.sol\":2714:2761  interfaceId == type(IAccessControl).interfaceId */\n      not(0xffffffffffffffffffffffffffffffffffffffffffffffffffffffff)\n      and\n      eq\n        /* \"@openzeppelin/contracts/access/AccessControl.sol\":2714:2801  interfaceId == type(IAccessControl).interfaceId || super.supportsInterface(interfaceId) */\n      dup1\n      tag_97\n      jumpi\n      pop\n        /* \"@openzeppelin/contracts/access/AccessControl.sol\":2765:2801  super.supportsInterface(interfaceId) */\n      tag_98\n        /* \"@openzeppelin/contracts/access/AccessControl.sol\":2789:2800  interfaceId */\n      dup3\n        /* \"@openzeppelin/contracts/access/AccessControl.sol\":2765:2788  super.supportsInterface */\n      tag_99\n        /* \"@openzeppelin/contracts/access/AccessControl.sol\":2765:2801  super.supportsInterface(interfaceId) */\n      jump\t// in\n    tag_98:\n        /* \"@openzeppelin/contracts/access/AccessControl.sol\":2714:2801  interfaceId == type(IAccessControl).interfaceId || super.supportsInterface(interfaceId) */\n    tag_97:\n        /* \"@openzeppelin/contracts/access/AccessControl.sol\":2707:2801  return interfaceId == type(IAccessControl).interfaceId || super.supportsInterface(interfaceId) */\n      swap1\n      pop\n        /* \"@openzeppelin/contracts/access/AccessControl.sol\":2606:2808  function supportsInterface(bytes4 interfaceId) public view virtual override returns (bool) {... */\n      swap2\n      swap1\n      pop\n      jump\t// out\n        /* \"@openzeppelin/contracts/access/AccessControl.sol\":4378:4507  function getRoleAdmin(bytes32 role) public view virtual override returns (bytes32) {... */\n    tag_36:\n        /* \"@openzeppelin/contracts/access/AccessControl.sol\":4452:4459  bytes32 */\n      0x00\n        /* \"@openzeppelin/contracts/access/AccessControl.sol\":4478:4484  _roles */\n      0x20\n        /* \"@openzeppelin/contracts/access/AccessControl.sol\":4478:4490  _roles[role] */\n      0x00\n        /* \"@openzeppelin/contracts/access/AccessControl.sol\":4485:4489  role */\n      dup4\n        /* \"@openzeppelin/contracts/access/AccessControl.sol\":4478:4490  _roles[role] */\n      dup2\n      mstore\n      0x20\n      add\n      swap1\n      dup2\n      mstore\n      0x20\n      add\n      0x00\n      keccak256\n        /* \"@openzeppelin/contracts/access/AccessControl.sol\":4478:4500  _roles[role].adminRole */\n      0x01\n      add\n      sload\n        /* \"@openzeppelin/contracts/access/AccessControl.sol\":4471:4500  return _roles[role].adminRole */\n      swap1\n      pop\n        /* \"@openzeppelin/contracts/access/AccessControl.sol\":4378:4507  function getRoleAdmin(bytes32 role) public view virtual override returns (bytes32) {... */\n      swap2\n      swap1\n      pop\n      jump\t// out\n        /* \"contracts/BurnMintSuperToken.sol\":508:570  bytes32 public constant BURNER_ROLE = keccak256(\"BURNER_ROLE\") */\n    tag_41:\n        /* \"contracts/BurnMintSuperToken.sol\":546:570  keccak256(\"BURNER_ROLE\") */\n      0x3c11d16cbaffd01df69ce1c404f6340ee057498f5f00246190ea54220576a848\n        /* \"contracts/BurnMintSuperToken.sol\":508:570  bytes32 public constant BURNER_ROLE = keccak256(\"BURNER_ROLE\") */\n      dup2\n      jump\t// out\n        /* \"@openzeppelin/contracts/access/AccessControl.sol\":4803:4948  function grantRole(bytes32 role, address account) public virtual override onlyRole(getRoleAdmin(role)) {... */\n    tag_47:\n        /* \"@openzeppelin/contracts/access/AccessControl.sol\":4886:4904  getRoleAdmin(role) */\n      tag_101\n        /* \"@openzeppelin/contracts/access/AccessControl.sol\":4899:4903  role */\n      dup3\n        /* \"@openzeppelin/contracts/access/AccessControl.sol\":4886:4898  getRoleAdmin */\n      tag_36\n        /* \"@openzeppelin/contracts/access/AccessControl.sol\":4886:4904  getRoleAdmin(role) */\n      jump\t// in\n    tag_101:\n        /* \"@openzeppelin/contracts/access/AccessControl.sol\":2505:2521  _checkRole(role) */\n      tag_103\n        /* \"@openzeppelin/contracts/access/AccessControl.sol\":2516:2520  role */\n      dup2\n        /* \"@openzeppelin/contracts/access/AccessControl.sol\":2505:2515  _checkRole */\n      tag_104\n        /* \"@openzeppelin/contracts/access/AccessControl.sol\":2505:2521  _checkRole(role) */\n      jump\t// in\n    tag_103:\n        /* \"@openzeppelin/contracts/access/AccessControl.sol\":4916:4941  _grantRole(role, account) */\n      tag_106\n        /* \"@openzeppelin/contracts/access/AccessControl.sol\":4927:4931  role */\n      dup4\n        /* \"@openzeppelin/contracts/access/AccessControl.sol\":4933:4940  account */\n      dup4\n        /* \"@openzeppelin/contracts/access/AccessControl.sol\":4916:4926  _grantRole */\n      tag_107\n        /* \"@openzeppelin/contracts/access/AccessControl.sol\":4916:4941  _grantRole(role, account) */\n      jump\t// in\n    tag_106:\n        /* \"@openzeppelin/contracts/access/AccessControl.sol\":4803:4948  function grantRole(bytes32 role, address account) public virtual override onlyRole(getRoleAdmin(role)) {... */\n      pop\n      pop\n      pop\n      jump\t// out\n        /* \"@openzeppelin/contracts/access/AccessControl.sol\":5912:6126  function renounceRole(bytes32 role, address account) public virtual override {... */\n    tag_51:\n        /* \"@openzeppelin/contracts/access/AccessControl.sol\":6018:6030  _msgSender() */\n      tag_109\n        /* \"@openzeppelin/contracts/access/AccessControl.sol\":6018:6028  _msgSender */\n      tag_110\n        /* \"@openzeppelin/contracts/access/AccessControl.sol\":6018:6030  _msgSender() */\n      jump\t// in\n    tag_109:\n        /* \"@openzeppelin/contracts/access/AccessControl.sol\":6007:6030  account == _msgSender() */\n      0xffffffffffffffffffffffffffffffffffffffff\n      and\n        /* \"@openzeppelin/contracts/access/AccessControl.sol\":6007:6014  account */\n      dup2\n        /* \"@openzeppelin/contracts/access/AccessControl.sol\":6007:6030  account == _msgSender() */\n      0xffffffffffffffffffffffffffffffffffffffff\n      and\n      eq\n        /* \"@openzeppelin/contracts/access/AccessControl.sol\":5999:6082  require(account == _msgSender(), \"AccessControl: can only renounce roles for self\") */\n      tag_111\n      jumpi\n      mload(0x40)\n      0x08c379a000000000000000000000000000000000000000000000000000000000\n      dup2\n      mstore\n      0x04\n      add\n      tag_112\n      swap1\n      tag_113\n      jump\t// in\n    tag_112:\n      mload(0x40)\n      dup1\n      swap2\n      sub\n      swap1\n      revert\n    tag_111:\n        /* \"@openzeppelin/contracts/access/AccessControl.sol\":6093:6119  _revokeRole(role, account) */\n      tag_114\n        /* \"@openzeppelin/contracts/access/AccessControl.sol\":6105:6109  role */\n      dup3\n        /* \"@openzeppelin/contracts/access/AccessControl.sol\":6111:6118  account */\n      dup3\n        /* \"@openzeppelin/contracts/access/AccessControl.sol\":6093:6104  _revokeRole */\n      tag_115\n        /* \"@openzeppelin/contracts/access/AccessControl.sol\":6093:6119  _revokeRole(role, account) */\n      jump\t// in\n    tag_114:\n        /* \"@openzeppelin/contracts/access/AccessControl.sol\":5912:6126  function renounceRole(bytes32 role, address account) public virtual override {... */\n      pop\n      pop\n      jump\t// out\n        /* \"contracts/base/UUPSProxy.sol\":1049:1295  function initializeProxy(address initialAddress) external {... */\n    tag_56:\n        /* \"contracts/base/UUPSProxy.sol\":1141:1142  0 */\n      0x00\n        /* \"contracts/base/UUPSProxy.sol\":1115:1143  initialAddress == address(0) */\n      0xffffffffffffffffffffffffffffffffffffffff\n      and\n        /* \"contracts/base/UUPSProxy.sol\":1115:1129  initialAddress */\n      dup2\n        /* \"contracts/base/UUPSProxy.sol\":1115:1143  initialAddress == address(0) */\n      0xffffffffffffffffffffffffffffffffffffffff\n      and\n      sub\n        /* \"contracts/base/UUPSProxy.sol\":1111:1165  if (initialAddress == address(0)) revert ZeroAddress() */\n      tag_117\n      jumpi\n        /* \"contracts/base/UUPSProxy.sol\":1152:1165  ZeroAddress() */\n      mload(0x40)\n      0xd92e233d00000000000000000000000000000000000000000000000000000000\n      dup2\n      mstore\n      0x04\n      add\n      mload(0x40)\n      dup1\n      swap2\n      sub\n      swap1\n      revert\n        /* \"contracts/base/UUPSProxy.sol\":1111:1165  if (initialAddress == address(0)) revert ZeroAddress() */\n    tag_117:\n        /* \"contracts/base/UUPSProxy.sol\":1202:1203  0 */\n      0x00\n        /* \"contracts/base/UUPSProxy.sol\":1173:1204  _implementation() != address(0) */\n      0xffffffffffffffffffffffffffffffffffffffff\n      and\n        /* \"contracts/base/UUPSProxy.sol\":1173:1190  _implementation() */\n      tag_118\n        /* \"contracts/base/UUPSProxy.sol\":1173:1188  _implementation */\n      tag_94\n        /* \"contracts/base/UUPSProxy.sol\":1173:1190  _implementation() */\n      jump\t// in\n    tag_118:\n        /* \"contracts/base/UUPSProxy.sol\":1173:1204  _implementation() != address(0) */\n      0xffffffffffffffffffffffffffffffffffffffff\n      and\n      eq\n        /* \"contracts/base/UUPSProxy.sol\":1169:1226  if (_implementation() != address(0)) revert Initialized() */\n      tag_119\n      jumpi\n        /* \"contracts/base/UUPSProxy.sol\":1213:1226  Initialized() */\n      mload(0x40)\n      0x5daa87a000000000000000000000000000000000000000000000000000000000\n      dup2\n      mstore\n      0x04\n      add\n      mload(0x40)\n      dup1\n      swap2\n      sub\n      swap1\n      revert\n        /* \"contracts/base/UUPSProxy.sol\":1169:1226  if (_implementation() != address(0)) revert Initialized() */\n    tag_119:\n        /* \"contracts/base/UUPSProxy.sol\":1273:1287  initialAddress */\n      dup1\n        /* \"contracts/base/UUPSProxy.sol\":1251:1271  _IMPLEMENTATION_SLOT */\n      0x360894a13ba1a3210667c828492db98dca3e2076cc3735a920a3ca505d382bbc\n        /* \"contracts/base/UUPSProxy.sol\":1244:1288  sstore(_IMPLEMENTATION_SLOT, initialAddress) */\n      sstore\n        /* \"contracts/base/UUPSProxy.sol\":1049:1295  function initializeProxy(address initialAddress) external {... */\n      pop\n      jump\t// out\n        /* \"@openzeppelin/contracts/access/AccessControl.sol\":2895:3040  function hasRole(bytes32 role, address account) public view virtual override returns (bool) {... */\n    tag_60:\n        /* \"@openzeppelin/contracts/access/AccessControl.sol\":2981:2985  bool */\n      0x00\n        /* \"@openzeppelin/contracts/access/AccessControl.sol\":3004:3010  _roles */\n      0x20\n        /* \"@openzeppelin/contracts/access/AccessControl.sol\":3004:3016  _roles[role] */\n      0x00\n        /* \"@openzeppelin/contracts/access/AccessControl.sol\":3011:3015  role */\n      dup5\n        /* \"@openzeppelin/contracts/access/AccessControl.sol\":3004:3016  _roles[role] */\n      dup2\n      mstore\n      0x20\n      add\n      swap1\n      dup2\n      mstore\n      0x20\n      add\n      0x00\n      keccak256\n        /* \"@openzeppelin/contracts/access/AccessControl.sol\":3004:3024  _roles[role].members */\n      0x00\n      add\n        /* \"@openzeppelin/contracts/access/AccessControl.sol\":3004:3033  _roles[role].members[account] */\n      0x00\n        /* \"@openzeppelin/contracts/access/AccessControl.sol\":3025:3032  account */\n      dup4\n        /* \"@openzeppelin/contracts/access/AccessControl.sol\":3004:3033  _roles[role].members[account] */\n      0xffffffffffffffffffffffffffffffffffffffff\n      and\n      0xffffffffffffffffffffffffffffffffffffffff\n      and\n      dup2\n      mstore\n      0x20\n      add\n      swap1\n      dup2\n      mstore\n      0x20\n      add\n      0x00\n      keccak256\n      0x00\n      swap1\n      sload\n      swap1\n      0x0100\n      exp\n      swap1\n      div\n      0xff\n      and\n        /* \"@openzeppelin/contracts/access/AccessControl.sol\":2997:3033  return _roles[role].members[account] */\n      swap1\n      pop\n        /* \"@openzeppelin/contracts/access/AccessControl.sol\":2895:3040  function hasRole(bytes32 role, address account) public view virtual override returns (bool) {... */\n      swap3\n      swap2\n      pop\n      pop\n      jump\t// out\n        /* \"contracts/BurnMintSuperToken.sol\":1455:1607  function mint(... */\n    tag_66:\n        /* \"contracts/BurnMintSuperToken.sol\":455:479  keccak256(\"MINTER_ROLE\") */\n      0x9f2df0fed2c77648de5860a4cc508cd0818c85b8b8a1ab4ceeef8d981c8956a6\n        /* \"@openzeppelin/contracts/access/AccessControl.sol\":2505:2521  _checkRole(role) */\n      tag_122\n        /* \"@openzeppelin/contracts/access/AccessControl.sol\":2516:2520  role */\n      dup2\n        /* \"@openzeppelin/contracts/access/AccessControl.sol\":2505:2515  _checkRole */\n      tag_104\n        /* \"@openzeppelin/contracts/access/AccessControl.sol\":2505:2521  _checkRole(role) */\n      jump\t// in\n    tag_122:\n        /* \"contracts/BurnMintSuperToken.sol\":1570:1603  _mint(receiver, amount, userData) */\n      tag_124\n        /* \"contracts/BurnMintSuperToken.sol\":1576:1584  receiver */\n      dup5\n        /* \"contracts/BurnMintSuperToken.sol\":1586:1592  amount */\n      dup5\n        /* \"contracts/BurnMintSuperToken.sol\":1594:1602  userData */\n      dup5\n        /* \"contracts/BurnMintSuperToken.sol\":1570:1575  _mint */\n      tag_125\n        /* \"contracts/BurnMintSuperToken.sol\":1570:1603  _mint(receiver, amount, userData) */\n      jump\t// in\n    tag_124:\n        /* \"contracts/BurnMintSuperToken.sol\":1455:1607  function mint(... */\n      pop\n      pop\n      pop\n      pop\n      jump\t// out\n        /* \"@openzeppelin/contracts/access/AccessControl.sol\":2027:2076  bytes32 public constant DEFAULT_ADMIN_ROLE = 0x00 */\n    tag_69:\n        /* \"@openzeppelin/contracts/access/AccessControl.sol\":2072:2076  0x00 */\n      0x00\n        /* \"@openzeppelin/contracts/access/AccessControl.sol\":2027:2076  bytes32 public constant DEFAULT_ADMIN_ROLE = 0x00 */\n      dup1\n      shl\n      dup2\n      jump\t// out\n        /* \"contracts/BurnMintSuperToken.sol\":1064:1317  function initialize(... */\n    tag_75:\n        /* \"contracts/BurnMintSuperToken.sol\":1235:1269  _initialize(factory, name, symbol) */\n      tag_127\n        /* \"contracts/BurnMintSuperToken.sol\":1247:1254  factory */\n      dup7\n        /* \"contracts/BurnMintSuperToken.sol\":1256:1260  name */\n      dup7\n        /* \"contracts/BurnMintSuperToken.sol\":1262:1268  symbol */\n      dup7\n        /* \"contracts/BurnMintSuperToken.sol\":1235:1246  _initialize */\n      tag_128\n        /* \"contracts/BurnMintSuperToken.sol\":1235:1269  _initialize(factory, name, symbol) */\n      jump\t// in\n    tag_127:\n        /* \"contracts/BurnMintSuperToken.sol\":1273:1313  _mint(receiver, initialSupply, userData) */\n      tag_129\n        /* \"contracts/BurnMintSuperToken.sol\":1279:1287  receiver */\n      dup3\n        /* \"contracts/BurnMintSuperToken.sol\":1289:1302  initialSupply */\n      dup5\n        /* \"contracts/BurnMintSuperToken.sol\":1304:1312  userData */\n      dup4\n        /* \"contracts/BurnMintSuperToken.sol\":1273:1278  _mint */\n      tag_125\n        /* \"contracts/BurnMintSuperToken.sol\":1273:1313  _mint(receiver, initialSupply, userData) */\n      jump\t// in\n    tag_129:\n        /* \"contracts/BurnMintSuperToken.sol\":1064:1317  function initialize(... */\n      pop\n      pop\n      pop\n      pop\n      pop\n      pop\n      jump\t// out\n        /* \"contracts/BurnMintSuperToken.sol\":417:479  bytes32 public constant MINTER_ROLE = keccak256(\"MINTER_ROLE\") */\n    tag_78:\n        /* \"contracts/BurnMintSuperToken.sol\":455:479  keccak256(\"MINTER_ROLE\") */\n      0x9f2df0fed2c77648de5860a4cc508cd0818c85b8b8a1ab4ceeef8d981c8956a6\n        /* \"contracts/BurnMintSuperToken.sol\":417:479  bytes32 public constant MINTER_ROLE = keccak256(\"MINTER_ROLE\") */\n      dup2\n      jump\t// out\n        /* \"@openzeppelin/contracts/access/AccessControl.sol\":5228:5375  function revokeRole(bytes32 role, address account) public virtual override onlyRole(getRoleAdmin(role)) {... */\n    tag_83:\n        /* \"@openzeppelin/contracts/access/AccessControl.sol\":5312:5330  getRoleAdmin(role) */\n      tag_130\n        /* \"@openzeppelin/contracts/access/AccessControl.sol\":5325:5329  role */\n      dup3\n        /* \"@openzeppelin/contracts/access/AccessControl.sol\":5312:5324  getRoleAdmin */\n      tag_36\n        /* \"@openzeppelin/contracts/access/AccessControl.sol\":5312:5330  getRoleAdmin(role) */\n      jump\t// in\n    tag_130:\n        /* \"@openzeppelin/contracts/access/AccessControl.sol\":2505:2521  _checkRole(role) */\n      tag_132\n        /* \"@openzeppelin/contracts/access/AccessControl.sol\":2516:2520  role */\n      dup2\n        /* \"@openzeppelin/contracts/access/AccessControl.sol\":2505:2515  _checkRole */\n      tag_104\n        /* \"@openzeppelin/contracts/access/AccessControl.sol\":2505:2521  _checkRole(role) */\n      jump\t// in\n    tag_132:\n        /* \"@openzeppelin/contracts/access/AccessControl.sol\":5342:5368  _revokeRole(role, account) */\n      tag_134\n        /* \"@openzeppelin/contracts/access/AccessControl.sol\":5354:5358  role */\n      dup4\n        /* \"@openzeppelin/contracts/access/AccessControl.sol\":5360:5367  account */\n      dup4\n        /* \"@openzeppelin/contracts/access/AccessControl.sol\":5342:5353  _revokeRole */\n      tag_115\n        /* \"@openzeppelin/contracts/access/AccessControl.sol\":5342:5368  _revokeRole(role, account) */\n      jump\t// in\n    tag_134:\n        /* \"@openzeppelin/contracts/access/AccessControl.sol\":5228:5375  function revokeRole(bytes32 role, address account) public virtual override onlyRole(getRoleAdmin(role)) {... */\n      pop\n      pop\n      pop\n      jump\t// out\n        /* \"contracts/BurnMintSuperToken.sol\":1683:1815  function burn(uint256 amount, bytes memory userData)... */\n    tag_88:\n        /* \"contracts/BurnMintSuperToken.sol\":546:570  keccak256(\"BURNER_ROLE\") */\n      0x3c11d16cbaffd01df69ce1c404f6340ee057498f5f00246190ea54220576a848\n        /* \"@openzeppelin/contracts/access/AccessControl.sol\":2505:2521  _checkRole(role) */\n      tag_136\n        /* \"@openzeppelin/contracts/access/AccessControl.sol\":2516:2520  role */\n      dup2\n        /* \"@openzeppelin/contracts/access/AccessControl.sol\":2505:2515  _checkRole */\n      tag_104\n        /* \"@openzeppelin/contracts/access/AccessControl.sol\":2505:2521  _checkRole(role) */\n      jump\t// in\n    tag_136:\n        /* \"contracts/BurnMintSuperToken.sol\":1776:1811  _burn(msg.sender, amount, userData) */\n      tag_138\n        /* \"contracts/BurnMintSuperToken.sol\":1782:1792  msg.sender */\n      caller\n        /* \"contracts/BurnMintSuperToken.sol\":1794:1800  amount */\n      dup5\n        /* \"contracts/BurnMintSuperToken.sol\":1802:1810  userData */\n      dup5\n        /* \"contracts/BurnMintSuperToken.sol\":1776:1781  _burn */\n      tag_139\n        /* \"contracts/BurnMintSuperToken.sol\":1776:1811  _burn(msg.sender, amount, userData) */\n      jump\t// in\n    tag_138:\n        /* \"contracts/BurnMintSuperToken.sol\":1683:1815  function burn(uint256 amount, bytes memory userData)... */\n      pop\n      pop\n      pop\n      jump\t// out\n        /* \"@openzeppelin/contracts/proxy/Proxy.sol\":3198:3244  function _beforeFallback() internal virtual {} */\n    tag_91:\n      jump\t// out\n        /* \"contracts/base/UUPSProxy.sol\":1395:1547  function _implementation()... */\n    tag_94:\n        /* \"contracts/base/UUPSProxy.sol\":1472:1484  address impl */\n      0x00\n        /* \"contracts/base/UUPSProxy.sol\":1519:1539  _IMPLEMENTATION_SLOT */\n      0x360894a13ba1a3210667c828492db98dca3e2076cc3735a920a3ca505d382bbc\n        /* \"contracts/base/UUPSProxy.sol\":1513:1540  sload(_IMPLEMENTATION_SLOT) */\n      sload\n        /* \"contracts/base/UUPSProxy.sol\":1505:1540  impl := sload(_IMPLEMENTATION_SLOT) */\n      swap1\n      pop\n        /* \"contracts/base/UUPSProxy.sol\":1395:1547  function _implementation()... */\n      swap1\n      jump\t// out\n        /* \"@openzeppelin/contracts/proxy/Proxy.sol\":948:1843  function _delegate(address implementation) internal virtual {... */\n    tag_95:\n        /* \"@openzeppelin/contracts/proxy/Proxy.sol\":1286:1300  calldatasize() */\n      calldatasize\n        /* \"@openzeppelin/contracts/proxy/Proxy.sol\":1283:1284  0 */\n      0x00\n        /* \"@openzeppelin/contracts/proxy/Proxy.sol\":1280:1281  0 */\n      dup1\n        /* \"@openzeppelin/contracts/proxy/Proxy.sol\":1267:1301  calldatacopy(0, 0, calldatasize()) */\n      calldatacopy\n        /* \"@openzeppelin/contracts/proxy/Proxy.sol\":1500:1501  0 */\n      0x00\n        /* \"@openzeppelin/contracts/proxy/Proxy.sol\":1497:1498  0 */\n      dup1\n        /* \"@openzeppelin/contracts/proxy/Proxy.sol\":1481:1495  calldatasize() */\n      calldatasize\n        /* \"@openzeppelin/contracts/proxy/Proxy.sol\":1478:1479  0 */\n      0x00\n        /* \"@openzeppelin/contracts/proxy/Proxy.sol\":1462:1476  implementation */\n      dup5\n        /* \"@openzeppelin/contracts/proxy/Proxy.sol\":1455:1460  gas() */\n      gas\n        /* \"@openzeppelin/contracts/proxy/Proxy.sol\":1442:1502  delegatecall(gas(), implementation, 0, calldatasize(), 0, 0) */\n      delegatecall\n        /* \"@openzeppelin/contracts/proxy/Proxy.sol\":1576:1592  returndatasize() */\n      returndatasize\n        /* \"@openzeppelin/contracts/proxy/Proxy.sol\":1573:1574  0 */\n      0x00\n        /* \"@openzeppelin/contracts/proxy/Proxy.sol\":1570:1571  0 */\n      dup1\n        /* \"@openzeppelin/contracts/proxy/Proxy.sol\":1555:1593  returndatacopy(0, 0, returndatasize()) */\n      returndatacopy\n        /* \"@openzeppelin/contracts/proxy/Proxy.sol\":1614:1620  result */\n      dup1\n        /* \"@openzeppelin/contracts/proxy/Proxy.sol\":1686:1687  0 */\n      0x00\n        /* \"@openzeppelin/contracts/proxy/Proxy.sol\":1681:1747  case 0 {... */\n      dup2\n      eq\n      tag_144\n      jumpi\n        /* \"@openzeppelin/contracts/proxy/Proxy.sol\":1796:1812  returndatasize() */\n      returndatasize\n        /* \"@openzeppelin/contracts/proxy/Proxy.sol\":1793:1794  0 */\n      0x00\n        /* \"@openzeppelin/contracts/proxy/Proxy.sol\":1786:1813  return(0, returndatasize()) */\n      return\n        /* \"@openzeppelin/contracts/proxy/Proxy.sol\":1681:1747  case 0 {... */\n    tag_144:\n        /* \"@openzeppelin/contracts/proxy/Proxy.sol\":1716:1732  returndatasize() */\n      returndatasize\n        /* \"@openzeppelin/contracts/proxy/Proxy.sol\":1713:1714  0 */\n      0x00\n        /* \"@openzeppelin/contracts/proxy/Proxy.sol\":1706:1733  revert(0, returndatasize()) */\n      revert\n        /* \"@openzeppelin/contracts/utils/introspection/ERC165.sol\":829:984  function supportsInterface(bytes4 interfaceId) public view virtual override returns (bool) {... */\n    tag_99:\n        /* \"@openzeppelin/contracts/utils/introspection/ERC165.sol\":914:918  bool */\n      0x00\n        /* \"@openzeppelin/contracts/utils/introspection/ERC165.sol\":952:977  type(IERC165).interfaceId */\n      0x01ffc9a700000000000000000000000000000000000000000000000000000000\n        /* \"@openzeppelin/contracts/utils/introspection/ERC165.sol\":937:977  interfaceId == type(IERC165).interfaceId */\n      not(0xffffffffffffffffffffffffffffffffffffffffffffffffffffffff)\n      and\n        /* \"@openzeppelin/contracts/utils/introspection/ERC165.sol\":937:948  interfaceId */\n      dup3\n        /* \"@openzeppelin/contracts/utils/introspection/ERC165.sol\":937:977  interfaceId == type(IERC165).interfaceId */\n      not(0xffffffffffffffffffffffffffffffffffffffffffffffffffffffff)\n      and\n      eq\n        /* \"@openzeppelin/contracts/utils/introspection/ERC165.sol\":930:977  return interfaceId == type(IERC165).interfaceId */\n      swap1\n      pop\n        /* \"@openzeppelin/contracts/utils/introspection/ERC165.sol\":829:984  function supportsInterface(bytes4 interfaceId) public view virtual override returns (bool) {... */\n      swap2\n      swap1\n      pop\n      jump\t// out\n        /* \"@openzeppelin/contracts/access/AccessControl.sol\":3334:3437  function _checkRole(bytes32 role) internal view virtual {... */\n    tag_104:\n        /* \"@openzeppelin/contracts/access/AccessControl.sol\":3400:3430  _checkRole(role, _msgSender()) */\n      tag_147\n        /* \"@openzeppelin/contracts/access/AccessControl.sol\":3411:3415  role */\n      dup2\n        /* \"@openzeppelin/contracts/access/AccessControl.sol\":3417:3429  _msgSender() */\n      tag_148\n        /* \"@openzeppelin/contracts/access/AccessControl.sol\":3417:3427  _msgSender */\n      tag_110\n        /* \"@openzeppelin/contracts/access/AccessControl.sol\":3417:3429  _msgSender() */\n      jump\t// in\n    tag_148:\n        /* \"@openzeppelin/contracts/access/AccessControl.sol\":3400:3410  _checkRole */\n      tag_149\n        /* \"@openzeppelin/contracts/access/AccessControl.sol\":3400:3430  _checkRole(role, _msgSender()) */\n      jump\t// in\n    tag_147:\n        /* \"@openzeppelin/contracts/access/AccessControl.sol\":3334:3437  function _checkRole(bytes32 role) internal view virtual {... */\n      pop\n      jump\t// out\n        /* \"@openzeppelin/contracts/access/AccessControl.sol\":7461:7694  function _grantRole(bytes32 role, address account) internal virtual {... */\n    tag_107:\n        /* \"@openzeppelin/contracts/access/AccessControl.sol\":7544:7566  hasRole(role, account) */\n      tag_151\n        /* \"@openzeppelin/contracts/access/AccessControl.sol\":7552:7556  role */\n      dup3\n        /* \"@openzeppelin/contracts/access/AccessControl.sol\":7558:7565  account */\n      dup3\n        /* \"@openzeppelin/contracts/access/AccessControl.sol\":7544:7551  hasRole */\n      tag_60\n        /* \"@openzeppelin/contracts/access/AccessControl.sol\":7544:7566  hasRole(role, account) */\n      jump\t// in\n    tag_151:\n        /* \"@openzeppelin/contracts/access/AccessControl.sol\":7539:7688  if (!hasRole(role, account)) {... */\n      tag_152\n      jumpi\n        /* \"@openzeppelin/contracts/access/AccessControl.sol\":7614:7618  true */\n      0x01\n        /* \"@openzeppelin/contracts/access/AccessControl.sol\":7582:7588  _roles */\n      0x20\n        /* \"@openzeppelin/contracts/access/AccessControl.sol\":7582:7594  _roles[role] */\n      0x00\n        /* \"@openzeppelin/contracts/access/AccessControl.sol\":7589:7593  role */\n      dup5\n        /* \"@openzeppelin/contracts/access/AccessControl.sol\":7582:7594  _roles[role] */\n      dup2\n      mstore\n      0x20\n      add\n      swap1\n      dup2\n      mstore\n      0x20\n      add\n      0x00\n      keccak256\n        /* \"@openzeppelin/contracts/access/AccessControl.sol\":7582:7602  _roles[role].members */\n      0x00\n      add\n        /* \"@openzeppelin/contracts/access/AccessControl.sol\":7582:7611  _roles[role].members[account] */\n      0x00\n        /* \"@openzeppelin/contracts/access/AccessControl.sol\":7603:7610  account */\n      dup4\n        /* \"@openzeppelin/contracts/access/AccessControl.sol\":7582:7611  _roles[role].members[account] */\n      0xffffffffffffffffffffffffffffffffffffffff\n      and\n      0xffffffffffffffffffffffffffffffffffffffff\n      and\n      dup2\n      mstore\n      0x20\n      add\n      swap1\n      dup2\n      mstore\n      0x20\n      add\n      0x00\n      keccak256\n      0x00\n        /* \"@openzeppelin/contracts/access/AccessControl.sol\":7582:7618  _roles[role].members[account] = true */\n      0x0100\n      exp\n      dup2\n      sload\n      dup2\n      0xff\n      mul\n      not\n      and\n      swap1\n      dup4\n      iszero\n      iszero\n      mul\n      or\n      swap1\n      sstore\n      pop\n        /* \"@openzeppelin/contracts/access/AccessControl.sol\":7664:7676  _msgSender() */\n      tag_153\n        /* \"@openzeppelin/contracts/access/AccessControl.sol\":7664:7674  _msgSender */\n      tag_110\n        /* \"@openzeppelin/contracts/access/AccessControl.sol\":7664:7676  _msgSender() */\n      jump\t// in\n    tag_153:\n        /* \"@openzeppelin/contracts/access/AccessControl.sol\":7637:7677  RoleGranted(role, account, _msgSender()) */\n      0xffffffffffffffffffffffffffffffffffffffff\n      and\n        /* \"@openzeppelin/contracts/access/AccessControl.sol\":7655:7662  account */\n      dup2\n        /* \"@openzeppelin/contracts/access/AccessControl.sol\":7637:7677  RoleGranted(role, account, _msgSender()) */\n      0xffffffffffffffffffffffffffffffffffffffff\n      and\n        /* \"@openzeppelin/contracts/access/AccessControl.sol\":7649:7653  role */\n      dup4\n        /* \"@openzeppelin/contracts/access/AccessControl.sol\":7637:7677  RoleGranted(role, account, _msgSender()) */\n      0x2f8788117e7eff1d82e926ec794901d17c78024a50270940304540a733656f0d\n      mload(0x40)\n      mload(0x40)\n      dup1\n      swap2\n      sub\n      swap1\n      log4\n        /* \"@openzeppelin/contracts/access/AccessControl.sol\":7539:7688  if (!hasRole(role, account)) {... */\n    tag_152:\n        /* \"@openzeppelin/contracts/access/AccessControl.sol\":7461:7694  function _grantRole(bytes32 role, address account) internal virtual {... */\n      pop\n      pop\n      jump\t// out\n        /* \"@openzeppelin/contracts/utils/Context.sol\":640:736  function _msgSender() internal view virtual returns (address) {... */\n    tag_110:\n        /* \"@openzeppelin/contracts/utils/Context.sol\":693:700  address */\n      0x00\n        /* \"@openzeppelin/contracts/utils/Context.sol\":719:729  msg.sender */\n      caller\n        /* \"@openzeppelin/contracts/utils/Context.sol\":712:729  return msg.sender */\n      swap1\n      pop\n        /* \"@openzeppelin/contracts/utils/Context.sol\":640:736  function _msgSender() internal view virtual returns (address) {... */\n      swap1\n      jump\t// out\n        /* \"@openzeppelin/contracts/access/AccessControl.sol\":7865:8099  function _revokeRole(bytes32 role, address account) internal virtual {... */\n    tag_115:\n        /* \"@openzeppelin/contracts/access/AccessControl.sol\":7948:7970  hasRole(role, account) */\n      tag_156\n        /* \"@openzeppelin/contracts/access/AccessControl.sol\":7956:7960  role */\n      dup3\n        /* \"@openzeppelin/contracts/access/AccessControl.sol\":7962:7969  account */\n      dup3\n        /* \"@openzeppelin/contracts/access/AccessControl.sol\":7948:7955  hasRole */\n      tag_60\n        /* \"@openzeppelin/contracts/access/AccessControl.sol\":7948:7970  hasRole(role, account) */\n      jump\t// in\n    tag_156:\n        /* \"@openzeppelin/contracts/access/AccessControl.sol\":7944:8093  if (hasRole(role, account)) {... */\n      iszero\n      tag_157\n      jumpi\n        /* \"@openzeppelin/contracts/access/AccessControl.sol\":8018:8023  false */\n      0x00\n        /* \"@openzeppelin/contracts/access/AccessControl.sol\":7986:7992  _roles */\n      0x20\n        /* \"@openzeppelin/contracts/access/AccessControl.sol\":7986:7998  _roles[role] */\n      0x00\n        /* \"@openzeppelin/contracts/access/AccessControl.sol\":7993:7997  role */\n      dup5\n        /* \"@openzeppelin/contracts/access/AccessControl.sol\":7986:7998  _roles[role] */\n      dup2\n      mstore\n      0x20\n      add\n      swap1\n      dup2\n      mstore\n      0x20\n      add\n      0x00\n      keccak256\n        /* \"@openzeppelin/contracts/access/AccessControl.sol\":7986:8006  _roles[role].members */\n      0x00\n      add\n        /* \"@openzeppelin/contracts/access/AccessControl.sol\":7986:8015  _roles[role].members[account] */\n      0x00\n        /* \"@openzeppelin/contracts/access/AccessControl.sol\":8007:8014  account */\n      dup4\n        /* \"@openzeppelin/contracts/access/AccessControl.sol\":7986:8015  _roles[role].members[account] */\n      0xffffffffffffffffffffffffffffffffffffffff\n      and\n      0xffffffffffffffffffffffffffffffffffffffff\n      and\n      dup2\n      mstore\n      0x20\n      add\n      swap1\n      dup2\n      mstore\n      0x20\n      add\n      0x00\n      keccak256\n      0x00\n        /* \"@openzeppelin/contracts/access/AccessControl.sol\":7986:8023  _roles[role].members[account] = false */\n      0x0100\n      exp\n      dup2\n      sload\n      dup2\n      0xff\n      mul\n      not\n      and\n      swap1\n      dup4\n      iszero\n      iszero\n      mul\n      or\n      swap1\n      sstore\n      pop\n        /* \"@openzeppelin/contracts/access/AccessControl.sol\":8069:8081  _msgSender() */\n      tag_158\n        /* \"@openzeppelin/contracts/access/AccessControl.sol\":8069:8079  _msgSender */\n      tag_110\n        /* \"@openzeppelin/contracts/access/AccessControl.sol\":8069:8081  _msgSender() */\n      jump\t// in\n    tag_158:\n        /* \"@openzeppelin/contracts/access/AccessControl.sol\":8042:8082  RoleRevoked(role, account, _msgSender()) */\n      0xffffffffffffffffffffffffffffffffffffffff\n      and\n        /* \"@openzeppelin/contracts/access/AccessControl.sol\":8060:8067  account */\n      dup2\n        /* \"@openzeppelin/contracts/access/AccessControl.sol\":8042:8082  RoleRevoked(role, account, _msgSender()) */\n      0xffffffffffffffffffffffffffffffffffffffff\n      and\n        /* \"@openzeppelin/contracts/access/AccessControl.sol\":8054:8058  role */\n      dup4\n        /* \"@openzeppelin/contracts/access/AccessControl.sol\":8042:8082  RoleRevoked(role, account, _msgSender()) */\n      0xf6391f5c32d9c69d2a47ea670b442974b53935d1edc7fd64eb21e047a839171b\n      mload(0x40)\n      mload(0x40)\n      dup1\n      swap2\n      sub\n      swap1\n      log4\n        /* \"@openzeppelin/contracts/access/AccessControl.sol\":7944:8093  if (hasRole(role, account)) {... */\n    tag_157:\n        /* \"@openzeppelin/contracts/access/AccessControl.sol\":7865:8099  function _revokeRole(bytes32 role, address account) internal virtual {... */\n      pop\n      pop\n      jump\t// out\n        /* \"contracts/base/SuperTokenBase.sol\":1676:1826  function _mint(address account, uint256 amount, bytes memory userData) internal {... */\n    tag_125:\n        /* \"contracts/base/SuperTokenBase.sol\":1780:1784  this */\n      address\n        /* \"contracts/base/SuperTokenBase.sol\":1760:1795  ISuperToken(address(this)).selfMint */\n      0xffffffffffffffffffffffffffffffffffffffff\n      and\n      0xc68d4283\n        /* \"contracts/base/SuperTokenBase.sol\":1796:1803  account */\n      dup5\n        /* \"contracts/base/SuperTokenBase.sol\":1805:1811  amount */\n      dup5\n        /* \"contracts/base/SuperTokenBase.sol\":1813:1821  userData */\n      dup5\n        /* \"contracts/base/SuperTokenBase.sol\":1760:1822  ISuperToken(address(this)).selfMint(account, amount, userData) */\n      mload(0x40)\n      dup5\n      0xffffffff\n      and\n      0xe0\n      shl\n      dup2\n      mstore\n      0x04\n      add\n      tag_160\n      swap4\n      swap3\n      swap2\n      swap1\n      tag_161\n      jump\t// in\n    tag_160:\n      0x00\n      mload(0x40)\n      dup1\n      dup4\n      sub\n      dup2\n      0x00\n      dup8\n      dup1\n      extcodesize\n      iszero\n      dup1\n      iszero\n      tag_162\n      jumpi\n      0x00\n      dup1\n      revert\n    tag_162:\n      pop\n      gas\n      call\n      iszero\n      dup1\n      iszero\n      tag_164\n      jumpi\n      returndatasize\n      0x00\n      dup1\n      returndatacopy\n      revert(0x00, returndatasize)\n    tag_164:\n      pop\n      pop\n      pop\n      pop\n        /* \"contracts/base/SuperTokenBase.sol\":1676:1826  function _mint(address account, uint256 amount, bytes memory userData) internal {... */\n      pop\n      pop\n      pop\n      jump\t// out\n        /* \"contracts/base/SuperTokenBase.sol\":1021:1266  function _initialize(address factory, string memory name, string memory symbol) internal {... */\n    tag_128:\n        /* \"contracts/base/SuperTokenBase.sol\":1133:1140  factory */\n      dup3\n        /* \"contracts/base/SuperTokenBase.sol\":1114:1168  ISuperTokenFactory(factory).initializeCustomSuperToken */\n      0xffffffffffffffffffffffffffffffffffffffff\n      and\n      0xd412d344\n        /* \"contracts/base/SuperTokenBase.sol\":1177:1181  this */\n      address\n        /* \"contracts/base/SuperTokenBase.sol\":1114:1183  ISuperTokenFactory(factory).initializeCustomSuperToken(address(this)) */\n      mload(0x40)\n      dup3\n      0xffffffff\n      and\n      0xe0\n      shl\n      dup2\n      mstore\n      0x04\n      add\n      tag_166\n      swap2\n      swap1\n      tag_167\n      jump\t// in\n    tag_166:\n      0x00\n      mload(0x40)\n      dup1\n      dup4\n      sub\n      dup2\n      0x00\n      dup8\n      dup1\n      extcodesize\n      iszero\n      dup1\n      iszero\n      tag_168\n      jumpi\n      0x00\n      dup1\n      revert\n    tag_168:\n      pop\n      gas\n      call\n      iszero\n      dup1\n      iszero\n      tag_170\n      jumpi\n      returndatasize\n      0x00\n      dup1\n      returndatacopy\n      revert(0x00, returndatasize)\n    tag_170:\n      pop\n      pop\n      pop\n      pop\n        /* \"contracts/base/SuperTokenBase.sol\":1207:1211  this */\n      address\n        /* \"contracts/base/SuperTokenBase.sol\":1187:1224  ISuperToken(address(this)).initialize */\n      0xffffffffffffffffffffffffffffffffffffffff\n      and\n      0x42fe0980\n        /* \"contracts/base/SuperTokenBase.sol\":1240:1241  0 */\n      0x00\n        /* \"contracts/base/SuperTokenBase.sol\":1245:1247  18 */\n      0x12\n        /* \"contracts/base/SuperTokenBase.sol\":1249:1253  name */\n      dup6\n        /* \"contracts/base/SuperTokenBase.sol\":1255:1261  symbol */\n      dup6\n        /* \"contracts/base/SuperTokenBase.sol\":1187:1262  ISuperToken(address(this)).initialize(IERC20(address(0)), 18, name, symbol) */\n      mload(0x40)\n      dup6\n      0xffffffff\n      and\n      0xe0\n      shl\n      dup2\n      mstore\n      0x04\n      add\n      tag_171\n      swap5\n      swap4\n      swap3\n      swap2\n      swap1\n      tag_172\n      jump\t// in\n    tag_171:\n      0x00\n      mload(0x40)\n      dup1\n      dup4\n      sub\n      dup2\n      0x00\n      dup8\n      dup1\n      extcodesize\n      iszero\n      dup1\n      iszero\n      tag_173\n      jumpi\n      0x00\n      dup1\n      revert\n    tag_173:\n      pop\n      gas\n      call\n      iszero\n      dup1\n      iszero\n      tag_175\n      jumpi\n      returndatasize\n      0x00\n      dup1\n      returndatacopy\n      revert(0x00, returndatasize)\n    tag_175:\n      pop\n      pop\n      pop\n      pop\n        /* \"contracts/base/SuperTokenBase.sol\":1021:1266  function _initialize(address factory, string memory name, string memory symbol) internal {... */\n      pop\n      pop\n      pop\n      jump\t// out\n        /* \"contracts/base/SuperTokenBase.sol\":2055:2199  function _burn(address from, uint256 amount, bytes memory userData) internal {... */\n    tag_139:\n        /* \"contracts/base/SuperTokenBase.sol\":2156:2160  this */\n      address\n        /* \"contracts/base/SuperTokenBase.sol\":2136:2171  ISuperToken(address(this)).selfBurn */\n      0xffffffffffffffffffffffffffffffffffffffff\n      and\n      0x9d876741\n        /* \"contracts/base/SuperTokenBase.sol\":2172:2176  from */\n      dup5\n        /* \"contracts/base/SuperTokenBase.sol\":2178:2184  amount */\n      dup5\n        /* \"contracts/base/SuperTokenBase.sol\":2186:2194  userData */\n      dup5\n        /* \"contracts/base/SuperTokenBase.sol\":2136:2195  ISuperToken(address(this)).selfBurn(from, amount, userData) */\n      mload(0x40)\n      dup5\n      0xffffffff\n      and\n      0xe0\n      shl\n      dup2\n      mstore\n      0x04\n      add\n      tag_177\n      swap4\n      swap3\n      swap2\n      swap1\n      tag_161\n      jump\t// in\n    tag_177:\n      0x00\n      mload(0x40)\n      dup1\n      dup4\n      sub\n      dup2\n      0x00\n      dup8\n      dup1\n      extcodesize\n      iszero\n      dup1\n      iszero\n      tag_178\n      jumpi\n      0x00\n      dup1\n      revert\n    tag_178:\n      pop\n      gas\n      call\n      iszero\n      dup1\n      iszero\n      tag_180\n      jumpi\n      returndatasize\n      0x00\n      dup1\n      returndatacopy\n      revert(0x00, returndatasize)\n    tag_180:\n      pop\n      pop\n      pop\n      pop\n        /* \"contracts/base/SuperTokenBase.sol\":2055:2199  function _burn(address from, uint256 amount, bytes memory userData) internal {... */\n      pop\n      pop\n      pop\n      jump\t// out\n        /* \"@openzeppelin/contracts/access/AccessControl.sol\":3718:4197  function _checkRole(bytes32 role, address account) internal view virtual {... */\n    tag_149:\n        /* \"@openzeppelin/contracts/access/AccessControl.sol\":3806:3828  hasRole(role, account) */\n      tag_182\n        /* \"@openzeppelin/contracts/access/AccessControl.sol\":3814:3818  role */\n      dup3\n        /* \"@openzeppelin/contracts/access/AccessControl.sol\":3820:3827  account */\n      dup3\n        /* \"@openzeppelin/contracts/access/AccessControl.sol\":3806:3813  hasRole */\n      tag_60\n        /* \"@openzeppelin/contracts/access/AccessControl.sol\":3806:3828  hasRole(role, account) */\n      jump\t// in\n    tag_182:\n        /* \"@openzeppelin/contracts/access/AccessControl.sol\":3801:4191  if (!hasRole(role, account)) {... */\n      tag_183\n      jumpi\n        /* \"@openzeppelin/contracts/access/AccessControl.sol\":3989:4017  Strings.toHexString(account) */\n      tag_184\n        /* \"@openzeppelin/contracts/access/AccessControl.sol\":4009:4016  account */\n      dup2\n        /* \"@openzeppelin/contracts/access/AccessControl.sol\":3989:4008  Strings.toHexString */\n      tag_185\n        /* \"@openzeppelin/contracts/access/AccessControl.sol\":3989:4017  Strings.toHexString(account) */\n      jump\t// in\n    tag_184:\n        /* \"@openzeppelin/contracts/access/AccessControl.sol\":4088:4126  Strings.toHexString(uint256(role), 32) */\n      tag_186\n        /* \"@openzeppelin/contracts/access/AccessControl.sol\":4116:4120  role */\n      dup4\n        /* \"@openzeppelin/contracts/access/AccessControl.sol\":4108:4121  uint256(role) */\n      0x00\n      shr\n        /* \"@openzeppelin/contracts/access/AccessControl.sol\":4123:4125  32 */\n      0x20\n        /* \"@openzeppelin/contracts/access/AccessControl.sol\":4088:4107  Strings.toHexString */\n      tag_187\n        /* \"@openzeppelin/contracts/access/AccessControl.sol\":4088:4126  Strings.toHexString(uint256(role), 32) */\n      jump\t// in\n    tag_186:\n        /* \"@openzeppelin/contracts/access/AccessControl.sol\":3896:4148  abi.encodePacked(... */\n      add(0x20, mload(0x40))\n      tag_188\n      swap3\n      swap2\n      swap1\n      tag_189\n      jump\t// in\n    tag_188:\n      mload(0x40)\n      0x20\n      dup2\n      dup4\n      sub\n      sub\n      dup2\n      mstore\n      swap1\n      0x40\n      mstore\n        /* \"@openzeppelin/contracts/access/AccessControl.sol\":3844:4180  revert(... */\n      mload(0x40)\n      0x08c379a000000000000000000000000000000000000000000000000000000000\n      dup2\n      mstore\n      0x04\n      add\n      tag_190\n      swap2\n      swap1\n      tag_191\n      jump\t// in\n    tag_190:\n      mload(0x40)\n      dup1\n      swap2\n      sub\n      swap1\n      revert\n        /* \"@openzeppelin/contracts/access/AccessControl.sol\":3801:4191  if (!hasRole(role, account)) {... */\n    tag_183:\n        /* \"@openzeppelin/contracts/access/AccessControl.sol\":3718:4197  function _checkRole(bytes32 role, address account) internal view virtual {... */\n      pop\n      pop\n      jump\t// out\n        /* \"@openzeppelin/contracts/utils/Strings.sol\":2102:2251  function toHexString(address addr) internal pure returns (string memory) {... */\n    tag_185:\n        /* \"@openzeppelin/contracts/utils/Strings.sol\":2160:2173  string memory */\n      0x60\n        /* \"@openzeppelin/contracts/utils/Strings.sol\":2192:2244  toHexString(uint256(uint160(addr)), _ADDRESS_LENGTH) */\n      tag_193\n        /* \"@openzeppelin/contracts/utils/Strings.sol\":2220:2224  addr */\n      dup3\n        /* \"@openzeppelin/contracts/utils/Strings.sol\":2204:2226  uint256(uint160(addr)) */\n      0xffffffffffffffffffffffffffffffffffffffff\n      and\n        /* \"@openzeppelin/contracts/utils/Strings.sol\":311:313  20 */\n      0x14\n        /* \"@openzeppelin/contracts/utils/Strings.sol\":2192:2244  toHexString(uint256(uint160(addr)), _ADDRESS_LENGTH) */\n      0xff\n      and\n        /* \"@openzeppelin/contracts/utils/Strings.sol\":2192:2203  toHexString */\n      tag_187\n        /* \"@openzeppelin/contracts/utils/Strings.sol\":2192:2244  toHexString(uint256(uint160(addr)), _ADDRESS_LENGTH) */\n      jump\t// in\n    tag_193:\n        /* \"@openzeppelin/contracts/utils/Strings.sol\":2185:2244  return toHexString(uint256(uint160(addr)), _ADDRESS_LENGTH) */\n      swap1\n      pop\n        /* \"@openzeppelin/contracts/utils/Strings.sol\":2102:2251  function toHexString(address addr) internal pure returns (string memory) {... */\n      swap2\n      swap1\n      pop\n      jump\t// out\n        /* \"@openzeppelin/contracts/utils/Strings.sol\":1513:1950  function toHexString(uint256 value, uint256 length) internal pure returns (string memory) {... */\n    tag_187:\n        /* \"@openzeppelin/contracts/utils/Strings.sol\":1588:1601  string memory */\n      0x60\n        /* \"@openzeppelin/contracts/utils/Strings.sol\":1613:1632  bytes memory buffer */\n      0x00\n        /* \"@openzeppelin/contracts/utils/Strings.sol\":1658:1659  2 */\n      0x02\n        /* \"@openzeppelin/contracts/utils/Strings.sol\":1649:1655  length */\n      dup4\n        /* \"@openzeppelin/contracts/utils/Strings.sol\":1645:1646  2 */\n      0x02\n        /* \"@openzeppelin/contracts/utils/Strings.sol\":1645:1655  2 * length */\n      tag_195\n      swap2\n      swap1\n      tag_196\n      jump\t// in\n    tag_195:\n        /* \"@openzeppelin/contracts/utils/Strings.sol\":1645:1659  2 * length + 2 */\n      tag_197\n      swap2\n      swap1\n      tag_198\n      jump\t// in\n    tag_197:\n        /* \"@openzeppelin/contracts/utils/Strings.sol\":1635:1660  new bytes(2 * length + 2) */\n      0xffffffffffffffff\n      dup2\n      gt\n      iszero\n      tag_199\n      jumpi\n      tag_200\n      tag_201\n      jump\t// in\n    tag_200:\n    tag_199:\n      mload(0x40)\n      swap1\n      dup1\n      dup3\n      mstore\n      dup1\n      0x1f\n      add\n      not(0x1f)\n      and\n      0x20\n      add\n      dup3\n      add\n      0x40\n      mstore\n      dup1\n      iszero\n      tag_202\n      jumpi\n      dup2\n      0x20\n      add\n      0x01\n      dup3\n      mul\n      dup1\n      calldatasize\n      dup4\n      calldatacopy\n      dup1\n      dup3\n      add\n      swap2\n      pop\n      pop\n      swap1\n      pop\n    tag_202:\n      pop\n        /* \"@openzeppelin/contracts/utils/Strings.sol\":1613:1660  bytes memory buffer = new bytes(2 * length + 2) */\n      swap1\n      pop\n        /* \"@openzeppelin/contracts/utils/Strings.sol\":1670:1685  buffer[0] = \"0\" */\n      0x3000000000000000000000000000000000000000000000000000000000000000\n        /* \"@openzeppelin/contracts/utils/Strings.sol\":1670:1676  buffer */\n      dup2\n        /* \"@openzeppelin/contracts/utils/Strings.sol\":1677:1678  0 */\n      0x00\n        /* \"@openzeppelin/contracts/utils/Strings.sol\":1670:1679  buffer[0] */\n      dup2\n      mload\n      dup2\n      lt\n      tag_203\n      jumpi\n      tag_204\n      tag_205\n      jump\t// in\n    tag_204:\n    tag_203:\n      0x20\n      add\n      add\n        /* \"@openzeppelin/contracts/utils/Strings.sol\":1670:1685  buffer[0] = \"0\" */\n      swap1\n      not(0xffffffffffffffffffffffffffffffffffffffffffffffffffffffffffffff)\n      and\n      swap1\n      dup2\n      0x00\n      byte\n      swap1\n      mstore8\n      pop\n        /* \"@openzeppelin/contracts/utils/Strings.sol\":1695:1710  buffer[1] = \"x\" */\n      0x7800000000000000000000000000000000000000000000000000000000000000\n        /* \"@openzeppelin/contracts/utils/Strings.sol\":1695:1701  buffer */\n      dup2\n        /* \"@openzeppelin/contracts/utils/Strings.sol\":1702:1703  1 */\n      0x01\n        /* \"@openzeppelin/contracts/utils/Strings.sol\":1695:1704  buffer[1] */\n      dup2\n      mload\n      dup2\n      lt\n      tag_206\n      jumpi\n      tag_207\n      tag_205\n      jump\t// in\n    tag_207:\n    tag_206:\n      0x20\n      add\n      add\n        /* \"@openzeppelin/contracts/utils/Strings.sol\":1695:1710  buffer[1] = \"x\" */\n      swap1\n      not(0xffffffffffffffffffffffffffffffffffffffffffffffffffffffffffffff)\n      and\n      swap1\n      dup2\n      0x00\n      byte\n      swap1\n      mstore8\n      pop\n        /* \"@openzeppelin/contracts/utils/Strings.sol\":1725:1734  uint256 i */\n      0x00\n        /* \"@openzeppelin/contracts/utils/Strings.sol\":1750:1751  1 */\n      0x01\n        /* \"@openzeppelin/contracts/utils/Strings.sol\":1741:1747  length */\n      dup5\n        /* \"@openzeppelin/contracts/utils/Strings.sol\":1737:1738  2 */\n      0x02\n        /* \"@openzeppelin/contracts/utils/Strings.sol\":1737:1747  2 * length */\n      tag_211\n      swap2\n      swap1\n      tag_196\n      jump\t// in\n    tag_211:\n        /* \"@openzeppelin/contracts/utils/Strings.sol\":1737:1751  2 * length + 1 */\n      tag_212\n      swap2\n      swap1\n      tag_198\n      jump\t// in\n    tag_212:\n        /* \"@openzeppelin/contracts/utils/Strings.sol\":1725:1751  uint256 i = 2 * length + 1 */\n      swap1\n      pop\n        /* \"@openzeppelin/contracts/utils/Strings.sol\":1720:1848  for (uint256 i = 2 * length + 1; i > 1; --i) {... */\n    tag_208:\n        /* \"@openzeppelin/contracts/utils/Strings.sol\":1757:1758  1 */\n      0x01\n        /* \"@openzeppelin/contracts/utils/Strings.sol\":1753:1754  i */\n      dup2\n        /* \"@openzeppelin/contracts/utils/Strings.sol\":1753:1758  i > 1 */\n      gt\n        /* \"@openzeppelin/contracts/utils/Strings.sol\":1720:1848  for (uint256 i = 2 * length + 1; i > 1; --i) {... */\n      iszero\n      tag_209\n      jumpi\n        /* \"@openzeppelin/contracts/utils/Strings.sol\":1791:1799  _SYMBOLS */\n      0x3031323334353637383961626364656600000000000000000000000000000000\n        /* \"@openzeppelin/contracts/utils/Strings.sol\":1808:1811  0xf */\n      0x0f\n        /* \"@openzeppelin/contracts/utils/Strings.sol\":1800:1805  value */\n      dup7\n        /* \"@openzeppelin/contracts/utils/Strings.sol\":1800:1811  value & 0xf */\n      and\n        /* \"@openzeppelin/contracts/utils/Strings.sol\":1791:1812  _SYMBOLS[value & 0xf] */\n      0x10\n      dup2\n      lt\n      tag_213\n      jumpi\n      tag_214\n      tag_205\n      jump\t// in\n    tag_214:\n    tag_213:\n      byte\n      0xf8\n      shl\n        /* \"@openzeppelin/contracts/utils/Strings.sol\":1779:1785  buffer */\n      dup3\n        /* \"@openzeppelin/contracts/utils/Strings.sol\":1786:1787  i */\n      dup3\n        /* \"@openzeppelin/contracts/utils/Strings.sol\":1779:1788  buffer[i] */\n      dup2\n      mload\n      dup2\n      lt\n      tag_215\n      jumpi\n      tag_216\n      tag_205\n      jump\t// in\n    tag_216:\n    tag_215:\n      0x20\n      add\n      add\n        /* \"@openzeppelin/contracts/utils/Strings.sol\":1779:1812  buffer[i] = _SYMBOLS[value & 0xf] */\n      swap1\n      not(0xffffffffffffffffffffffffffffffffffffffffffffffffffffffffffffff)\n      and\n      swap1\n      dup2\n      0x00\n      byte\n      swap1\n      mstore8\n      pop\n        /* \"@openzeppelin/contracts/utils/Strings.sol\":1836:1837  4 */\n      0x04\n        /* \"@openzeppelin/contracts/utils/Strings.sol\":1826:1837  value >>= 4 */\n      dup6\n      swap1\n      shr\n      swap5\n      pop\n        /* \"@openzeppelin/contracts/utils/Strings.sol\":1760:1763  --i */\n      dup1\n      tag_217\n      swap1\n      tag_218\n      jump\t// in\n    tag_217:\n      swap1\n      pop\n        /* \"@openzeppelin/contracts/utils/Strings.sol\":1720:1848  for (uint256 i = 2 * length + 1; i > 1; --i) {... */\n      jump(tag_208)\n    tag_209:\n      pop\n        /* \"@openzeppelin/contracts/utils/Strings.sol\":1874:1875  0 */\n      0x00\n        /* \"@openzeppelin/contracts/utils/Strings.sol\":1865:1870  value */\n      dup5\n        /* \"@openzeppelin/contracts/utils/Strings.sol\":1865:1875  value == 0 */\n      eq\n        /* \"@openzeppelin/contracts/utils/Strings.sol\":1857:1912  require(value == 0, \"Strings: hex length insufficient\") */\n      tag_219\n      jumpi\n      mload(0x40)\n      0x08c379a000000000000000000000000000000000000000000000000000000000\n      dup2\n      mstore\n      0x04\n      add\n      tag_220\n      swap1\n      tag_221\n      jump\t// in\n    tag_220:\n      mload(0x40)\n      dup1\n      swap2\n      sub\n      swap1\n      revert\n    tag_219:\n        /* \"@openzeppelin/contracts/utils/Strings.sol\":1936:1942  buffer */\n      dup1\n        /* \"@openzeppelin/contracts/utils/Strings.sol\":1922:1943  return string(buffer) */\n      swap2\n      pop\n      pop\n        /* \"@openzeppelin/contracts/utils/Strings.sol\":1513:1950  function toHexString(uint256 value, uint256 length) internal pure returns (string memory) {... */\n      swap3\n      swap2\n      pop\n      pop\n      jump\t// out\n        /* \"#utility.yul\":7:82   */\n    tag_222:\n        /* \"#utility.yul\":40:46   */\n      0x00\n        /* \"#utility.yul\":73:75   */\n      0x40\n        /* \"#utility.yul\":67:76   */\n      mload\n        /* \"#utility.yul\":57:76   */\n      swap1\n      pop\n        /* \"#utility.yul\":7:82   */\n      swap1\n      jump\t// out\n        /* \"#utility.yul\":88:205   */\n    tag_223:\n        /* \"#utility.yul\":197:198   */\n      0x00\n        /* \"#utility.yul\":194:195   */\n      dup1\n        /* \"#utility.yul\":187:199   */\n      revert\n        /* \"#utility.yul\":211:328   */\n    tag_224:\n        /* \"#utility.yul\":320:321   */\n      0x00\n        /* \"#utility.yul\":317:318   */\n      dup1\n        /* \"#utility.yul\":310:322   */\n      revert\n        /* \"#utility.yul\":334:483   */\n    tag_225:\n        /* \"#utility.yul\":370:377   */\n      0x00\n        /* \"#utility.yul\":410:476   */\n      0xffffffff00000000000000000000000000000000000000000000000000000000\n        /* \"#utility.yul\":403:408   */\n      dup3\n        /* \"#utility.yul\":399:477   */\n      and\n        /* \"#utility.yul\":388:477   */\n      swap1\n      pop\n        /* \"#utility.yul\":334:483   */\n      swap2\n      swap1\n      pop\n      jump\t// out\n        /* \"#utility.yul\":489:609   */\n    tag_226:\n        /* \"#utility.yul\":561:584   */\n      tag_288\n        /* \"#utility.yul\":578:583   */\n      dup2\n        /* \"#utility.yul\":561:584   */\n      tag_225\n      jump\t// in\n    tag_288:\n        /* \"#utility.yul\":554:559   */\n      dup2\n        /* \"#utility.yul\":551:585   */\n      eq\n        /* \"#utility.yul\":541:603   */\n      tag_289\n      jumpi\n        /* \"#utility.yul\":599:600   */\n      0x00\n        /* \"#utility.yul\":596:597   */\n      dup1\n        /* \"#utility.yul\":589:601   */\n      revert\n        /* \"#utility.yul\":541:603   */\n    tag_289:\n        /* \"#utility.yul\":489:609   */\n      pop\n      jump\t// out\n        /* \"#utility.yul\":615:752   */\n    tag_227:\n        /* \"#utility.yul\":660:665   */\n      0x00\n        /* \"#utility.yul\":698:704   */\n      dup2\n        /* \"#utility.yul\":685:705   */\n      calldataload\n        /* \"#utility.yul\":676:705   */\n      swap1\n      pop\n        /* \"#utility.yul\":714:746   */\n      tag_291\n        /* \"#utility.yul\":740:745   */\n      dup2\n        /* \"#utility.yul\":714:746   */\n      tag_226\n      jump\t// in\n    tag_291:\n        /* \"#utility.yul\":615:752   */\n      swap3\n      swap2\n      pop\n      pop\n      jump\t// out\n        /* \"#utility.yul\":758:1085   */\n    tag_28:\n        /* \"#utility.yul\":816:822   */\n      0x00\n        /* \"#utility.yul\":865:867   */\n      0x20\n        /* \"#utility.yul\":853:862   */\n      dup3\n        /* \"#utility.yul\":844:851   */\n      dup5\n        /* \"#utility.yul\":840:863   */\n      sub\n        /* \"#utility.yul\":836:868   */\n      slt\n        /* \"#utility.yul\":833:952   */\n      iszero\n      tag_293\n      jumpi\n        /* \"#utility.yul\":871:950   */\n      tag_294\n      tag_223\n      jump\t// in\n    tag_294:\n        /* \"#utility.yul\":833:952   */\n    tag_293:\n        /* \"#utility.yul\":991:992   */\n      0x00\n        /* \"#utility.yul\":1016:1068   */\n      tag_295\n        /* \"#utility.yul\":1060:1067   */\n      dup5\n        /* \"#utility.yul\":1051:1057   */\n      dup3\n        /* \"#utility.yul\":1040:1049   */\n      dup6\n        /* \"#utility.yul\":1036:1058   */\n      add\n        /* \"#utility.yul\":1016:1068   */\n      tag_227\n      jump\t// in\n    tag_295:\n        /* \"#utility.yul\":1006:1068   */\n      swap2\n      pop\n        /* \"#utility.yul\":962:1078   */\n      pop\n        /* \"#utility.yul\":758:1085   */\n      swap3\n      swap2\n      pop\n      pop\n      jump\t// out\n        /* \"#utility.yul\":1091:1181   */\n    tag_228:\n        /* \"#utility.yul\":1125:1132   */\n      0x00\n        /* \"#utility.yul\":1168:1173   */\n      dup2\n        /* \"#utility.yul\":1161:1174   */\n      iszero\n        /* \"#utility.yul\":1154:1175   */\n      iszero\n        /* \"#utility.yul\":1143:1175   */\n      swap1\n      pop\n        /* \"#utility.yul\":1091:1181   */\n      swap2\n      swap1\n      pop\n      jump\t// out\n        /* \"#utility.yul\":1187:1296   */\n    tag_229:\n        /* \"#utility.yul\":1268:1289   */\n      tag_298\n        /* \"#utility.yul\":1283:1288   */\n      dup2\n        /* \"#utility.yul\":1268:1289   */\n      tag_228\n      jump\t// in\n    tag_298:\n        /* \"#utility.yul\":1263:1266   */\n      dup3\n        /* \"#utility.yul\":1256:1290   */\n      mstore\n        /* \"#utility.yul\":1187:1296   */\n      pop\n      pop\n      jump\t// out\n        /* \"#utility.yul\":1302:1512   */\n    tag_31:\n        /* \"#utility.yul\":1389:1393   */\n      0x00\n        /* \"#utility.yul\":1427:1429   */\n      0x20\n        /* \"#utility.yul\":1416:1425   */\n      dup3\n        /* \"#utility.yul\":1412:1430   */\n      add\n        /* \"#utility.yul\":1404:1430   */\n      swap1\n      pop\n        /* \"#utility.yul\":1440:1505   */\n      tag_300\n        /* \"#utility.yul\":1502:1503   */\n      0x00\n        /* \"#utility.yul\":1491:1500   */\n      dup4\n        /* \"#utility.yul\":1487:1504   */\n      add\n        /* \"#utility.yul\":1478:1484   */\n      dup5\n        /* \"#utility.yul\":1440:1505   */\n      tag_229\n      jump\t// in\n    tag_300:\n        /* \"#utility.yul\":1302:1512   */\n      swap3\n      swap2\n      pop\n      pop\n      jump\t// out\n        /* \"#utility.yul\":1518:1595   */\n    tag_230:\n        /* \"#utility.yul\":1555:1562   */\n      0x00\n        /* \"#utility.yul\":1584:1589   */\n      dup2\n        /* \"#utility.yul\":1573:1589   */\n      swap1\n      pop\n        /* \"#utility.yul\":1518:1595   */\n      swap2\n      swap1\n      pop\n      jump\t// out\n        /* \"#utility.yul\":1601:1723   */\n    tag_231:\n        /* \"#utility.yul\":1674:1698   */\n      tag_303\n        /* \"#utility.yul\":1692:1697   */\n      dup2\n        /* \"#utility.yul\":1674:1698   */\n      tag_230\n      jump\t// in\n    tag_303:\n        /* \"#utility.yul\":1667:1672   */\n      dup2\n        /* \"#utility.yul\":1664:1699   */\n      eq\n        /* \"#utility.yul\":1654:1717   */\n      tag_304\n      jumpi\n        /* \"#utility.yul\":1713:1714   */\n      0x00\n        /* \"#utility.yul\":1710:1711   */\n      dup1\n        /* \"#utility.yul\":1703:1715   */\n      revert\n        /* \"#utility.yul\":1654:1717   */\n    tag_304:\n        /* \"#utility.yul\":1601:1723   */\n      pop\n      jump\t// out\n        /* \"#utility.yul\":1729:1868   */\n    tag_232:\n        /* \"#utility.yul\":1775:1780   */\n      0x00\n        /* \"#utility.yul\":1813:1819   */\n      dup2\n        /* \"#utility.yul\":1800:1820   */\n      calldataload\n        /* \"#utility.yul\":1791:1820   */\n      swap1\n      pop\n        /* \"#utility.yul\":1829:1862   */\n      tag_306\n        /* \"#utility.yul\":1856:1861   */\n      dup2\n        /* \"#utility.yul\":1829:1862   */\n      tag_231\n      jump\t// in\n    tag_306:\n        /* \"#utility.yul\":1729:1868   */\n      swap3\n      swap2\n      pop\n      pop\n      jump\t// out\n        /* \"#utility.yul\":1874:2203   */\n    tag_35:\n        /* \"#utility.yul\":1933:1939   */\n      0x00\n        /* \"#utility.yul\":1982:1984   */\n      0x20\n        /* \"#utility.yul\":1970:1979   */\n      dup3\n        /* \"#utility.yul\":1961:1968   */\n      dup5\n        /* \"#utility.yul\":1957:1980   */\n      sub\n        /* \"#utility.yul\":1953:1985   */\n      slt\n        /* \"#utility.yul\":1950:2069   */\n      iszero\n      tag_308\n      jumpi\n        /* \"#utility.yul\":1988:2067   */\n      tag_309\n      tag_223\n      jump\t// in\n    tag_309:\n        /* \"#utility.yul\":1950:2069   */\n    tag_308:\n        /* \"#utility.yul\":2108:2109   */\n      0x00\n        /* \"#utility.yul\":2133:2186   */\n      tag_310\n        /* \"#utility.yul\":2178:2185   */\n      dup5\n        /* \"#utility.yul\":2169:2175   */\n      dup3\n        /* \"#utility.yul\":2158:2167   */\n      dup6\n        /* \"#utility.yul\":2154:2176   */\n      add\n        /* \"#utility.yul\":2133:2186   */\n      tag_232\n      jump\t// in\n    tag_310:\n        /* \"#utility.yul\":2123:2186   */\n      swap2\n      pop\n        /* \"#utility.yul\":2079:2196   */\n      pop\n        /* \"#utility.yul\":1874:2203   */\n      swap3\n      swap2\n      pop\n      pop\n      jump\t// out\n        /* \"#utility.yul\":2209:2327   */\n    tag_233:\n        /* \"#utility.yul\":2296:2320   */\n      tag_312\n        /* \"#utility.yul\":2314:2319   */\n      dup2\n        /* \"#utility.yul\":2296:2320   */\n      tag_230\n      jump\t// in\n    tag_312:\n        /* \"#utility.yul\":2291:2294   */\n      dup3\n        /* \"#utility.yul\":2284:2321   */\n      mstore\n        /* \"#utility.yul\":2209:2327   */\n      pop\n      pop\n      jump\t// out\n        /* \"#utility.yul\":2333:2555   */\n    tag_38:\n        /* \"#utility.yul\":2426:2430   */\n      0x00\n        /* \"#utility.yul\":2464:2466   */\n      0x20\n        /* \"#utility.yul\":2453:2462   */\n      dup3\n        /* \"#utility.yul\":2449:2467   */\n      add\n        /* \"#utility.yul\":2441:2467   */\n      swap1\n      pop\n        /* \"#utility.yul\":2477:2548   */\n      tag_314\n        /* \"#utility.yul\":2545:2546   */\n      0x00\n        /* \"#utility.yul\":2534:2543   */\n      dup4\n        /* \"#utility.yul\":2530:2547   */\n      add\n        /* \"#utility.yul\":2521:2527   */\n      dup5\n        /* \"#utility.yul\":2477:2548   */\n      tag_233\n      jump\t// in\n    tag_314:\n        /* \"#utility.yul\":2333:2555   */\n      swap3\n      swap2\n      pop\n      pop\n      jump\t// out\n        /* \"#utility.yul\":2561:2687   */\n    tag_234:\n        /* \"#utility.yul\":2598:2605   */\n      0x00\n        /* \"#utility.yul\":2638:2680   */\n      0xffffffffffffffffffffffffffffffffffffffff\n        /* \"#utility.yul\":2631:2636   */\n      dup3\n        /* \"#utility.yul\":2627:2681   */\n      and\n        /* \"#utility.yul\":2616:2681   */\n      swap1\n      pop\n        /* \"#utility.yul\":2561:2687   */\n      swap2\n      swap1\n      pop\n      jump\t// out\n        /* \"#utility.yul\":2693:2789   */\n    tag_235:\n        /* \"#utility.yul\":2730:2737   */\n      0x00\n        /* \"#utility.yul\":2759:2783   */\n      tag_317\n        /* \"#utility.yul\":2777:2782   */\n      dup3\n        /* \"#utility.yul\":2759:2783   */\n      tag_234\n      jump\t// in\n    tag_317:\n        /* \"#utility.yul\":2748:2783   */\n      swap1\n      pop\n        /* \"#utility.yul\":2693:2789   */\n      swap2\n      swap1\n      pop\n      jump\t// out\n        /* \"#utility.yul\":2795:2917   */\n    tag_236:\n        /* \"#utility.yul\":2868:2892   */\n      tag_319\n        /* \"#utility.yul\":2886:2891   */\n      dup2\n        /* \"#utility.yul\":2868:2892   */\n      tag_235\n      jump\t// in\n    tag_319:\n        /* \"#utility.yul\":2861:2866   */\n      dup2\n        /* \"#utility.yul\":2858:2893   */\n      eq\n        /* \"#utility.yul\":2848:2911   */\n      tag_320\n      jumpi\n        /* \"#utility.yul\":2907:2908   */\n      0x00\n        /* \"#utility.yul\":2904:2905   */\n      dup1\n        /* \"#utility.yul\":2897:2909   */\n      revert\n        /* \"#utility.yul\":2848:2911   */\n    tag_320:\n        /* \"#utility.yul\":2795:2917   */\n      pop\n      jump\t// out\n        /* \"#utility.yul\":2923:3062   */\n    tag_237:\n        /* \"#utility.yul\":2969:2974   */\n      0x00\n        /* \"#utility.yul\":3007:3013   */\n      dup2\n        /* \"#utility.yul\":2994:3014   */\n      calldataload\n        /* \"#utility.yul\":2985:3014   */\n      swap1\n      pop\n        /* \"#utility.yul\":3023:3056   */\n      tag_322\n        /* \"#utility.yul\":3050:3055   */\n      dup2\n        /* \"#utility.yul\":3023:3056   */\n      tag_236\n      jump\t// in\n    tag_322:\n        /* \"#utility.yul\":2923:3062   */\n      swap3\n      swap2\n      pop\n      pop\n      jump\t// out\n        /* \"#utility.yul\":3068:3542   */\n    tag_46:\n        /* \"#utility.yul\":3136:3142   */\n      0x00\n        /* \"#utility.yul\":3144:3150   */\n      dup1\n        /* \"#utility.yul\":3193:3195   */\n      0x40\n        /* \"#utility.yul\":3181:3190   */\n      dup4\n        /* \"#utility.yul\":3172:3179   */\n      dup6\n        /* \"#utility.yul\":3168:3191   */\n      sub\n        /* \"#utility.yul\":3164:3196   */\n      slt\n        /* \"#utility.yul\":3161:3280   */\n      iszero\n      tag_324\n      jumpi\n        /* \"#utility.yul\":3199:3278   */\n      tag_325\n      tag_223\n      jump\t// in\n    tag_325:\n        /* \"#utility.yul\":3161:3280   */\n    tag_324:\n        /* \"#utility.yul\":3319:3320   */\n      0x00\n        /* \"#utility.yul\":3344:3397   */\n      tag_326\n        /* \"#utility.yul\":3389:3396   */\n      dup6\n        /* \"#utility.yul\":3380:3386   */\n      dup3\n        /* \"#utility.yul\":3369:3378   */\n      dup7\n        /* \"#utility.yul\":3365:3387   */\n      add\n        /* \"#utility.yul\":3344:3397   */\n      tag_232\n      jump\t// in\n    tag_326:\n        /* \"#utility.yul\":3334:3397   */\n      swap3\n      pop\n        /* \"#utility.yul\":3290:3407   */\n      pop\n        /* \"#utility.yul\":3446:3448   */\n      0x20\n        /* \"#utility.yul\":3472:3525   */\n      tag_327\n        /* \"#utility.yul\":3517:3524   */\n      dup6\n        /* \"#utility.yul\":3508:3514   */\n      dup3\n        /* \"#utility.yul\":3497:3506   */\n      dup7\n        /* \"#utility.yul\":3493:3515   */\n      add\n        /* \"#utility.yul\":3472:3525   */\n      tag_237\n      jump\t// in\n    tag_327:\n        /* \"#utility.yul\":3462:3525   */\n      swap2\n      pop\n        /* \"#utility.yul\":3417:3535   */\n      pop\n        /* \"#utility.yul\":3068:3542   */\n      swap3\n      pop\n      swap3\n      swap1\n      pop\n      jump\t// out\n        /* \"#utility.yul\":3548:3877   */\n    tag_55:\n        /* \"#utility.yul\":3607:3613   */\n      0x00\n        /* \"#utility.yul\":3656:3658   */\n      0x20\n        /* \"#utility.yul\":3644:3653   */\n      dup3\n        /* \"#utility.yul\":3635:3642   */\n      dup5\n        /* \"#utility.yul\":3631:3654   */\n      sub\n        /* \"#utility.yul\":3627:3659   */\n      slt\n        /* \"#utility.yul\":3624:3743   */\n      iszero\n      tag_329\n      jumpi\n        /* \"#utility.yul\":3662:3741   */\n      tag_330\n      tag_223\n      jump\t// in\n    tag_330:\n        /* \"#utility.yul\":3624:3743   */\n    tag_329:\n        /* \"#utility.yul\":3782:3783   */\n      0x00\n        /* \"#utility.yul\":3807:3860   */\n      tag_331\n        /* \"#utility.yul\":3852:3859   */\n      dup5\n        /* \"#utility.yul\":3843:3849   */\n      dup3\n        /* \"#utility.yul\":3832:3841   */\n      dup6\n        /* \"#utility.yul\":3828:3850   */\n      add\n        /* \"#utility.yul\":3807:3860   */\n      tag_237\n      jump\t// in\n    tag_331:\n        /* \"#utility.yul\":3797:3860   */\n      swap2\n      pop\n        /* \"#utility.yul\":3753:3870   */\n      pop\n        /* \"#utility.yul\":3548:3877   */\n      swap3\n      swap2\n      pop\n      pop\n      jump\t// out\n        /* \"#utility.yul\":3883:3960   */\n    tag_238:\n        /* \"#utility.yul\":3920:3927   */\n      0x00\n        /* \"#utility.yul\":3949:3954   */\n      dup2\n        /* \"#utility.yul\":3938:3954   */\n      swap1\n      pop\n        /* \"#utility.yul\":3883:3960   */\n      swap2\n      swap1\n      pop\n      jump\t// out\n        /* \"#utility.yul\":3966:4088   */\n    tag_239:\n        /* \"#utility.yul\":4039:4063   */\n      tag_334\n        /* \"#utility.yul\":4057:4062   */\n      dup2\n        /* \"#utility.yul\":4039:4063   */\n      tag_238\n      jump\t// in\n    tag_334:\n        /* \"#utility.yul\":4032:4037   */\n      dup2\n        /* \"#utility.yul\":4029:4064   */\n      eq\n        /* \"#utility.yul\":4019:4082   */\n      tag_335\n      jumpi\n        /* \"#utility.yul\":4078:4079   */\n      0x00\n        /* \"#utility.yul\":4075:4076   */\n      dup1\n        /* \"#utility.yul\":4068:4080   */\n      revert\n        /* \"#utility.yul\":4019:4082   */\n    tag_335:\n        /* \"#utility.yul\":3966:4088   */\n      pop\n      jump\t// out\n        /* \"#utility.yul\":4094:4233   */\n    tag_240:\n        /* \"#utility.yul\":4140:4145   */\n      0x00\n        /* \"#utility.yul\":4178:4184   */\n      dup2\n        /* \"#utility.yul\":4165:4185   */\n      calldataload\n        /* \"#utility.yul\":4156:4185   */\n      swap1\n      pop\n        /* \"#utility.yul\":4194:4227   */\n      tag_337\n        /* \"#utility.yul\":4221:4226   */\n      dup2\n        /* \"#utility.yul\":4194:4227   */\n      tag_239\n      jump\t// in\n    tag_337:\n        /* \"#utility.yul\":4094:4233   */\n      swap3\n      swap2\n      pop\n      pop\n      jump\t// out\n        /* \"#utility.yul\":4239:4356   */\n    tag_241:\n        /* \"#utility.yul\":4348:4349   */\n      0x00\n        /* \"#utility.yul\":4345:4346   */\n      dup1\n        /* \"#utility.yul\":4338:4350   */\n      revert\n        /* \"#utility.yul\":4362:4479   */\n    tag_242:\n        /* \"#utility.yul\":4471:4472   */\n      0x00\n        /* \"#utility.yul\":4468:4469   */\n      dup1\n        /* \"#utility.yul\":4461:4473   */\n      revert\n        /* \"#utility.yul\":4485:4587   */\n    tag_243:\n        /* \"#utility.yul\":4526:4532   */\n      0x00\n        /* \"#utility.yul\":4577:4579   */\n      0x1f\n        /* \"#utility.yul\":4573:4580   */\n      not\n        /* \"#utility.yul\":4568:4570   */\n      0x1f\n        /* \"#utility.yul\":4561:4566   */\n      dup4\n        /* \"#utility.yul\":4557:4571   */\n      add\n        /* \"#utility.yul\":4553:4581   */\n      and\n        /* \"#utility.yul\":4543:4581   */\n      swap1\n      pop\n        /* \"#utility.yul\":4485:4587   */\n      swap2\n      swap1\n      pop\n      jump\t// out\n        /* \"#utility.yul\":4593:4773   */\n    tag_201:\n        /* \"#utility.yul\":4641:4718   */\n      0x4e487b7100000000000000000000000000000000000000000000000000000000\n        /* \"#utility.yul\":4638:4639   */\n      0x00\n        /* \"#utility.yul\":4631:4719   */\n      mstore\n        /* \"#utility.yul\":4738:4742   */\n      0x41\n        /* \"#utility.yul\":4735:4736   */\n      0x04\n        /* \"#utility.yul\":4728:4743   */\n      mstore\n        /* \"#utility.yul\":4762:4766   */\n      0x24\n        /* \"#utility.yul\":4759:4760   */\n      0x00\n        /* \"#utility.yul\":4752:4767   */\n      revert\n        /* \"#utility.yul\":4779:5060   */\n    tag_244:\n        /* \"#utility.yul\":4862:4889   */\n      tag_343\n        /* \"#utility.yul\":4884:4888   */\n      dup3\n        /* \"#utility.yul\":4862:4889   */\n      tag_243\n      jump\t// in\n    tag_343:\n        /* \"#utility.yul\":4854:4860   */\n      dup2\n        /* \"#utility.yul\":4850:4890   */\n      add\n        /* \"#utility.yul\":4992:4998   */\n      dup2\n        /* \"#utility.yul\":4980:4990   */\n      dup2\n        /* \"#utility.yul\":4977:4999   */\n      lt\n        /* \"#utility.yul\":4956:4974   */\n      0xffffffffffffffff\n        /* \"#utility.yul\":4944:4954   */\n      dup3\n        /* \"#utility.yul\":4941:4975   */\n      gt\n        /* \"#utility.yul\":4938:5000   */\n      or\n        /* \"#utility.yul\":4935:5023   */\n      iszero\n      tag_344\n      jumpi\n        /* \"#utility.yul\":5003:5021   */\n      tag_345\n      tag_201\n      jump\t// in\n    tag_345:\n        /* \"#utility.yul\":4935:5023   */\n    tag_344:\n        /* \"#utility.yul\":5043:5053   */\n      dup1\n        /* \"#utility.yul\":5039:5041   */\n      0x40\n        /* \"#utility.yul\":5032:5054   */\n      mstore\n        /* \"#utility.yul\":4822:5060   */\n      pop\n        /* \"#utility.yul\":4779:5060   */\n      pop\n      pop\n      jump\t// out\n        /* \"#utility.yul\":5066:5195   */\n    tag_245:\n        /* \"#utility.yul\":5100:5106   */\n      0x00\n        /* \"#utility.yul\":5127:5147   */\n      tag_347\n      tag_222\n      jump\t// in\n    tag_347:\n        /* \"#utility.yul\":5117:5147   */\n      swap1\n      pop\n        /* \"#utility.yul\":5156:5189   */\n      tag_348\n        /* \"#utility.yul\":5184:5188   */\n      dup3\n        /* \"#utility.yul\":5176:5182   */\n      dup3\n        /* \"#utility.yul\":5156:5189   */\n      tag_244\n      jump\t// in\n    tag_348:\n        /* \"#utility.yul\":5066:5195   */\n      swap2\n      swap1\n      pop\n      jump\t// out\n        /* \"#utility.yul\":5201:5508   */\n    tag_246:\n        /* \"#utility.yul\":5262:5266   */\n      0x00\n        /* \"#utility.yul\":5352:5370   */\n      0xffffffffffffffff\n        /* \"#utility.yul\":5344:5350   */\n      dup3\n        /* \"#utility.yul\":5341:5371   */\n      gt\n        /* \"#utility.yul\":5338:5394   */\n      iszero\n      tag_350\n      jumpi\n        /* \"#utility.yul\":5374:5392   */\n      tag_351\n      tag_201\n      jump\t// in\n    tag_351:\n        /* \"#utility.yul\":5338:5394   */\n    tag_350:\n        /* \"#utility.yul\":5412:5441   */\n      tag_352\n        /* \"#utility.yul\":5434:5440   */\n      dup3\n        /* \"#utility.yul\":5412:5441   */\n      tag_243\n      jump\t// in\n    tag_352:\n        /* \"#utility.yul\":5404:5441   */\n      swap1\n      pop\n        /* \"#utility.yul\":5496:5500   */\n      0x20\n        /* \"#utility.yul\":5490:5494   */\n      dup2\n        /* \"#utility.yul\":5486:5501   */\n      add\n        /* \"#utility.yul\":5478:5501   */\n      swap1\n      pop\n        /* \"#utility.yul\":5201:5508   */\n      swap2\n      swap1\n      pop\n      jump\t// out\n        /* \"#utility.yul\":5514:5660   */\n    tag_247:\n        /* \"#utility.yul\":5611:5617   */\n      dup3\n        /* \"#utility.yul\":5606:5609   */\n      dup2\n        /* \"#utility.yul\":5601:5604   */\n      dup4\n        /* \"#utility.yul\":5588:5618   */\n      calldatacopy\n        /* \"#utility.yul\":5652:5653   */\n      0x00\n        /* \"#utility.yul\":5643:5649   */\n      dup4\n        /* \"#utility.yul\":5638:5641   */\n      dup4\n        /* \"#utility.yul\":5634:5650   */\n      add\n        /* \"#utility.yul\":5627:5654   */\n      mstore\n        /* \"#utility.yul\":5514:5660   */\n      pop\n      pop\n      pop\n      jump\t// out\n        /* \"#utility.yul\":5666:6089   */\n    tag_248:\n        /* \"#utility.yul\":5743:5748   */\n      0x00\n        /* \"#utility.yul\":5768:5833   */\n      tag_355\n        /* \"#utility.yul\":5784:5832   */\n      tag_356\n        /* \"#utility.yul\":5825:5831   */\n      dup5\n        /* \"#utility.yul\":5784:5832   */\n      tag_246\n      jump\t// in\n    tag_356:\n        /* \"#utility.yul\":5768:5833   */\n      tag_245\n      jump\t// in\n    tag_355:\n        /* \"#utility.yul\":5759:5833   */\n      swap1\n      pop\n        /* \"#utility.yul\":5856:5862   */\n      dup3\n        /* \"#utility.yul\":5849:5854   */\n      dup2\n        /* \"#utility.yul\":5842:5863   */\n      mstore\n        /* \"#utility.yul\":5894:5898   */\n      0x20\n        /* \"#utility.yul\":5887:5892   */\n      dup2\n        /* \"#utility.yul\":5883:5899   */\n      add\n        /* \"#utility.yul\":5932:5935   */\n      dup5\n        /* \"#utility.yul\":5923:5929   */\n      dup5\n        /* \"#utility.yul\":5918:5921   */\n      dup5\n        /* \"#utility.yul\":5914:5930   */\n      add\n        /* \"#utility.yul\":5911:5936   */\n      gt\n        /* \"#utility.yul\":5908:6020   */\n      iszero\n      tag_357\n      jumpi\n        /* \"#utility.yul\":5939:6018   */\n      tag_358\n      tag_242\n      jump\t// in\n    tag_358:\n        /* \"#utility.yul\":5908:6020   */\n    tag_357:\n        /* \"#utility.yul\":6029:6083   */\n      tag_359\n        /* \"#utility.yul\":6076:6082   */\n      dup5\n        /* \"#utility.yul\":6071:6074   */\n      dup3\n        /* \"#utility.yul\":6066:6069   */\n      dup6\n        /* \"#utility.yul\":6029:6083   */\n      tag_247\n      jump\t// in\n    tag_359:\n        /* \"#utility.yul\":5749:6089   */\n      pop\n        /* \"#utility.yul\":5666:6089   */\n      swap4\n      swap3\n      pop\n      pop\n      pop\n      jump\t// out\n        /* \"#utility.yul\":6108:6446   */\n    tag_249:\n        /* \"#utility.yul\":6163:6168   */\n      0x00\n        /* \"#utility.yul\":6212:6215   */\n      dup3\n        /* \"#utility.yul\":6205:6209   */\n      0x1f\n        /* \"#utility.yul\":6197:6203   */\n      dup4\n        /* \"#utility.yul\":6193:6210   */\n      add\n        /* \"#utility.yul\":6189:6216   */\n      slt\n        /* \"#utility.yul\":6179:6301   */\n      tag_361\n      jumpi\n        /* \"#utility.yul\":6220:6299   */\n      tag_362\n      tag_241\n      jump\t// in\n    tag_362:\n        /* \"#utility.yul\":6179:6301   */\n    tag_361:\n        /* \"#utility.yul\":6337:6343   */\n      dup2\n        /* \"#utility.yul\":6324:6344   */\n      calldataload\n        /* \"#utility.yul\":6362:6440   */\n      tag_363\n        /* \"#utility.yul\":6436:6439   */\n      dup5\n        /* \"#utility.yul\":6428:6434   */\n      dup3\n        /* \"#utility.yul\":6421:6425   */\n      0x20\n        /* \"#utility.yul\":6413:6419   */\n      dup7\n        /* \"#utility.yul\":6409:6426   */\n      add\n        /* \"#utility.yul\":6362:6440   */\n      tag_248\n      jump\t// in\n    tag_363:\n        /* \"#utility.yul\":6353:6440   */\n      swap2\n      pop\n        /* \"#utility.yul\":6169:6446   */\n      pop\n        /* \"#utility.yul\":6108:6446   */\n      swap3\n      swap2\n      pop\n      pop\n      jump\t// out\n        /* \"#utility.yul\":6452:7249   */\n    tag_65:\n        /* \"#utility.yul\":6538:6544   */\n      0x00\n        /* \"#utility.yul\":6546:6552   */\n      dup1\n        /* \"#utility.yul\":6554:6560   */\n      0x00\n        /* \"#utility.yul\":6603:6605   */\n      0x60\n        /* \"#utility.yul\":6591:6600   */\n      dup5\n        /* \"#utility.yul\":6582:6589   */\n      dup7\n        /* \"#utility.yul\":6578:6601   */\n      sub\n        /* \"#utility.yul\":6574:6606   */\n      slt\n        /* \"#utility.yul\":6571:6690   */\n      iszero\n      tag_365\n      jumpi\n        /* \"#utility.yul\":6609:6688   */\n      tag_366\n      tag_223\n      jump\t// in\n    tag_366:\n        /* \"#utility.yul\":6571:6690   */\n    tag_365:\n        /* \"#utility.yul\":6729:6730   */\n      0x00\n        /* \"#utility.yul\":6754:6807   */\n      tag_367\n        /* \"#utility.yul\":6799:6806   */\n      dup7\n        /* \"#utility.yul\":6790:6796   */\n      dup3\n        /* \"#utility.yul\":6779:6788   */\n      dup8\n        /* \"#utility.yul\":6775:6797   */\n      add\n        /* \"#utility.yul\":6754:6807   */\n      tag_237\n      jump\t// in\n    tag_367:\n        /* \"#utility.yul\":6744:6807   */\n      swap4\n      pop\n        /* \"#utility.yul\":6700:6817   */\n      pop\n        /* \"#utility.yul\":6856:6858   */\n      0x20\n        /* \"#utility.yul\":6882:6935   */\n      tag_368\n        /* \"#utility.yul\":6927:6934   */\n      dup7\n        /* \"#utility.yul\":6918:6924   */\n      dup3\n        /* \"#utility.yul\":6907:6916   */\n      dup8\n        /* \"#utility.yul\":6903:6925   */\n      add\n        /* \"#utility.yul\":6882:6935   */\n      tag_240\n      jump\t// in\n    tag_368:\n        /* \"#utility.yul\":6872:6935   */\n      swap3\n      pop\n        /* \"#utility.yul\":6827:6945   */\n      pop\n        /* \"#utility.yul\":7012:7014   */\n      0x40\n        /* \"#utility.yul\":7001:7010   */\n      dup5\n        /* \"#utility.yul\":6997:7015   */\n      add\n        /* \"#utility.yul\":6984:7016   */\n      calldataload\n        /* \"#utility.yul\":7043:7061   */\n      0xffffffffffffffff\n        /* \"#utility.yul\":7035:7041   */\n      dup2\n        /* \"#utility.yul\":7032:7062   */\n      gt\n        /* \"#utility.yul\":7029:7146   */\n      iszero\n      tag_369\n      jumpi\n        /* \"#utility.yul\":7065:7144   */\n      tag_370\n      tag_224\n      jump\t// in\n    tag_370:\n        /* \"#utility.yul\":7029:7146   */\n    tag_369:\n        /* \"#utility.yul\":7170:7232   */\n      tag_371\n        /* \"#utility.yul\":7224:7231   */\n      dup7\n        /* \"#utility.yul\":7215:7221   */\n      dup3\n        /* \"#utility.yul\":7204:7213   */\n      dup8\n        /* \"#utility.yul\":7200:7222   */\n      add\n        /* \"#utility.yul\":7170:7232   */\n      tag_249\n      jump\t// in\n    tag_371:\n        /* \"#utility.yul\":7160:7232   */\n      swap2\n      pop\n        /* \"#utility.yul\":6955:7242   */\n      pop\n        /* \"#utility.yul\":6452:7249   */\n      swap3\n      pop\n      swap3\n      pop\n      swap3\n      jump\t// out\n        /* \"#utility.yul\":7255:7563   */\n    tag_250:\n        /* \"#utility.yul\":7317:7321   */\n      0x00\n        /* \"#utility.yul\":7407:7425   */\n      0xffffffffffffffff\n        /* \"#utility.yul\":7399:7405   */\n      dup3\n        /* \"#utility.yul\":7396:7426   */\n      gt\n        /* \"#utility.yul\":7393:7449   */\n      iszero\n      tag_373\n      jumpi\n        /* \"#utility.yul\":7429:7447   */\n      tag_374\n      tag_201\n      jump\t// in\n    tag_374:\n        /* \"#utility.yul\":7393:7449   */\n    tag_373:\n        /* \"#utility.yul\":7467:7496   */\n      tag_375\n        /* \"#utility.yul\":7489:7495   */\n      dup3\n        /* \"#utility.yul\":7467:7496   */\n      tag_243\n      jump\t// in\n    tag_375:\n        /* \"#utility.yul\":7459:7496   */\n      swap1\n      pop\n        /* \"#utility.yul\":7551:7555   */\n      0x20\n        /* \"#utility.yul\":7545:7549   */\n      dup2\n        /* \"#utility.yul\":7541:7556   */\n      add\n        /* \"#utility.yul\":7533:7556   */\n      swap1\n      pop\n        /* \"#utility.yul\":7255:7563   */\n      swap2\n      swap1\n      pop\n      jump\t// out\n        /* \"#utility.yul\":7569:7994   */\n    tag_251:\n        /* \"#utility.yul\":7647:7652   */\n      0x00\n        /* \"#utility.yul\":7672:7738   */\n      tag_377\n        /* \"#utility.yul\":7688:7737   */\n      tag_378\n        /* \"#utility.yul\":7730:7736   */\n      dup5\n        /* \"#utility.yul\":7688:7737   */\n      tag_250\n      jump\t// in\n    tag_378:\n        /* \"#utility.yul\":7672:7738   */\n      tag_245\n      jump\t// in\n    tag_377:\n        /* \"#utility.yul\":7663:7738   */\n      swap1\n      pop\n        /* \"#utility.yul\":7761:7767   */\n      dup3\n        /* \"#utility.yul\":7754:7759   */\n      dup2\n        /* \"#utility.yul\":7747:7768   */\n      mstore\n        /* \"#utility.yul\":7799:7803   */\n      0x20\n        /* \"#utility.yul\":7792:7797   */\n      dup2\n        /* \"#utility.yul\":7788:7804   */\n      add\n        /* \"#utility.yul\":7837:7840   */\n      dup5\n        /* \"#utility.yul\":7828:7834   */\n      dup5\n        /* \"#utility.yul\":7823:7826   */\n      dup5\n        /* \"#utility.yul\":7819:7835   */\n      add\n        /* \"#utility.yul\":7816:7841   */\n      gt\n        /* \"#utility.yul\":7813:7925   */\n      iszero\n      tag_379\n      jumpi\n        /* \"#utility.yul\":7844:7923   */\n      tag_380\n      tag_242\n      jump\t// in\n    tag_380:\n        /* \"#utility.yul\":7813:7925   */\n    tag_379:\n        /* \"#utility.yul\":7934:7988   */\n      tag_381\n        /* \"#utility.yul\":7981:7987   */\n      dup5\n        /* \"#utility.yul\":7976:7979   */\n      dup3\n        /* \"#utility.yul\":7971:7974   */\n      dup6\n        /* \"#utility.yul\":7934:7988   */\n      tag_247\n      jump\t// in\n    tag_381:\n        /* \"#utility.yul\":7653:7994   */\n      pop\n        /* \"#utility.yul\":7569:7994   */\n      swap4\n      swap3\n      pop\n      pop\n      pop\n      jump\t// out\n        /* \"#utility.yul\":8014:8354   */\n    tag_252:\n        /* \"#utility.yul\":8070:8075   */\n      0x00\n        /* \"#utility.yul\":8119:8122   */\n      dup3\n        /* \"#utility.yul\":8112:8116   */\n      0x1f\n        /* \"#utility.yul\":8104:8110   */\n      dup4\n        /* \"#utility.yul\":8100:8117   */\n      add\n        /* \"#utility.yul\":8096:8123   */\n      slt\n        /* \"#utility.yul\":8086:8208   */\n      tag_383\n      jumpi\n        /* \"#utility.yul\":8127:8206   */\n      tag_384\n      tag_241\n      jump\t// in\n    tag_384:\n        /* \"#utility.yul\":8086:8208   */\n    tag_383:\n        /* \"#utility.yul\":8244:8250   */\n      dup2\n        /* \"#utility.yul\":8231:8251   */\n      calldataload\n        /* \"#utility.yul\":8269:8348   */\n      tag_385\n        /* \"#utility.yul\":8344:8347   */\n      dup5\n        /* \"#utility.yul\":8336:8342   */\n      dup3\n        /* \"#utility.yul\":8329:8333   */\n      0x20\n        /* \"#utility.yul\":8321:8327   */\n      dup7\n        /* \"#utility.yul\":8317:8334   */\n      add\n        /* \"#utility.yul\":8269:8348   */\n      tag_251\n      jump\t// in\n    tag_385:\n        /* \"#utility.yul\":8260:8348   */\n      swap2\n      pop\n        /* \"#utility.yul\":8076:8354   */\n      pop\n        /* \"#utility.yul\":8014:8354   */\n      swap3\n      swap2\n      pop\n      pop\n      jump\t// out\n        /* \"#utility.yul\":8360:9955   */\n    tag_74:\n        /* \"#utility.yul\":8493:8499   */\n      0x00\n        /* \"#utility.yul\":8501:8507   */\n      dup1\n        /* \"#utility.yul\":8509:8515   */\n      0x00\n        /* \"#utility.yul\":8517:8523   */\n      dup1\n        /* \"#utility.yul\":8525:8531   */\n      0x00\n        /* \"#utility.yul\":8533:8539   */\n      dup1\n        /* \"#utility.yul\":8582:8585   */\n      0xc0\n        /* \"#utility.yul\":8570:8579   */\n      dup8\n        /* \"#utility.yul\":8561:8568   */\n      dup10\n        /* \"#utility.yul\":8557:8580   */\n      sub\n        /* \"#utility.yul\":8553:8586   */\n      slt\n        /* \"#utility.yul\":8550:8670   */\n      iszero\n      tag_387\n      jumpi\n        /* \"#utility.yul\":8589:8668   */\n      tag_388\n      tag_223\n      jump\t// in\n    tag_388:\n        /* \"#utility.yul\":8550:8670   */\n    tag_387:\n        /* \"#utility.yul\":8709:8710   */\n      0x00\n        /* \"#utility.yul\":8734:8787   */\n      tag_389\n        /* \"#utility.yul\":8779:8786   */\n      dup10\n        /* \"#utility.yul\":8770:8776   */\n      dup3\n        /* \"#utility.yul\":8759:8768   */\n      dup11\n        /* \"#utility.yul\":8755:8777   */\n      add\n        /* \"#utility.yul\":8734:8787   */\n      tag_237\n      jump\t// in\n    tag_389:\n        /* \"#utility.yul\":8724:8787   */\n      swap7\n      pop\n        /* \"#utility.yul\":8680:8797   */\n      pop\n        /* \"#utility.yul\":8864:8866   */\n      0x20\n        /* \"#utility.yul\":8853:8862   */\n      dup8\n        /* \"#utility.yul\":8849:8867   */\n      add\n        /* \"#utility.yul\":8836:8868   */\n      calldataload\n        /* \"#utility.yul\":8895:8913   */\n      0xffffffffffffffff\n        /* \"#utility.yul\":8887:8893   */\n      dup2\n        /* \"#utility.yul\":8884:8914   */\n      gt\n        /* \"#utility.yul\":8881:8998   */\n      iszero\n      tag_390\n      jumpi\n        /* \"#utility.yul\":8917:8996   */\n      tag_391\n      tag_224\n      jump\t// in\n    tag_391:\n        /* \"#utility.yul\":8881:8998   */\n    tag_390:\n        /* \"#utility.yul\":9022:9085   */\n      tag_392\n        /* \"#utility.yul\":9077:9084   */\n      dup10\n        /* \"#utility.yul\":9068:9074   */\n      dup3\n        /* \"#utility.yul\":9057:9066   */\n      dup11\n        /* \"#utility.yul\":9053:9075   */\n      add\n        /* \"#utility.yul\":9022:9085   */\n      tag_252\n      jump\t// in\n    tag_392:\n        /* \"#utility.yul\":9012:9085   */\n      swap6\n      pop\n        /* \"#utility.yul\":8807:9095   */\n      pop\n        /* \"#utility.yul\":9162:9164   */\n      0x40\n        /* \"#utility.yul\":9151:9160   */\n      dup8\n        /* \"#utility.yul\":9147:9165   */\n      add\n        /* \"#utility.yul\":9134:9166   */\n      calldataload\n        /* \"#utility.yul\":9193:9211   */\n      0xffffffffffffffff\n        /* \"#utility.yul\":9185:9191   */\n      dup2\n        /* \"#utility.yul\":9182:9212   */\n      gt\n        /* \"#utility.yul\":9179:9296   */\n      iszero\n      tag_393\n      jumpi\n        /* \"#utility.yul\":9215:9294   */\n      tag_394\n      tag_224\n      jump\t// in\n    tag_394:\n        /* \"#utility.yul\":9179:9296   */\n    tag_393:\n        /* \"#utility.yul\":9320:9383   */\n      tag_395\n        /* \"#utility.yul\":9375:9382   */\n      dup10\n        /* \"#utility.yul\":9366:9372   */\n      dup3\n        /* \"#utility.yul\":9355:9364   */\n      dup11\n        /* \"#utility.yul\":9351:9373   */\n      add\n        /* \"#utility.yul\":9320:9383   */\n      tag_252\n      jump\t// in\n    tag_395:\n        /* \"#utility.yul\":9310:9383   */\n      swap5\n      pop\n        /* \"#utility.yul\":9105:9393   */\n      pop\n        /* \"#utility.yul\":9432:9434   */\n      0x60\n        /* \"#utility.yul\":9458:9511   */\n      tag_396\n        /* \"#utility.yul\":9503:9510   */\n      dup10\n        /* \"#utility.yul\":9494:9500   */\n      dup3\n        /* \"#utility.yul\":9483:9492   */\n      dup11\n        /* \"#utility.yul\":9479:9501   */\n      add\n        /* \"#utility.yul\":9458:9511   */\n      tag_240\n      jump\t// in\n    tag_396:\n        /* \"#utility.yul\":9448:9511   */\n      swap4\n      pop\n        /* \"#utility.yul\":9403:9521   */\n      pop\n        /* \"#utility.yul\":9560:9563   */\n      0x80\n        /* \"#utility.yul\":9587:9640   */\n      tag_397\n        /* \"#utility.yul\":9632:9639   */\n      dup10\n        /* \"#utility.yul\":9623:9629   */\n      dup3\n        /* \"#utility.yul\":9612:9621   */\n      dup11\n        /* \"#utility.yul\":9608:9630   */\n      add\n        /* \"#utility.yul\":9587:9640   */\n      tag_237\n      jump\t// in\n    tag_397:\n        /* \"#utility.yul\":9577:9640   */\n      swap3\n      pop\n        /* \"#utility.yul\":9531:9650   */\n      pop\n        /* \"#utility.yul\":9717:9720   */\n      0xa0\n        /* \"#utility.yul\":9706:9715   */\n      dup8\n        /* \"#utility.yul\":9702:9721   */\n      add\n        /* \"#utility.yul\":9689:9722   */\n      calldataload\n        /* \"#utility.yul\":9749:9767   */\n      0xffffffffffffffff\n        /* \"#utility.yul\":9741:9747   */\n      dup2\n        /* \"#utility.yul\":9738:9768   */\n      gt\n        /* \"#utility.yul\":9735:9852   */\n      iszero\n      tag_398\n      jumpi\n        /* \"#utility.yul\":9771:9850   */\n      tag_399\n      tag_224\n      jump\t// in\n    tag_399:\n        /* \"#utility.yul\":9735:9852   */\n    tag_398:\n        /* \"#utility.yul\":9876:9938   */\n      tag_400\n        /* \"#utility.yul\":9930:9937   */\n      dup10\n        /* \"#utility.yul\":9921:9927   */\n      dup3\n        /* \"#utility.yul\":9910:9919   */\n      dup11\n        /* \"#utility.yul\":9906:9928   */\n      add\n        /* \"#utility.yul\":9876:9938   */\n      tag_249\n      jump\t// in\n    tag_400:\n        /* \"#utility.yul\":9866:9938   */\n      swap2\n      pop\n        /* \"#utility.yul\":9660:9948   */\n      pop\n        /* \"#utility.yul\":8360:9955   */\n      swap3\n      swap6\n      pop\n      swap3\n      swap6\n      pop\n      swap3\n      swap6\n      jump\t// out\n        /* \"#utility.yul\":9961:10613   */\n    tag_87:\n        /* \"#utility.yul\":10038:10044   */\n      0x00\n        /* \"#utility.yul\":10046:10052   */\n      dup1\n        /* \"#utility.yul\":10095:10097   */\n      0x40\n        /* \"#utility.yul\":10083:10092   */\n      dup4\n        /* \"#utility.yul\":10074:10081   */\n      dup6\n        /* \"#utility.yul\":10070:10093   */\n      sub\n        /* \"#utility.yul\":10066:10098   */\n      slt\n        /* \"#utility.yul\":10063:10182   */\n      iszero\n      tag_402\n      jumpi\n        /* \"#utility.yul\":10101:10180   */\n      tag_403\n      tag_223\n      jump\t// in\n    tag_403:\n        /* \"#utility.yul\":10063:10182   */\n    tag_402:\n        /* \"#utility.yul\":10221:10222   */\n      0x00\n        /* \"#utility.yul\":10246:10299   */\n      tag_404\n        /* \"#utility.yul\":10291:10298   */\n      dup6\n        /* \"#utility.yul\":10282:10288   */\n      dup3\n        /* \"#utility.yul\":10271:10280   */\n      dup7\n        /* \"#utility.yul\":10267:10289   */\n      add\n        /* \"#utility.yul\":10246:10299   */\n      tag_240\n      jump\t// in\n    tag_404:\n        /* \"#utility.yul\":10236:10299   */\n      swap3\n      pop\n        /* \"#utility.yul\":10192:10309   */\n      pop\n        /* \"#utility.yul\":10376:10378   */\n      0x20\n        /* \"#utility.yul\":10365:10374   */\n      dup4\n        /* \"#utility.yul\":10361:10379   */\n      add\n        /* \"#utility.yul\":10348:10380   */\n      calldataload\n        /* \"#utility.yul\":10407:10425   */\n      0xffffffffffffffff\n        /* \"#utility.yul\":10399:10405   */\n      dup2\n        /* \"#utility.yul\":10396:10426   */\n      gt\n        /* \"#utility.yul\":10393:10510   */\n      iszero\n      tag_405\n      jumpi\n        /* \"#utility.yul\":10429:10508   */\n      tag_406\n      tag_224\n      jump\t// in\n    tag_406:\n        /* \"#utility.yul\":10393:10510   */\n    tag_405:\n        /* \"#utility.yul\":10534:10596   */\n      tag_407\n        /* \"#utility.yul\":10588:10595   */\n      dup6\n        /* \"#utility.yul\":10579:10585   */\n      dup3\n        /* \"#utility.yul\":10568:10577   */\n      dup7\n        /* \"#utility.yul\":10564:10586   */\n      add\n        /* \"#utility.yul\":10534:10596   */\n      tag_249\n      jump\t// in\n    tag_407:\n        /* \"#utility.yul\":10524:10596   */\n      swap2\n      pop\n        /* \"#utility.yul\":10319:10606   */\n      pop\n        /* \"#utility.yul\":9961:10613   */\n      swap3\n      pop\n      swap3\n      swap1\n      pop\n      jump\t// out\n        /* \"#utility.yul\":10619:10788   */\n    tag_253:\n        /* \"#utility.yul\":10703:10714   */\n      0x00\n        /* \"#utility.yul\":10737:10743   */\n      dup3\n        /* \"#utility.yul\":10732:10735   */\n      dup3\n        /* \"#utility.yul\":10725:10744   */\n      mstore\n        /* \"#utility.yul\":10777:10781   */\n      0x20\n        /* \"#utility.yul\":10772:10775   */\n      dup3\n        /* \"#utility.yul\":10768:10782   */\n      add\n        /* \"#utility.yul\":10753:10782   */\n      swap1\n      pop\n        /* \"#utility.yul\":10619:10788   */\n      swap3\n      swap2\n      pop\n      pop\n      jump\t// out\n        /* \"#utility.yul\":10794:11028   */\n    tag_254:\n        /* \"#utility.yul\":10934:10968   */\n      0x416363657373436f6e74726f6c3a2063616e206f6e6c792072656e6f756e6365\n        /* \"#utility.yul\":10930:10931   */\n      0x00\n        /* \"#utility.yul\":10922:10928   */\n      dup3\n        /* \"#utility.yul\":10918:10932   */\n      add\n        /* \"#utility.yul\":10911:10969   */\n      mstore\n        /* \"#utility.yul\":11003:11020   */\n      0x20726f6c657320666f722073656c660000000000000000000000000000000000\n        /* \"#utility.yul\":10998:11000   */\n      0x20\n        /* \"#utility.yul\":10990:10996   */\n      dup3\n        /* \"#utility.yul\":10986:11001   */\n      add\n        /* \"#utility.yul\":10979:11021   */\n      mstore\n        /* \"#utility.yul\":10794:11028   */\n      pop\n      jump\t// out\n        /* \"#utility.yul\":11034:11400   */\n    tag_255:\n        /* \"#utility.yul\":11176:11179   */\n      0x00\n        /* \"#utility.yul\":11197:11264   */\n      tag_411\n        /* \"#utility.yul\":11261:11263   */\n      0x2f\n        /* \"#utility.yul\":11256:11259   */\n      dup4\n        /* \"#utility.yul\":11197:11264   */\n      tag_253\n      jump\t// in\n    tag_411:\n        /* \"#utility.yul\":11190:11264   */\n      swap2\n      pop\n        /* \"#utility.yul\":11273:11366   */\n      tag_412\n        /* \"#utility.yul\":11362:11365   */\n      dup3\n        /* \"#utility.yul\":11273:11366   */\n      tag_254\n      jump\t// in\n    tag_412:\n        /* \"#utility.yul\":11391:11393   */\n      0x40\n        /* \"#utility.yul\":11386:11389   */\n      dup3\n        /* \"#utility.yul\":11382:11394   */\n      add\n        /* \"#utility.yul\":11375:11394   */\n      swap1\n      pop\n        /* \"#utility.yul\":11034:11400   */\n      swap2\n      swap1\n      pop\n      jump\t// out\n        /* \"#utility.yul\":11406:11825   */\n    tag_113:\n        /* \"#utility.yul\":11572:11576   */\n      0x00\n        /* \"#utility.yul\":11610:11612   */\n      0x20\n        /* \"#utility.yul\":11599:11608   */\n      dup3\n        /* \"#utility.yul\":11595:11613   */\n      add\n        /* \"#utility.yul\":11587:11613   */\n      swap1\n      pop\n        /* \"#utility.yul\":11659:11668   */\n      dup2\n        /* \"#utility.yul\":11653:11657   */\n      dup2\n        /* \"#utility.yul\":11649:11669   */\n      sub\n        /* \"#utility.yul\":11645:11646   */\n      0x00\n        /* \"#utility.yul\":11634:11643   */\n      dup4\n        /* \"#utility.yul\":11630:11647   */\n      add\n        /* \"#utility.yul\":11623:11670   */\n      mstore\n        /* \"#utility.yul\":11687:11818   */\n      tag_414\n        /* \"#utility.yul\":11813:11817   */\n      dup2\n        /* \"#utility.yul\":11687:11818   */\n      tag_255\n      jump\t// in\n    tag_414:\n        /* \"#utility.yul\":11679:11818   */\n      swap1\n      pop\n        /* \"#utility.yul\":11406:11825   */\n      swap2\n      swap1\n      pop\n      jump\t// out\n        /* \"#utility.yul\":11831:11949   */\n    tag_256:\n        /* \"#utility.yul\":11918:11942   */\n      tag_416\n        /* \"#utility.yul\":11936:11941   */\n      dup2\n        /* \"#utility.yul\":11918:11942   */\n      tag_235\n      jump\t// in\n    tag_416:\n        /* \"#utility.yul\":11913:11916   */\n      dup3\n        /* \"#utility.yul\":11906:11943   */\n      mstore\n        /* \"#utility.yul\":11831:11949   */\n      pop\n      pop\n      jump\t// out\n        /* \"#utility.yul\":11955:12073   */\n    tag_257:\n        /* \"#utility.yul\":12042:12066   */\n      tag_418\n        /* \"#utility.yul\":12060:12065   */\n      dup2\n        /* \"#utility.yul\":12042:12066   */\n      tag_238\n      jump\t// in\n    tag_418:\n        /* \"#utility.yul\":12037:12040   */\n      dup3\n        /* \"#utility.yul\":12030:12067   */\n      mstore\n        /* \"#utility.yul\":11955:12073   */\n      pop\n      pop\n      jump\t// out\n        /* \"#utility.yul\":12079:12177   */\n    tag_258:\n        /* \"#utility.yul\":12130:12136   */\n      0x00\n        /* \"#utility.yul\":12164:12169   */\n      dup2\n        /* \"#utility.yul\":12158:12170   */\n      mload\n        /* \"#utility.yul\":12148:12170   */\n      swap1\n      pop\n        /* \"#utility.yul\":12079:12177   */\n      swap2\n      swap1\n      pop\n      jump\t// out\n        /* \"#utility.yul\":12183:12351   */\n    tag_259:\n        /* \"#utility.yul\":12266:12277   */\n      0x00\n        /* \"#utility.yul\":12300:12306   */\n      dup3\n        /* \"#utility.yul\":12295:12298   */\n      dup3\n        /* \"#utility.yul\":12288:12307   */\n      mstore\n        /* \"#utility.yul\":12340:12344   */\n      0x20\n        /* \"#utility.yul\":12335:12338   */\n      dup3\n        /* \"#utility.yul\":12331:12345   */\n      add\n        /* \"#utility.yul\":12316:12345   */\n      swap1\n      pop\n        /* \"#utility.yul\":12183:12351   */\n      swap3\n      swap2\n      pop\n      pop\n      jump\t// out\n        /* \"#utility.yul\":12357:12603   */\n    tag_260:\n        /* \"#utility.yul\":12438:12439   */\n      0x00\n        /* \"#utility.yul\":12448:12561   */\n    tag_422:\n        /* \"#utility.yul\":12462:12468   */\n      dup4\n        /* \"#utility.yul\":12459:12460   */\n      dup2\n        /* \"#utility.yul\":12456:12469   */\n      lt\n        /* \"#utility.yul\":12448:12561   */\n      iszero\n      tag_424\n      jumpi\n        /* \"#utility.yul\":12547:12548   */\n      dup1\n        /* \"#utility.yul\":12542:12545   */\n      dup3\n        /* \"#utility.yul\":12538:12549   */\n      add\n        /* \"#utility.yul\":12532:12550   */\n      mload\n        /* \"#utility.yul\":12528:12529   */\n      dup2\n        /* \"#utility.yul\":12523:12526   */\n      dup5\n        /* \"#utility.yul\":12519:12530   */\n      add\n        /* \"#utility.yul\":12512:12551   */\n      mstore\n        /* \"#utility.yul\":12484:12486   */\n      0x20\n        /* \"#utility.yul\":12481:12482   */\n      dup2\n        /* \"#utility.yul\":12477:12487   */\n      add\n        /* \"#utility.yul\":12472:12487   */\n      swap1\n      pop\n        /* \"#utility.yul\":12448:12561   */\n      jump(tag_422)\n    tag_424:\n        /* \"#utility.yul\":12595:12596   */\n      0x00\n        /* \"#utility.yul\":12586:12592   */\n      dup5\n        /* \"#utility.yul\":12581:12584   */\n      dup5\n        /* \"#utility.yul\":12577:12593   */\n      add\n        /* \"#utility.yul\":12570:12597   */\n      mstore\n        /* \"#utility.yul\":12419:12603   */\n      pop\n        /* \"#utility.yul\":12357:12603   */\n      pop\n      pop\n      pop\n      jump\t// out\n        /* \"#utility.yul\":12609:12982   */\n    tag_261:\n        /* \"#utility.yul\":12695:12698   */\n      0x00\n        /* \"#utility.yul\":12723:12761   */\n      tag_426\n        /* \"#utility.yul\":12755:12760   */\n      dup3\n        /* \"#utility.yul\":12723:12761   */\n      tag_258\n      jump\t// in\n    tag_426:\n        /* \"#utility.yul\":12777:12847   */\n      tag_427\n        /* \"#utility.yul\":12840:12846   */\n      dup2\n        /* \"#utility.yul\":12835:12838   */\n      dup6\n        /* \"#utility.yul\":12777:12847   */\n      tag_259\n      jump\t// in\n    tag_427:\n        /* \"#utility.yul\":12770:12847   */\n      swap4\n      pop\n        /* \"#utility.yul\":12856:12921   */\n      tag_428\n        /* \"#utility.yul\":12914:12920   */\n      dup2\n        /* \"#utility.yul\":12909:12912   */\n      dup6\n        /* \"#utility.yul\":12902:12906   */\n      0x20\n        /* \"#utility.yul\":12895:12900   */\n      dup7\n        /* \"#utility.yul\":12891:12907   */\n      add\n        /* \"#utility.yul\":12856:12921   */\n      tag_260\n      jump\t// in\n    tag_428:\n        /* \"#utility.yul\":12946:12975   */\n      tag_429\n        /* \"#utility.yul\":12968:12974   */\n      dup2\n        /* \"#utility.yul\":12946:12975   */\n      tag_243\n      jump\t// in\n    tag_429:\n        /* \"#utility.yul\":12941:12944   */\n      dup5\n        /* \"#utility.yul\":12937:12976   */\n      add\n        /* \"#utility.yul\":12930:12976   */\n      swap2\n      pop\n        /* \"#utility.yul\":12699:12982   */\n      pop\n        /* \"#utility.yul\":12609:12982   */\n      swap3\n      swap2\n      pop\n      pop\n      jump\t// out\n        /* \"#utility.yul\":12988:13517   */\n    tag_161:\n        /* \"#utility.yul\":13155:13159   */\n      0x00\n        /* \"#utility.yul\":13193:13195   */\n      0x60\n        /* \"#utility.yul\":13182:13191   */\n      dup3\n        /* \"#utility.yul\":13178:13196   */\n      add\n        /* \"#utility.yul\":13170:13196   */\n      swap1\n      pop\n        /* \"#utility.yul\":13206:13277   */\n      tag_431\n        /* \"#utility.yul\":13274:13275   */\n      0x00\n        /* \"#utility.yul\":13263:13272   */\n      dup4\n        /* \"#utility.yul\":13259:13276   */\n      add\n        /* \"#utility.yul\":13250:13256   */\n      dup7\n        /* \"#utility.yul\":13206:13277   */\n      tag_256\n      jump\t// in\n    tag_431:\n        /* \"#utility.yul\":13287:13359   */\n      tag_432\n        /* \"#utility.yul\":13355:13357   */\n      0x20\n        /* \"#utility.yul\":13344:13353   */\n      dup4\n        /* \"#utility.yul\":13340:13358   */\n      add\n        /* \"#utility.yul\":13331:13337   */\n      dup6\n        /* \"#utility.yul\":13287:13359   */\n      tag_257\n      jump\t// in\n    tag_432:\n        /* \"#utility.yul\":13406:13415   */\n      dup2\n        /* \"#utility.yul\":13400:13404   */\n      dup2\n        /* \"#utility.yul\":13396:13416   */\n      sub\n        /* \"#utility.yul\":13391:13393   */\n      0x40\n        /* \"#utility.yul\":13380:13389   */\n      dup4\n        /* \"#utility.yul\":13376:13394   */\n      add\n        /* \"#utility.yul\":13369:13417   */\n      mstore\n        /* \"#utility.yul\":13434:13510   */\n      tag_433\n        /* \"#utility.yul\":13505:13509   */\n      dup2\n        /* \"#utility.yul\":13496:13502   */\n      dup5\n        /* \"#utility.yul\":13434:13510   */\n      tag_261\n      jump\t// in\n    tag_433:\n        /* \"#utility.yul\":13426:13510   */\n      swap1\n      pop\n        /* \"#utility.yul\":12988:13517   */\n      swap5\n      swap4\n      pop\n      pop\n      pop\n      pop\n      jump\t// out\n        /* \"#utility.yul\":13523:13745   */\n    tag_167:\n        /* \"#utility.yul\":13616:13620   */\n      0x00\n        /* \"#utility.yul\":13654:13656   */\n      0x20\n        /* \"#utility.yul\":13643:13652   */\n      dup3\n        /* \"#utility.yul\":13639:13657   */\n      add\n        /* \"#utility.yul\":13631:13657   */\n      swap1\n      pop\n        /* \"#utility.yul\":13667:13738   */\n      tag_435\n        /* \"#utility.yul\":13735:13736   */\n      0x00\n        /* \"#utility.yul\":13724:13733   */\n      dup4\n        /* \"#utility.yul\":13720:13737   */\n      add\n        /* \"#utility.yul\":13711:13717   */\n      dup5\n        /* \"#utility.yul\":13667:13738   */\n      tag_256\n      jump\t// in\n    tag_435:\n        /* \"#utility.yul\":13523:13745   */\n      swap3\n      swap2\n      pop\n      pop\n      jump\t// out\n        /* \"#utility.yul\":13751:13811   */\n    tag_262:\n        /* \"#utility.yul\":13779:13782   */\n      0x00\n        /* \"#utility.yul\":13800:13805   */\n      dup2\n        /* \"#utility.yul\":13793:13805   */\n      swap1\n      pop\n        /* \"#utility.yul\":13751:13811   */\n      swap2\n      swap1\n      pop\n      jump\t// out\n        /* \"#utility.yul\":13817:13959   */\n    tag_263:\n        /* \"#utility.yul\":13867:13876   */\n      0x00\n        /* \"#utility.yul\":13900:13953   */\n      tag_438\n        /* \"#utility.yul\":13918:13952   */\n      tag_439\n        /* \"#utility.yul\":13927:13951   */\n      tag_440\n        /* \"#utility.yul\":13945:13950   */\n      dup5\n        /* \"#utility.yul\":13927:13951   */\n      tag_234\n      jump\t// in\n    tag_440:\n        /* \"#utility.yul\":13918:13952   */\n      tag_262\n      jump\t// in\n    tag_439:\n        /* \"#utility.yul\":13900:13953   */\n      tag_234\n      jump\t// in\n    tag_438:\n        /* \"#utility.yul\":13887:13953   */\n      swap1\n      pop\n        /* \"#utility.yul\":13817:13959   */\n      swap2\n      swap1\n      pop\n      jump\t// out\n        /* \"#utility.yul\":13965:14091   */\n    tag_264:\n        /* \"#utility.yul\":14015:14024   */\n      0x00\n        /* \"#utility.yul\":14048:14085   */\n      tag_442\n        /* \"#utility.yul\":14079:14084   */\n      dup3\n        /* \"#utility.yul\":14048:14085   */\n      tag_263\n      jump\t// in\n    tag_442:\n        /* \"#utility.yul\":14035:14085   */\n      swap1\n      pop\n        /* \"#utility.yul\":13965:14091   */\n      swap2\n      swap1\n      pop\n      jump\t// out\n        /* \"#utility.yul\":14097:14237   */\n    tag_265:\n        /* \"#utility.yul\":14161:14170   */\n      0x00\n        /* \"#utility.yul\":14194:14231   */\n      tag_444\n        /* \"#utility.yul\":14225:14230   */\n      dup3\n        /* \"#utility.yul\":14194:14231   */\n      tag_264\n      jump\t// in\n    tag_444:\n        /* \"#utility.yul\":14181:14231   */\n      swap1\n      pop\n        /* \"#utility.yul\":14097:14237   */\n      swap2\n      swap1\n      pop\n      jump\t// out\n        /* \"#utility.yul\":14243:14402   */\n    tag_266:\n        /* \"#utility.yul\":14344:14395   */\n      tag_446\n        /* \"#utility.yul\":14389:14394   */\n      dup2\n        /* \"#utility.yul\":14344:14395   */\n      tag_265\n      jump\t// in\n    tag_446:\n        /* \"#utility.yul\":14339:14342   */\n      dup3\n        /* \"#utility.yul\":14332:14396   */\n      mstore\n        /* \"#utility.yul\":14243:14402   */\n      pop\n      pop\n      jump\t// out\n        /* \"#utility.yul\":14408:14494   */\n    tag_267:\n        /* \"#utility.yul\":14454:14461   */\n      0x00\n        /* \"#utility.yul\":14483:14488   */\n      dup2\n        /* \"#utility.yul\":14472:14488   */\n      swap1\n      pop\n        /* \"#utility.yul\":14408:14494   */\n      swap2\n      swap1\n      pop\n      jump\t// out\n        /* \"#utility.yul\":14500:14586   */\n    tag_268:\n        /* \"#utility.yul\":14535:14542   */\n      0x00\n        /* \"#utility.yul\":14575:14579   */\n      0xff\n        /* \"#utility.yul\":14568:14573   */\n      dup3\n        /* \"#utility.yul\":14564:14580   */\n      and\n        /* \"#utility.yul\":14553:14580   */\n      swap1\n      pop\n        /* \"#utility.yul\":14500:14586   */\n      swap2\n      swap1\n      pop\n      jump\t// out\n        /* \"#utility.yul\":14592:14748   */\n    tag_269:\n        /* \"#utility.yul\":14649:14658   */\n      0x00\n        /* \"#utility.yul\":14682:14742   */\n      tag_450\n        /* \"#utility.yul\":14698:14741   */\n      tag_451\n        /* \"#utility.yul\":14707:14740   */\n      tag_452\n        /* \"#utility.yul\":14734:14739   */\n      dup5\n        /* \"#utility.yul\":14707:14740   */\n      tag_267\n      jump\t// in\n    tag_452:\n        /* \"#utility.yul\":14698:14741   */\n      tag_262\n      jump\t// in\n    tag_451:\n        /* \"#utility.yul\":14682:14742   */\n      tag_268\n      jump\t// in\n    tag_450:\n        /* \"#utility.yul\":14669:14742   */\n      swap1\n      pop\n        /* \"#utility.yul\":14592:14748   */\n      swap2\n      swap1\n      pop\n      jump\t// out\n        /* \"#utility.yul\":14754:14899   */\n    tag_270:\n        /* \"#utility.yul\":14848:14892   */\n      tag_454\n        /* \"#utility.yul\":14886:14891   */\n      dup2\n        /* \"#utility.yul\":14848:14892   */\n      tag_269\n      jump\t// in\n    tag_454:\n        /* \"#utility.yul\":14843:14846   */\n      dup3\n        /* \"#utility.yul\":14836:14893   */\n      mstore\n        /* \"#utility.yul\":14754:14899   */\n      pop\n      pop\n      jump\t// out\n        /* \"#utility.yul\":14905:15004   */\n    tag_271:\n        /* \"#utility.yul\":14957:14963   */\n      0x00\n        /* \"#utility.yul\":14991:14996   */\n      dup2\n        /* \"#utility.yul\":14985:14997   */\n      mload\n        /* \"#utility.yul\":14975:14997   */\n      swap1\n      pop\n        /* \"#utility.yul\":14905:15004   */\n      swap2\n      swap1\n      pop\n      jump\t// out\n        /* \"#utility.yul\":15010:15387   */\n    tag_272:\n        /* \"#utility.yul\":15098:15101   */\n      0x00\n        /* \"#utility.yul\":15126:15165   */\n      tag_457\n        /* \"#utility.yul\":15159:15164   */\n      dup3\n        /* \"#utility.yul\":15126:15165   */\n      tag_271\n      jump\t// in\n    tag_457:\n        /* \"#utility.yul\":15181:15252   */\n      tag_458\n        /* \"#utility.yul\":15245:15251   */\n      dup2\n        /* \"#utility.yul\":15240:15243   */\n      dup6\n        /* \"#utility.yul\":15181:15252   */\n      tag_253\n      jump\t// in\n    tag_458:\n        /* \"#utility.yul\":15174:15252   */\n      swap4\n      pop\n        /* \"#utility.yul\":15261:15326   */\n      tag_459\n        /* \"#utility.yul\":15319:15325   */\n      dup2\n        /* \"#utility.yul\":15314:15317   */\n      dup6\n        /* \"#utility.yul\":15307:15311   */\n      0x20\n        /* \"#utility.yul\":15300:15305   */\n      dup7\n        /* \"#utility.yul\":15296:15312   */\n      add\n        /* \"#utility.yul\":15261:15326   */\n      tag_260\n      jump\t// in\n    tag_459:\n        /* \"#utility.yul\":15351:15380   */\n      tag_460\n        /* \"#utility.yul\":15373:15379   */\n      dup2\n        /* \"#utility.yul\":15351:15380   */\n      tag_243\n      jump\t// in\n    tag_460:\n        /* \"#utility.yul\":15346:15349   */\n      dup5\n        /* \"#utility.yul\":15342:15381   */\n      add\n        /* \"#utility.yul\":15335:15381   */\n      swap2\n      pop\n        /* \"#utility.yul\":15102:15387   */\n      pop\n        /* \"#utility.yul\":15010:15387   */\n      swap3\n      swap2\n      pop\n      pop\n      jump\t// out\n        /* \"#utility.yul\":15393:16170   */\n    tag_172:\n        /* \"#utility.yul\":15631:15635   */\n      0x00\n        /* \"#utility.yul\":15669:15672   */\n      0x80\n        /* \"#utility.yul\":15658:15667   */\n      dup3\n        /* \"#utility.yul\":15654:15673   */\n      add\n        /* \"#utility.yul\":15646:15673   */\n      swap1\n      pop\n        /* \"#utility.yul\":15683:15768   */\n      tag_462\n        /* \"#utility.yul\":15765:15766   */\n      0x00\n        /* \"#utility.yul\":15754:15763   */\n      dup4\n        /* \"#utility.yul\":15750:15767   */\n      add\n        /* \"#utility.yul\":15741:15747   */\n      dup8\n        /* \"#utility.yul\":15683:15768   */\n      tag_266\n      jump\t// in\n    tag_462:\n        /* \"#utility.yul\":15778:15857   */\n      tag_463\n        /* \"#utility.yul\":15853:15855   */\n      0x20\n        /* \"#utility.yul\":15842:15851   */\n      dup4\n        /* \"#utility.yul\":15838:15856   */\n      add\n        /* \"#utility.yul\":15829:15835   */\n      dup7\n        /* \"#utility.yul\":15778:15857   */\n      tag_270\n      jump\t// in\n    tag_463:\n        /* \"#utility.yul\":15904:15913   */\n      dup2\n        /* \"#utility.yul\":15898:15902   */\n      dup2\n        /* \"#utility.yul\":15894:15914   */\n      sub\n        /* \"#utility.yul\":15889:15891   */\n      0x40\n        /* \"#utility.yul\":15878:15887   */\n      dup4\n        /* \"#utility.yul\":15874:15892   */\n      add\n        /* \"#utility.yul\":15867:15915   */\n      mstore\n        /* \"#utility.yul\":15932:16010   */\n      tag_464\n        /* \"#utility.yul\":16005:16009   */\n      dup2\n        /* \"#utility.yul\":15996:16002   */\n      dup6\n        /* \"#utility.yul\":15932:16010   */\n      tag_272\n      jump\t// in\n    tag_464:\n        /* \"#utility.yul\":15924:16010   */\n      swap1\n      pop\n        /* \"#utility.yul\":16057:16066   */\n      dup2\n        /* \"#utility.yul\":16051:16055   */\n      dup2\n        /* \"#utility.yul\":16047:16067   */\n      sub\n        /* \"#utility.yul\":16042:16044   */\n      0x60\n        /* \"#utility.yul\":16031:16040   */\n      dup4\n        /* \"#utility.yul\":16027:16045   */\n      add\n        /* \"#utility.yul\":16020:16068   */\n      mstore\n        /* \"#utility.yul\":16085:16163   */\n      tag_465\n        /* \"#utility.yul\":16158:16162   */\n      dup2\n        /* \"#utility.yul\":16149:16155   */\n      dup5\n        /* \"#utility.yul\":16085:16163   */\n      tag_272\n      jump\t// in\n    tag_465:\n        /* \"#utility.yul\":16077:16163   */\n      swap1\n      pop\n        /* \"#utility.yul\":15393:16170   */\n      swap6\n      swap5\n      pop\n      pop\n      pop\n      pop\n      pop\n      jump\t// out\n        /* \"#utility.yul\":16176:16324   */\n    tag_273:\n        /* \"#utility.yul\":16278:16289   */\n      0x00\n        /* \"#utility.yul\":16315:16318   */\n      dup2\n        /* \"#utility.yul\":16300:16318   */\n      swap1\n      pop\n        /* \"#utility.yul\":16176:16324   */\n      swap3\n      swap2\n      pop\n      pop\n      jump\t// out\n        /* \"#utility.yul\":16330:16503   */\n    tag_274:\n        /* \"#utility.yul\":16470:16495   */\n      0x416363657373436f6e74726f6c3a206163636f756e7420000000000000000000\n        /* \"#utility.yul\":16466:16467   */\n      0x00\n        /* \"#utility.yul\":16458:16464   */\n      dup3\n        /* \"#utility.yul\":16454:16468   */\n      add\n        /* \"#utility.yul\":16447:16496   */\n      mstore\n        /* \"#utility.yul\":16330:16503   */\n      pop\n      jump\t// out\n        /* \"#utility.yul\":16509:16911   */\n    tag_275:\n        /* \"#utility.yul\":16669:16672   */\n      0x00\n        /* \"#utility.yul\":16690:16775   */\n      tag_469\n        /* \"#utility.yul\":16772:16774   */\n      0x17\n        /* \"#utility.yul\":16767:16770   */\n      dup4\n        /* \"#utility.yul\":16690:16775   */\n      tag_273\n      jump\t// in\n    tag_469:\n        /* \"#utility.yul\":16683:16775   */\n      swap2\n      pop\n        /* \"#utility.yul\":16784:16877   */\n      tag_470\n        /* \"#utility.yul\":16873:16876   */\n      dup3\n        /* \"#utility.yul\":16784:16877   */\n      tag_274\n      jump\t// in\n    tag_470:\n        /* \"#utility.yul\":16902:16904   */\n      0x17\n        /* \"#utility.yul\":16897:16900   */\n      dup3\n        /* \"#utility.yul\":16893:16905   */\n      add\n        /* \"#utility.yul\":16886:16905   */\n      swap1\n      pop\n        /* \"#utility.yul\":16509:16911   */\n      swap2\n      swap1\n      pop\n      jump\t// out\n        /* \"#utility.yul\":16917:17307   */\n    tag_276:\n        /* \"#utility.yul\":17023:17026   */\n      0x00\n        /* \"#utility.yul\":17051:17090   */\n      tag_472\n        /* \"#utility.yul\":17084:17089   */\n      dup3\n        /* \"#utility.yul\":17051:17090   */\n      tag_271\n      jump\t// in\n    tag_472:\n        /* \"#utility.yul\":17106:17195   */\n      tag_473\n        /* \"#utility.yul\":17188:17194   */\n      dup2\n        /* \"#utility.yul\":17183:17186   */\n      dup6\n        /* \"#utility.yul\":17106:17195   */\n      tag_273\n      jump\t// in\n    tag_473:\n        /* \"#utility.yul\":17099:17195   */\n      swap4\n      pop\n        /* \"#utility.yul\":17204:17269   */\n      tag_474\n        /* \"#utility.yul\":17262:17268   */\n      dup2\n        /* \"#utility.yul\":17257:17260   */\n      dup6\n        /* \"#utility.yul\":17250:17254   */\n      0x20\n        /* \"#utility.yul\":17243:17248   */\n      dup7\n        /* \"#utility.yul\":17239:17255   */\n      add\n        /* \"#utility.yul\":17204:17269   */\n      tag_260\n      jump\t// in\n    tag_474:\n        /* \"#utility.yul\":17294:17300   */\n      dup1\n        /* \"#utility.yul\":17289:17292   */\n      dup5\n        /* \"#utility.yul\":17285:17301   */\n      add\n        /* \"#utility.yul\":17278:17301   */\n      swap2\n      pop\n        /* \"#utility.yul\":17027:17307   */\n      pop\n        /* \"#utility.yul\":16917:17307   */\n      swap3\n      swap2\n      pop\n      pop\n      jump\t// out\n        /* \"#utility.yul\":17313:17480   */\n    tag_277:\n        /* \"#utility.yul\":17453:17472   */\n      0x206973206d697373696e6720726f6c6520000000000000000000000000000000\n        /* \"#utility.yul\":17449:17450   */\n      0x00\n        /* \"#utility.yul\":17441:17447   */\n      dup3\n        /* \"#utility.yul\":17437:17451   */\n      add\n        /* \"#utility.yul\":17430:17473   */\n      mstore\n        /* \"#utility.yul\":17313:17480   */\n      pop\n      jump\t// out\n        /* \"#utility.yul\":17486:17888   */\n    tag_278:\n        /* \"#utility.yul\":17646:17649   */\n      0x00\n        /* \"#utility.yul\":17667:17752   */\n      tag_477\n        /* \"#utility.yul\":17749:17751   */\n      0x11\n        /* \"#utility.yul\":17744:17747   */\n      dup4\n        /* \"#utility.yul\":17667:17752   */\n      tag_273\n      jump\t// in\n    tag_477:\n        /* \"#utility.yul\":17660:17752   */\n      swap2\n      pop\n        /* \"#utility.yul\":17761:17854   */\n      tag_478\n        /* \"#utility.yul\":17850:17853   */\n      dup3\n        /* \"#utility.yul\":17761:17854   */\n      tag_277\n      jump\t// in\n    tag_478:\n        /* \"#utility.yul\":17879:17881   */\n      0x11\n        /* \"#utility.yul\":17874:17877   */\n      dup3\n        /* \"#utility.yul\":17870:17882   */\n      add\n        /* \"#utility.yul\":17863:17882   */\n      swap1\n      pop\n        /* \"#utility.yul\":17486:17888   */\n      swap2\n      swap1\n      pop\n      jump\t// out\n        /* \"#utility.yul\":17894:18861   */\n    tag_189:\n        /* \"#utility.yul\":18276:18279   */\n      0x00\n        /* \"#utility.yul\":18298:18446   */\n      tag_480\n        /* \"#utility.yul\":18442:18445   */\n      dup3\n        /* \"#utility.yul\":18298:18446   */\n      tag_275\n      jump\t// in\n    tag_480:\n        /* \"#utility.yul\":18291:18446   */\n      swap2\n      pop\n        /* \"#utility.yul\":18463:18558   */\n      tag_481\n        /* \"#utility.yul\":18554:18557   */\n      dup3\n        /* \"#utility.yul\":18545:18551   */\n      dup6\n        /* \"#utility.yul\":18463:18558   */\n      tag_276\n      jump\t// in\n    tag_481:\n        /* \"#utility.yul\":18456:18558   */\n      swap2\n      pop\n        /* \"#utility.yul\":18575:18723   */\n      tag_482\n        /* \"#utility.yul\":18719:18722   */\n      dup3\n        /* \"#utility.yul\":18575:18723   */\n      tag_278\n      jump\t// in\n    tag_482:\n        /* \"#utility.yul\":18568:18723   */\n      swap2\n      pop\n        /* \"#utility.yul\":18740:18835   */\n      tag_483\n        /* \"#utility.yul\":18831:18834   */\n      dup3\n        /* \"#utility.yul\":18822:18828   */\n      dup5\n        /* \"#utility.yul\":18740:18835   */\n      tag_276\n      jump\t// in\n    tag_483:\n        /* \"#utility.yul\":18733:18835   */\n      swap2\n      pop\n        /* \"#utility.yul\":18852:18855   */\n      dup2\n        /* \"#utility.yul\":18845:18855   */\n      swap1\n      pop\n        /* \"#utility.yul\":17894:18861   */\n      swap4\n      swap3\n      pop\n      pop\n      pop\n      jump\t// out\n        /* \"#utility.yul\":18867:19180   */\n    tag_191:\n        /* \"#utility.yul\":18980:18984   */\n      0x00\n        /* \"#utility.yul\":19018:19020   */\n      0x20\n        /* \"#utility.yul\":19007:19016   */\n      dup3\n        /* \"#utility.yul\":19003:19021   */\n      add\n        /* \"#utility.yul\":18995:19021   */\n      swap1\n      pop\n        /* \"#utility.yul\":19067:19076   */\n      dup2\n        /* \"#utility.yul\":19061:19065   */\n      dup2\n        /* \"#utility.yul\":19057:19077   */\n      sub\n        /* \"#utility.yul\":19053:19054   */\n      0x00\n        /* \"#utility.yul\":19042:19051   */\n      dup4\n        /* \"#utility.yul\":19038:19055   */\n      add\n        /* \"#utility.yul\":19031:19078   */\n      mstore\n        /* \"#utility.yul\":19095:19173   */\n      tag_485\n        /* \"#utility.yul\":19168:19172   */\n      dup2\n        /* \"#utility.yul\":19159:19165   */\n      dup5\n        /* \"#utility.yul\":19095:19173   */\n      tag_272\n      jump\t// in\n    tag_485:\n        /* \"#utility.yul\":19087:19173   */\n      swap1\n      pop\n        /* \"#utility.yul\":18867:19180   */\n      swap3\n      swap2\n      pop\n      pop\n      jump\t// out\n        /* \"#utility.yul\":19186:19366   */\n    tag_279:\n        /* \"#utility.yul\":19234:19311   */\n      0x4e487b7100000000000000000000000000000000000000000000000000000000\n        /* \"#utility.yul\":19231:19232   */\n      0x00\n        /* \"#utility.yul\":19224:19312   */\n      mstore\n        /* \"#utility.yul\":19331:19335   */\n      0x11\n        /* \"#utility.yul\":19328:19329   */\n      0x04\n        /* \"#utility.yul\":19321:19336   */\n      mstore\n        /* \"#utility.yul\":19355:19359   */\n      0x24\n        /* \"#utility.yul\":19352:19353   */\n      0x00\n        /* \"#utility.yul\":19345:19360   */\n      revert\n        /* \"#utility.yul\":19372:19782   */\n    tag_196:\n        /* \"#utility.yul\":19412:19419   */\n      0x00\n        /* \"#utility.yul\":19435:19455   */\n      tag_488\n        /* \"#utility.yul\":19453:19454   */\n      dup3\n        /* \"#utility.yul\":19435:19455   */\n      tag_238\n      jump\t// in\n    tag_488:\n        /* \"#utility.yul\":19430:19455   */\n      swap2\n      pop\n        /* \"#utility.yul\":19469:19489   */\n      tag_489\n        /* \"#utility.yul\":19487:19488   */\n      dup4\n        /* \"#utility.yul\":19469:19489   */\n      tag_238\n      jump\t// in\n    tag_489:\n        /* \"#utility.yul\":19464:19489   */\n      swap3\n      pop\n        /* \"#utility.yul\":19524:19525   */\n      dup3\n        /* \"#utility.yul\":19521:19522   */\n      dup3\n        /* \"#utility.yul\":19517:19526   */\n      mul\n        /* \"#utility.yul\":19546:19576   */\n      tag_490\n        /* \"#utility.yul\":19564:19575   */\n      dup2\n        /* \"#utility.yul\":19546:19576   */\n      tag_238\n      jump\t// in\n    tag_490:\n        /* \"#utility.yul\":19535:19576   */\n      swap2\n      pop\n        /* \"#utility.yul\":19725:19726   */\n      dup3\n        /* \"#utility.yul\":19716:19723   */\n      dup3\n        /* \"#utility.yul\":19712:19727   */\n      div\n        /* \"#utility.yul\":19709:19710   */\n      dup5\n        /* \"#utility.yul\":19706:19728   */\n      eq\n        /* \"#utility.yul\":19686:19687   */\n      dup4\n        /* \"#utility.yul\":19679:19688   */\n      iszero\n        /* \"#utility.yul\":19659:19742   */\n      or\n        /* \"#utility.yul\":19636:19775   */\n      tag_491\n      jumpi\n        /* \"#utility.yul\":19755:19773   */\n      tag_492\n      tag_279\n      jump\t// in\n    tag_492:\n        /* \"#utility.yul\":19636:19775   */\n    tag_491:\n        /* \"#utility.yul\":19420:19782   */\n      pop\n        /* \"#utility.yul\":19372:19782   */\n      swap3\n      swap2\n      pop\n      pop\n      jump\t// out\n        /* \"#utility.yul\":19788:19979   */\n    tag_198:\n        /* \"#utility.yul\":19828:19831   */\n      0x00\n        /* \"#utility.yul\":19847:19867   */\n      tag_494\n        /* \"#utility.yul\":19865:19866   */\n      dup3\n        /* \"#utility.yul\":19847:19867   */\n      tag_238\n      jump\t// in\n    tag_494:\n        /* \"#utility.yul\":19842:19867   */\n      swap2\n      pop\n        /* \"#utility.yul\":19881:19901   */\n      tag_495\n        /* \"#utility.yul\":19899:19900   */\n      dup4\n        /* \"#utility.yul\":19881:19901   */\n      tag_238\n      jump\t// in\n    tag_495:\n        /* \"#utility.yul\":19876:19901   */\n      swap3\n      pop\n        /* \"#utility.yul\":19924:19925   */\n      dup3\n        /* \"#utility.yul\":19921:19922   */\n      dup3\n        /* \"#utility.yul\":19917:19926   */\n      add\n        /* \"#utility.yul\":19910:19926   */\n      swap1\n      pop\n        /* \"#utility.yul\":19945:19948   */\n      dup1\n        /* \"#utility.yul\":19942:19943   */\n      dup3\n        /* \"#utility.yul\":19939:19949   */\n      gt\n        /* \"#utility.yul\":19936:19972   */\n      iszero\n      tag_496\n      jumpi\n        /* \"#utility.yul\":19952:19970   */\n      tag_497\n      tag_279\n      jump\t// in\n    tag_497:\n        /* \"#utility.yul\":19936:19972   */\n    tag_496:\n        /* \"#utility.yul\":19788:19979   */\n      swap3\n      swap2\n      pop\n      pop\n      jump\t// out\n        /* \"#utility.yul\":19985:20165   */\n    tag_205:\n        /* \"#utility.yul\":20033:20110   */\n      0x4e487b7100000000000000000000000000000000000000000000000000000000\n        /* \"#utility.yul\":20030:20031   */\n      0x00\n        /* \"#utility.yul\":20023:20111   */\n      mstore\n        /* \"#utility.yul\":20130:20134   */\n      0x32\n        /* \"#utility.yul\":20127:20128   */\n      0x04\n        /* \"#utility.yul\":20120:20135   */\n      mstore\n        /* \"#utility.yul\":20154:20158   */\n      0x24\n        /* \"#utility.yul\":20151:20152   */\n      0x00\n        /* \"#utility.yul\":20144:20159   */\n      revert\n        /* \"#utility.yul\":20171:20342   */\n    tag_218:\n        /* \"#utility.yul\":20210:20213   */\n      0x00\n        /* \"#utility.yul\":20233:20257   */\n      tag_500\n        /* \"#utility.yul\":20251:20256   */\n      dup3\n        /* \"#utility.yul\":20233:20257   */\n      tag_238\n      jump\t// in\n    tag_500:\n        /* \"#utility.yul\":20224:20257   */\n      swap2\n      pop\n        /* \"#utility.yul\":20279:20283   */\n      0x00\n        /* \"#utility.yul\":20272:20277   */\n      dup3\n        /* \"#utility.yul\":20269:20284   */\n      sub\n        /* \"#utility.yul\":20266:20307   */\n      tag_501\n      jumpi\n        /* \"#utility.yul\":20287:20305   */\n      tag_502\n      tag_279\n      jump\t// in\n    tag_502:\n        /* \"#utility.yul\":20266:20307   */\n    tag_501:\n        /* \"#utility.yul\":20334:20335   */\n      0x01\n        /* \"#utility.yul\":20327:20332   */\n      dup3\n        /* \"#utility.yul\":20323:20336   */\n      sub\n        /* \"#utility.yul\":20316:20336   */\n      swap1\n      pop\n        /* \"#utility.yul\":20171:20342   */\n      swap2\n      swap1\n      pop\n      jump\t// out\n        /* \"#utility.yul\":20348:20530   */\n    tag_280:\n        /* \"#utility.yul\":20488:20522   */\n      0x537472696e67733a20686578206c656e67746820696e73756666696369656e74\n        /* \"#utility.yul\":20484:20485   */\n      0x00\n        /* \"#utility.yul\":20476:20482   */\n      dup3\n        /* \"#utility.yul\":20472:20486   */\n      add\n        /* \"#utility.yul\":20465:20523   */\n      mstore\n        /* \"#utility.yul\":20348:20530   */\n      pop\n      jump\t// out\n        /* \"#utility.yul\":20536:20902   */\n    tag_281:\n        /* \"#utility.yul\":20678:20681   */\n      0x00\n        /* \"#utility.yul\":20699:20766   */\n      tag_505\n        /* \"#utility.yul\":20763:20765   */\n      0x20\n        /* \"#utility.yul\":20758:20761   */\n      dup4\n        /* \"#utility.yul\":20699:20766   */\n      tag_253\n      jump\t// in\n    tag_505:\n        /* \"#utility.yul\":20692:20766   */\n      swap2\n      pop\n        /* \"#utility.yul\":20775:20868   */\n      tag_506\n        /* \"#utility.yul\":20864:20867   */\n      dup3\n        /* \"#utility.yul\":20775:20868   */\n      tag_280\n      jump\t// in\n    tag_506:\n        /* \"#utility.yul\":20893:20895   */\n      0x20\n        /* \"#utility.yul\":20888:20891   */\n      dup3\n        /* \"#utility.yul\":20884:20896   */\n      add\n        /* \"#utility.yul\":20877:20896   */\n      swap1\n      pop\n        /* \"#utility.yul\":20536:20902   */\n      swap2\n      swap1\n      pop\n      jump\t// out\n        /* \"#utility.yul\":20908:21327   */\n    tag_221:\n        /* \"#utility.yul\":21074:21078   */\n      0x00\n        /* \"#utility.yul\":21112:21114   */\n      0x20\n        /* \"#utility.yul\":21101:21110   */\n      dup3\n        /* \"#utility.yul\":21097:21115   */\n      add\n        /* \"#utility.yul\":21089:21115   */\n      swap1\n      pop\n        /* \"#utility.yul\":21161:21170   */\n      dup2\n        /* \"#utility.yul\":21155:21159   */\n      dup2\n        /* \"#utility.yul\":21151:21171   */\n      sub\n        /* \"#utility.yul\":21147:21148   */\n      0x00\n        /* \"#utility.yul\":21136:21145   */\n      dup4\n        /* \"#utility.yul\":21132:21149   */\n      add\n        /* \"#utility.yul\":21125:21172   */\n      mstore\n        /* \"#utility.yul\":21189:21320   */\n      tag_508\n        /* \"#utility.yul\":21315:21319   */\n      dup2\n        /* \"#utility.yul\":21189:21320   */\n      tag_281\n      jump\t// in\n    tag_508:\n        /* \"#utility.yul\":21181:21320   */\n      swap1\n      pop\n        /* \"#utility.yul\":20908:21327   */\n      swap2\n      swap1\n      pop\n      jump\t// out\n\n    auxdata: 0xa2646970667358221220615c49b876318a61384928114e714201fdbd8a45d8fa3dad0ac83c4e7ce0a01664736f6c63430008120033\n}\n",
				"bytecode": {
					"linkReferences": {},
					"object": "60806040523480156200001157600080fd5b50620000276000801b336200002d60201b60201c565b620001a8565b6200003f82826200004360201b60201c565b5050565b6200005582826200013560201b60201c565b620001315760016020600084815260200190815260200160002060000160008373ffffffffffffffffffffffffffffffffffffffff1673ffffffffffffffffffffffffffffffffffffffff16815260200190815260200160002060006101000a81548160ff021916908315150217905550620000d6620001a060201b60201c565b73ffffffffffffffffffffffffffffffffffffffff168173ffffffffffffffffffffffffffffffffffffffff16837f2f8788117e7eff1d82e926ec794901d17c78024a50270940304540a733656f0d60405160405180910390a45b5050565b60006020600084815260200190815260200160002060000160008373ffffffffffffffffffffffffffffffffffffffff1673ffffffffffffffffffffffffffffffffffffffff16815260200190815260200160002060009054906101000a900460ff16905092915050565b600033905090565b6119de80620001b86000396000f3fe6080604052600436106100c65760003560e01c806391d148541161007f578063a6a0559811610059578063a6a0559814610290578063d5391393146102b9578063d547741f146102e4578063fe9d93031461030d576100d5565b806391d14854146101ff57806394d008ef1461023c578063a217fddf14610265576100d5565b806301ffc9a7146100df578063248a9ca31461011c578063282c51f3146101595780632f2ff15d1461018457806336568abe146101ad5780634a0687ef146101d6576100d5565b366100d5576100d3610336565b005b6100dd610336565b005b3480156100eb57600080fd5b5061010660048036038101906101019190610eb4565b610350565b6040516101139190610efc565b60405180910390f35b34801561012857600080fd5b50610143600480360381019061013e9190610f4d565b6103ca565b6040516101509190610f89565b60405180910390f35b34801561016557600080fd5b5061016e6103ea565b60405161017b9190610f89565b60405180910390f35b34801561019057600080fd5b506101ab60048036038101906101a69190611002565b61040e565b005b3480156101b957600080fd5b506101d460048036038101906101cf9190611002565b61042f565b005b3480156101e257600080fd5b506101fd60048036038101906101f89190611042565b6104b2565b005b34801561020b57600080fd5b5061022660048036038101906102219190611002565b6105ab565b6040516102339190610efc565b60405180910390f35b34801561024857600080fd5b50610263600480360381019061025e91906111eb565b610616565b005b34801561027157600080fd5b5061027a610651565b6040516102879190610f89565b60405180910390f35b34801561029c57600080fd5b506102b760048036038101906102b291906112fb565b610658565b005b3480156102c557600080fd5b506102ce610676565b6040516102db9190610f89565b60405180910390f35b3480156102f057600080fd5b5061030b60048036038101906103069190611002565b61069a565b005b34801561031957600080fd5b50610334600480360381019061032f91906113dc565b6106bb565b005b61033e6106f5565b61034e6103496106f7565b610720565b565b60007f7965db0b000000000000000000000000000000000000000000000000000000007bffffffffffffffffffffffffffffffffffffffffffffffffffffffff1916827bffffffffffffffffffffffffffffffffffffffffffffffffffffffff191614806103c357506103c282610746565b5b9050919050565b600060206000838152602001908152602001600020600101549050919050565b7f3c11d16cbaffd01df69ce1c404f6340ee057498f5f00246190ea54220576a84881565b610417826103ca565b610420816107b0565b61042a83836107c4565b505050565b6104376108a5565b73ffffffffffffffffffffffffffffffffffffffff168173ffffffffffffffffffffffffffffffffffffffff16146104a4576040517f08c379a000000000000000000000000000000000000000000000000000000000815260040161049b906114bb565b60405180910390fd5b6104ae82826108ad565b5050565b600073ffffffffffffffffffffffffffffffffffffffff168173ffffffffffffffffffffffffffffffffffffffff1603610518576040517fd92e233d00000000000000000000000000000000000000000000000000000000815260040160405180910390fd5b600073ffffffffffffffffffffffffffffffffffffffff166105386106f7565b73ffffffffffffffffffffffffffffffffffffffff1614610585576040517f5daa87a000000000000000000000000000000000000000000000000000000000815260040160405180910390fd5b807f360894a13ba1a3210667c828492db98dca3e2076cc3735a920a3ca505d382bbc5550565b60006020600084815260200190815260200160002060000160008373ffffffffffffffffffffffffffffffffffffffff1673ffffffffffffffffffffffffffffffffffffffff16815260200190815260200160002060009054906101000a900460ff16905092915050565b7f9f2df0fed2c77648de5860a4cc508cd0818c85b8b8a1ab4ceeef8d981c8956a6610640816107b0565b61064b84848461098f565b50505050565b6000801b81565b610663868686610a03565b61066e82848361098f565b505050505050565b7f9f2df0fed2c77648de5860a4cc508cd0818c85b8b8a1ab4ceeef8d981c8956a681565b6106a3826103ca565b6106ac816107b0565b6106b683836108ad565b505050565b7f3c11d16cbaffd01df69ce1c404f6340ee057498f5f00246190ea54220576a8486106e5816107b0565b6106f0338484610ae6565b505050565b565b60007f360894a13ba1a3210667c828492db98dca3e2076cc3735a920a3ca505d382bbc54905090565b3660008037600080366000845af43d6000803e8060008114610741573d6000f35b3d6000fd5b60007f01ffc9a7000000000000000000000000000000000000000000000000000000007bffffffffffffffffffffffffffffffffffffffffffffffffffffffff1916827bffffffffffffffffffffffffffffffffffffffffffffffffffffffff1916149050919050565b6107c1816107bc6108a5565b610b5a565b50565b6107ce82826105ab565b6108a15760016020600084815260200190815260200160002060000160008373ffffffffffffffffffffffffffffffffffffffff1673ffffffffffffffffffffffffffffffffffffffff16815260200190815260200160002060006101000a81548160ff0219169083151502179055506108466108a5565b73ffffffffffffffffffffffffffffffffffffffff168173ffffffffffffffffffffffffffffffffffffffff16837f2f8788117e7eff1d82e926ec794901d17c78024a50270940304540a733656f0d60405160405180910390a45b5050565b600033905090565b6108b782826105ab565b1561098b5760006020600084815260200190815260200160002060000160008373ffffffffffffffffffffffffffffffffffffffff1673ffffffffffffffffffffffffffffffffffffffff16815260200190815260200160002060006101000a81548160ff0219169083151502179055506109306108a5565b73ffffffffffffffffffffffffffffffffffffffff168173ffffffffffffffffffffffffffffffffffffffff16837ff6391f5c32d9c69d2a47ea670b442974b53935d1edc7fd64eb21e047a839171b60405160405180910390a45b5050565b3073ffffffffffffffffffffffffffffffffffffffff1663c68d42838484846040518463ffffffff1660e01b81526004016109cc93929190611578565b600060405180830381600087803b1580156109e657600080fd5b505af11580156109fa573d6000803e3d6000fd5b50505050505050565b8273ffffffffffffffffffffffffffffffffffffffff1663d412d344306040518263ffffffff1660e01b8152600401610a3c91906115b6565b600060405180830381600087803b158015610a5657600080fd5b505af1158015610a6a573d6000803e3d6000fd5b505050503073ffffffffffffffffffffffffffffffffffffffff166342fe09806000601285856040518563ffffffff1660e01b8152600401610aaf94939291906116bc565b600060405180830381600087803b158015610ac957600080fd5b505af1158015610add573d6000803e3d6000fd5b50505050505050565b3073ffffffffffffffffffffffffffffffffffffffff16639d8767418484846040518463ffffffff1660e01b8152600401610b2393929190611578565b600060405180830381600087803b158015610b3d57600080fd5b505af1158015610b51573d6000803e3d6000fd5b50505050505050565b610b6482826105ab565b610bdb57610b7181610bdf565b610b7f8360001c6020610c0c565b604051602001610b909291906117e3565b6040516020818303038152906040526040517f08c379a0000000000000000000000000000000000000000000000000000000008152600401610bd2919061181d565b60405180910390fd5b5050565b6060610c058273ffffffffffffffffffffffffffffffffffffffff16601460ff16610c0c565b9050919050565b606060006002836002610c1f919061186e565b610c2991906118b0565b67ffffffffffffffff811115610c4257610c416110c0565b5b6040519080825280601f01601f191660200182016040528015610c745781602001600182028036833780820191505090505b5090507f300000000000000000000000000000000000000000000000000000000000000081600081518110610cac57610cab6118e4565b5b60200101907effffffffffffffffffffffffffffffffffffffffffffffffffffffffffffff1916908160001a9053507f780000000000000000000000000000000000000000000000000000000000000081600181518110610d1057610d0f6118e4565b5b60200101907effffffffffffffffffffffffffffffffffffffffffffffffffffffffffffff1916908160001a90535060006001846002610d50919061186e565b610d5a91906118b0565b90505b6001811115610dfa577f3031323334353637383961626364656600000000000000000000000000000000600f861660108110610d9c57610d9b6118e4565b5b1a60f81b828281518110610db357610db26118e4565b5b60200101907effffffffffffffffffffffffffffffffffffffffffffffffffffffffffffff1916908160001a905350600485901c945080610df390611913565b9050610d5d565b5060008414610e3e576040517f08c379a0000000000000000000000000000000000000000000000000000000008152600401610e3590611988565b60405180910390fd5b8091505092915050565b6000604051905090565b600080fd5b600080fd5b60007fffffffff0000000000000000000000000000000000000000000000000000000082169050919050565b610e9181610e5c565b8114610e9c57600080fd5b50565b600081359050610eae81610e88565b92915050565b600060208284031215610eca57610ec9610e52565b5b6000610ed884828501610e9f565b91505092915050565b60008115159050919050565b610ef681610ee1565b82525050565b6000602082019050610f116000830184610eed565b92915050565b6000819050919050565b610f2a81610f17565b8114610f3557600080fd5b50565b600081359050610f4781610f21565b92915050565b600060208284031215610f6357610f62610e52565b5b6000610f7184828501610f38565b91505092915050565b610f8381610f17565b82525050565b6000602082019050610f9e6000830184610f7a565b92915050565b600073ffffffffffffffffffffffffffffffffffffffff82169050919050565b6000610fcf82610fa4565b9050919050565b610fdf81610fc4565b8114610fea57600080fd5b50565b600081359050610ffc81610fd6565b92915050565b6000806040838503121561101957611018610e52565b5b600061102785828601610f38565b925050602061103885828601610fed565b9150509250929050565b60006020828403121561105857611057610e52565b5b600061106684828501610fed565b91505092915050565b6000819050919050565b6110828161106f565b811461108d57600080fd5b50565b60008135905061109f81611079565b92915050565b600080fd5b600080fd5b6000601f19601f8301169050919050565b7f4e487b7100000000000000000000000000000000000000000000000000000000600052604160045260246000fd5b6110f8826110af565b810181811067ffffffffffffffff82111715611117576111166110c0565b5b80604052505050565b600061112a610e48565b905061113682826110ef565b919050565b600067ffffffffffffffff821115611156576111556110c0565b5b61115f826110af565b9050602081019050919050565b82818337600083830152505050565b600061118e6111898461113b565b611120565b9050828152602081018484840111156111aa576111a96110aa565b5b6111b584828561116c565b509392505050565b600082601f8301126111d2576111d16110a5565b5b81356111e284826020860161117b565b91505092915050565b60008060006060848603121561120457611203610e52565b5b600061121286828701610fed565b935050602061122386828701611090565b925050604084013567ffffffffffffffff81111561124457611243610e57565b5b611250868287016111bd565b9150509250925092565b600067ffffffffffffffff821115611275576112746110c0565b5b61127e826110af565b9050602081019050919050565b600061129e6112998461125a565b611120565b9050828152602081018484840111156112ba576112b96110aa565b5b6112c584828561116c565b509392505050565b600082601f8301126112e2576112e16110a5565b5b81356112f284826020860161128b565b91505092915050565b60008060008060008060c0878903121561131857611317610e52565b5b600061132689828a01610fed565b965050602087013567ffffffffffffffff81111561134757611346610e57565b5b61135389828a016112cd565b955050604087013567ffffffffffffffff81111561137457611373610e57565b5b61138089828a016112cd565b945050606061139189828a01611090565b93505060806113a289828a01610fed565b92505060a087013567ffffffffffffffff8111156113c3576113c2610e57565b5b6113cf89828a016111bd565b9150509295509295509295565b600080604083850312156113f3576113f2610e52565b5b600061140185828601611090565b925050602083013567ffffffffffffffff81111561142257611421610e57565b5b61142e858286016111bd565b9150509250929050565b600082825260208201905092915050565b7f416363657373436f6e74726f6c3a2063616e206f6e6c792072656e6f756e636560008201527f20726f6c657320666f722073656c660000000000000000000000000000000000602082015250565b60006114a5602f83611438565b91506114b082611449565b604082019050919050565b600060208201905081810360008301526114d481611498565b9050919050565b6114e481610fc4565b82525050565b6114f38161106f565b82525050565b600081519050919050565b600082825260208201905092915050565b60005b83811015611533578082015181840152602081019050611518565b60008484015250505050565b600061154a826114f9565b6115548185611504565b9350611564818560208601611515565b61156d816110af565b840191505092915050565b600060608201905061158d60008301866114db565b61159a60208301856114ea565b81810360408301526115ac818461153f565b9050949350505050565b60006020820190506115cb60008301846114db565b92915050565b6000819050919050565b60006115f66115f16115ec84610fa4565b6115d1565b610fa4565b9050919050565b6000611608826115db565b9050919050565b600061161a826115fd565b9050919050565b61162a8161160f565b82525050565b6000819050919050565b600060ff82169050919050565b600061166261165d61165884611630565b6115d1565b61163a565b9050919050565b61167281611647565b82525050565b600081519050919050565b600061168e82611678565b6116988185611438565b93506116a8818560208601611515565b6116b1816110af565b840191505092915050565b60006080820190506116d16000830187611621565b6116de6020830186611669565b81810360408301526116f08185611683565b905081810360608301526117048184611683565b905095945050505050565b600081905092915050565b7f416363657373436f6e74726f6c3a206163636f756e7420000000000000000000600082015250565b600061175060178361170f565b915061175b8261171a565b601782019050919050565b600061177182611678565b61177b818561170f565b935061178b818560208601611515565b80840191505092915050565b7f206973206d697373696e6720726f6c6520000000000000000000000000000000600082015250565b60006117cd60118361170f565b91506117d882611797565b601182019050919050565b60006117ee82611743565b91506117fa8285611766565b9150611805826117c0565b91506118118284611766565b91508190509392505050565b600060208201905081810360008301526118378184611683565b905092915050565b7f4e487b7100000000000000000000000000000000000000000000000000000000600052601160045260246000fd5b60006118798261106f565b91506118848361106f565b92508282026118928161106f565b915082820484148315176118a9576118a861183f565b5b5092915050565b60006118bb8261106f565b91506118c68361106f565b92508282019050808211156118de576118dd61183f565b5b92915050565b7f4e487b7100000000000000000000000000000000000000000000000000000000600052603260045260246000fd5b600061191e8261106f565b9150600082036119315761193061183f565b5b600182039050919050565b7f537472696e67733a20686578206c656e67746820696e73756666696369656e74600082015250565b6000611972602083611438565b915061197d8261193c565b602082019050919050565b600060208201905081810360008301526119a181611965565b905091905056fea2646970667358221220615c49b876318a61384928114e714201fdbd8a45d8fa3dad0ac83c4e7ce0a01664736f6c63430008120033",
					"opcodes": "PUSH1 0x80 PUSH1 0x40 MSTORE CALLVALUE DUP1 ISZERO PUSH3 0x11 JUMPI PUSH1 0x0 DUP1 REVERT JUMPDEST POP PUSH3 0x27 PUSH1 0x0 DUP1 SHL CALLER PUSH3 0x2D PUSH1 0x20 SHL PUSH1 0x20 SHR JUMP JUMPDEST PUSH3 0x1A8 JUMP JUMPDEST PUSH3 0x3F DUP3 DUP3 PUSH3 0x43 PUSH1 0x20 SHL PUSH1 0x20 SHR JUMP JUMPDEST POP POP JUMP JUMPDEST PUSH3 0x55 DUP3 DUP3 PUSH3 0x135 PUSH1 0x20 SHL PUSH1 0x20 SHR JUMP JUMPDEST PUSH3 0x131 JUMPI PUSH1 0x1 PUSH1 0x20 PUSH1 0x0 DUP5 DUP2 MSTORE PUSH1 0x20 ADD SWAP1 DUP2 MSTORE PUSH1 0x20 ADD PUSH1 0x0 KECCAK256 PUSH1 0x0 ADD PUSH1 0x0 DUP4 PUSH20 0xFFFFFFFFFFFFFFFFFFFFFFFFFFFFFFFFFFFFFFFF AND PUSH20 0xFFFFFFFFFFFFFFFFFFFFFFFFFFFFFFFFFFFFFFFF AND DUP2 MSTORE PUSH1 0x20 ADD SWAP1 DUP2 MSTORE PUSH1 0x20 ADD PUSH1 0x0 KECCAK256 PUSH1 0x0 PUSH2 0x100 EXP DUP2 SLOAD DUP2 PUSH1 0xFF MUL NOT AND SWAP1 DUP4 ISZERO ISZERO MUL OR SWAP1 SSTORE POP PUSH3 0xD6 PUSH3 0x1A0 PUSH1 0x20 SHL PUSH1 0x20 SHR JUMP JUMPDEST PUSH20 0xFFFFFFFFFFFFFFFFFFFFFFFFFFFFFFFFFFFFFFFF AND DUP2 PUSH20 0xFFFFFFFFFFFFFFFFFFFFFFFFFFFFFFFFFFFFFFFF AND DUP4 PUSH32 0x2F8788117E7EFF1D82E926EC794901D17C78024A50270940304540A733656F0D PUSH1 0x40 MLOAD PUSH1 0x40 MLOAD DUP1 SWAP2 SUB SWAP1 LOG4 JUMPDEST POP POP JUMP JUMPDEST PUSH1 0x0 PUSH1 0x20 PUSH1 0x0 DUP5 DUP2 MSTORE PUSH1 0x20 ADD SWAP1 DUP2 MSTORE PUSH1 0x20 ADD PUSH1 0x0 KECCAK256 PUSH1 0x0 ADD PUSH1 0x0 DUP4 PUSH20 0xFFFFFFFFFFFFFFFFFFFFFFFFFFFFFFFFFFFFFFFF AND PUSH20 0xFFFFFFFFFFFFFFFFFFFFFFFFFFFFFFFFFFFFFFFF AND DUP2 MSTORE PUSH1 0x20 ADD SWAP1 DUP2 MSTORE PUSH1 0x20 ADD PUSH1 0x0 KECCAK256 PUSH1 0x0 SWAP1 SLOAD SWAP1 PUSH2 0x100 EXP SWAP1 DIV PUSH1 0xFF AND SWAP1 POP SWAP3 SWAP2 POP POP JUMP JUMPDEST PUSH1 0x0 CALLER SWAP1 POP SWAP1 JUMP JUMPDEST PUSH2 0x19DE DUP1 PUSH3 0x1B8 PUSH1 0x0 CODECOPY PUSH1 0x0 RETURN INVALID PUSH1 0x80 PUSH1 0x40 MSTORE PUSH1 0x4 CALLDATASIZE LT PUSH2 0xC6 JUMPI PUSH1 0x0 CALLDATALOAD PUSH1 0xE0 SHR DUP1 PUSH4 0x91D14854 GT PUSH2 0x7F JUMPI DUP1 PUSH4 0xA6A05598 GT PUSH2 0x59 JUMPI DUP1 PUSH4 0xA6A05598 EQ PUSH2 0x290 JUMPI DUP1 PUSH4 0xD5391393 EQ PUSH2 0x2B9 JUMPI DUP1 PUSH4 0xD547741F EQ PUSH2 0x2E4 JUMPI DUP1 PUSH4 0xFE9D9303 EQ PUSH2 0x30D JUMPI PUSH2 0xD5 JUMP JUMPDEST DUP1 PUSH4 0x91D14854 EQ PUSH2 0x1FF JUMPI DUP1 PUSH4 0x94D008EF EQ PUSH2 0x23C JUMPI DUP1 PUSH4 0xA217FDDF EQ PUSH2 0x265 JUMPI PUSH2 0xD5 JUMP JUMPDEST DUP1 PUSH4 0x1FFC9A7 EQ PUSH2 0xDF JUMPI DUP1 PUSH4 0x248A9CA3 EQ PUSH2 0x11C JUMPI DUP1 PUSH4 0x282C51F3 EQ PUSH2 0x159 JUMPI DUP1 PUSH4 0x2F2FF15D EQ PUSH2 0x184 JUMPI DUP1 PUSH4 0x36568ABE EQ PUSH2 0x1AD JUMPI DUP1 PUSH4 0x4A0687EF EQ PUSH2 0x1D6 JUMPI PUSH2 0xD5 JUMP JUMPDEST CALLDATASIZE PUSH2 0xD5 JUMPI PUSH2 0xD3 PUSH2 0x336 JUMP JUMPDEST STOP JUMPDEST PUSH2 0xDD PUSH2 0x336 JUMP JUMPDEST STOP JUMPDEST CALLVALUE DUP1 ISZERO PUSH2 0xEB JUMPI PUSH1 0x0 DUP1 REVERT JUMPDEST POP PUSH2 0x106 PUSH1 0x4 DUP1 CALLDATASIZE SUB DUP2 ADD SWAP1 PUSH2 0x101 SWAP2 SWAP1 PUSH2 0xEB4 JUMP JUMPDEST PUSH2 0x350 JUMP JUMPDEST PUSH1 0x40 MLOAD PUSH2 0x113 SWAP2 SWAP1 PUSH2 0xEFC JUMP JUMPDEST PUSH1 0x40 MLOAD DUP1 SWAP2 SUB SWAP1 RETURN JUMPDEST CALLVALUE DUP1 ISZERO PUSH2 0x128 JUMPI PUSH1 0x0 DUP1 REVERT JUMPDEST POP PUSH2 0x143 PUSH1 0x4 DUP1 CALLDATASIZE SUB DUP2 ADD SWAP1 PUSH2 0x13E SWAP2 SWAP1 PUSH2 0xF4D JUMP JUMPDEST PUSH2 0x3CA JUMP JUMPDEST PUSH1 0x40 MLOAD PUSH2 0x150 SWAP2 SWAP1 PUSH2 0xF89 JUMP JUMPDEST PUSH1 0x40 MLOAD DUP1 SWAP2 SUB SWAP1 RETURN JUMPDEST CALLVALUE DUP1 ISZERO PUSH2 0x165 JUMPI PUSH1 0x0 DUP1 REVERT JUMPDEST POP PUSH2 0x16E PUSH2 0x3EA JUMP JUMPDEST PUSH1 0x40 MLOAD PUSH2 0x17B SWAP2 SWAP1 PUSH2 0xF89 JUMP JUMPDEST PUSH1 0x40 MLOAD DUP1 SWAP2 SUB SWAP1 RETURN JUMPDEST CALLVALUE DUP1 ISZERO PUSH2 0x190 JUMPI PUSH1 0x0 DUP1 REVERT JUMPDEST POP PUSH2 0x1AB PUSH1 0x4 DUP1 CALLDATASIZE SUB DUP2 ADD SWAP1 PUSH2 0x1A6 SWAP2 SWAP1 PUSH2 0x1002 JUMP JUMPDEST PUSH2 0x40E JUMP JUMPDEST STOP JUMPDEST CALLVALUE DUP1 ISZERO PUSH2 0x1B9 JUMPI PUSH1 0x0 DUP1 REVERT JUMPDEST POP PUSH2 0x1D4 PUSH1 0x4 DUP1 CALLDATASIZE SUB DUP2 ADD SWAP1 PUSH2 0x1CF SWAP2 SWAP1 PUSH2 0x1002 JUMP JUMPDEST PUSH2 0x42F JUMP JUMPDEST STOP JUMPDEST CALLVALUE DUP1 ISZERO PUSH2 0x1E2 JUMPI PUSH1 0x0 DUP1 REVERT JUMPDEST POP PUSH2 0x1FD PUSH1 0x4 DUP1 CALLDATASIZE SUB DUP2 ADD SWAP1 PUSH2 0x1F8 SWAP2 SWAP1 PUSH2 0x1042 JUMP JUMPDEST PUSH2 0x4B2 JUMP JUMPDEST STOP JUMPDEST CALLVALUE DUP1 ISZERO PUSH2 0x20B JUMPI PUSH1 0x0 DUP1 REVERT JUMPDEST POP PUSH2 0x226 PUSH1 0x4 DUP1 CALLDATASIZE SUB DUP2 ADD SWAP1 PUSH2 0x221 SWAP2 SWAP1 PUSH2 0x1002 JUMP JUMPDEST PUSH2 0x5AB JUMP JUMPDEST PUSH1 0x40 MLOAD PUSH2 0x233 SWAP2 SWAP1 PUSH2 0xEFC JUMP JUMPDEST PUSH1 0x40 MLOAD DUP1 SWAP2 SUB SWAP1 RETURN JUMPDEST CALLVALUE DUP1 ISZERO PUSH2 0x248 JUMPI PUSH1 0x0 DUP1 REVERT JUMPDEST POP PUSH2 0x263 PUSH1 0x4 DUP1 CALLDATASIZE SUB DUP2 ADD SWAP1 PUSH2 0x25E SWAP2 SWAP1 PUSH2 0x11EB JUMP JUMPDEST PUSH2 0x616 JUMP JUMPDEST STOP JUMPDEST CALLVALUE DUP1 ISZERO PUSH2 0x271 JUMPI PUSH1 0x0 DUP1 REVERT JUMPDEST POP PUSH2 0x27A PUSH2 0x651 JUMP JUMPDEST PUSH1 0x40 MLOAD PUSH2 0x287 SWAP2 SWAP1 PUSH2 0xF89 JUMP JUMPDEST PUSH1 0x40 MLOAD DUP1 SWAP2 SUB SWAP1 RETURN JUMPDEST CALLVALUE DUP1 ISZERO PUSH2 0x29C JUMPI PUSH1 0x0 DUP1 REVERT JUMPDEST POP PUSH2 0x2B7 PUSH1 0x4 DUP1 CALLDATASIZE SUB DUP2 ADD SWAP1 PUSH2 0x2B2 SWAP2 SWAP1 PUSH2 0x12FB JUMP JUMPDEST PUSH2 0x658 JUMP JUMPDEST STOP JUMPDEST CALLVALUE DUP1 ISZERO PUSH2 0x2C5 JUMPI PUSH1 0x0 DUP1 REVERT JUMPDEST POP PUSH2 0x2CE PUSH2 0x676 JUMP JUMPDEST PUSH1 0x40 MLOAD PUSH2 0x2DB SWAP2 SWAP1 PUSH2 0xF89 JUMP JUMPDEST PUSH1 0x40 MLOAD DUP1 SWAP2 SUB SWAP1 RETURN JUMPDEST CALLVALUE DUP1 ISZERO PUSH2 0x2F0 JUMPI PUSH1 0x0 DUP1 REVERT JUMPDEST POP PUSH2 0x30B PUSH1 0x4 DUP1 CALLDATASIZE SUB DUP2 ADD SWAP1 PUSH2 0x306 SWAP2 SWAP1 PUSH2 0x1002 JUMP JUMPDEST PUSH2 0x69A JUMP JUMPDEST STOP JUMPDEST CALLVALUE DUP1 ISZERO PUSH2 0x319 JUMPI PUSH1 0x0 DUP1 REVERT JUMPDEST POP PUSH2 0x334 PUSH1 0x4 DUP1 CALLDATASIZE SUB DUP2 ADD SWAP1 PUSH2 0x32F SWAP2 SWAP1 PUSH2 0x13DC JUMP JUMPDEST PUSH2 0x6BB JUMP JUMPDEST STOP JUMPDEST PUSH2 0x33E PUSH2 0x6F5 JUMP JUMPDEST PUSH2 0x34E PUSH2 0x349 PUSH2 0x6F7 JUMP JUMPDEST PUSH2 0x720 JUMP JUMPDEST JUMP JUMPDEST PUSH1 0x0 PUSH32 0x7965DB0B00000000000000000000000000000000000000000000000000000000 PUSH28 0xFFFFFFFFFFFFFFFFFFFFFFFFFFFFFFFFFFFFFFFFFFFFFFFFFFFFFFFF NOT AND DUP3 PUSH28 0xFFFFFFFFFFFFFFFFFFFFFFFFFFFFFFFFFFFFFFFFFFFFFFFFFFFFFFFF NOT AND EQ DUP1 PUSH2 0x3C3 JUMPI POP PUSH2 0x3C2 DUP3 PUSH2 0x746 JUMP JUMPDEST JUMPDEST SWAP1 POP SWAP2 SWAP1 POP JUMP JUMPDEST PUSH1 0x0 PUSH1 0x20 PUSH1 0x0 DUP4 DUP2 MSTORE PUSH1 0x20 ADD SWAP1 DUP2 MSTORE PUSH1 0x20 ADD PUSH1 0x0 KECCAK256 PUSH1 0x1 ADD SLOAD SWAP1 POP SWAP2 SWAP1 POP JUMP JUMPDEST PUSH32 0x3C11D16CBAFFD01DF69CE1C404F6340EE057498F5F00246190EA54220576A848 DUP2 JUMP JUMPDEST PUSH2 0x417 DUP3 PUSH2 0x3CA JUMP JUMPDEST PUSH2 0x420 DUP2 PUSH2 0x7B0 JUMP JUMPDEST PUSH2 0x42A DUP4 DUP4 PUSH2 0x7C4 JUMP JUMPDEST POP POP POP JUMP JUMPDEST PUSH2 0x437 PUSH2 0x8A5 JUMP JUMPDEST PUSH20 0xFFFFFFFFFFFFFFFFFFFFFFFFFFFFFFFFFFFFFFFF AND DUP2 PUSH20 0xFFFFFFFFFFFFFFFFFFFFFFFFFFFFFFFFFFFFFFFF AND EQ PUSH2 0x4A4 JUMPI PUSH1 0x40 MLOAD PUSH32 0x8C379A000000000000000000000000000000000000000000000000000000000 DUP2 MSTORE PUSH1 0x4 ADD PUSH2 0x49B SWAP1 PUSH2 0x14BB JUMP JUMPDEST PUSH1 0x40 MLOAD DUP1 SWAP2 SUB SWAP1 REVERT JUMPDEST PUSH2 0x4AE DUP3 DUP3 PUSH2 0x8AD JUMP JUMPDEST POP POP JUMP JUMPDEST PUSH1 0x0 PUSH20 0xFFFFFFFFFFFFFFFFFFFFFFFFFFFFFFFFFFFFFFFF AND DUP2 PUSH20 0xFFFFFFFFFFFFFFFFFFFFFFFFFFFFFFFFFFFFFFFF AND SUB PUSH2 0x518 JUMPI PUSH1 0x40 MLOAD PUSH32 0xD92E233D00000000000000000000000000000000000000000000000000000000 DUP2 MSTORE PUSH1 0x4 ADD PUSH1 0x40 MLOAD DUP1 SWAP2 SUB SWAP1 REVERT JUMPDEST PUSH1 0x0 PUSH20 0xFFFFFFFFFFFFFFFFFFFFFFFFFFFFFFFFFFFFFFFF AND PUSH2 0x538 PUSH2 0x6F7 JUMP JUMPDEST PUSH20 0xFFFFFFFFFFFFFFFFFFFFFFFFFFFFFFFFFFFFFFFF AND EQ PUSH2 0x585 JUMPI PUSH1 0x40 MLOAD PUSH32 0x5DAA87A000000000000000000000000000000000000000000000000000000000 DUP2 MSTORE PUSH1 0x4 ADD PUSH1 0x40 MLOAD DUP1 SWAP2 SUB SWAP1 REVERT JUMPDEST DUP1 PUSH32 0x360894A13BA1A3210667C828492DB98DCA3E2076CC3735A920A3CA505D382BBC SSTORE POP JUMP JUMPDEST PUSH1 0x0 PUSH1 0x20 PUSH1 0x0 DUP5 DUP2 MSTORE PUSH1 0x20 ADD SWAP1 DUP2 MSTORE PUSH1 0x20 ADD PUSH1 0x0 KECCAK256 PUSH1 0x0 ADD PUSH1 0x0 DUP4 PUSH20 0xFFFFFFFFFFFFFFFFFFFFFFFFFFFFFFFFFFFFFFFF AND PUSH20 0xFFFFFFFFFFFFFFFFFFFFFFFFFFFFFFFFFFFFFFFF AND DUP2 MSTORE PUSH1 0x20 ADD SWAP1 DUP2 MSTORE PUSH1 0x20 ADD PUSH1 0x0 KECCAK256 PUSH1 0x0 SWAP1 SLOAD SWAP1 PUSH2 0x100 EXP SWAP1 DIV PUSH1 0xFF AND SWAP1 POP SWAP3 SWAP2 POP POP JUMP JUMPDEST PUSH32 0x9F2DF0FED2C77648DE5860A4CC508CD0818C85B8B8A1AB4CEEEF8D981C8956A6 PUSH2 0x640 DUP2 PUSH2 0x7B0 JUMP JUMPDEST PUSH2 0x64B DUP5 DUP5 DUP5 PUSH2 0x98F JUMP JUMPDEST POP POP POP POP JUMP JUMPDEST PUSH1 0x0 DUP1 SHL DUP2 JUMP JUMPDEST PUSH2 0x663 DUP7 DUP7 DUP7 PUSH2 0xA03 JUMP JUMPDEST PUSH2 0x66E DUP3 DUP5 DUP4 PUSH2 0x98F JUMP JUMPDEST POP POP POP POP POP POP JUMP JUMPDEST PUSH32 0x9F2DF0FED2C77648DE5860A4CC508CD0818C85B8B8A1AB4CEEEF8D981C8956A6 DUP2 JUMP JUMPDEST PUSH2 0x6A3 DUP3 PUSH2 0x3CA JUMP JUMPDEST PUSH2 0x6AC DUP2 PUSH2 0x7B0 JUMP JUMPDEST PUSH2 0x6B6 DUP4 DUP4 PUSH2 0x8AD JUMP JUMPDEST POP POP POP JUMP JUMPDEST PUSH32 0x3C11D16CBAFFD01DF69CE1C404F6340EE057498F5F00246190EA54220576A848 PUSH2 0x6E5 DUP2 PUSH2 0x7B0 JUMP JUMPDEST PUSH2 0x6F0 CALLER DUP5 DUP5 PUSH2 0xAE6 JUMP JUMPDEST POP POP POP JUMP JUMPDEST JUMP JUMPDEST PUSH1 0x0 PUSH32 0x360894A13BA1A3210667C828492DB98DCA3E2076CC3735A920A3CA505D382BBC SLOAD SWAP1 POP SWAP1 JUMP JUMPDEST CALLDATASIZE PUSH1 0x0 DUP1 CALLDATACOPY PUSH1 0x0 DUP1 CALLDATASIZE PUSH1 0x0 DUP5 GAS DELEGATECALL RETURNDATASIZE PUSH1 0x0 DUP1 RETURNDATACOPY DUP1 PUSH1 0x0 DUP2 EQ PUSH2 0x741 JUMPI RETURNDATASIZE PUSH1 0x0 RETURN JUMPDEST RETURNDATASIZE PUSH1 0x0 REVERT JUMPDEST PUSH1 0x0 PUSH32 0x1FFC9A700000000000000000000000000000000000000000000000000000000 PUSH28 0xFFFFFFFFFFFFFFFFFFFFFFFFFFFFFFFFFFFFFFFFFFFFFFFFFFFFFFFF NOT AND DUP3 PUSH28 0xFFFFFFFFFFFFFFFFFFFFFFFFFFFFFFFFFFFFFFFFFFFFFFFFFFFFFFFF NOT AND EQ SWAP1 POP SWAP2 SWAP1 POP JUMP JUMPDEST PUSH2 0x7C1 DUP2 PUSH2 0x7BC PUSH2 0x8A5 JUMP JUMPDEST PUSH2 0xB5A JUMP JUMPDEST POP JUMP JUMPDEST PUSH2 0x7CE DUP3 DUP3 PUSH2 0x5AB JUMP JUMPDEST PUSH2 0x8A1 JUMPI PUSH1 0x1 PUSH1 0x20 PUSH1 0x0 DUP5 DUP2 MSTORE PUSH1 0x20 ADD SWAP1 DUP2 MSTORE PUSH1 0x20 ADD PUSH1 0x0 KECCAK256 PUSH1 0x0 ADD PUSH1 0x0 DUP4 PUSH20 0xFFFFFFFFFFFFFFFFFFFFFFFFFFFFFFFFFFFFFFFF AND PUSH20 0xFFFFFFFFFFFFFFFFFFFFFFFFFFFFFFFFFFFFFFFF AND DUP2 MSTORE PUSH1 0x20 ADD SWAP1 DUP2 MSTORE PUSH1 0x20 ADD PUSH1 0x0 KECCAK256 PUSH1 0x0 PUSH2 0x100 EXP DUP2 SLOAD DUP2 PUSH1 0xFF MUL NOT AND SWAP1 DUP4 ISZERO ISZERO MUL OR SWAP1 SSTORE POP PUSH2 0x846 PUSH2 0x8A5 JUMP JUMPDEST PUSH20 0xFFFFFFFFFFFFFFFFFFFFFFFFFFFFFFFFFFFFFFFF AND DUP2 PUSH20 0xFFFFFFFFFFFFFFFFFFFFFFFFFFFFFFFFFFFFFFFF AND DUP4 PUSH32 0x2F8788117E7EFF1D82E926EC794901D17C78024A50270940304540A733656F0D PUSH1 0x40 MLOAD PUSH1 0x40 MLOAD DUP1 SWAP2 SUB SWAP1 LOG4 JUMPDEST POP POP JUMP JUMPDEST PUSH1 0x0 CALLER SWAP1 POP SWAP1 JUMP JUMPDEST PUSH2 0x8B7 DUP3 DUP3 PUSH2 0x5AB JUMP JUMPDEST ISZERO PUSH2 0x98B JUMPI PUSH1 0x0 PUSH1 0x20 PUSH1 0x0 DUP5 DUP2 MSTORE PUSH1 0x20 ADD SWAP1 DUP2 MSTORE PUSH1 0x20 ADD PUSH1 0x0 KECCAK256 PUSH1 0x0 ADD PUSH1 0x0 DUP4 PUSH20 0xFFFFFFFFFFFFFFFFFFFFFFFFFFFFFFFFFFFFFFFF AND PUSH20 0xFFFFFFFFFFFFFFFFFFFFFFFFFFFFFFFFFFFFFFFF AND DUP2 MSTORE PUSH1 0x20 ADD SWAP1 DUP2 MSTORE PUSH1 0x20 ADD PUSH1 0x0 KECCAK256 PUSH1 0x0 PUSH2 0x100 EXP DUP2 SLOAD DUP2 PUSH1 0xFF MUL NOT AND SWAP1 DUP4 ISZERO ISZERO MUL OR SWAP1 SSTORE POP PUSH2 0x930 PUSH2 0x8A5 JUMP JUMPDEST PUSH20 0xFFFFFFFFFFFFFFFFFFFFFFFFFFFFFFFFFFFFFFFF AND DUP2 PUSH20 0xFFFFFFFFFFFFFFFFFFFFFFFFFFFFFFFFFFFFFFFF AND DUP4 PUSH32 0xF6391F5C32D9C69D2A47EA670B442974B53935D1EDC7FD64EB21E047A839171B PUSH1 0x40 MLOAD PUSH1 0x40 MLOAD DUP1 SWAP2 SUB SWAP1 LOG4 JUMPDEST POP POP JUMP JUMPDEST ADDRESS PUSH20 0xFFFFFFFFFFFFFFFFFFFFFFFFFFFFFFFFFFFFFFFF AND PUSH4 0xC68D4283 DUP5 DUP5 DUP5 PUSH1 0x40 MLOAD DUP5 PUSH4 0xFFFFFFFF AND PUSH1 0xE0 SHL DUP2 MSTORE PUSH1 0x4 ADD PUSH2 0x9CC SWAP4 SWAP3 SWAP2 SWAP1 PUSH2 0x1578 JUMP JUMPDEST PUSH1 0x0 PUSH1 0x40 MLOAD DUP1 DUP4 SUB DUP2 PUSH1 0x0 DUP8 DUP1 EXTCODESIZE ISZERO DUP1 ISZERO PUSH2 0x9E6 JUMPI PUSH1 0x0 DUP1 REVERT JUMPDEST POP GAS CALL ISZERO DUP1 ISZERO PUSH2 0x9FA JUMPI RETURNDATASIZE PUSH1 0x0 DUP1 RETURNDATACOPY RETURNDATASIZE PUSH1 0x0 REVERT JUMPDEST POP POP POP POP POP POP POP JUMP JUMPDEST DUP3 PUSH20 0xFFFFFFFFFFFFFFFFFFFFFFFFFFFFFFFFFFFFFFFF AND PUSH4 0xD412D344 ADDRESS PUSH1 0x40 MLOAD DUP3 PUSH4 0xFFFFFFFF AND PUSH1 0xE0 SHL DUP2 MSTORE PUSH1 0x4 ADD PUSH2 0xA3C SWAP2 SWAP1 PUSH2 0x15B6 JUMP JUMPDEST PUSH1 0x0 PUSH1 0x40 MLOAD DUP1 DUP4 SUB DUP2 PUSH1 0x0 DUP8 DUP1 EXTCODESIZE ISZERO DUP1 ISZERO PUSH2 0xA56 JUMPI PUSH1 0x0 DUP1 REVERT JUMPDEST POP GAS CALL ISZERO DUP1 ISZERO PUSH2 0xA6A JUMPI RETURNDATASIZE PUSH1 0x0 DUP1 RETURNDATACOPY RETURNDATASIZE PUSH1 0x0 REVERT JUMPDEST POP POP POP POP ADDRESS PUSH20 0xFFFFFFFFFFFFFFFFFFFFFFFFFFFFFFFFFFFFFFFF AND PUSH4 0x42FE0980 PUSH1 0x0 PUSH1 0x12 DUP6 DUP6 PUSH1 0x40 MLOAD DUP6 PUSH4 0xFFFFFFFF AND PUSH1 0xE0 SHL DUP2 MSTORE PUSH1 0x4 ADD PUSH2 0xAAF SWAP5 SWAP4 SWAP3 SWAP2 SWAP1 PUSH2 0x16BC JUMP JUMPDEST PUSH1 0x0 PUSH1 0x40 MLOAD DUP1 DUP4 SUB DUP2 PUSH1 0x0 DUP8 DUP1 EXTCODESIZE ISZERO DUP1 ISZERO PUSH2 0xAC9 JUMPI PUSH1 0x0 DUP1 REVERT JUMPDEST POP GAS CALL ISZERO DUP1 ISZERO PUSH2 0xADD JUMPI RETURNDATASIZE PUSH1 0x0 DUP1 RETURNDATACOPY RETURNDATASIZE PUSH1 0x0 REVERT JUMPDEST POP POP POP POP POP POP POP JUMP JUMPDEST ADDRESS PUSH20 0xFFFFFFFFFFFFFFFFFFFFFFFFFFFFFFFFFFFFFFFF AND PUSH4 0x9D876741 DUP5 DUP5 DUP5 PUSH1 0x40 MLOAD DUP5 PUSH4 0xFFFFFFFF AND PUSH1 0xE0 SHL DUP2 MSTORE PUSH1 0x4 ADD PUSH2 0xB23 SWAP4 SWAP3 SWAP2 SWAP1 PUSH2 0x1578 JUMP JUMPDEST PUSH1 0x0 PUSH1 0x40 MLOAD DUP1 DUP4 SUB DUP2 PUSH1 0x0 DUP8 DUP1 EXTCODESIZE ISZERO DUP1 ISZERO PUSH2 0xB3D JUMPI PUSH1 0x0 DUP1 REVERT JUMPDEST POP GAS CALL ISZERO DUP1 ISZERO PUSH2 0xB51 JUMPI RETURNDATASIZE PUSH1 0x0 DUP1 RETURNDATACOPY RETURNDATASIZE PUSH1 0x0 REVERT JUMPDEST POP POP POP POP POP POP POP JUMP JUMPDEST PUSH2 0xB64 DUP3 DUP3 PUSH2 0x5AB JUMP JUMPDEST PUSH2 0xBDB JUMPI PUSH2 0xB71 DUP2 PUSH2 0xBDF JUMP JUMPDEST PUSH2 0xB7F DUP4 PUSH1 0x0 SHR PUSH1 0x20 PUSH2 0xC0C JUMP JUMPDEST PUSH1 0x40 MLOAD PUSH1 0x20 ADD PUSH2 0xB90 SWAP3 SWAP2 SWAP1 PUSH2 0x17E3 JUMP JUMPDEST PUSH1 0x40 MLOAD PUSH1 0x20 DUP2 DUP4 SUB SUB DUP2 MSTORE SWAP1 PUSH1 0x40 MSTORE PUSH1 0x40 MLOAD PUSH32 0x8C379A000000000000000000000000000000000000000000000000000000000 DUP2 MSTORE PUSH1 0x4 ADD PUSH2 0xBD2 SWAP2 SWAP1 PUSH2 0x181D JUMP JUMPDEST PUSH1 0x40 MLOAD DUP1 SWAP2 SUB SWAP1 REVERT JUMPDEST POP POP JUMP JUMPDEST PUSH1 0x60 PUSH2 0xC05 DUP3 PUSH20 0xFFFFFFFFFFFFFFFFFFFFFFFFFFFFFFFFFFFFFFFF AND PUSH1 0x14 PUSH1 0xFF AND PUSH2 0xC0C JUMP JUMPDEST SWAP1 POP SWAP2 SWAP1 POP JUMP JUMPDEST PUSH1 0x60 PUSH1 0x0 PUSH1 0x2 DUP4 PUSH1 0x2 PUSH2 0xC1F SWAP2 SWAP1 PUSH2 0x186E JUMP JUMPDEST PUSH2 0xC29 SWAP2 SWAP1 PUSH2 0x18B0 JUMP JUMPDEST PUSH8 0xFFFFFFFFFFFFFFFF DUP2 GT ISZERO PUSH2 0xC42 JUMPI PUSH2 0xC41 PUSH2 0x10C0 JUMP JUMPDEST JUMPDEST PUSH1 0x40 MLOAD SWAP1 DUP1 DUP3 MSTORE DUP1 PUSH1 0x1F ADD PUSH1 0x1F NOT AND PUSH1 0x20 ADD DUP3 ADD PUSH1 0x40 MSTORE DUP1 ISZERO PUSH2 0xC74 JUMPI DUP2 PUSH1 0x20 ADD PUSH1 0x1 DUP3 MUL DUP1 CALLDATASIZE DUP4 CALLDATACOPY DUP1 DUP3 ADD SWAP2 POP POP SWAP1 POP JUMPDEST POP SWAP1 POP PUSH32 0x3000000000000000000000000000000000000000000000000000000000000000 DUP2 PUSH1 0x0 DUP2 MLOAD DUP2 LT PUSH2 0xCAC JUMPI PUSH2 0xCAB PUSH2 0x18E4 JUMP JUMPDEST JUMPDEST PUSH1 0x20 ADD ADD SWAP1 PUSH31 0xFFFFFFFFFFFFFFFFFFFFFFFFFFFFFFFFFFFFFFFFFFFFFFFFFFFFFFFFFFFFFF NOT AND SWAP1 DUP2 PUSH1 0x0 BYTE SWAP1 MSTORE8 POP PUSH32 0x7800000000000000000000000000000000000000000000000000000000000000 DUP2 PUSH1 0x1 DUP2 MLOAD DUP2 LT PUSH2 0xD10 JUMPI PUSH2 0xD0F PUSH2 0x18E4 JUMP JUMPDEST JUMPDEST PUSH1 0x20 ADD ADD SWAP1 PUSH31 0xFFFFFFFFFFFFFFFFFFFFFFFFFFFFFFFFFFFFFFFFFFFFFFFFFFFFFFFFFFFFFF NOT AND SWAP1 DUP2 PUSH1 0x0 BYTE SWAP1 MSTORE8 POP PUSH1 0x0 PUSH1 0x1 DUP5 PUSH1 0x2 PUSH2 0xD50 SWAP2 SWAP1 PUSH2 0x186E JUMP JUMPDEST PUSH2 0xD5A SWAP2 SWAP1 PUSH2 0x18B0 JUMP JUMPDEST SWAP1 POP JUMPDEST PUSH1 0x1 DUP2 GT ISZERO PUSH2 0xDFA JUMPI PUSH32 0x3031323334353637383961626364656600000000000000000000000000000000 PUSH1 0xF DUP7 AND PUSH1 0x10 DUP2 LT PUSH2 0xD9C JUMPI PUSH2 0xD9B PUSH2 0x18E4 JUMP JUMPDEST JUMPDEST BYTE PUSH1 0xF8 SHL DUP3 DUP3 DUP2 MLOAD DUP2 LT PUSH2 0xDB3 JUMPI PUSH2 0xDB2 PUSH2 0x18E4 JUMP JUMPDEST JUMPDEST PUSH1 0x20 ADD ADD SWAP1 PUSH31 0xFFFFFFFFFFFFFFFFFFFFFFFFFFFFFFFFFFFFFFFFFFFFFFFFFFFFFFFFFFFFFF NOT AND SWAP1 DUP2 PUSH1 0x0 BYTE SWAP1 MSTORE8 POP PUSH1 0x4 DUP6 SWAP1 SHR SWAP5 POP DUP1 PUSH2 0xDF3 SWAP1 PUSH2 0x1913 JUMP JUMPDEST SWAP1 POP PUSH2 0xD5D JUMP JUMPDEST POP PUSH1 0x0 DUP5 EQ PUSH2 0xE3E JUMPI PUSH1 0x40 MLOAD PUSH32 0x8C379A000000000000000000000000000000000000000000000000000000000 DUP2 MSTORE PUSH1 0x4 ADD PUSH2 0xE35 SWAP1 PUSH2 0x1988 JUMP JUMPDEST PUSH1 0x40 MLOAD DUP1 SWAP2 SUB SWAP1 REVERT JUMPDEST DUP1 SWAP2 POP POP SWAP3 SWAP2 POP POP JUMP JUMPDEST PUSH1 0x0 PUSH1 0x40 MLOAD SWAP1 POP SWAP1 JUMP JUMPDEST PUSH1 0x0 DUP1 REVERT JUMPDEST PUSH1 0x0 DUP1 REVERT JUMPDEST PUSH1 0x0 PUSH32 0xFFFFFFFF00000000000000000000000000000000000000000000000000000000 DUP3 AND SWAP1 POP SWAP2 SWAP1 POP JUMP JUMPDEST PUSH2 0xE91 DUP2 PUSH2 0xE5C JUMP JUMPDEST DUP2 EQ PUSH2 0xE9C JUMPI PUSH1 0x0 DUP1 REVERT JUMPDEST POP JUMP JUMPDEST PUSH1 0x0 DUP2 CALLDATALOAD SWAP1 POP PUSH2 0xEAE DUP2 PUSH2 0xE88 JUMP JUMPDEST SWAP3 SWAP2 POP POP JUMP JUMPDEST PUSH1 0x0 PUSH1 0x20 DUP3 DUP5 SUB SLT ISZERO PUSH2 0xECA JUMPI PUSH2 0xEC9 PUSH2 0xE52 JUMP JUMPDEST JUMPDEST PUSH1 0x0 PUSH2 0xED8 DUP5 DUP3 DUP6 ADD PUSH2 0xE9F JUMP JUMPDEST SWAP2 POP POP SWAP3 SWAP2 POP POP JUMP JUMPDEST PUSH1 0x0 DUP2 ISZERO ISZERO SWAP1 POP SWAP2 SWAP1 POP JUMP JUMPDEST PUSH2 0xEF6 DUP2 PUSH2 0xEE1 JUMP JUMPDEST DUP3 MSTORE POP POP JUMP JUMPDEST PUSH1 0x0 PUSH1 0x20 DUP3 ADD SWAP1 POP PUSH2 0xF11 PUSH1 0x0 DUP4 ADD DUP5 PUSH2 0xEED JUMP JUMPDEST SWAP3 SWAP2 POP POP JUMP JUMPDEST PUSH1 0x0 DUP2 SWAP1 POP SWAP2 SWAP1 POP JUMP JUMPDEST PUSH2 0xF2A DUP2 PUSH2 0xF17 JUMP JUMPDEST DUP2 EQ PUSH2 0xF35 JUMPI PUSH1 0x0 DUP1 REVERT JUMPDEST POP JUMP JUMPDEST PUSH1 0x0 DUP2 CALLDATALOAD SWAP1 POP PUSH2 0xF47 DUP2 PUSH2 0xF21 JUMP JUMPDEST SWAP3 SWAP2 POP POP JUMP JUMPDEST PUSH1 0x0 PUSH1 0x20 DUP3 DUP5 SUB SLT ISZERO PUSH2 0xF63 JUMPI PUSH2 0xF62 PUSH2 0xE52 JUMP JUMPDEST JUMPDEST PUSH1 0x0 PUSH2 0xF71 DUP5 DUP3 DUP6 ADD PUSH2 0xF38 JUMP JUMPDEST SWAP2 POP POP SWAP3 SWAP2 POP POP JUMP JUMPDEST PUSH2 0xF83 DUP2 PUSH2 0xF17 JUMP JUMPDEST DUP3 MSTORE POP POP JUMP JUMPDEST PUSH1 0x0 PUSH1 0x20 DUP3 ADD SWAP1 POP PUSH2 0xF9E PUSH1 0x0 DUP4 ADD DUP5 PUSH2 0xF7A JUMP JUMPDEST SWAP3 SWAP2 POP POP JUMP JUMPDEST PUSH1 0x0 PUSH20 0xFFFFFFFFFFFFFFFFFFFFFFFFFFFFFFFFFFFFFFFF DUP3 AND SWAP1 POP SWAP2 SWAP1 POP JUMP JUMPDEST PUSH1 0x0 PUSH2 0xFCF DUP3 PUSH2 0xFA4 JUMP JUMPDEST SWAP1 POP SWAP2 SWAP1 POP JUMP JUMPDEST PUSH2 0xFDF DUP2 PUSH2 0xFC4 JUMP JUMPDEST DUP2 EQ PUSH2 0xFEA JUMPI PUSH1 0x0 DUP1 REVERT JUMPDEST POP JUMP JUMPDEST PUSH1 0x0 DUP2 CALLDATALOAD SWAP1 POP PUSH2 0xFFC DUP2 PUSH2 0xFD6 JUMP JUMPDEST SWAP3 SWAP2 POP POP JUMP JUMPDEST PUSH1 0x0 DUP1 PUSH1 0x40 DUP4 DUP6 SUB SLT ISZERO PUSH2 0x1019 JUMPI PUSH2 0x1018 PUSH2 0xE52 JUMP JUMPDEST JUMPDEST PUSH1 0x0 PUSH2 0x1027 DUP6 DUP3 DUP7 ADD PUSH2 0xF38 JUMP JUMPDEST SWAP3 POP POP PUSH1 0x20 PUSH2 0x1038 DUP6 DUP3 DUP7 ADD PUSH2 0xFED JUMP JUMPDEST SWAP2 POP POP SWAP3 POP SWAP3 SWAP1 POP JUMP JUMPDEST PUSH1 0x0 PUSH1 0x20 DUP3 DUP5 SUB SLT ISZERO PUSH2 0x1058 JUMPI PUSH2 0x1057 PUSH2 0xE52 JUMP JUMPDEST JUMPDEST PUSH1 0x0 PUSH2 0x1066 DUP5 DUP3 DUP6 ADD PUSH2 0xFED JUMP JUMPDEST SWAP2 POP POP SWAP3 SWAP2 POP POP JUMP JUMPDEST PUSH1 0x0 DUP2 SWAP1 POP SWAP2 SWAP1 POP JUMP JUMPDEST PUSH2 0x1082 DUP2 PUSH2 0x106F JUMP JUMPDEST DUP2 EQ PUSH2 0x108D JUMPI PUSH1 0x0 DUP1 REVERT JUMPDEST POP JUMP JUMPDEST PUSH1 0x0 DUP2 CALLDATALOAD SWAP1 POP PUSH2 0x109F DUP2 PUSH2 0x1079 JUMP JUMPDEST SWAP3 SWAP2 POP POP JUMP JUMPDEST PUSH1 0x0 DUP1 REVERT JUMPDEST PUSH1 0x0 DUP1 REVERT JUMPDEST PUSH1 0x0 PUSH1 0x1F NOT PUSH1 0x1F DUP4 ADD AND SWAP1 POP SWAP2 SWAP1 POP JUMP JUMPDEST PUSH32 0x4E487B7100000000000000000000000000000000000000000000000000000000 PUSH1 0x0 MSTORE PUSH1 0x41 PUSH1 0x4 MSTORE PUSH1 0x24 PUSH1 0x0 REVERT JUMPDEST PUSH2 0x10F8 DUP3 PUSH2 0x10AF JUMP JUMPDEST DUP2 ADD DUP2 DUP2 LT PUSH8 0xFFFFFFFFFFFFFFFF DUP3 GT OR ISZERO PUSH2 0x1117 JUMPI PUSH2 0x1116 PUSH2 0x10C0 JUMP JUMPDEST JUMPDEST DUP1 PUSH1 0x40 MSTORE POP POP POP JUMP JUMPDEST PUSH1 0x0 PUSH2 0x112A PUSH2 0xE48 JUMP JUMPDEST SWAP1 POP PUSH2 0x1136 DUP3 DUP3 PUSH2 0x10EF JUMP JUMPDEST SWAP2 SWAP1 POP JUMP JUMPDEST PUSH1 0x0 PUSH8 0xFFFFFFFFFFFFFFFF DUP3 GT ISZERO PUSH2 0x1156 JUMPI PUSH2 0x1155 PUSH2 0x10C0 JUMP JUMPDEST JUMPDEST PUSH2 0x115F DUP3 PUSH2 0x10AF JUMP JUMPDEST SWAP1 POP PUSH1 0x20 DUP2 ADD SWAP1 POP SWAP2 SWAP1 POP JUMP JUMPDEST DUP3 DUP2 DUP4 CALLDATACOPY PUSH1 0x0 DUP4 DUP4 ADD MSTORE POP POP POP JUMP JUMPDEST PUSH1 0x0 PUSH2 0x118E PUSH2 0x1189 DUP5 PUSH2 0x113B JUMP JUMPDEST PUSH2 0x1120 JUMP JUMPDEST SWAP1 POP DUP3 DUP2 MSTORE PUSH1 0x20 DUP2 ADD DUP5 DUP5 DUP5 ADD GT ISZERO PUSH2 0x11AA JUMPI PUSH2 0x11A9 PUSH2 0x10AA JUMP JUMPDEST JUMPDEST PUSH2 0x11B5 DUP5 DUP3 DUP6 PUSH2 0x116C JUMP JUMPDEST POP SWAP4 SWAP3 POP POP POP JUMP JUMPDEST PUSH1 0x0 DUP3 PUSH1 0x1F DUP4 ADD SLT PUSH2 0x11D2 JUMPI PUSH2 0x11D1 PUSH2 0x10A5 JUMP JUMPDEST JUMPDEST DUP2 CALLDATALOAD PUSH2 0x11E2 DUP5 DUP3 PUSH1 0x20 DUP7 ADD PUSH2 0x117B JUMP JUMPDEST SWAP2 POP POP SWAP3 SWAP2 POP POP JUMP JUMPDEST PUSH1 0x0 DUP1 PUSH1 0x0 PUSH1 0x60 DUP5 DUP7 SUB SLT ISZERO PUSH2 0x1204 JUMPI PUSH2 0x1203 PUSH2 0xE52 JUMP JUMPDEST JUMPDEST PUSH1 0x0 PUSH2 0x1212 DUP7 DUP3 DUP8 ADD PUSH2 0xFED JUMP JUMPDEST SWAP4 POP POP PUSH1 0x20 PUSH2 0x1223 DUP7 DUP3 DUP8 ADD PUSH2 0x1090 JUMP JUMPDEST SWAP3 POP POP PUSH1 0x40 DUP5 ADD CALLDATALOAD PUSH8 0xFFFFFFFFFFFFFFFF DUP2 GT ISZERO PUSH2 0x1244 JUMPI PUSH2 0x1243 PUSH2 0xE57 JUMP JUMPDEST JUMPDEST PUSH2 0x1250 DUP7 DUP3 DUP8 ADD PUSH2 0x11BD JUMP JUMPDEST SWAP2 POP POP SWAP3 POP SWAP3 POP SWAP3 JUMP JUMPDEST PUSH1 0x0 PUSH8 0xFFFFFFFFFFFFFFFF DUP3 GT ISZERO PUSH2 0x1275 JUMPI PUSH2 0x1274 PUSH2 0x10C0 JUMP JUMPDEST JUMPDEST PUSH2 0x127E DUP3 PUSH2 0x10AF JUMP JUMPDEST SWAP1 POP PUSH1 0x20 DUP2 ADD SWAP1 POP SWAP2 SWAP1 POP JUMP JUMPDEST PUSH1 0x0 PUSH2 0x129E PUSH2 0x1299 DUP5 PUSH2 0x125A JUMP JUMPDEST PUSH2 0x1120 JUMP JUMPDEST SWAP1 POP DUP3 DUP2 MSTORE PUSH1 0x20 DUP2 ADD DUP5 DUP5 DUP5 ADD GT ISZERO PUSH2 0x12BA JUMPI PUSH2 0x12B9 PUSH2 0x10AA JUMP JUMPDEST JUMPDEST PUSH2 0x12C5 DUP5 DUP3 DUP6 PUSH2 0x116C JUMP JUMPDEST POP SWAP4 SWAP3 POP POP POP JUMP JUMPDEST PUSH1 0x0 DUP3 PUSH1 0x1F DUP4 ADD SLT PUSH2 0x12E2 JUMPI PUSH2 0x12E1 PUSH2 0x10A5 JUMP JUMPDEST JUMPDEST DUP2 CALLDATALOAD PUSH2 0x12F2 DUP5 DUP3 PUSH1 0x20 DUP7 ADD PUSH2 0x128B JUMP JUMPDEST SWAP2 POP POP SWAP3 SWAP2 POP POP JUMP JUMPDEST PUSH1 0x0 DUP1 PUSH1 0x0 DUP1 PUSH1 0x0 DUP1 PUSH1 0xC0 DUP8 DUP10 SUB SLT ISZERO PUSH2 0x1318 JUMPI PUSH2 0x1317 PUSH2 0xE52 JUMP JUMPDEST JUMPDEST PUSH1 0x0 PUSH2 0x1326 DUP10 DUP3 DUP11 ADD PUSH2 0xFED JUMP JUMPDEST SWAP7 POP POP PUSH1 0x20 DUP8 ADD CALLDATALOAD PUSH8 0xFFFFFFFFFFFFFFFF DUP2 GT ISZERO PUSH2 0x1347 JUMPI PUSH2 0x1346 PUSH2 0xE57 JUMP JUMPDEST JUMPDEST PUSH2 0x1353 DUP10 DUP3 DUP11 ADD PUSH2 0x12CD JUMP JUMPDEST SWAP6 POP POP PUSH1 0x40 DUP8 ADD CALLDATALOAD PUSH8 0xFFFFFFFFFFFFFFFF DUP2 GT ISZERO PUSH2 0x1374 JUMPI PUSH2 0x1373 PUSH2 0xE57 JUMP JUMPDEST JUMPDEST PUSH2 0x1380 DUP10 DUP3 DUP11 ADD PUSH2 0x12CD JUMP JUMPDEST SWAP5 POP POP PUSH1 0x60 PUSH2 0x1391 DUP10 DUP3 DUP11 ADD PUSH2 0x1090 JUMP JUMPDEST SWAP4 POP POP PUSH1 0x80 PUSH2 0x13A2 DUP10 DUP3 DUP11 ADD PUSH2 0xFED JUMP JUMPDEST SWAP3 POP POP PUSH1 0xA0 DUP8 ADD CALLDATALOAD PUSH8 0xFFFFFFFFFFFFFFFF DUP2 GT ISZERO PUSH2 0x13C3 JUMPI PUSH2 0x13C2 PUSH2 0xE57 JUMP JUMPDEST JUMPDEST PUSH2 0x13CF DUP10 DUP3 DUP11 ADD PUSH2 0x11BD JUMP JUMPDEST SWAP2 POP POP SWAP3 SWAP6 POP SWAP3 SWAP6 POP SWAP3 SWAP6 JUMP JUMPDEST PUSH1 0x0 DUP1 PUSH1 0x40 DUP4 DUP6 SUB SLT ISZERO PUSH2 0x13F3 JUMPI PUSH2 0x13F2 PUSH2 0xE52 JUMP JUMPDEST JUMPDEST PUSH1 0x0 PUSH2 0x1401 DUP6 DUP3 DUP7 ADD PUSH2 0x1090 JUMP JUMPDEST SWAP3 POP POP PUSH1 0x20 DUP4 ADD CALLDATALOAD PUSH8 0xFFFFFFFFFFFFFFFF DUP2 GT ISZERO PUSH2 0x1422 JUMPI PUSH2 0x1421 PUSH2 0xE57 JUMP JUMPDEST JUMPDEST PUSH2 0x142E DUP6 DUP3 DUP7 ADD PUSH2 0x11BD JUMP JUMPDEST SWAP2 POP POP SWAP3 POP SWAP3 SWAP1 POP JUMP JUMPDEST PUSH1 0x0 DUP3 DUP3 MSTORE PUSH1 0x20 DUP3 ADD SWAP1 POP SWAP3 SWAP2 POP POP JUMP JUMPDEST PUSH32 0x416363657373436F6E74726F6C3A2063616E206F6E6C792072656E6F756E6365 PUSH1 0x0 DUP3 ADD MSTORE PUSH32 0x20726F6C657320666F722073656C660000000000000000000000000000000000 PUSH1 0x20 DUP3 ADD MSTORE POP JUMP JUMPDEST PUSH1 0x0 PUSH2 0x14A5 PUSH1 0x2F DUP4 PUSH2 0x1438 JUMP JUMPDEST SWAP2 POP PUSH2 0x14B0 DUP3 PUSH2 0x1449 JUMP JUMPDEST PUSH1 0x40 DUP3 ADD SWAP1 POP SWAP2 SWAP1 POP JUMP JUMPDEST PUSH1 0x0 PUSH1 0x20 DUP3 ADD SWAP1 POP DUP2 DUP2 SUB PUSH1 0x0 DUP4 ADD MSTORE PUSH2 0x14D4 DUP2 PUSH2 0x1498 JUMP JUMPDEST SWAP1 POP SWAP2 SWAP1 POP JUMP JUMPDEST PUSH2 0x14E4 DUP2 PUSH2 0xFC4 JUMP JUMPDEST DUP3 MSTORE POP POP JUMP JUMPDEST PUSH2 0x14F3 DUP2 PUSH2 0x106F JUMP JUMPDEST DUP3 MSTORE POP POP JUMP JUMPDEST PUSH1 0x0 DUP2 MLOAD SWAP1 POP SWAP2 SWAP1 POP JUMP JUMPDEST PUSH1 0x0 DUP3 DUP3 MSTORE PUSH1 0x20 DUP3 ADD SWAP1 POP SWAP3 SWAP2 POP POP JUMP JUMPDEST PUSH1 0x0 JUMPDEST DUP4 DUP2 LT ISZERO PUSH2 0x1533 JUMPI DUP1 DUP3 ADD MLOAD DUP2 DUP5 ADD MSTORE PUSH1 0x20 DUP2 ADD SWAP1 POP PUSH2 0x1518 JUMP JUMPDEST PUSH1 0x0 DUP5 DUP5 ADD MSTORE POP POP POP POP JUMP JUMPDEST PUSH1 0x0 PUSH2 0x154A DUP3 PUSH2 0x14F9 JUMP JUMPDEST PUSH2 0x1554 DUP2 DUP6 PUSH2 0x1504 JUMP JUMPDEST SWAP4 POP PUSH2 0x1564 DUP2 DUP6 PUSH1 0x20 DUP7 ADD PUSH2 0x1515 JUMP JUMPDEST PUSH2 0x156D DUP2 PUSH2 0x10AF JUMP JUMPDEST DUP5 ADD SWAP2 POP POP SWAP3 SWAP2 POP POP JUMP JUMPDEST PUSH1 0x0 PUSH1 0x60 DUP3 ADD SWAP1 POP PUSH2 0x158D PUSH1 0x0 DUP4 ADD DUP7 PUSH2 0x14DB JUMP JUMPDEST PUSH2 0x159A PUSH1 0x20 DUP4 ADD DUP6 PUSH2 0x14EA JUMP JUMPDEST DUP2 DUP2 SUB PUSH1 0x40 DUP4 ADD MSTORE PUSH2 0x15AC DUP2 DUP5 PUSH2 0x153F JUMP JUMPDEST SWAP1 POP SWAP5 SWAP4 POP POP POP POP JUMP JUMPDEST PUSH1 0x0 PUSH1 0x20 DUP3 ADD SWAP1 POP PUSH2 0x15CB PUSH1 0x0 DUP4 ADD DUP5 PUSH2 0x14DB JUMP JUMPDEST SWAP3 SWAP2 POP POP JUMP JUMPDEST PUSH1 0x0 DUP2 SWAP1 POP SWAP2 SWAP1 POP JUMP JUMPDEST PUSH1 0x0 PUSH2 0x15F6 PUSH2 0x15F1 PUSH2 0x15EC DUP5 PUSH2 0xFA4 JUMP JUMPDEST PUSH2 0x15D1 JUMP JUMPDEST PUSH2 0xFA4 JUMP JUMPDEST SWAP1 POP SWAP2 SWAP1 POP JUMP JUMPDEST PUSH1 0x0 PUSH2 0x1608 DUP3 PUSH2 0x15DB JUMP JUMPDEST SWAP1 POP SWAP2 SWAP1 POP JUMP JUMPDEST PUSH1 0x0 PUSH2 0x161A DUP3 PUSH2 0x15FD JUMP JUMPDEST SWAP1 POP SWAP2 SWAP1 POP JUMP JUMPDEST PUSH2 0x162A DUP2 PUSH2 0x160F JUMP JUMPDEST DUP3 MSTORE POP POP JUMP JUMPDEST PUSH1 0x0 DUP2 SWAP1 POP SWAP2 SWAP1 POP JUMP JUMPDEST PUSH1 0x0 PUSH1 0xFF DUP3 AND SWAP1 POP SWAP2 SWAP1 POP JUMP JUMPDEST PUSH1 0x0 PUSH2 0x1662 PUSH2 0x165D PUSH2 0x1658 DUP5 PUSH2 0x1630 JUMP JUMPDEST PUSH2 0x15D1 JUMP JUMPDEST PUSH2 0x163A JUMP JUMPDEST SWAP1 POP SWAP2 SWAP1 POP JUMP JUMPDEST PUSH2 0x1672 DUP2 PUSH2 0x1647 JUMP JUMPDEST DUP3 MSTORE POP POP JUMP JUMPDEST PUSH1 0x0 DUP2 MLOAD SWAP1 POP SWAP2 SWAP1 POP JUMP JUMPDEST PUSH1 0x0 PUSH2 0x168E DUP3 PUSH2 0x1678 JUMP JUMPDEST PUSH2 0x1698 DUP2 DUP6 PUSH2 0x1438 JUMP JUMPDEST SWAP4 POP PUSH2 0x16A8 DUP2 DUP6 PUSH1 0x20 DUP7 ADD PUSH2 0x1515 JUMP JUMPDEST PUSH2 0x16B1 DUP2 PUSH2 0x10AF JUMP JUMPDEST DUP5 ADD SWAP2 POP POP SWAP3 SWAP2 POP POP JUMP JUMPDEST PUSH1 0x0 PUSH1 0x80 DUP3 ADD SWAP1 POP PUSH2 0x16D1 PUSH1 0x0 DUP4 ADD DUP8 PUSH2 0x1621 JUMP JUMPDEST PUSH2 0x16DE PUSH1 0x20 DUP4 ADD DUP7 PUSH2 0x1669 JUMP JUMPDEST DUP2 DUP2 SUB PUSH1 0x40 DUP4 ADD MSTORE PUSH2 0x16F0 DUP2 DUP6 PUSH2 0x1683 JUMP JUMPDEST SWAP1 POP DUP2 DUP2 SUB PUSH1 0x60 DUP4 ADD MSTORE PUSH2 0x1704 DUP2 DUP5 PUSH2 0x1683 JUMP JUMPDEST SWAP1 POP SWAP6 SWAP5 POP POP POP POP POP JUMP JUMPDEST PUSH1 0x0 DUP2 SWAP1 POP SWAP3 SWAP2 POP POP JUMP JUMPDEST PUSH32 0x416363657373436F6E74726F6C3A206163636F756E7420000000000000000000 PUSH1 0x0 DUP3 ADD MSTORE POP JUMP JUMPDEST PUSH1 0x0 PUSH2 0x1750 PUSH1 0x17 DUP4 PUSH2 0x170F JUMP JUMPDEST SWAP2 POP PUSH2 0x175B DUP3 PUSH2 0x171A JUMP JUMPDEST PUSH1 0x17 DUP3 ADD SWAP1 POP SWAP2 SWAP1 POP JUMP JUMPDEST PUSH1 0x0 PUSH2 0x1771 DUP3 PUSH2 0x1678 JUMP JUMPDEST PUSH2 0x177B DUP2 DUP6 PUSH2 0x170F JUMP JUMPDEST SWAP4 POP PUSH2 0x178B DUP2 DUP6 PUSH1 0x20 DUP7 ADD PUSH2 0x1515 JUMP JUMPDEST DUP1 DUP5 ADD SWAP2 POP POP SWAP3 SWAP2 POP POP JUMP JUMPDEST PUSH32 0x206973206D697373696E6720726F6C6520000000000000000000000000000000 PUSH1 0x0 DUP3 ADD MSTORE POP JUMP JUMPDEST PUSH1 0x0 PUSH2 0x17CD PUSH1 0x11 DUP4 PUSH2 0x170F JUMP JUMPDEST SWAP2 POP PUSH2 0x17D8 DUP3 PUSH2 0x1797 JUMP JUMPDEST PUSH1 0x11 DUP3 ADD SWAP1 POP SWAP2 SWAP1 POP JUMP JUMPDEST PUSH1 0x0 PUSH2 0x17EE DUP3 PUSH2 0x1743 JUMP JUMPDEST SWAP2 POP PUSH2 0x17FA DUP3 DUP6 PUSH2 0x1766 JUMP JUMPDEST SWAP2 POP PUSH2 0x1805 DUP3 PUSH2 0x17C0 JUMP JUMPDEST SWAP2 POP PUSH2 0x1811 DUP3 DUP5 PUSH2 0x1766 JUMP JUMPDEST SWAP2 POP DUP2 SWAP1 POP SWAP4 SWAP3 POP POP POP JUMP JUMPDEST PUSH1 0x0 PUSH1 0x20 DUP3 ADD SWAP1 POP DUP2 DUP2 SUB PUSH1 0x0 DUP4 ADD MSTORE PUSH2 0x1837 DUP2 DUP5 PUSH2 0x1683 JUMP JUMPDEST SWAP1 POP SWAP3 SWAP2 POP POP JUMP JUMPDEST PUSH32 0x4E487B7100000000000000000000000000000000000000000000000000000000 PUSH1 0x0 MSTORE PUSH1 0x11 PUSH1 0x4 MSTORE PUSH1 0x24 PUSH1 0x0 REVERT JUMPDEST PUSH1 0x0 PUSH2 0x1879 DUP3 PUSH2 0x106F JUMP JUMPDEST SWAP2 POP PUSH2 0x1884 DUP4 PUSH2 0x106F JUMP JUMPDEST SWAP3 POP DUP3 DUP3 MUL PUSH2 0x1892 DUP2 PUSH2 0x106F JUMP JUMPDEST SWAP2 POP DUP3 DUP3 DIV DUP5 EQ DUP4 ISZERO OR PUSH2 0x18A9 JUMPI PUSH2 0x18A8 PUSH2 0x183F JUMP JUMPDEST JUMPDEST POP SWAP3 SWAP2 POP POP JUMP JUMPDEST PUSH1 0x0 PUSH2 0x18BB DUP3 PUSH2 0x106F JUMP JUMPDEST SWAP2 POP PUSH2 0x18C6 DUP4 PUSH2 0x106F JUMP JUMPDEST SWAP3 POP DUP3 DUP3 ADD SWAP1 POP DUP1 DUP3 GT ISZERO PUSH2 0x18DE JUMPI PUSH2 0x18DD PUSH2 0x183F JUMP JUMPDEST JUMPDEST SWAP3 SWAP2 POP POP JUMP JUMPDEST PUSH32 0x4E487B7100000000000000000000000000000000000000000000000000000000 PUSH1 0x0 MSTORE PUSH1 0x32 PUSH1 0x4 MSTORE PUSH1 0x24 PUSH1 0x0 REVERT JUMPDEST PUSH1 0x0 PUSH2 0x191E DUP3 PUSH2 0x106F JUMP JUMPDEST SWAP2 POP PUSH1 0x0 DUP3 SUB PUSH2 0x1931 JUMPI PUSH2 0x1930 PUSH2 0x183F JUMP JUMPDEST JUMPDEST PUSH1 0x1 DUP3 SUB SWAP1 POP SWAP2 SWAP1 POP JUMP JUMPDEST PUSH32 0x537472696E67733A20686578206C656E67746820696E73756666696369656E74 PUSH1 0x0 DUP3 ADD MSTORE POP JUMP JUMPDEST PUSH1 0x0 PUSH2 0x1972 PUSH1 0x20 DUP4 PUSH2 0x1438 JUMP JUMPDEST SWAP2 POP PUSH2 0x197D DUP3 PUSH2 0x193C JUMP JUMPDEST PUSH1 0x20 DUP3 ADD SWAP1 POP SWAP2 SWAP1 POP JUMP JUMPDEST PUSH1 0x0 PUSH1 0x20 DUP3 ADD SWAP1 POP DUP2 DUP2 SUB PUSH1 0x0 DUP4 ADD MSTORE PUSH2 0x19A1 DUP2 PUSH2 0x1965 JUMP JUMPDEST SWAP1 POP SWAP2 SWAP1 POP JUMP INVALID LOG2 PUSH5 0x6970667358 0x22 SLT KECCAK256 PUSH2 0x5C49 0xB8 PUSH23 0x318A61384928114E714201FDBD8A45D8FA3DAD0AC83C4E PUSH29 0xE0A01664736F6C63430008120033000000000000000000000000000000 "
				},
				"gasEstimates": {
					"creation": {
						"codeDepositCost": "1324400",
						"executionCost": "infinite",
						"totalCost": "infinite"
					},
					"external": {
						"": "infinite",
						"BURNER_ROLE()": "374",
						"DEFAULT_ADMIN_ROLE()": "402",
						"MINTER_ROLE()": "373",
						"burn(uint256,bytes)": "infinite",
						"getRoleAdmin(bytes32)": "infinite",
						"grantRole(bytes32,address)": "infinite",
						"hasRole(bytes32,address)": "3163",
						"initialize(address,string,string,uint256,address,bytes)": "infinite",
						"initializeProxy(address)": "24877",
						"mint(address,uint256,bytes)": "infinite",
						"renounceRole(bytes32,address)": "infinite",
						"revokeRole(bytes32,address)": "infinite",
						"supportsInterface(bytes4)": "728"
					}
				},
				"methodIdentifiers": {
					"BURNER_ROLE()": "282c51f3",
					"DEFAULT_ADMIN_ROLE()": "a217fddf",
					"MINTER_ROLE()": "d5391393",
					"burn(uint256,bytes)": "fe9d9303",
					"getRoleAdmin(bytes32)": "248a9ca3",
					"grantRole(bytes32,address)": "2f2ff15d",
					"hasRole(bytes32,address)": "91d14854",
					"initialize(address,string,string,uint256,address,bytes)": "a6a05598",
					"initializeProxy(address)": "4a0687ef",
					"mint(address,uint256,bytes)": "94d008ef",
					"renounceRole(bytes32,address)": "36568abe",
					"revokeRole(bytes32,address)": "d547741f",
					"supportsInterface(bytes4)": "01ffc9a7"
				}
			},
			"storageLayout": {
				"storage": [
					{
						"astId": 4159,
						"contract": "contracts/BurnMintSuperToken.sol:BurnMintSuperToken",
						"label": "_storagePaddings",
						"offset": 0,
						"slot": "0",
						"type": "t_array(t_uint256)32_storage"
					},
					{
						"astId": 24,
						"contract": "contracts/BurnMintSuperToken.sol:BurnMintSuperToken",
						"label": "_roles",
						"offset": 0,
						"slot": "32",
						"type": "t_mapping(t_bytes32,t_struct(RoleData)19_storage)"
					}
				],
				"types": {
					"t_address": {
						"encoding": "inplace",
						"label": "address",
						"numberOfBytes": "20"
					},
					"t_array(t_uint256)32_storage": {
						"base": "t_uint256",
						"encoding": "inplace",
						"label": "uint256[32]",
						"numberOfBytes": "1024"
					},
					"t_bool": {
						"encoding": "inplace",
						"label": "bool",
						"numberOfBytes": "1"
					},
					"t_bytes32": {
						"encoding": "inplace",
						"label": "bytes32",
						"numberOfBytes": "32"
					},
					"t_mapping(t_address,t_bool)": {
						"encoding": "mapping",
						"key": "t_address",
						"label": "mapping(address => bool)",
						"numberOfBytes": "32",
						"value": "t_bool"
					},
					"t_mapping(t_bytes32,t_struct(RoleData)19_storage)": {
						"encoding": "mapping",
						"key": "t_bytes32",
						"label": "mapping(bytes32 => struct AccessControl.RoleData)",
						"numberOfBytes": "32",
						"value": "t_struct(RoleData)19_storage"
					},
					"t_struct(RoleData)19_storage": {
						"encoding": "inplace",
						"label": "struct AccessControl.RoleData",
						"members": [
							{
								"astId": 16,
								"contract": "contracts/BurnMintSuperToken.sol:BurnMintSuperToken",
								"label": "members",
								"offset": 0,
								"slot": "0",
								"type": "t_mapping(t_address,t_bool)"
							},
							{
								"astId": 18,
								"contract": "contracts/BurnMintSuperToken.sol:BurnMintSuperToken",
								"label": "adminRole",
								"offset": 0,
								"slot": "1",
								"type": "t_bytes32"
							}
						],
						"numberOfBytes": "64"
					},
					"t_uint256": {
						"encoding": "inplace",
						"label": "uint256",
						"numberOfBytes": "32"
					}
				}
			},
			"userdoc": {
				"errors": {
					"Initialized()": [
						{
							"notice": "Thrown when the logic contract has been set"
						}
					],
					"ZeroAddress()": [
						{
							"notice": "Thrown when the logic contract address is zero"
						}
					]
				},
				"kind": "user",
				"methods": {
					"BURNER_ROLE()": {
						"notice": "Burner Role"
					},
					"MINTER_ROLE()": {
						"notice": "Minter Role"
					},
					"burn(uint256,bytes)": {
						"notice": "Burns from message sender"
					},
					"initialize(address,string,string,uint256,address,bytes)": {
						"notice": "Initializer, used AFTER factory upgrade"
					},
					"initializeProxy(address)": {
						"notice": "Stores the logic contract address only once."
					},
					"mint(address,uint256,bytes)": {
						"notice": "Mints tokens, only the owner may do this"
					}
				},
				"notice": "This does not perform checks when burning",
				"version": 1
			}
		}
	}
}