{
	"contracts/PureSuperToken.sol": {
		"PureSuperToken": {
			"abi": [
				{
					"inputs": [],
					"name": "Initialized",
					"type": "error"
				},
				{
					"inputs": [],
					"name": "ZeroAddress",
					"type": "error"
				},
				{
					"stateMutability": "payable",
					"type": "fallback"
				},
				{
					"inputs": [
						{
							"internalType": "address",
							"name": "factory",
							"type": "address"
						},
						{
							"internalType": "string",
							"name": "name",
							"type": "string"
						},
						{
							"internalType": "string",
							"name": "symbol",
							"type": "string"
						},
						{
							"internalType": "address",
							"name": "receiver",
							"type": "address"
						},
						{
							"internalType": "uint256",
							"name": "initialSupply",
							"type": "uint256"
						}
					],
					"name": "initialize",
					"outputs": [],
					"stateMutability": "nonpayable",
					"type": "function"
				},
				{
					"inputs": [
						{
							"internalType": "address",
							"name": "initialAddress",
							"type": "address"
						}
					],
					"name": "initializeProxy",
					"outputs": [],
					"stateMutability": "nonpayable",
					"type": "function"
				},
				{
					"stateMutability": "payable",
					"type": "receive"
				}
			],
			"devdoc": {
				"author": "jtriley.eth",
				"kind": "dev",
				"methods": {
					"initialize(address,string,string,address,uint256)": {
						"details": "Upgrades the super token with the factory, then initializes.",
						"params": {
							"factory": "super token factory for initialization",
							"initialSupply": "Initial token supply to pre-mint",
							"name": "super token name",
							"receiver": "Receiver of pre-mint",
							"symbol": "super token symbol"
						}
					},
					"initializeProxy(address)": {
						"details": "Called by the SuperTokenFactory contract on upgrade",
						"params": {
							"initialAddress": "logic contract address"
						}
					}
				},
				"title": "Minimal Pure Super Token",
				"version": 1
			},
			"evm": {
				"assembly": "    /* \"contracts/PureSuperToken.sol\":277:905  contract PureSuperToken is SuperTokenBase {... */\n  mstore(0x40, 0x80)\n  callvalue\n  dup1\n  iszero\n  tag_1\n  jumpi\n  0x00\n  dup1\n  revert\ntag_1:\n  pop\n  dataSize(sub_0)\n  dup1\n  dataOffset(sub_0)\n  0x00\n  codecopy\n  0x00\n  return\nstop\n\nsub_0: assembly {\n        /* \"contracts/PureSuperToken.sol\":277:905  contract PureSuperToken is SuperTokenBase {... */\n      mstore(0x40, 0x80)\n      jumpi(tag_1, lt(calldatasize, 0x04))\n      shr(0xe0, calldataload(0x00))\n      dup1\n      0x4a0687ef\n      eq\n      tag_3\n      jumpi\n      dup1\n      0x75b30be6\n      eq\n      tag_4\n      jumpi\n      jump(tag_2)\n    tag_1:\n      jumpi(tag_2, calldatasize)\n        /* \"@openzeppelin/contracts/proxy/Proxy.sol\":2898:2909  _fallback() */\n      tag_7\n        /* \"@openzeppelin/contracts/proxy/Proxy.sol\":2898:2907  _fallback */\n      tag_8\n        /* \"@openzeppelin/contracts/proxy/Proxy.sol\":2898:2909  _fallback() */\n      jump\t// in\n    tag_7:\n        /* \"contracts/PureSuperToken.sol\":277:905  contract PureSuperToken is SuperTokenBase {... */\n      stop\n    tag_2:\n        /* \"@openzeppelin/contracts/proxy/Proxy.sol\":2675:2686  _fallback() */\n      tag_11\n        /* \"@openzeppelin/contracts/proxy/Proxy.sol\":2675:2684  _fallback */\n      tag_8\n        /* \"@openzeppelin/contracts/proxy/Proxy.sol\":2675:2686  _fallback() */\n      jump\t// in\n    tag_11:\n        /* \"contracts/PureSuperToken.sol\":277:905  contract PureSuperToken is SuperTokenBase {... */\n      stop\n        /* \"contracts/base/UUPSProxy.sol\":1049:1295  function initializeProxy(address initialAddress) external {... */\n    tag_3:\n      callvalue\n      dup1\n      iszero\n      tag_12\n      jumpi\n      0x00\n      dup1\n      revert\n    tag_12:\n      pop\n      tag_13\n      0x04\n      dup1\n      calldatasize\n      sub\n      dup2\n      add\n      swap1\n      tag_14\n      swap2\n      swap1\n      tag_15\n      jump\t// in\n    tag_14:\n      tag_16\n      jump\t// in\n    tag_13:\n      stop\n        /* \"contracts/PureSuperToken.sol\":632:902  function initialize(... */\n    tag_4:\n      callvalue\n      dup1\n      iszero\n      tag_17\n      jumpi\n      0x00\n      dup1\n      revert\n    tag_17:\n      pop\n      tag_18\n      0x04\n      dup1\n      calldatasize\n      sub\n      dup2\n      add\n      swap1\n      tag_19\n      swap2\n      swap1\n      tag_20\n      jump\t// in\n    tag_19:\n      tag_21\n      jump\t// in\n    tag_18:\n      stop\n        /* \"@openzeppelin/contracts/proxy/Proxy.sol\":2322:2432  function _fallback() internal virtual {... */\n    tag_8:\n        /* \"@openzeppelin/contracts/proxy/Proxy.sol\":2370:2387  _beforeFallback() */\n      tag_23\n        /* \"@openzeppelin/contracts/proxy/Proxy.sol\":2370:2385  _beforeFallback */\n      tag_24\n        /* \"@openzeppelin/contracts/proxy/Proxy.sol\":2370:2387  _beforeFallback() */\n      jump\t// in\n    tag_23:\n        /* \"@openzeppelin/contracts/proxy/Proxy.sol\":2397:2425  _delegate(_implementation()) */\n      tag_25\n        /* \"@openzeppelin/contracts/proxy/Proxy.sol\":2407:2424  _implementation() */\n      tag_26\n        /* \"@openzeppelin/contracts/proxy/Proxy.sol\":2407:2422  _implementation */\n      tag_27\n        /* \"@openzeppelin/contracts/proxy/Proxy.sol\":2407:2424  _implementation() */\n      jump\t// in\n    tag_26:\n        /* \"@openzeppelin/contracts/proxy/Proxy.sol\":2397:2406  _delegate */\n      tag_28\n        /* \"@openzeppelin/contracts/proxy/Proxy.sol\":2397:2425  _delegate(_implementation()) */\n      jump\t// in\n    tag_25:\n        /* \"@openzeppelin/contracts/proxy/Proxy.sol\":2322:2432  function _fallback() internal virtual {... */\n      jump\t// out\n        /* \"contracts/base/UUPSProxy.sol\":1049:1295  function initializeProxy(address initialAddress) external {... */\n    tag_16:\n        /* \"contracts/base/UUPSProxy.sol\":1141:1142  0 */\n      0x00\n        /* \"contracts/base/UUPSProxy.sol\":1115:1143  initialAddress == address(0) */\n      0xffffffffffffffffffffffffffffffffffffffff\n      and\n        /* \"contracts/base/UUPSProxy.sol\":1115:1129  initialAddress */\n      dup2\n        /* \"contracts/base/UUPSProxy.sol\":1115:1143  initialAddress == address(0) */\n      0xffffffffffffffffffffffffffffffffffffffff\n      and\n      sub\n        /* \"contracts/base/UUPSProxy.sol\":1111:1165  if (initialAddress == address(0)) revert ZeroAddress() */\n      tag_30\n      jumpi\n        /* \"contracts/base/UUPSProxy.sol\":1152:1165  ZeroAddress() */\n      mload(0x40)\n      0xd92e233d00000000000000000000000000000000000000000000000000000000\n      dup2\n      mstore\n      0x04\n      add\n      mload(0x40)\n      dup1\n      swap2\n      sub\n      swap1\n      revert\n        /* \"contracts/base/UUPSProxy.sol\":1111:1165  if (initialAddress == address(0)) revert ZeroAddress() */\n    tag_30:\n        /* \"contracts/base/UUPSProxy.sol\":1202:1203  0 */\n      0x00\n        /* \"contracts/base/UUPSProxy.sol\":1173:1204  _implementation() != address(0) */\n      0xffffffffffffffffffffffffffffffffffffffff\n      and\n        /* \"contracts/base/UUPSProxy.sol\":1173:1190  _implementation() */\n      tag_31\n        /* \"contracts/base/UUPSProxy.sol\":1173:1188  _implementation */\n      tag_27\n        /* \"contracts/base/UUPSProxy.sol\":1173:1190  _implementation() */\n      jump\t// in\n    tag_31:\n        /* \"contracts/base/UUPSProxy.sol\":1173:1204  _implementation() != address(0) */\n      0xffffffffffffffffffffffffffffffffffffffff\n      and\n      eq\n        /* \"contracts/base/UUPSProxy.sol\":1169:1226  if (_implementation() != address(0)) revert Initialized() */\n      tag_32\n      jumpi\n        /* \"contracts/base/UUPSProxy.sol\":1213:1226  Initialized() */\n      mload(0x40)\n      0x5daa87a000000000000000000000000000000000000000000000000000000000\n      dup2\n      mstore\n      0x04\n      add\n      mload(0x40)\n      dup1\n      swap2\n      sub\n      swap1\n      revert\n        /* \"contracts/base/UUPSProxy.sol\":1169:1226  if (_implementation() != address(0)) revert Initialized() */\n    tag_32:\n        /* \"contracts/base/UUPSProxy.sol\":1273:1287  initialAddress */\n      dup1\n        /* \"contracts/base/UUPSProxy.sol\":1251:1271  _IMPLEMENTATION_SLOT */\n      0x360894a13ba1a3210667c828492db98dca3e2076cc3735a920a3ca505d382bbc\n        /* \"contracts/base/UUPSProxy.sol\":1244:1288  sstore(_IMPLEMENTATION_SLOT, initialAddress) */\n      sstore\n        /* \"contracts/base/UUPSProxy.sol\":1049:1295  function initializeProxy(address initialAddress) external {... */\n      pop\n      jump\t// out\n        /* \"contracts/PureSuperToken.sol\":632:902  function initialize(... */\n    tag_21:\n        /* \"contracts/PureSuperToken.sol\":817:851  _initialize(factory, name, symbol) */\n      tag_34\n        /* \"contracts/PureSuperToken.sol\":829:836  factory */\n      dup6\n        /* \"contracts/PureSuperToken.sol\":838:842  name */\n      dup6\n        /* \"contracts/PureSuperToken.sol\":844:850  symbol */\n      dup6\n        /* \"contracts/PureSuperToken.sol\":817:828  _initialize */\n      tag_35\n        /* \"contracts/PureSuperToken.sol\":817:851  _initialize(factory, name, symbol) */\n      jump\t// in\n    tag_34:\n        /* \"contracts/PureSuperToken.sol\":861:895  _mint(receiver, initialSupply, \"\") */\n      tag_36\n        /* \"contracts/PureSuperToken.sol\":867:875  receiver */\n      dup3\n        /* \"contracts/PureSuperToken.sol\":877:890  initialSupply */\n      dup3\n        /* \"contracts/PureSuperToken.sol\":861:895  _mint(receiver, initialSupply, \"\") */\n      mload(0x40)\n      dup1\n      0x20\n      add\n      0x40\n      mstore\n      dup1\n      0x00\n      dup2\n      mstore\n      pop\n        /* \"contracts/PureSuperToken.sol\":861:866  _mint */\n      tag_37\n        /* \"contracts/PureSuperToken.sol\":861:895  _mint(receiver, initialSupply, \"\") */\n      jump\t// in\n    tag_36:\n        /* \"contracts/PureSuperToken.sol\":632:902  function initialize(... */\n      pop\n      pop\n      pop\n      pop\n      pop\n      jump\t// out\n        /* \"@openzeppelin/contracts/proxy/Proxy.sol\":3198:3244  function _beforeFallback() internal virtual {} */\n    tag_24:\n      jump\t// out\n        /* \"contracts/base/UUPSProxy.sol\":1395:1547  function _implementation()... */\n    tag_27:\n        /* \"contracts/base/UUPSProxy.sol\":1472:1484  address impl */\n      0x00\n        /* \"contracts/base/UUPSProxy.sol\":1519:1539  _IMPLEMENTATION_SLOT */\n      0x360894a13ba1a3210667c828492db98dca3e2076cc3735a920a3ca505d382bbc\n        /* \"contracts/base/UUPSProxy.sol\":1513:1540  sload(_IMPLEMENTATION_SLOT) */\n      sload\n        /* \"contracts/base/UUPSProxy.sol\":1505:1540  impl := sload(_IMPLEMENTATION_SLOT) */\n      swap1\n      pop\n        /* \"contracts/base/UUPSProxy.sol\":1395:1547  function _implementation()... */\n      swap1\n      jump\t// out\n        /* \"@openzeppelin/contracts/proxy/Proxy.sol\":948:1843  function _delegate(address implementation) internal virtual {... */\n    tag_28:\n        /* \"@openzeppelin/contracts/proxy/Proxy.sol\":1286:1300  calldatasize() */\n      calldatasize\n        /* \"@openzeppelin/contracts/proxy/Proxy.sol\":1283:1284  0 */\n      0x00\n        /* \"@openzeppelin/contracts/proxy/Proxy.sol\":1280:1281  0 */\n      dup1\n        /* \"@openzeppelin/contracts/proxy/Proxy.sol\":1267:1301  calldatacopy(0, 0, calldatasize()) */\n      calldatacopy\n        /* \"@openzeppelin/contracts/proxy/Proxy.sol\":1500:1501  0 */\n      0x00\n        /* \"@openzeppelin/contracts/proxy/Proxy.sol\":1497:1498  0 */\n      dup1\n        /* \"@openzeppelin/contracts/proxy/Proxy.sol\":1481:1495  calldatasize() */\n      calldatasize\n        /* \"@openzeppelin/contracts/proxy/Proxy.sol\":1478:1479  0 */\n      0x00\n        /* \"@openzeppelin/contracts/proxy/Proxy.sol\":1462:1476  implementation */\n      dup5\n        /* \"@openzeppelin/contracts/proxy/Proxy.sol\":1455:1460  gas() */\n      gas\n        /* \"@openzeppelin/contracts/proxy/Proxy.sol\":1442:1502  delegatecall(gas(), implementation, 0, calldatasize(), 0, 0) */\n      delegatecall\n        /* \"@openzeppelin/contracts/proxy/Proxy.sol\":1576:1592  returndatasize() */\n      returndatasize\n        /* \"@openzeppelin/contracts/proxy/Proxy.sol\":1573:1574  0 */\n      0x00\n        /* \"@openzeppelin/contracts/proxy/Proxy.sol\":1570:1571  0 */\n      dup1\n        /* \"@openzeppelin/contracts/proxy/Proxy.sol\":1555:1593  returndatacopy(0, 0, returndatasize()) */\n      returndatacopy\n        /* \"@openzeppelin/contracts/proxy/Proxy.sol\":1614:1620  result */\n      dup1\n        /* \"@openzeppelin/contracts/proxy/Proxy.sol\":1686:1687  0 */\n      0x00\n        /* \"@openzeppelin/contracts/proxy/Proxy.sol\":1681:1747  case 0 {... */\n      dup2\n      eq\n      tag_42\n      jumpi\n        /* \"@openzeppelin/contracts/proxy/Proxy.sol\":1796:1812  returndatasize() */\n      returndatasize\n        /* \"@openzeppelin/contracts/proxy/Proxy.sol\":1793:1794  0 */\n      0x00\n        /* \"@openzeppelin/contracts/proxy/Proxy.sol\":1786:1813  return(0, returndatasize()) */\n      return\n        /* \"@openzeppelin/contracts/proxy/Proxy.sol\":1681:1747  case 0 {... */\n    tag_42:\n        /* \"@openzeppelin/contracts/proxy/Proxy.sol\":1716:1732  returndatasize() */\n      returndatasize\n        /* \"@openzeppelin/contracts/proxy/Proxy.sol\":1713:1714  0 */\n      0x00\n        /* \"@openzeppelin/contracts/proxy/Proxy.sol\":1706:1733  revert(0, returndatasize()) */\n      revert\n        /* \"contracts/base/SuperTokenBase.sol\":1021:1266  function _initialize(address factory, string memory name, string memory symbol) internal {... */\n    tag_35:\n        /* \"contracts/base/SuperTokenBase.sol\":1133:1140  factory */\n      dup3\n        /* \"contracts/base/SuperTokenBase.sol\":1114:1168  ISuperTokenFactory(factory).initializeCustomSuperToken */\n      0xffffffffffffffffffffffffffffffffffffffff\n      and\n      0xd412d344\n        /* \"contracts/base/SuperTokenBase.sol\":1177:1181  this */\n      address\n        /* \"contracts/base/SuperTokenBase.sol\":1114:1183  ISuperTokenFactory(factory).initializeCustomSuperToken(address(this)) */\n      mload(0x40)\n      dup3\n      0xffffffff\n      and\n      0xe0\n      shl\n      dup2\n      mstore\n      0x04\n      add\n      tag_44\n      swap2\n      swap1\n      tag_45\n      jump\t// in\n    tag_44:\n      0x00\n      mload(0x40)\n      dup1\n      dup4\n      sub\n      dup2\n      0x00\n      dup8\n      dup1\n      extcodesize\n      iszero\n      dup1\n      iszero\n      tag_46\n      jumpi\n      0x00\n      dup1\n      revert\n    tag_46:\n      pop\n      gas\n      call\n      iszero\n      dup1\n      iszero\n      tag_48\n      jumpi\n      returndatasize\n      0x00\n      dup1\n      returndatacopy\n      revert(0x00, returndatasize)\n    tag_48:\n      pop\n      pop\n      pop\n      pop\n        /* \"contracts/base/SuperTokenBase.sol\":1207:1211  this */\n      address\n        /* \"contracts/base/SuperTokenBase.sol\":1187:1224  ISuperToken(address(this)).initialize */\n      0xffffffffffffffffffffffffffffffffffffffff\n      and\n      0x42fe0980\n        /* \"contracts/base/SuperTokenBase.sol\":1240:1241  0 */\n      0x00\n        /* \"contracts/base/SuperTokenBase.sol\":1245:1247  18 */\n      0x12\n        /* \"contracts/base/SuperTokenBase.sol\":1249:1253  name */\n      dup6\n        /* \"contracts/base/SuperTokenBase.sol\":1255:1261  symbol */\n      dup6\n        /* \"contracts/base/SuperTokenBase.sol\":1187:1262  ISuperToken(address(this)).initialize(IERC20(address(0)), 18, name, symbol) */\n      mload(0x40)\n      dup6\n      0xffffffff\n      and\n      0xe0\n      shl\n      dup2\n      mstore\n      0x04\n      add\n      tag_49\n      swap5\n      swap4\n      swap3\n      swap2\n      swap1\n      tag_50\n      jump\t// in\n    tag_49:\n      0x00\n      mload(0x40)\n      dup1\n      dup4\n      sub\n      dup2\n      0x00\n      dup8\n      dup1\n      extcodesize\n      iszero\n      dup1\n      iszero\n      tag_51\n      jumpi\n      0x00\n      dup1\n      revert\n    tag_51:\n      pop\n      gas\n      call\n      iszero\n      dup1\n      iszero\n      tag_53\n      jumpi\n      returndatasize\n      0x00\n      dup1\n      returndatacopy\n      revert(0x00, returndatasize)\n    tag_53:\n      pop\n      pop\n      pop\n      pop\n        /* \"contracts/base/SuperTokenBase.sol\":1021:1266  function _initialize(address factory, string memory name, string memory symbol) internal {... */\n      pop\n      pop\n      pop\n      jump\t// out\n        /* \"contracts/base/SuperTokenBase.sol\":1676:1826  function _mint(address account, uint256 amount, bytes memory userData) internal {... */\n    tag_37:\n        /* \"contracts/base/SuperTokenBase.sol\":1780:1784  this */\n      address\n        /* \"contracts/base/SuperTokenBase.sol\":1760:1795  ISuperToken(address(this)).selfMint */\n      0xffffffffffffffffffffffffffffffffffffffff\n      and\n      0xc68d4283\n        /* \"contracts/base/SuperTokenBase.sol\":1796:1803  account */\n      dup5\n        /* \"contracts/base/SuperTokenBase.sol\":1805:1811  amount */\n      dup5\n        /* \"contracts/base/SuperTokenBase.sol\":1813:1821  userData */\n      dup5\n        /* \"contracts/base/SuperTokenBase.sol\":1760:1822  ISuperToken(address(this)).selfMint(account, amount, userData) */\n      mload(0x40)\n      dup5\n      0xffffffff\n      and\n      0xe0\n      shl\n      dup2\n      mstore\n      0x04\n      add\n      tag_55\n      swap4\n      swap3\n      swap2\n      swap1\n      tag_56\n      jump\t// in\n    tag_55:\n      0x00\n      mload(0x40)\n      dup1\n      dup4\n      sub\n      dup2\n      0x00\n      dup8\n      dup1\n      extcodesize\n      iszero\n      dup1\n      iszero\n      tag_57\n      jumpi\n      0x00\n      dup1\n      revert\n    tag_57:\n      pop\n      gas\n      call\n      iszero\n      dup1\n      iszero\n      tag_59\n      jumpi\n      returndatasize\n      0x00\n      dup1\n      returndatacopy\n      revert(0x00, returndatasize)\n    tag_59:\n      pop\n      pop\n      pop\n      pop\n        /* \"contracts/base/SuperTokenBase.sol\":1676:1826  function _mint(address account, uint256 amount, bytes memory userData) internal {... */\n      pop\n      pop\n      pop\n      jump\t// out\n        /* \"#utility.yul\":7:82   */\n    tag_60:\n        /* \"#utility.yul\":40:46   */\n      0x00\n        /* \"#utility.yul\":73:75   */\n      0x40\n        /* \"#utility.yul\":67:76   */\n      mload\n        /* \"#utility.yul\":57:76   */\n      swap1\n      pop\n        /* \"#utility.yul\":7:82   */\n      swap1\n      jump\t// out\n        /* \"#utility.yul\":88:205   */\n    tag_61:\n        /* \"#utility.yul\":197:198   */\n      0x00\n        /* \"#utility.yul\":194:195   */\n      dup1\n        /* \"#utility.yul\":187:199   */\n      revert\n        /* \"#utility.yul\":211:328   */\n    tag_62:\n        /* \"#utility.yul\":320:321   */\n      0x00\n        /* \"#utility.yul\":317:318   */\n      dup1\n        /* \"#utility.yul\":310:322   */\n      revert\n        /* \"#utility.yul\":334:460   */\n    tag_63:\n        /* \"#utility.yul\":371:378   */\n      0x00\n        /* \"#utility.yul\":411:453   */\n      0xffffffffffffffffffffffffffffffffffffffff\n        /* \"#utility.yul\":404:409   */\n      dup3\n        /* \"#utility.yul\":400:454   */\n      and\n        /* \"#utility.yul\":389:454   */\n      swap1\n      pop\n        /* \"#utility.yul\":334:460   */\n      swap2\n      swap1\n      pop\n      jump\t// out\n        /* \"#utility.yul\":466:562   */\n    tag_64:\n        /* \"#utility.yul\":503:510   */\n      0x00\n        /* \"#utility.yul\":532:556   */\n      tag_104\n        /* \"#utility.yul\":550:555   */\n      dup3\n        /* \"#utility.yul\":532:556   */\n      tag_63\n      jump\t// in\n    tag_104:\n        /* \"#utility.yul\":521:556   */\n      swap1\n      pop\n        /* \"#utility.yul\":466:562   */\n      swap2\n      swap1\n      pop\n      jump\t// out\n        /* \"#utility.yul\":568:690   */\n    tag_65:\n        /* \"#utility.yul\":641:665   */\n      tag_106\n        /* \"#utility.yul\":659:664   */\n      dup2\n        /* \"#utility.yul\":641:665   */\n      tag_64\n      jump\t// in\n    tag_106:\n        /* \"#utility.yul\":634:639   */\n      dup2\n        /* \"#utility.yul\":631:666   */\n      eq\n        /* \"#utility.yul\":621:684   */\n      tag_107\n      jumpi\n        /* \"#utility.yul\":680:681   */\n      0x00\n        /* \"#utility.yul\":677:678   */\n      dup1\n        /* \"#utility.yul\":670:682   */\n      revert\n        /* \"#utility.yul\":621:684   */\n    tag_107:\n        /* \"#utility.yul\":568:690   */\n      pop\n      jump\t// out\n        /* \"#utility.yul\":696:835   */\n    tag_66:\n        /* \"#utility.yul\":742:747   */\n      0x00\n        /* \"#utility.yul\":780:786   */\n      dup2\n        /* \"#utility.yul\":767:787   */\n      calldataload\n        /* \"#utility.yul\":758:787   */\n      swap1\n      pop\n        /* \"#utility.yul\":796:829   */\n      tag_109\n        /* \"#utility.yul\":823:828   */\n      dup2\n        /* \"#utility.yul\":796:829   */\n      tag_65\n      jump\t// in\n    tag_109:\n        /* \"#utility.yul\":696:835   */\n      swap3\n      swap2\n      pop\n      pop\n      jump\t// out\n        /* \"#utility.yul\":841:1170   */\n    tag_15:\n        /* \"#utility.yul\":900:906   */\n      0x00\n        /* \"#utility.yul\":949:951   */\n      0x20\n        /* \"#utility.yul\":937:946   */\n      dup3\n        /* \"#utility.yul\":928:935   */\n      dup5\n        /* \"#utility.yul\":924:947   */\n      sub\n        /* \"#utility.yul\":920:952   */\n      slt\n        /* \"#utility.yul\":917:1036   */\n      iszero\n      tag_111\n      jumpi\n        /* \"#utility.yul\":955:1034   */\n      tag_112\n      tag_61\n      jump\t// in\n    tag_112:\n        /* \"#utility.yul\":917:1036   */\n    tag_111:\n        /* \"#utility.yul\":1075:1076   */\n      0x00\n        /* \"#utility.yul\":1100:1153   */\n      tag_113\n        /* \"#utility.yul\":1145:1152   */\n      dup5\n        /* \"#utility.yul\":1136:1142   */\n      dup3\n        /* \"#utility.yul\":1125:1134   */\n      dup6\n        /* \"#utility.yul\":1121:1143   */\n      add\n        /* \"#utility.yul\":1100:1153   */\n      tag_66\n      jump\t// in\n    tag_113:\n        /* \"#utility.yul\":1090:1153   */\n      swap2\n      pop\n        /* \"#utility.yul\":1046:1163   */\n      pop\n        /* \"#utility.yul\":841:1170   */\n      swap3\n      swap2\n      pop\n      pop\n      jump\t// out\n        /* \"#utility.yul\":1176:1293   */\n    tag_67:\n        /* \"#utility.yul\":1285:1286   */\n      0x00\n        /* \"#utility.yul\":1282:1283   */\n      dup1\n        /* \"#utility.yul\":1275:1287   */\n      revert\n        /* \"#utility.yul\":1299:1416   */\n    tag_68:\n        /* \"#utility.yul\":1408:1409   */\n      0x00\n        /* \"#utility.yul\":1405:1406   */\n      dup1\n        /* \"#utility.yul\":1398:1410   */\n      revert\n        /* \"#utility.yul\":1422:1524   */\n    tag_69:\n        /* \"#utility.yul\":1463:1469   */\n      0x00\n        /* \"#utility.yul\":1514:1516   */\n      0x1f\n        /* \"#utility.yul\":1510:1517   */\n      not\n        /* \"#utility.yul\":1505:1507   */\n      0x1f\n        /* \"#utility.yul\":1498:1503   */\n      dup4\n        /* \"#utility.yul\":1494:1508   */\n      add\n        /* \"#utility.yul\":1490:1518   */\n      and\n        /* \"#utility.yul\":1480:1518   */\n      swap1\n      pop\n        /* \"#utility.yul\":1422:1524   */\n      swap2\n      swap1\n      pop\n      jump\t// out\n        /* \"#utility.yul\":1530:1710   */\n    tag_70:\n        /* \"#utility.yul\":1578:1655   */\n      0x4e487b7100000000000000000000000000000000000000000000000000000000\n        /* \"#utility.yul\":1575:1576   */\n      0x00\n        /* \"#utility.yul\":1568:1656   */\n      mstore\n        /* \"#utility.yul\":1675:1679   */\n      0x41\n        /* \"#utility.yul\":1672:1673   */\n      0x04\n        /* \"#utility.yul\":1665:1680   */\n      mstore\n        /* \"#utility.yul\":1699:1703   */\n      0x24\n        /* \"#utility.yul\":1696:1697   */\n      0x00\n        /* \"#utility.yul\":1689:1704   */\n      revert\n        /* \"#utility.yul\":1716:1997   */\n    tag_71:\n        /* \"#utility.yul\":1799:1826   */\n      tag_119\n        /* \"#utility.yul\":1821:1825   */\n      dup3\n        /* \"#utility.yul\":1799:1826   */\n      tag_69\n      jump\t// in\n    tag_119:\n        /* \"#utility.yul\":1791:1797   */\n      dup2\n        /* \"#utility.yul\":1787:1827   */\n      add\n        /* \"#utility.yul\":1929:1935   */\n      dup2\n        /* \"#utility.yul\":1917:1927   */\n      dup2\n        /* \"#utility.yul\":1914:1936   */\n      lt\n        /* \"#utility.yul\":1893:1911   */\n      0xffffffffffffffff\n        /* \"#utility.yul\":1881:1891   */\n      dup3\n        /* \"#utility.yul\":1878:1912   */\n      gt\n        /* \"#utility.yul\":1875:1937   */\n      or\n        /* \"#utility.yul\":1872:1960   */\n      iszero\n      tag_120\n      jumpi\n        /* \"#utility.yul\":1940:1958   */\n      tag_121\n      tag_70\n      jump\t// in\n    tag_121:\n        /* \"#utility.yul\":1872:1960   */\n    tag_120:\n        /* \"#utility.yul\":1980:1990   */\n      dup1\n        /* \"#utility.yul\":1976:1978   */\n      0x40\n        /* \"#utility.yul\":1969:1991   */\n      mstore\n        /* \"#utility.yul\":1759:1997   */\n      pop\n        /* \"#utility.yul\":1716:1997   */\n      pop\n      pop\n      jump\t// out\n        /* \"#utility.yul\":2003:2132   */\n    tag_72:\n        /* \"#utility.yul\":2037:2043   */\n      0x00\n        /* \"#utility.yul\":2064:2084   */\n      tag_123\n      tag_60\n      jump\t// in\n    tag_123:\n        /* \"#utility.yul\":2054:2084   */\n      swap1\n      pop\n        /* \"#utility.yul\":2093:2126   */\n      tag_124\n        /* \"#utility.yul\":2121:2125   */\n      dup3\n        /* \"#utility.yul\":2113:2119   */\n      dup3\n        /* \"#utility.yul\":2093:2126   */\n      tag_71\n      jump\t// in\n    tag_124:\n        /* \"#utility.yul\":2003:2132   */\n      swap2\n      swap1\n      pop\n      jump\t// out\n        /* \"#utility.yul\":2138:2446   */\n    tag_73:\n        /* \"#utility.yul\":2200:2204   */\n      0x00\n        /* \"#utility.yul\":2290:2308   */\n      0xffffffffffffffff\n        /* \"#utility.yul\":2282:2288   */\n      dup3\n        /* \"#utility.yul\":2279:2309   */\n      gt\n        /* \"#utility.yul\":2276:2332   */\n      iszero\n      tag_126\n      jumpi\n        /* \"#utility.yul\":2312:2330   */\n      tag_127\n      tag_70\n      jump\t// in\n    tag_127:\n        /* \"#utility.yul\":2276:2332   */\n    tag_126:\n        /* \"#utility.yul\":2350:2379   */\n      tag_128\n        /* \"#utility.yul\":2372:2378   */\n      dup3\n        /* \"#utility.yul\":2350:2379   */\n      tag_69\n      jump\t// in\n    tag_128:\n        /* \"#utility.yul\":2342:2379   */\n      swap1\n      pop\n        /* \"#utility.yul\":2434:2438   */\n      0x20\n        /* \"#utility.yul\":2428:2432   */\n      dup2\n        /* \"#utility.yul\":2424:2439   */\n      add\n        /* \"#utility.yul\":2416:2439   */\n      swap1\n      pop\n        /* \"#utility.yul\":2138:2446   */\n      swap2\n      swap1\n      pop\n      jump\t// out\n        /* \"#utility.yul\":2452:2598   */\n    tag_74:\n        /* \"#utility.yul\":2549:2555   */\n      dup3\n        /* \"#utility.yul\":2544:2547   */\n      dup2\n        /* \"#utility.yul\":2539:2542   */\n      dup4\n        /* \"#utility.yul\":2526:2556   */\n      calldatacopy\n        /* \"#utility.yul\":2590:2591   */\n      0x00\n        /* \"#utility.yul\":2581:2587   */\n      dup4\n        /* \"#utility.yul\":2576:2579   */\n      dup4\n        /* \"#utility.yul\":2572:2588   */\n      add\n        /* \"#utility.yul\":2565:2592   */\n      mstore\n        /* \"#utility.yul\":2452:2598   */\n      pop\n      pop\n      pop\n      jump\t// out\n        /* \"#utility.yul\":2604:3029   */\n    tag_75:\n        /* \"#utility.yul\":2682:2687   */\n      0x00\n        /* \"#utility.yul\":2707:2773   */\n      tag_131\n        /* \"#utility.yul\":2723:2772   */\n      tag_132\n        /* \"#utility.yul\":2765:2771   */\n      dup5\n        /* \"#utility.yul\":2723:2772   */\n      tag_73\n      jump\t// in\n    tag_132:\n        /* \"#utility.yul\":2707:2773   */\n      tag_72\n      jump\t// in\n    tag_131:\n        /* \"#utility.yul\":2698:2773   */\n      swap1\n      pop\n        /* \"#utility.yul\":2796:2802   */\n      dup3\n        /* \"#utility.yul\":2789:2794   */\n      dup2\n        /* \"#utility.yul\":2782:2803   */\n      mstore\n        /* \"#utility.yul\":2834:2838   */\n      0x20\n        /* \"#utility.yul\":2827:2832   */\n      dup2\n        /* \"#utility.yul\":2823:2839   */\n      add\n        /* \"#utility.yul\":2872:2875   */\n      dup5\n        /* \"#utility.yul\":2863:2869   */\n      dup5\n        /* \"#utility.yul\":2858:2861   */\n      dup5\n        /* \"#utility.yul\":2854:2870   */\n      add\n        /* \"#utility.yul\":2851:2876   */\n      gt\n        /* \"#utility.yul\":2848:2960   */\n      iszero\n      tag_133\n      jumpi\n        /* \"#utility.yul\":2879:2958   */\n      tag_134\n      tag_68\n      jump\t// in\n    tag_134:\n        /* \"#utility.yul\":2848:2960   */\n    tag_133:\n        /* \"#utility.yul\":2969:3023   */\n      tag_135\n        /* \"#utility.yul\":3016:3022   */\n      dup5\n        /* \"#utility.yul\":3011:3014   */\n      dup3\n        /* \"#utility.yul\":3006:3009   */\n      dup6\n        /* \"#utility.yul\":2969:3023   */\n      tag_74\n      jump\t// in\n    tag_135:\n        /* \"#utility.yul\":2688:3029   */\n      pop\n        /* \"#utility.yul\":2604:3029   */\n      swap4\n      swap3\n      pop\n      pop\n      pop\n      jump\t// out\n        /* \"#utility.yul\":3049:3389   */\n    tag_76:\n        /* \"#utility.yul\":3105:3110   */\n      0x00\n        /* \"#utility.yul\":3154:3157   */\n      dup3\n        /* \"#utility.yul\":3147:3151   */\n      0x1f\n        /* \"#utility.yul\":3139:3145   */\n      dup4\n        /* \"#utility.yul\":3135:3152   */\n      add\n        /* \"#utility.yul\":3131:3158   */\n      slt\n        /* \"#utility.yul\":3121:3243   */\n      tag_137\n      jumpi\n        /* \"#utility.yul\":3162:3241   */\n      tag_138\n      tag_67\n      jump\t// in\n    tag_138:\n        /* \"#utility.yul\":3121:3243   */\n    tag_137:\n        /* \"#utility.yul\":3279:3285   */\n      dup2\n        /* \"#utility.yul\":3266:3286   */\n      calldataload\n        /* \"#utility.yul\":3304:3383   */\n      tag_139\n        /* \"#utility.yul\":3379:3382   */\n      dup5\n        /* \"#utility.yul\":3371:3377   */\n      dup3\n        /* \"#utility.yul\":3364:3368   */\n      0x20\n        /* \"#utility.yul\":3356:3362   */\n      dup7\n        /* \"#utility.yul\":3352:3369   */\n      add\n        /* \"#utility.yul\":3304:3383   */\n      tag_75\n      jump\t// in\n    tag_139:\n        /* \"#utility.yul\":3295:3383   */\n      swap2\n      pop\n        /* \"#utility.yul\":3111:3389   */\n      pop\n        /* \"#utility.yul\":3049:3389   */\n      swap3\n      swap2\n      pop\n      pop\n      jump\t// out\n        /* \"#utility.yul\":3395:3472   */\n    tag_77:\n        /* \"#utility.yul\":3432:3439   */\n      0x00\n        /* \"#utility.yul\":3461:3466   */\n      dup2\n        /* \"#utility.yul\":3450:3466   */\n      swap1\n      pop\n        /* \"#utility.yul\":3395:3472   */\n      swap2\n      swap1\n      pop\n      jump\t// out\n        /* \"#utility.yul\":3478:3600   */\n    tag_78:\n        /* \"#utility.yul\":3551:3575   */\n      tag_142\n        /* \"#utility.yul\":3569:3574   */\n      dup2\n        /* \"#utility.yul\":3551:3575   */\n      tag_77\n      jump\t// in\n    tag_142:\n        /* \"#utility.yul\":3544:3549   */\n      dup2\n        /* \"#utility.yul\":3541:3576   */\n      eq\n        /* \"#utility.yul\":3531:3594   */\n      tag_143\n      jumpi\n        /* \"#utility.yul\":3590:3591   */\n      0x00\n        /* \"#utility.yul\":3587:3588   */\n      dup1\n        /* \"#utility.yul\":3580:3592   */\n      revert\n        /* \"#utility.yul\":3531:3594   */\n    tag_143:\n        /* \"#utility.yul\":3478:3600   */\n      pop\n      jump\t// out\n        /* \"#utility.yul\":3606:3745   */\n    tag_79:\n        /* \"#utility.yul\":3652:3657   */\n      0x00\n        /* \"#utility.yul\":3690:3696   */\n      dup2\n        /* \"#utility.yul\":3677:3697   */\n      calldataload\n        /* \"#utility.yul\":3668:3697   */\n      swap1\n      pop\n        /* \"#utility.yul\":3706:3739   */\n      tag_145\n        /* \"#utility.yul\":3733:3738   */\n      dup2\n        /* \"#utility.yul\":3706:3739   */\n      tag_78\n      jump\t// in\n    tag_145:\n        /* \"#utility.yul\":3606:3745   */\n      swap3\n      swap2\n      pop\n      pop\n      jump\t// out\n        /* \"#utility.yul\":3751:5022   */\n    tag_20:\n        /* \"#utility.yul\":3866:3872   */\n      0x00\n        /* \"#utility.yul\":3874:3880   */\n      dup1\n        /* \"#utility.yul\":3882:3888   */\n      0x00\n        /* \"#utility.yul\":3890:3896   */\n      dup1\n        /* \"#utility.yul\":3898:3904   */\n      0x00\n        /* \"#utility.yul\":3947:3950   */\n      0xa0\n        /* \"#utility.yul\":3935:3944   */\n      dup7\n        /* \"#utility.yul\":3926:3933   */\n      dup9\n        /* \"#utility.yul\":3922:3945   */\n      sub\n        /* \"#utility.yul\":3918:3951   */\n      slt\n        /* \"#utility.yul\":3915:4035   */\n      iszero\n      tag_147\n      jumpi\n        /* \"#utility.yul\":3954:4033   */\n      tag_148\n      tag_61\n      jump\t// in\n    tag_148:\n        /* \"#utility.yul\":3915:4035   */\n    tag_147:\n        /* \"#utility.yul\":4074:4075   */\n      0x00\n        /* \"#utility.yul\":4099:4152   */\n      tag_149\n        /* \"#utility.yul\":4144:4151   */\n      dup9\n        /* \"#utility.yul\":4135:4141   */\n      dup3\n        /* \"#utility.yul\":4124:4133   */\n      dup10\n        /* \"#utility.yul\":4120:4142   */\n      add\n        /* \"#utility.yul\":4099:4152   */\n      tag_66\n      jump\t// in\n    tag_149:\n        /* \"#utility.yul\":4089:4152   */\n      swap6\n      pop\n        /* \"#utility.yul\":4045:4162   */\n      pop\n        /* \"#utility.yul\":4229:4231   */\n      0x20\n        /* \"#utility.yul\":4218:4227   */\n      dup7\n        /* \"#utility.yul\":4214:4232   */\n      add\n        /* \"#utility.yul\":4201:4233   */\n      calldataload\n        /* \"#utility.yul\":4260:4278   */\n      0xffffffffffffffff\n        /* \"#utility.yul\":4252:4258   */\n      dup2\n        /* \"#utility.yul\":4249:4279   */\n      gt\n        /* \"#utility.yul\":4246:4363   */\n      iszero\n      tag_150\n      jumpi\n        /* \"#utility.yul\":4282:4361   */\n      tag_151\n      tag_62\n      jump\t// in\n    tag_151:\n        /* \"#utility.yul\":4246:4363   */\n    tag_150:\n        /* \"#utility.yul\":4387:4450   */\n      tag_152\n        /* \"#utility.yul\":4442:4449   */\n      dup9\n        /* \"#utility.yul\":4433:4439   */\n      dup3\n        /* \"#utility.yul\":4422:4431   */\n      dup10\n        /* \"#utility.yul\":4418:4440   */\n      add\n        /* \"#utility.yul\":4387:4450   */\n      tag_76\n      jump\t// in\n    tag_152:\n        /* \"#utility.yul\":4377:4450   */\n      swap5\n      pop\n        /* \"#utility.yul\":4172:4460   */\n      pop\n        /* \"#utility.yul\":4527:4529   */\n      0x40\n        /* \"#utility.yul\":4516:4525   */\n      dup7\n        /* \"#utility.yul\":4512:4530   */\n      add\n        /* \"#utility.yul\":4499:4531   */\n      calldataload\n        /* \"#utility.yul\":4558:4576   */\n      0xffffffffffffffff\n        /* \"#utility.yul\":4550:4556   */\n      dup2\n        /* \"#utility.yul\":4547:4577   */\n      gt\n        /* \"#utility.yul\":4544:4661   */\n      iszero\n      tag_153\n      jumpi\n        /* \"#utility.yul\":4580:4659   */\n      tag_154\n      tag_62\n      jump\t// in\n    tag_154:\n        /* \"#utility.yul\":4544:4661   */\n    tag_153:\n        /* \"#utility.yul\":4685:4748   */\n      tag_155\n        /* \"#utility.yul\":4740:4747   */\n      dup9\n        /* \"#utility.yul\":4731:4737   */\n      dup3\n        /* \"#utility.yul\":4720:4729   */\n      dup10\n        /* \"#utility.yul\":4716:4738   */\n      add\n        /* \"#utility.yul\":4685:4748   */\n      tag_76\n      jump\t// in\n    tag_155:\n        /* \"#utility.yul\":4675:4748   */\n      swap4\n      pop\n        /* \"#utility.yul\":4470:4758   */\n      pop\n        /* \"#utility.yul\":4797:4799   */\n      0x60\n        /* \"#utility.yul\":4823:4876   */\n      tag_156\n        /* \"#utility.yul\":4868:4875   */\n      dup9\n        /* \"#utility.yul\":4859:4865   */\n      dup3\n        /* \"#utility.yul\":4848:4857   */\n      dup10\n        /* \"#utility.yul\":4844:4866   */\n      add\n        /* \"#utility.yul\":4823:4876   */\n      tag_66\n      jump\t// in\n    tag_156:\n        /* \"#utility.yul\":4813:4876   */\n      swap3\n      pop\n        /* \"#utility.yul\":4768:4886   */\n      pop\n        /* \"#utility.yul\":4925:4928   */\n      0x80\n        /* \"#utility.yul\":4952:5005   */\n      tag_157\n        /* \"#utility.yul\":4997:5004   */\n      dup9\n        /* \"#utility.yul\":4988:4994   */\n      dup3\n        /* \"#utility.yul\":4977:4986   */\n      dup10\n        /* \"#utility.yul\":4973:4995   */\n      add\n        /* \"#utility.yul\":4952:5005   */\n      tag_79\n      jump\t// in\n    tag_157:\n        /* \"#utility.yul\":4942:5005   */\n      swap2\n      pop\n        /* \"#utility.yul\":4896:5015   */\n      pop\n        /* \"#utility.yul\":3751:5022   */\n      swap3\n      swap6\n      pop\n      swap3\n      swap6\n      swap1\n      swap4\n      pop\n      jump\t// out\n        /* \"#utility.yul\":5028:5146   */\n    tag_80:\n        /* \"#utility.yul\":5115:5139   */\n      tag_159\n        /* \"#utility.yul\":5133:5138   */\n      dup2\n        /* \"#utility.yul\":5115:5139   */\n      tag_64\n      jump\t// in\n    tag_159:\n        /* \"#utility.yul\":5110:5113   */\n      dup3\n        /* \"#utility.yul\":5103:5140   */\n      mstore\n        /* \"#utility.yul\":5028:5146   */\n      pop\n      pop\n      jump\t// out\n        /* \"#utility.yul\":5152:5374   */\n    tag_45:\n        /* \"#utility.yul\":5245:5249   */\n      0x00\n        /* \"#utility.yul\":5283:5285   */\n      0x20\n        /* \"#utility.yul\":5272:5281   */\n      dup3\n        /* \"#utility.yul\":5268:5286   */\n      add\n        /* \"#utility.yul\":5260:5286   */\n      swap1\n      pop\n        /* \"#utility.yul\":5296:5367   */\n      tag_161\n        /* \"#utility.yul\":5364:5365   */\n      0x00\n        /* \"#utility.yul\":5353:5362   */\n      dup4\n        /* \"#utility.yul\":5349:5366   */\n      add\n        /* \"#utility.yul\":5340:5346   */\n      dup5\n        /* \"#utility.yul\":5296:5367   */\n      tag_80\n      jump\t// in\n    tag_161:\n        /* \"#utility.yul\":5152:5374   */\n      swap3\n      swap2\n      pop\n      pop\n      jump\t// out\n        /* \"#utility.yul\":5380:5440   */\n    tag_81:\n        /* \"#utility.yul\":5408:5411   */\n      0x00\n        /* \"#utility.yul\":5429:5434   */\n      dup2\n        /* \"#utility.yul\":5422:5434   */\n      swap1\n      pop\n        /* \"#utility.yul\":5380:5440   */\n      swap2\n      swap1\n      pop\n      jump\t// out\n        /* \"#utility.yul\":5446:5588   */\n    tag_82:\n        /* \"#utility.yul\":5496:5505   */\n      0x00\n        /* \"#utility.yul\":5529:5582   */\n      tag_164\n        /* \"#utility.yul\":5547:5581   */\n      tag_165\n        /* \"#utility.yul\":5556:5580   */\n      tag_166\n        /* \"#utility.yul\":5574:5579   */\n      dup5\n        /* \"#utility.yul\":5556:5580   */\n      tag_63\n      jump\t// in\n    tag_166:\n        /* \"#utility.yul\":5547:5581   */\n      tag_81\n      jump\t// in\n    tag_165:\n        /* \"#utility.yul\":5529:5582   */\n      tag_63\n      jump\t// in\n    tag_164:\n        /* \"#utility.yul\":5516:5582   */\n      swap1\n      pop\n        /* \"#utility.yul\":5446:5588   */\n      swap2\n      swap1\n      pop\n      jump\t// out\n        /* \"#utility.yul\":5594:5720   */\n    tag_83:\n        /* \"#utility.yul\":5644:5653   */\n      0x00\n        /* \"#utility.yul\":5677:5714   */\n      tag_168\n        /* \"#utility.yul\":5708:5713   */\n      dup3\n        /* \"#utility.yul\":5677:5714   */\n      tag_82\n      jump\t// in\n    tag_168:\n        /* \"#utility.yul\":5664:5714   */\n      swap1\n      pop\n        /* \"#utility.yul\":5594:5720   */\n      swap2\n      swap1\n      pop\n      jump\t// out\n        /* \"#utility.yul\":5726:5866   */\n    tag_84:\n        /* \"#utility.yul\":5790:5799   */\n      0x00\n        /* \"#utility.yul\":5823:5860   */\n      tag_170\n        /* \"#utility.yul\":5854:5859   */\n      dup3\n        /* \"#utility.yul\":5823:5860   */\n      tag_83\n      jump\t// in\n    tag_170:\n        /* \"#utility.yul\":5810:5860   */\n      swap1\n      pop\n        /* \"#utility.yul\":5726:5866   */\n      swap2\n      swap1\n      pop\n      jump\t// out\n        /* \"#utility.yul\":5872:6031   */\n    tag_85:\n        /* \"#utility.yul\":5973:6024   */\n      tag_172\n        /* \"#utility.yul\":6018:6023   */\n      dup2\n        /* \"#utility.yul\":5973:6024   */\n      tag_84\n      jump\t// in\n    tag_172:\n        /* \"#utility.yul\":5968:5971   */\n      dup3\n        /* \"#utility.yul\":5961:6025   */\n      mstore\n        /* \"#utility.yul\":5872:6031   */\n      pop\n      pop\n      jump\t// out\n        /* \"#utility.yul\":6037:6123   */\n    tag_86:\n        /* \"#utility.yul\":6083:6090   */\n      0x00\n        /* \"#utility.yul\":6112:6117   */\n      dup2\n        /* \"#utility.yul\":6101:6117   */\n      swap1\n      pop\n        /* \"#utility.yul\":6037:6123   */\n      swap2\n      swap1\n      pop\n      jump\t// out\n        /* \"#utility.yul\":6129:6215   */\n    tag_87:\n        /* \"#utility.yul\":6164:6171   */\n      0x00\n        /* \"#utility.yul\":6204:6208   */\n      0xff\n        /* \"#utility.yul\":6197:6202   */\n      dup3\n        /* \"#utility.yul\":6193:6209   */\n      and\n        /* \"#utility.yul\":6182:6209   */\n      swap1\n      pop\n        /* \"#utility.yul\":6129:6215   */\n      swap2\n      swap1\n      pop\n      jump\t// out\n        /* \"#utility.yul\":6221:6377   */\n    tag_88:\n        /* \"#utility.yul\":6278:6287   */\n      0x00\n        /* \"#utility.yul\":6311:6371   */\n      tag_176\n        /* \"#utility.yul\":6327:6370   */\n      tag_177\n        /* \"#utility.yul\":6336:6369   */\n      tag_178\n        /* \"#utility.yul\":6363:6368   */\n      dup5\n        /* \"#utility.yul\":6336:6369   */\n      tag_86\n      jump\t// in\n    tag_178:\n        /* \"#utility.yul\":6327:6370   */\n      tag_81\n      jump\t// in\n    tag_177:\n        /* \"#utility.yul\":6311:6371   */\n      tag_87\n      jump\t// in\n    tag_176:\n        /* \"#utility.yul\":6298:6371   */\n      swap1\n      pop\n        /* \"#utility.yul\":6221:6377   */\n      swap2\n      swap1\n      pop\n      jump\t// out\n        /* \"#utility.yul\":6383:6528   */\n    tag_89:\n        /* \"#utility.yul\":6477:6521   */\n      tag_180\n        /* \"#utility.yul\":6515:6520   */\n      dup2\n        /* \"#utility.yul\":6477:6521   */\n      tag_88\n      jump\t// in\n    tag_180:\n        /* \"#utility.yul\":6472:6475   */\n      dup3\n        /* \"#utility.yul\":6465:6522   */\n      mstore\n        /* \"#utility.yul\":6383:6528   */\n      pop\n      pop\n      jump\t// out\n        /* \"#utility.yul\":6534:6633   */\n    tag_90:\n        /* \"#utility.yul\":6586:6592   */\n      0x00\n        /* \"#utility.yul\":6620:6625   */\n      dup2\n        /* \"#utility.yul\":6614:6626   */\n      mload\n        /* \"#utility.yul\":6604:6626   */\n      swap1\n      pop\n        /* \"#utility.yul\":6534:6633   */\n      swap2\n      swap1\n      pop\n      jump\t// out\n        /* \"#utility.yul\":6639:6808   */\n    tag_91:\n        /* \"#utility.yul\":6723:6734   */\n      0x00\n        /* \"#utility.yul\":6757:6763   */\n      dup3\n        /* \"#utility.yul\":6752:6755   */\n      dup3\n        /* \"#utility.yul\":6745:6764   */\n      mstore\n        /* \"#utility.yul\":6797:6801   */\n      0x20\n        /* \"#utility.yul\":6792:6795   */\n      dup3\n        /* \"#utility.yul\":6788:6802   */\n      add\n        /* \"#utility.yul\":6773:6802   */\n      swap1\n      pop\n        /* \"#utility.yul\":6639:6808   */\n      swap3\n      swap2\n      pop\n      pop\n      jump\t// out\n        /* \"#utility.yul\":6814:7060   */\n    tag_92:\n        /* \"#utility.yul\":6895:6896   */\n      0x00\n        /* \"#utility.yul\":6905:7018   */\n    tag_184:\n        /* \"#utility.yul\":6919:6925   */\n      dup4\n        /* \"#utility.yul\":6916:6917   */\n      dup2\n        /* \"#utility.yul\":6913:6926   */\n      lt\n        /* \"#utility.yul\":6905:7018   */\n      iszero\n      tag_186\n      jumpi\n        /* \"#utility.yul\":7004:7005   */\n      dup1\n        /* \"#utility.yul\":6999:7002   */\n      dup3\n        /* \"#utility.yul\":6995:7006   */\n      add\n        /* \"#utility.yul\":6989:7007   */\n      mload\n        /* \"#utility.yul\":6985:6986   */\n      dup2\n        /* \"#utility.yul\":6980:6983   */\n      dup5\n        /* \"#utility.yul\":6976:6987   */\n      add\n        /* \"#utility.yul\":6969:7008   */\n      mstore\n        /* \"#utility.yul\":6941:6943   */\n      0x20\n        /* \"#utility.yul\":6938:6939   */\n      dup2\n        /* \"#utility.yul\":6934:6944   */\n      add\n        /* \"#utility.yul\":6929:6944   */\n      swap1\n      pop\n        /* \"#utility.yul\":6905:7018   */\n      jump(tag_184)\n    tag_186:\n        /* \"#utility.yul\":7052:7053   */\n      0x00\n        /* \"#utility.yul\":7043:7049   */\n      dup5\n        /* \"#utility.yul\":7038:7041   */\n      dup5\n        /* \"#utility.yul\":7034:7050   */\n      add\n        /* \"#utility.yul\":7027:7054   */\n      mstore\n        /* \"#utility.yul\":6876:7060   */\n      pop\n        /* \"#utility.yul\":6814:7060   */\n      pop\n      pop\n      pop\n      jump\t// out\n        /* \"#utility.yul\":7066:7443   */\n    tag_93:\n        /* \"#utility.yul\":7154:7157   */\n      0x00\n        /* \"#utility.yul\":7182:7221   */\n      tag_188\n        /* \"#utility.yul\":7215:7220   */\n      dup3\n        /* \"#utility.yul\":7182:7221   */\n      tag_90\n      jump\t// in\n    tag_188:\n        /* \"#utility.yul\":7237:7308   */\n      tag_189\n        /* \"#utility.yul\":7301:7307   */\n      dup2\n        /* \"#utility.yul\":7296:7299   */\n      dup6\n        /* \"#utility.yul\":7237:7308   */\n      tag_91\n      jump\t// in\n    tag_189:\n        /* \"#utility.yul\":7230:7308   */\n      swap4\n      pop\n        /* \"#utility.yul\":7317:7382   */\n      tag_190\n        /* \"#utility.yul\":7375:7381   */\n      dup2\n        /* \"#utility.yul\":7370:7373   */\n      dup6\n        /* \"#utility.yul\":7363:7367   */\n      0x20\n        /* \"#utility.yul\":7356:7361   */\n      dup7\n        /* \"#utility.yul\":7352:7368   */\n      add\n        /* \"#utility.yul\":7317:7382   */\n      tag_92\n      jump\t// in\n    tag_190:\n        /* \"#utility.yul\":7407:7436   */\n      tag_191\n        /* \"#utility.yul\":7429:7435   */\n      dup2\n        /* \"#utility.yul\":7407:7436   */\n      tag_69\n      jump\t// in\n    tag_191:\n        /* \"#utility.yul\":7402:7405   */\n      dup5\n        /* \"#utility.yul\":7398:7437   */\n      add\n        /* \"#utility.yul\":7391:7437   */\n      swap2\n      pop\n        /* \"#utility.yul\":7158:7443   */\n      pop\n        /* \"#utility.yul\":7066:7443   */\n      swap3\n      swap2\n      pop\n      pop\n      jump\t// out\n        /* \"#utility.yul\":7449:8226   */\n    tag_50:\n        /* \"#utility.yul\":7687:7691   */\n      0x00\n        /* \"#utility.yul\":7725:7728   */\n      0x80\n        /* \"#utility.yul\":7714:7723   */\n      dup3\n        /* \"#utility.yul\":7710:7729   */\n      add\n        /* \"#utility.yul\":7702:7729   */\n      swap1\n      pop\n        /* \"#utility.yul\":7739:7824   */\n      tag_193\n        /* \"#utility.yul\":7821:7822   */\n      0x00\n        /* \"#utility.yul\":7810:7819   */\n      dup4\n        /* \"#utility.yul\":7806:7823   */\n      add\n        /* \"#utility.yul\":7797:7803   */\n      dup8\n        /* \"#utility.yul\":7739:7824   */\n      tag_85\n      jump\t// in\n    tag_193:\n        /* \"#utility.yul\":7834:7913   */\n      tag_194\n        /* \"#utility.yul\":7909:7911   */\n      0x20\n        /* \"#utility.yul\":7898:7907   */\n      dup4\n        /* \"#utility.yul\":7894:7912   */\n      add\n        /* \"#utility.yul\":7885:7891   */\n      dup7\n        /* \"#utility.yul\":7834:7913   */\n      tag_89\n      jump\t// in\n    tag_194:\n        /* \"#utility.yul\":7960:7969   */\n      dup2\n        /* \"#utility.yul\":7954:7958   */\n      dup2\n        /* \"#utility.yul\":7950:7970   */\n      sub\n        /* \"#utility.yul\":7945:7947   */\n      0x40\n        /* \"#utility.yul\":7934:7943   */\n      dup4\n        /* \"#utility.yul\":7930:7948   */\n      add\n        /* \"#utility.yul\":7923:7971   */\n      mstore\n        /* \"#utility.yul\":7988:8066   */\n      tag_195\n        /* \"#utility.yul\":8061:8065   */\n      dup2\n        /* \"#utility.yul\":8052:8058   */\n      dup6\n        /* \"#utility.yul\":7988:8066   */\n      tag_93\n      jump\t// in\n    tag_195:\n        /* \"#utility.yul\":7980:8066   */\n      swap1\n      pop\n        /* \"#utility.yul\":8113:8122   */\n      dup2\n        /* \"#utility.yul\":8107:8111   */\n      dup2\n        /* \"#utility.yul\":8103:8123   */\n      sub\n        /* \"#utility.yul\":8098:8100   */\n      0x60\n        /* \"#utility.yul\":8087:8096   */\n      dup4\n        /* \"#utility.yul\":8083:8101   */\n      add\n        /* \"#utility.yul\":8076:8124   */\n      mstore\n        /* \"#utility.yul\":8141:8219   */\n      tag_196\n        /* \"#utility.yul\":8214:8218   */\n      dup2\n        /* \"#utility.yul\":8205:8211   */\n      dup5\n        /* \"#utility.yul\":8141:8219   */\n      tag_93\n      jump\t// in\n    tag_196:\n        /* \"#utility.yul\":8133:8219   */\n      swap1\n      pop\n        /* \"#utility.yul\":7449:8226   */\n      swap6\n      swap5\n      pop\n      pop\n      pop\n      pop\n      pop\n      jump\t// out\n        /* \"#utility.yul\":8232:8350   */\n    tag_94:\n        /* \"#utility.yul\":8319:8343   */\n      tag_198\n        /* \"#utility.yul\":8337:8342   */\n      dup2\n        /* \"#utility.yul\":8319:8343   */\n      tag_77\n      jump\t// in\n    tag_198:\n        /* \"#utility.yul\":8314:8317   */\n      dup3\n        /* \"#utility.yul\":8307:8344   */\n      mstore\n        /* \"#utility.yul\":8232:8350   */\n      pop\n      pop\n      jump\t// out\n        /* \"#utility.yul\":8356:8454   */\n    tag_95:\n        /* \"#utility.yul\":8407:8413   */\n      0x00\n        /* \"#utility.yul\":8441:8446   */\n      dup2\n        /* \"#utility.yul\":8435:8447   */\n      mload\n        /* \"#utility.yul\":8425:8447   */\n      swap1\n      pop\n        /* \"#utility.yul\":8356:8454   */\n      swap2\n      swap1\n      pop\n      jump\t// out\n        /* \"#utility.yul\":8460:8628   */\n    tag_96:\n        /* \"#utility.yul\":8543:8554   */\n      0x00\n        /* \"#utility.yul\":8577:8583   */\n      dup3\n        /* \"#utility.yul\":8572:8575   */\n      dup3\n        /* \"#utility.yul\":8565:8584   */\n      mstore\n        /* \"#utility.yul\":8617:8621   */\n      0x20\n        /* \"#utility.yul\":8612:8615   */\n      dup3\n        /* \"#utility.yul\":8608:8622   */\n      add\n        /* \"#utility.yul\":8593:8622   */\n      swap1\n      pop\n        /* \"#utility.yul\":8460:8628   */\n      swap3\n      swap2\n      pop\n      pop\n      jump\t// out\n        /* \"#utility.yul\":8634:9007   */\n    tag_97:\n        /* \"#utility.yul\":8720:8723   */\n      0x00\n        /* \"#utility.yul\":8748:8786   */\n      tag_202\n        /* \"#utility.yul\":8780:8785   */\n      dup3\n        /* \"#utility.yul\":8748:8786   */\n      tag_95\n      jump\t// in\n    tag_202:\n        /* \"#utility.yul\":8802:8872   */\n      tag_203\n        /* \"#utility.yul\":8865:8871   */\n      dup2\n        /* \"#utility.yul\":8860:8863   */\n      dup6\n        /* \"#utility.yul\":8802:8872   */\n      tag_96\n      jump\t// in\n    tag_203:\n        /* \"#utility.yul\":8795:8872   */\n      swap4\n      pop\n        /* \"#utility.yul\":8881:8946   */\n      tag_204\n        /* \"#utility.yul\":8939:8945   */\n      dup2\n        /* \"#utility.yul\":8934:8937   */\n      dup6\n        /* \"#utility.yul\":8927:8931   */\n      0x20\n        /* \"#utility.yul\":8920:8925   */\n      dup7\n        /* \"#utility.yul\":8916:8932   */\n      add\n        /* \"#utility.yul\":8881:8946   */\n      tag_92\n      jump\t// in\n    tag_204:\n        /* \"#utility.yul\":8971:9000   */\n      tag_205\n        /* \"#utility.yul\":8993:8999   */\n      dup2\n        /* \"#utility.yul\":8971:9000   */\n      tag_69\n      jump\t// in\n    tag_205:\n        /* \"#utility.yul\":8966:8969   */\n      dup5\n        /* \"#utility.yul\":8962:9001   */\n      add\n        /* \"#utility.yul\":8955:9001   */\n      swap2\n      pop\n        /* \"#utility.yul\":8724:9007   */\n      pop\n        /* \"#utility.yul\":8634:9007   */\n      swap3\n      swap2\n      pop\n      pop\n      jump\t// out\n        /* \"#utility.yul\":9013:9542   */\n    tag_56:\n        /* \"#utility.yul\":9180:9184   */\n      0x00\n        /* \"#utility.yul\":9218:9220   */\n      0x60\n        /* \"#utility.yul\":9207:9216   */\n      dup3\n        /* \"#utility.yul\":9203:9221   */\n      add\n        /* \"#utility.yul\":9195:9221   */\n      swap1\n      pop\n        /* \"#utility.yul\":9231:9302   */\n      tag_207\n        /* \"#utility.yul\":9299:9300   */\n      0x00\n        /* \"#utility.yul\":9288:9297   */\n      dup4\n        /* \"#utility.yul\":9284:9301   */\n      add\n        /* \"#utility.yul\":9275:9281   */\n      dup7\n        /* \"#utility.yul\":9231:9302   */\n      tag_80\n      jump\t// in\n    tag_207:\n        /* \"#utility.yul\":9312:9384   */\n      tag_208\n        /* \"#utility.yul\":9380:9382   */\n      0x20\n        /* \"#utility.yul\":9369:9378   */\n      dup4\n        /* \"#utility.yul\":9365:9383   */\n      add\n        /* \"#utility.yul\":9356:9362   */\n      dup6\n        /* \"#utility.yul\":9312:9384   */\n      tag_94\n      jump\t// in\n    tag_208:\n        /* \"#utility.yul\":9431:9440   */\n      dup2\n        /* \"#utility.yul\":9425:9429   */\n      dup2\n        /* \"#utility.yul\":9421:9441   */\n      sub\n        /* \"#utility.yul\":9416:9418   */\n      0x40\n        /* \"#utility.yul\":9405:9414   */\n      dup4\n        /* \"#utility.yul\":9401:9419   */\n      add\n        /* \"#utility.yul\":9394:9442   */\n      mstore\n        /* \"#utility.yul\":9459:9535   */\n      tag_209\n        /* \"#utility.yul\":9530:9534   */\n      dup2\n        /* \"#utility.yul\":9521:9527   */\n      dup5\n        /* \"#utility.yul\":9459:9535   */\n      tag_97\n      jump\t// in\n    tag_209:\n        /* \"#utility.yul\":9451:9535   */\n      swap1\n      pop\n        /* \"#utility.yul\":9013:9542   */\n      swap5\n      swap4\n      pop\n      pop\n      pop\n      pop\n      jump\t// out\n\n    auxdata: 0xa264697066735822122089edce4172a91da088dce91b09a07052809f865887b342c5fd2b60eabb8e60ef64736f6c63430008120033\n}\n",
				"bytecode": {
					"linkReferences": {},
					"object": "608060405234801561001057600080fd5b506108c8806100206000396000f3fe60806040526004361061002d5760003560e01c80634a0687ef1461004657806375b30be61461006f5761003c565b3661003c5761003a610098565b005b610044610098565b005b34801561005257600080fd5b5061006d600480360381019061006891906103f1565b6100b2565b005b34801561007b57600080fd5b506100966004803603810190610091919061059a565b6101ab565b005b6100a06101d7565b6100b06100ab6101d9565b610202565b565b600073ffffffffffffffffffffffffffffffffffffffff168173ffffffffffffffffffffffffffffffffffffffff1603610118576040517fd92e233d00000000000000000000000000000000000000000000000000000000815260040160405180910390fd5b600073ffffffffffffffffffffffffffffffffffffffff166101386101d9565b73ffffffffffffffffffffffffffffffffffffffff1614610185576040517f5daa87a000000000000000000000000000000000000000000000000000000000815260040160405180910390fd5b807f360894a13ba1a3210667c828492db98dca3e2076cc3735a920a3ca505d382bbc5550565b6101b6858585610228565b6101d082826040518060200160405280600081525061030b565b5050505050565b565b60007f360894a13ba1a3210667c828492db98dca3e2076cc3735a920a3ca505d382bbc54905090565b3660008037600080366000845af43d6000803e8060008114610223573d6000f35b3d6000fd5b8273ffffffffffffffffffffffffffffffffffffffff1663d412d344306040518263ffffffff1660e01b8152600401610261919061065c565b600060405180830381600087803b15801561027b57600080fd5b505af115801561028f573d6000803e3d6000fd5b505050503073ffffffffffffffffffffffffffffffffffffffff166342fe09806000601285856040518563ffffffff1660e01b81526004016102d4949392919061079d565b600060405180830381600087803b1580156102ee57600080fd5b505af1158015610302573d6000803e3d6000fd5b50505050505050565b3073ffffffffffffffffffffffffffffffffffffffff1663c68d42838484846040518463ffffffff1660e01b815260040161034893929190610854565b600060405180830381600087803b15801561036257600080fd5b505af1158015610376573d6000803e3d6000fd5b50505050505050565b6000604051905090565b600080fd5b600080fd5b600073ffffffffffffffffffffffffffffffffffffffff82169050919050565b60006103be82610393565b9050919050565b6103ce816103b3565b81146103d957600080fd5b50565b6000813590506103eb816103c5565b92915050565b60006020828403121561040757610406610389565b5b6000610415848285016103dc565b91505092915050565b600080fd5b600080fd5b6000601f19601f8301169050919050565b7f4e487b7100000000000000000000000000000000000000000000000000000000600052604160045260246000fd5b61047182610428565b810181811067ffffffffffffffff821117156104905761048f610439565b5b80604052505050565b60006104a361037f565b90506104af8282610468565b919050565b600067ffffffffffffffff8211156104cf576104ce610439565b5b6104d882610428565b9050602081019050919050565b82818337600083830152505050565b6000610507610502846104b4565b610499565b90508281526020810184848401111561052357610522610423565b5b61052e8482856104e5565b509392505050565b600082601f83011261054b5761054a61041e565b5b813561055b8482602086016104f4565b91505092915050565b6000819050919050565b61057781610564565b811461058257600080fd5b50565b6000813590506105948161056e565b92915050565b600080600080600060a086880312156105b6576105b5610389565b5b60006105c4888289016103dc565b955050602086013567ffffffffffffffff8111156105e5576105e461038e565b5b6105f188828901610536565b945050604086013567ffffffffffffffff8111156106125761061161038e565b5b61061e88828901610536565b935050606061062f888289016103dc565b925050608061064088828901610585565b9150509295509295909350565b610656816103b3565b82525050565b6000602082019050610671600083018461064d565b92915050565b6000819050919050565b600061069c61069761069284610393565b610677565b610393565b9050919050565b60006106ae82610681565b9050919050565b60006106c0826106a3565b9050919050565b6106d0816106b5565b82525050565b6000819050919050565b600060ff82169050919050565b60006107086107036106fe846106d6565b610677565b6106e0565b9050919050565b610718816106ed565b82525050565b600081519050919050565b600082825260208201905092915050565b60005b8381101561075857808201518184015260208101905061073d565b60008484015250505050565b600061076f8261071e565b6107798185610729565b935061078981856020860161073a565b61079281610428565b840191505092915050565b60006080820190506107b260008301876106c7565b6107bf602083018661070f565b81810360408301526107d18185610764565b905081810360608301526107e58184610764565b905095945050505050565b6107f981610564565b82525050565b600081519050919050565b600082825260208201905092915050565b6000610826826107ff565b610830818561080a565b935061084081856020860161073a565b61084981610428565b840191505092915050565b6000606082019050610869600083018661064d565b61087660208301856107f0565b8181036040830152610888818461081b565b905094935050505056fea264697066735822122089edce4172a91da088dce91b09a07052809f865887b342c5fd2b60eabb8e60ef64736f6c63430008120033",
					"opcodes": "PUSH1 0x80 PUSH1 0x40 MSTORE CALLVALUE DUP1 ISZERO PUSH2 0x10 JUMPI PUSH1 0x0 DUP1 REVERT JUMPDEST POP PUSH2 0x8C8 DUP1 PUSH2 0x20 PUSH1 0x0 CODECOPY PUSH1 0x0 RETURN INVALID PUSH1 0x80 PUSH1 0x40 MSTORE PUSH1 0x4 CALLDATASIZE LT PUSH2 0x2D JUMPI PUSH1 0x0 CALLDATALOAD PUSH1 0xE0 SHR DUP1 PUSH4 0x4A0687EF EQ PUSH2 0x46 JUMPI DUP1 PUSH4 0x75B30BE6 EQ PUSH2 0x6F JUMPI PUSH2 0x3C JUMP JUMPDEST CALLDATASIZE PUSH2 0x3C JUMPI PUSH2 0x3A PUSH2 0x98 JUMP JUMPDEST STOP JUMPDEST PUSH2 0x44 PUSH2 0x98 JUMP JUMPDEST STOP JUMPDEST CALLVALUE DUP1 ISZERO PUSH2 0x52 JUMPI PUSH1 0x0 DUP1 REVERT JUMPDEST POP PUSH2 0x6D PUSH1 0x4 DUP1 CALLDATASIZE SUB DUP2 ADD SWAP1 PUSH2 0x68 SWAP2 SWAP1 PUSH2 0x3F1 JUMP JUMPDEST PUSH2 0xB2 JUMP JUMPDEST STOP JUMPDEST CALLVALUE DUP1 ISZERO PUSH2 0x7B JUMPI PUSH1 0x0 DUP1 REVERT JUMPDEST POP PUSH2 0x96 PUSH1 0x4 DUP1 CALLDATASIZE SUB DUP2 ADD SWAP1 PUSH2 0x91 SWAP2 SWAP1 PUSH2 0x59A JUMP JUMPDEST PUSH2 0x1AB JUMP JUMPDEST STOP JUMPDEST PUSH2 0xA0 PUSH2 0x1D7 JUMP JUMPDEST PUSH2 0xB0 PUSH2 0xAB PUSH2 0x1D9 JUMP JUMPDEST PUSH2 0x202 JUMP JUMPDEST JUMP JUMPDEST PUSH1 0x0 PUSH20 0xFFFFFFFFFFFFFFFFFFFFFFFFFFFFFFFFFFFFFFFF AND DUP2 PUSH20 0xFFFFFFFFFFFFFFFFFFFFFFFFFFFFFFFFFFFFFFFF AND SUB PUSH2 0x118 JUMPI PUSH1 0x40 MLOAD PUSH32 0xD92E233D00000000000000000000000000000000000000000000000000000000 DUP2 MSTORE PUSH1 0x4 ADD PUSH1 0x40 MLOAD DUP1 SWAP2 SUB SWAP1 REVERT JUMPDEST PUSH1 0x0 PUSH20 0xFFFFFFFFFFFFFFFFFFFFFFFFFFFFFFFFFFFFFFFF AND PUSH2 0x138 PUSH2 0x1D9 JUMP JUMPDEST PUSH20 0xFFFFFFFFFFFFFFFFFFFFFFFFFFFFFFFFFFFFFFFF AND EQ PUSH2 0x185 JUMPI PUSH1 0x40 MLOAD PUSH32 0x5DAA87A000000000000000000000000000000000000000000000000000000000 DUP2 MSTORE PUSH1 0x4 ADD PUSH1 0x40 MLOAD DUP1 SWAP2 SUB SWAP1 REVERT JUMPDEST DUP1 PUSH32 0x360894A13BA1A3210667C828492DB98DCA3E2076CC3735A920A3CA505D382BBC SSTORE POP JUMP JUMPDEST PUSH2 0x1B6 DUP6 DUP6 DUP6 PUSH2 0x228 JUMP JUMPDEST PUSH2 0x1D0 DUP3 DUP3 PUSH1 0x40 MLOAD DUP1 PUSH1 0x20 ADD PUSH1 0x40 MSTORE DUP1 PUSH1 0x0 DUP2 MSTORE POP PUSH2 0x30B JUMP JUMPDEST POP POP POP POP POP JUMP JUMPDEST JUMP JUMPDEST PUSH1 0x0 PUSH32 0x360894A13BA1A3210667C828492DB98DCA3E2076CC3735A920A3CA505D382BBC SLOAD SWAP1 POP SWAP1 JUMP JUMPDEST CALLDATASIZE PUSH1 0x0 DUP1 CALLDATACOPY PUSH1 0x0 DUP1 CALLDATASIZE PUSH1 0x0 DUP5 GAS DELEGATECALL RETURNDATASIZE PUSH1 0x0 DUP1 RETURNDATACOPY DUP1 PUSH1 0x0 DUP2 EQ PUSH2 0x223 JUMPI RETURNDATASIZE PUSH1 0x0 RETURN JUMPDEST RETURNDATASIZE PUSH1 0x0 REVERT JUMPDEST DUP3 PUSH20 0xFFFFFFFFFFFFFFFFFFFFFFFFFFFFFFFFFFFFFFFF AND PUSH4 0xD412D344 ADDRESS PUSH1 0x40 MLOAD DUP3 PUSH4 0xFFFFFFFF AND PUSH1 0xE0 SHL DUP2 MSTORE PUSH1 0x4 ADD PUSH2 0x261 SWAP2 SWAP1 PUSH2 0x65C JUMP JUMPDEST PUSH1 0x0 PUSH1 0x40 MLOAD DUP1 DUP4 SUB DUP2 PUSH1 0x0 DUP8 DUP1 EXTCODESIZE ISZERO DUP1 ISZERO PUSH2 0x27B JUMPI PUSH1 0x0 DUP1 REVERT JUMPDEST POP GAS CALL ISZERO DUP1 ISZERO PUSH2 0x28F JUMPI RETURNDATASIZE PUSH1 0x0 DUP1 RETURNDATACOPY RETURNDATASIZE PUSH1 0x0 REVERT JUMPDEST POP POP POP POP ADDRESS PUSH20 0xFFFFFFFFFFFFFFFFFFFFFFFFFFFFFFFFFFFFFFFF AND PUSH4 0x42FE0980 PUSH1 0x0 PUSH1 0x12 DUP6 DUP6 PUSH1 0x40 MLOAD DUP6 PUSH4 0xFFFFFFFF AND PUSH1 0xE0 SHL DUP2 MSTORE PUSH1 0x4 ADD PUSH2 0x2D4 SWAP5 SWAP4 SWAP3 SWAP2 SWAP1 PUSH2 0x79D JUMP JUMPDEST PUSH1 0x0 PUSH1 0x40 MLOAD DUP1 DUP4 SUB DUP2 PUSH1 0x0 DUP8 DUP1 EXTCODESIZE ISZERO DUP1 ISZERO PUSH2 0x2EE JUMPI PUSH1 0x0 DUP1 REVERT JUMPDEST POP GAS CALL ISZERO DUP1 ISZERO PUSH2 0x302 JUMPI RETURNDATASIZE PUSH1 0x0 DUP1 RETURNDATACOPY RETURNDATASIZE PUSH1 0x0 REVERT JUMPDEST POP POP POP POP POP POP POP JUMP JUMPDEST ADDRESS PUSH20 0xFFFFFFFFFFFFFFFFFFFFFFFFFFFFFFFFFFFFFFFF AND PUSH4 0xC68D4283 DUP5 DUP5 DUP5 PUSH1 0x40 MLOAD DUP5 PUSH4 0xFFFFFFFF AND PUSH1 0xE0 SHL DUP2 MSTORE PUSH1 0x4 ADD PUSH2 0x348 SWAP4 SWAP3 SWAP2 SWAP1 PUSH2 0x854 JUMP JUMPDEST PUSH1 0x0 PUSH1 0x40 MLOAD DUP1 DUP4 SUB DUP2 PUSH1 0x0 DUP8 DUP1 EXTCODESIZE ISZERO DUP1 ISZERO PUSH2 0x362 JUMPI PUSH1 0x0 DUP1 REVERT JUMPDEST POP GAS CALL ISZERO DUP1 ISZERO PUSH2 0x376 JUMPI RETURNDATASIZE PUSH1 0x0 DUP1 RETURNDATACOPY RETURNDATASIZE PUSH1 0x0 REVERT JUMPDEST POP POP POP POP POP POP POP JUMP JUMPDEST PUSH1 0x0 PUSH1 0x40 MLOAD SWAP1 POP SWAP1 JUMP JUMPDEST PUSH1 0x0 DUP1 REVERT JUMPDEST PUSH1 0x0 DUP1 REVERT JUMPDEST PUSH1 0x0 PUSH20 0xFFFFFFFFFFFFFFFFFFFFFFFFFFFFFFFFFFFFFFFF DUP3 AND SWAP1 POP SWAP2 SWAP1 POP JUMP JUMPDEST PUSH1 0x0 PUSH2 0x3BE DUP3 PUSH2 0x393 JUMP JUMPDEST SWAP1 POP SWAP2 SWAP1 POP JUMP JUMPDEST PUSH2 0x3CE DUP2 PUSH2 0x3B3 JUMP JUMPDEST DUP2 EQ PUSH2 0x3D9 JUMPI PUSH1 0x0 DUP1 REVERT JUMPDEST POP JUMP JUMPDEST PUSH1 0x0 DUP2 CALLDATALOAD SWAP1 POP PUSH2 0x3EB DUP2 PUSH2 0x3C5 JUMP JUMPDEST SWAP3 SWAP2 POP POP JUMP JUMPDEST PUSH1 0x0 PUSH1 0x20 DUP3 DUP5 SUB SLT ISZERO PUSH2 0x407 JUMPI PUSH2 0x406 PUSH2 0x389 JUMP JUMPDEST JUMPDEST PUSH1 0x0 PUSH2 0x415 DUP5 DUP3 DUP6 ADD PUSH2 0x3DC JUMP JUMPDEST SWAP2 POP POP SWAP3 SWAP2 POP POP JUMP JUMPDEST PUSH1 0x0 DUP1 REVERT JUMPDEST PUSH1 0x0 DUP1 REVERT JUMPDEST PUSH1 0x0 PUSH1 0x1F NOT PUSH1 0x1F DUP4 ADD AND SWAP1 POP SWAP2 SWAP1 POP JUMP JUMPDEST PUSH32 0x4E487B7100000000000000000000000000000000000000000000000000000000 PUSH1 0x0 MSTORE PUSH1 0x41 PUSH1 0x4 MSTORE PUSH1 0x24 PUSH1 0x0 REVERT JUMPDEST PUSH2 0x471 DUP3 PUSH2 0x428 JUMP JUMPDEST DUP2 ADD DUP2 DUP2 LT PUSH8 0xFFFFFFFFFFFFFFFF DUP3 GT OR ISZERO PUSH2 0x490 JUMPI PUSH2 0x48F PUSH2 0x439 JUMP JUMPDEST JUMPDEST DUP1 PUSH1 0x40 MSTORE POP POP POP JUMP JUMPDEST PUSH1 0x0 PUSH2 0x4A3 PUSH2 0x37F JUMP JUMPDEST SWAP1 POP PUSH2 0x4AF DUP3 DUP3 PUSH2 0x468 JUMP JUMPDEST SWAP2 SWAP1 POP JUMP JUMPDEST PUSH1 0x0 PUSH8 0xFFFFFFFFFFFFFFFF DUP3 GT ISZERO PUSH2 0x4CF JUMPI PUSH2 0x4CE PUSH2 0x439 JUMP JUMPDEST JUMPDEST PUSH2 0x4D8 DUP3 PUSH2 0x428 JUMP JUMPDEST SWAP1 POP PUSH1 0x20 DUP2 ADD SWAP1 POP SWAP2 SWAP1 POP JUMP JUMPDEST DUP3 DUP2 DUP4 CALLDATACOPY PUSH1 0x0 DUP4 DUP4 ADD MSTORE POP POP POP JUMP JUMPDEST PUSH1 0x0 PUSH2 0x507 PUSH2 0x502 DUP5 PUSH2 0x4B4 JUMP JUMPDEST PUSH2 0x499 JUMP JUMPDEST SWAP1 POP DUP3 DUP2 MSTORE PUSH1 0x20 DUP2 ADD DUP5 DUP5 DUP5 ADD GT ISZERO PUSH2 0x523 JUMPI PUSH2 0x522 PUSH2 0x423 JUMP JUMPDEST JUMPDEST PUSH2 0x52E DUP5 DUP3 DUP6 PUSH2 0x4E5 JUMP JUMPDEST POP SWAP4 SWAP3 POP POP POP JUMP JUMPDEST PUSH1 0x0 DUP3 PUSH1 0x1F DUP4 ADD SLT PUSH2 0x54B JUMPI PUSH2 0x54A PUSH2 0x41E JUMP JUMPDEST JUMPDEST DUP2 CALLDATALOAD PUSH2 0x55B DUP5 DUP3 PUSH1 0x20 DUP7 ADD PUSH2 0x4F4 JUMP JUMPDEST SWAP2 POP POP SWAP3 SWAP2 POP POP JUMP JUMPDEST PUSH1 0x0 DUP2 SWAP1 POP SWAP2 SWAP1 POP JUMP JUMPDEST PUSH2 0x577 DUP2 PUSH2 0x564 JUMP JUMPDEST DUP2 EQ PUSH2 0x582 JUMPI PUSH1 0x0 DUP1 REVERT JUMPDEST POP JUMP JUMPDEST PUSH1 0x0 DUP2 CALLDATALOAD SWAP1 POP PUSH2 0x594 DUP2 PUSH2 0x56E JUMP JUMPDEST SWAP3 SWAP2 POP POP JUMP JUMPDEST PUSH1 0x0 DUP1 PUSH1 0x0 DUP1 PUSH1 0x0 PUSH1 0xA0 DUP7 DUP9 SUB SLT ISZERO PUSH2 0x5B6 JUMPI PUSH2 0x5B5 PUSH2 0x389 JUMP JUMPDEST JUMPDEST PUSH1 0x0 PUSH2 0x5C4 DUP9 DUP3 DUP10 ADD PUSH2 0x3DC JUMP JUMPDEST SWAP6 POP POP PUSH1 0x20 DUP7 ADD CALLDATALOAD PUSH8 0xFFFFFFFFFFFFFFFF DUP2 GT ISZERO PUSH2 0x5E5 JUMPI PUSH2 0x5E4 PUSH2 0x38E JUMP JUMPDEST JUMPDEST PUSH2 0x5F1 DUP9 DUP3 DUP10 ADD PUSH2 0x536 JUMP JUMPDEST SWAP5 POP POP PUSH1 0x40 DUP7 ADD CALLDATALOAD PUSH8 0xFFFFFFFFFFFFFFFF DUP2 GT ISZERO PUSH2 0x612 JUMPI PUSH2 0x611 PUSH2 0x38E JUMP JUMPDEST JUMPDEST PUSH2 0x61E DUP9 DUP3 DUP10 ADD PUSH2 0x536 JUMP JUMPDEST SWAP4 POP POP PUSH1 0x60 PUSH2 0x62F DUP9 DUP3 DUP10 ADD PUSH2 0x3DC JUMP JUMPDEST SWAP3 POP POP PUSH1 0x80 PUSH2 0x640 DUP9 DUP3 DUP10 ADD PUSH2 0x585 JUMP JUMPDEST SWAP2 POP POP SWAP3 SWAP6 POP SWAP3 SWAP6 SWAP1 SWAP4 POP JUMP JUMPDEST PUSH2 0x656 DUP2 PUSH2 0x3B3 JUMP JUMPDEST DUP3 MSTORE POP POP JUMP JUMPDEST PUSH1 0x0 PUSH1 0x20 DUP3 ADD SWAP1 POP PUSH2 0x671 PUSH1 0x0 DUP4 ADD DUP5 PUSH2 0x64D JUMP JUMPDEST SWAP3 SWAP2 POP POP JUMP JUMPDEST PUSH1 0x0 DUP2 SWAP1 POP SWAP2 SWAP1 POP JUMP JUMPDEST PUSH1 0x0 PUSH2 0x69C PUSH2 0x697 PUSH2 0x692 DUP5 PUSH2 0x393 JUMP JUMPDEST PUSH2 0x677 JUMP JUMPDEST PUSH2 0x393 JUMP JUMPDEST SWAP1 POP SWAP2 SWAP1 POP JUMP JUMPDEST PUSH1 0x0 PUSH2 0x6AE DUP3 PUSH2 0x681 JUMP JUMPDEST SWAP1 POP SWAP2 SWAP1 POP JUMP JUMPDEST PUSH1 0x0 PUSH2 0x6C0 DUP3 PUSH2 0x6A3 JUMP JUMPDEST SWAP1 POP SWAP2 SWAP1 POP JUMP JUMPDEST PUSH2 0x6D0 DUP2 PUSH2 0x6B5 JUMP JUMPDEST DUP3 MSTORE POP POP JUMP JUMPDEST PUSH1 0x0 DUP2 SWAP1 POP SWAP2 SWAP1 POP JUMP JUMPDEST PUSH1 0x0 PUSH1 0xFF DUP3 AND SWAP1 POP SWAP2 SWAP1 POP JUMP JUMPDEST PUSH1 0x0 PUSH2 0x708 PUSH2 0x703 PUSH2 0x6FE DUP5 PUSH2 0x6D6 JUMP JUMPDEST PUSH2 0x677 JUMP JUMPDEST PUSH2 0x6E0 JUMP JUMPDEST SWAP1 POP SWAP2 SWAP1 POP JUMP JUMPDEST PUSH2 0x718 DUP2 PUSH2 0x6ED JUMP JUMPDEST DUP3 MSTORE POP POP JUMP JUMPDEST PUSH1 0x0 DUP2 MLOAD SWAP1 POP SWAP2 SWAP1 POP JUMP JUMPDEST PUSH1 0x0 DUP3 DUP3 MSTORE PUSH1 0x20 DUP3 ADD SWAP1 POP SWAP3 SWAP2 POP POP JUMP JUMPDEST PUSH1 0x0 JUMPDEST DUP4 DUP2 LT ISZERO PUSH2 0x758 JUMPI DUP1 DUP3 ADD MLOAD DUP2 DUP5 ADD MSTORE PUSH1 0x20 DUP2 ADD SWAP1 POP PUSH2 0x73D JUMP JUMPDEST PUSH1 0x0 DUP5 DUP5 ADD MSTORE POP POP POP POP JUMP JUMPDEST PUSH1 0x0 PUSH2 0x76F DUP3 PUSH2 0x71E JUMP JUMPDEST PUSH2 0x779 DUP2 DUP6 PUSH2 0x729 JUMP JUMPDEST SWAP4 POP PUSH2 0x789 DUP2 DUP6 PUSH1 0x20 DUP7 ADD PUSH2 0x73A JUMP JUMPDEST PUSH2 0x792 DUP2 PUSH2 0x428 JUMP JUMPDEST DUP5 ADD SWAP2 POP POP SWAP3 SWAP2 POP POP JUMP JUMPDEST PUSH1 0x0 PUSH1 0x80 DUP3 ADD SWAP1 POP PUSH2 0x7B2 PUSH1 0x0 DUP4 ADD DUP8 PUSH2 0x6C7 JUMP JUMPDEST PUSH2 0x7BF PUSH1 0x20 DUP4 ADD DUP7 PUSH2 0x70F JUMP JUMPDEST DUP2 DUP2 SUB PUSH1 0x40 DUP4 ADD MSTORE PUSH2 0x7D1 DUP2 DUP6 PUSH2 0x764 JUMP JUMPDEST SWAP1 POP DUP2 DUP2 SUB PUSH1 0x60 DUP4 ADD MSTORE PUSH2 0x7E5 DUP2 DUP5 PUSH2 0x764 JUMP JUMPDEST SWAP1 POP SWAP6 SWAP5 POP POP POP POP POP JUMP JUMPDEST PUSH2 0x7F9 DUP2 PUSH2 0x564 JUMP JUMPDEST DUP3 MSTORE POP POP JUMP JUMPDEST PUSH1 0x0 DUP2 MLOAD SWAP1 POP SWAP2 SWAP1 POP JUMP JUMPDEST PUSH1 0x0 DUP3 DUP3 MSTORE PUSH1 0x20 DUP3 ADD SWAP1 POP SWAP3 SWAP2 POP POP JUMP JUMPDEST PUSH1 0x0 PUSH2 0x826 DUP3 PUSH2 0x7FF JUMP JUMPDEST PUSH2 0x830 DUP2 DUP6 PUSH2 0x80A JUMP JUMPDEST SWAP4 POP PUSH2 0x840 DUP2 DUP6 PUSH1 0x20 DUP7 ADD PUSH2 0x73A JUMP JUMPDEST PUSH2 0x849 DUP2 PUSH2 0x428 JUMP JUMPDEST DUP5 ADD SWAP2 POP POP SWAP3 SWAP2 POP POP JUMP JUMPDEST PUSH1 0x0 PUSH1 0x60 DUP3 ADD SWAP1 POP PUSH2 0x869 PUSH1 0x0 DUP4 ADD DUP7 PUSH2 0x64D JUMP JUMPDEST PUSH2 0x876 PUSH1 0x20 DUP4 ADD DUP6 PUSH2 0x7F0 JUMP JUMPDEST DUP2 DUP2 SUB PUSH1 0x40 DUP4 ADD MSTORE PUSH2 0x888 DUP2 DUP5 PUSH2 0x81B JUMP JUMPDEST SWAP1 POP SWAP5 SWAP4 POP POP POP POP JUMP INVALID LOG2 PUSH5 0x6970667358 0x22 SLT KECCAK256 DUP10 0xED 0xCE COINBASE PUSH19 0xA91DA088DCE91B09A07052809F865887B342C5 REVERT 0x2B PUSH1 0xEA 0xBB DUP15 PUSH1 0xEF PUSH5 0x736F6C6343 STOP ADDMOD SLT STOP CALLER "
				},
				"gasEstimates": {
					"creation": {
						"codeDepositCost": "449600",
						"executionCost": "486",
						"totalCost": "450086"
					},
					"external": {
						"": "infinite",
						"initialize(address,string,string,address,uint256)": "infinite",
						"initializeProxy(address)": "24744"
					}
				},
				"methodIdentifiers": {
					"initialize(address,string,string,address,uint256)": "75b30be6",
					"initializeProxy(address)": "4a0687ef"
				}
			},
			"storageLayout": {
				"storage": [
					{
						"astId": 2605,
						"contract": "contracts/PureSuperToken.sol:PureSuperToken",
						"label": "_storagePaddings",
						"offset": 0,
						"slot": "0",
						"type": "t_array(t_uint256)32_storage"
					}
				],
				"types": {
					"t_array(t_uint256)32_storage": {
						"base": "t_uint256",
						"encoding": "inplace",
						"label": "uint256[32]",
						"numberOfBytes": "1024"
					},
					"t_uint256": {
						"encoding": "inplace",
						"label": "uint256",
						"numberOfBytes": "32"
					}
				}
			},
			"userdoc": {
				"errors": {
					"Initialized()": [
						{
							"notice": "Thrown when the logic contract has been set"
						}
					],
					"ZeroAddress()": [
						{
							"notice": "Thrown when the logic contract address is zero"
						}
					]
				},
				"kind": "user",
				"methods": {
					"initializeProxy(address)": {
						"notice": "Stores the logic contract address only once."
					}
				},
				"notice": "Pre-minted supply. This is includes no custom logic. Used in `PureSuperTokenDeployer`",
				"version": 1
			}
		}
	}
}