{
	"contracts/OurSuperToken.sol": {
		"OurSuperToken": {
			"abi": [
				{
					"inputs": [],
					"name": "Initialized",
					"type": "error"
				},
				{
					"inputs": [],
					"name": "ZeroAddress",
					"type": "error"
				},
				{
					"anonymous": false,
					"inputs": [
						{
							"indexed": true,
							"internalType": "address",
							"name": "previousOwner",
							"type": "address"
						},
						{
							"indexed": true,
							"internalType": "address",
							"name": "newOwner",
							"type": "address"
						}
					],
					"name": "OwnershipTransferred",
					"type": "event"
				},
				{
					"stateMutability": "payable",
					"type": "fallback"
				},
				{
					"inputs": [
						{
							"internalType": "address",
							"name": "account",
							"type": "address"
						},
						{
							"internalType": "address",
							"name": "spender",
							"type": "address"
						},
						{
							"internalType": "uint256",
							"name": "amount",
							"type": "uint256"
						}
					],
					"name": "approve",
					"outputs": [],
					"stateMutability": "nonpayable",
					"type": "function"
				},
				{
					"inputs": [
						{
							"internalType": "uint256",
							"name": "amount",
							"type": "uint256"
						},
						{
							"internalType": "bytes",
							"name": "userData",
							"type": "bytes"
						}
					],
					"name": "burn",
					"outputs": [],
					"stateMutability": "nonpayable",
					"type": "function"
				},
				{
					"inputs": [
						{
							"internalType": "address",
							"name": "factory",
							"type": "address"
						},
						{
							"internalType": "string",
							"name": "name",
							"type": "string"
						},
						{
							"internalType": "string",
							"name": "symbol",
							"type": "string"
						},
						{
							"internalType": "uint256",
							"name": "initialSupply",
							"type": "uint256"
						},
						{
							"internalType": "address",
							"name": "receiver",
							"type": "address"
						},
						{
							"internalType": "bytes",
							"name": "userData",
							"type": "bytes"
						}
					],
					"name": "initialize",
					"outputs": [],
					"stateMutability": "nonpayable",
					"type": "function"
				},
				{
					"inputs": [
						{
							"internalType": "address",
							"name": "initialAddress",
							"type": "address"
						}
					],
					"name": "initializeProxy",
					"outputs": [],
					"stateMutability": "nonpayable",
					"type": "function"
				},
				{
					"inputs": [
						{
							"internalType": "address",
							"name": "receiver",
							"type": "address"
						},
						{
							"internalType": "uint256",
							"name": "amount",
							"type": "uint256"
						},
						{
							"internalType": "bytes",
							"name": "userData",
							"type": "bytes"
						}
					],
					"name": "mint",
					"outputs": [],
					"stateMutability": "nonpayable",
					"type": "function"
				},
				{
					"inputs": [],
					"name": "owner",
					"outputs": [
						{
							"internalType": "address",
							"name": "",
							"type": "address"
						}
					],
					"stateMutability": "view",
					"type": "function"
				},
				{
					"inputs": [],
					"name": "renounceOwnership",
					"outputs": [],
					"stateMutability": "nonpayable",
					"type": "function"
				},
				{
					"inputs": [],
					"name": "totalSupply",
					"outputs": [
						{
							"internalType": "uint256",
							"name": "t",
							"type": "uint256"
						}
					],
					"stateMutability": "view",
					"type": "function"
				},
				{
					"inputs": [
						{
							"internalType": "address",
							"name": "holder",
							"type": "address"
						},
						{
							"internalType": "address",
							"name": "spender",
							"type": "address"
						},
						{
							"internalType": "address",
							"name": "recipient",
							"type": "address"
						},
						{
							"internalType": "uint256",
							"name": "amount",
							"type": "uint256"
						}
					],
					"name": "transferFrom",
					"outputs": [],
					"stateMutability": "nonpayable",
					"type": "function"
				},
				{
					"inputs": [
						{
							"internalType": "address",
							"name": "newOwner",
							"type": "address"
						}
					],
					"name": "transferOwnership",
					"outputs": [],
					"stateMutability": "nonpayable",
					"type": "function"
				},
				{
					"stateMutability": "payable",
					"type": "receive"
				}
			],
			"devdoc": {
				"author": "jtriley.eth",
				"kind": "dev",
				"methods": {
					"initialize(address,string,string,uint256,address,bytes)": {
						"params": {
							"factory": "Super token factory for initialization",
							"name": "Name of Super Token",
							"symbol": "Symbol of Super Token"
						}
					},
					"initializeProxy(address)": {
						"details": "Called by the SuperTokenFactory contract on upgrade",
						"params": {
							"initialAddress": "logic contract address"
						}
					},
					"mint(address,uint256,bytes)": {
						"params": {
							"amount": "Amount to mint",
							"receiver": "Receiver of minted tokens"
						}
					},
					"owner()": {
						"details": "Returns the address of the current owner."
					},
					"renounceOwnership()": {
						"details": "Leaves the contract without owner. It will not be possible to call `onlyOwner` functions anymore. Can only be called by the current owner. NOTE: Renouncing ownership will leave the contract without an owner, thereby removing any functionality that is only available to the owner."
					},
					"transferOwnership(address)": {
						"details": "Transfers ownership of the contract to a new account (`newOwner`). Can only be called by the current owner."
					}
				},
				"title": "Mintable Pure Super Token",
				"version": 1
			},
			"evm": {
				"assembly": "    /* \"contracts/OurSuperToken.sol\":285:1574  contract OurSuperToken is SuperTokenBase, Ownable {... */\n  mstore(0x40, 0x80)\n  callvalue\n  dup1\n  iszero\n  tag_1\n  jumpi\n  0x00\n  dup1\n  revert\ntag_1:\n  pop\n    /* \"@openzeppelin/contracts/access/Ownable.sol\":936:968  _transferOwnership(_msgSender()) */\n  tag_4\n    /* \"@openzeppelin/contracts/access/Ownable.sol\":955:967  _msgSender() */\n  tag_5\n    /* \"@openzeppelin/contracts/access/Ownable.sol\":955:965  _msgSender */\n  shl(0x20, tag_6)\n    /* \"@openzeppelin/contracts/access/Ownable.sol\":955:967  _msgSender() */\n  0x20\n  shr\n  jump\t// in\ntag_5:\n    /* \"@openzeppelin/contracts/access/Ownable.sol\":936:954  _transferOwnership */\n  shl(0x20, tag_7)\n    /* \"@openzeppelin/contracts/access/Ownable.sol\":936:968  _transferOwnership(_msgSender()) */\n  0x20\n  shr\n  jump\t// in\ntag_4:\n    /* \"contracts/OurSuperToken.sol\":285:1574  contract OurSuperToken is SuperTokenBase, Ownable {... */\n  jump(tag_8)\n    /* \"@openzeppelin/contracts/utils/Context.sol\":640:736  function _msgSender() internal view virtual returns (address) {... */\ntag_6:\n    /* \"@openzeppelin/contracts/utils/Context.sol\":693:700  address */\n  0x00\n    /* \"@openzeppelin/contracts/utils/Context.sol\":719:729  msg.sender */\n  caller\n    /* \"@openzeppelin/contracts/utils/Context.sol\":712:729  return msg.sender */\n  swap1\n  pop\n    /* \"@openzeppelin/contracts/utils/Context.sol\":640:736  function _msgSender() internal view virtual returns (address) {... */\n  swap1\n  jump\t// out\n    /* \"@openzeppelin/contracts/access/Ownable.sol\":2433:2620  function _transferOwnership(address newOwner) internal virtual {... */\ntag_7:\n    /* \"@openzeppelin/contracts/access/Ownable.sol\":2506:2522  address oldOwner */\n  0x00\n    /* \"@openzeppelin/contracts/access/Ownable.sol\":2525:2531  _owner */\n  0x20\n  0x00\n  swap1\n  sload\n  swap1\n  0x0100\n  exp\n  swap1\n  div\n  0xffffffffffffffffffffffffffffffffffffffff\n  and\n    /* \"@openzeppelin/contracts/access/Ownable.sol\":2506:2531  address oldOwner = _owner */\n  swap1\n  pop\n    /* \"@openzeppelin/contracts/access/Ownable.sol\":2550:2558  newOwner */\n  dup2\n    /* \"@openzeppelin/contracts/access/Ownable.sol\":2541:2547  _owner */\n  0x20\n  0x00\n    /* \"@openzeppelin/contracts/access/Ownable.sol\":2541:2558  _owner = newOwner */\n  0x0100\n  exp\n  dup2\n  sload\n  dup2\n  0xffffffffffffffffffffffffffffffffffffffff\n  mul\n  not\n  and\n  swap1\n  dup4\n  0xffffffffffffffffffffffffffffffffffffffff\n  and\n  mul\n  or\n  swap1\n  sstore\n  pop\n    /* \"@openzeppelin/contracts/access/Ownable.sol\":2604:2612  newOwner */\n  dup2\n    /* \"@openzeppelin/contracts/access/Ownable.sol\":2573:2613  OwnershipTransferred(oldOwner, newOwner) */\n  0xffffffffffffffffffffffffffffffffffffffff\n  and\n    /* \"@openzeppelin/contracts/access/Ownable.sol\":2594:2602  oldOwner */\n  dup2\n    /* \"@openzeppelin/contracts/access/Ownable.sol\":2573:2613  OwnershipTransferred(oldOwner, newOwner) */\n  0xffffffffffffffffffffffffffffffffffffffff\n  and\n  0x8be0079c531659141344cd1fd0a4f28419497f9722a3daafe3b4186f6b6457e0\n  mload(0x40)\n  mload(0x40)\n  dup1\n  swap2\n  sub\n  swap1\n  log3\n    /* \"@openzeppelin/contracts/access/Ownable.sol\":2496:2620  {... */\n  pop\n    /* \"@openzeppelin/contracts/access/Ownable.sol\":2433:2620  function _transferOwnership(address newOwner) internal virtual {... */\n  pop\n  jump\t// out\n    /* \"contracts/OurSuperToken.sol\":285:1574  contract OurSuperToken is SuperTokenBase, Ownable {... */\ntag_8:\n  dataSize(sub_0)\n  dup1\n  dataOffset(sub_0)\n  0x00\n  codecopy\n  0x00\n  return\nstop\n\nsub_0: assembly {\n        /* \"contracts/OurSuperToken.sol\":285:1574  contract OurSuperToken is SuperTokenBase, Ownable {... */\n      mstore(0x40, 0x80)\n      jumpi(tag_1, lt(calldatasize, 0x04))\n      shr(0xe0, calldataload(0x00))\n      dup1\n      0x94d008ef\n      gt\n      tag_13\n      jumpi\n      dup1\n      0x94d008ef\n      eq\n      tag_8\n      jumpi\n      dup1\n      0xa6a05598\n      eq\n      tag_9\n      jumpi\n      dup1\n      0xe1f21c67\n      eq\n      tag_10\n      jumpi\n      dup1\n      0xf2fde38b\n      eq\n      tag_11\n      jumpi\n      dup1\n      0xfe9d9303\n      eq\n      tag_12\n      jumpi\n      jump(tag_2)\n    tag_13:\n      dup1\n      0x15dacbea\n      eq\n      tag_3\n      jumpi\n      dup1\n      0x18160ddd\n      eq\n      tag_4\n      jumpi\n      dup1\n      0x4a0687ef\n      eq\n      tag_5\n      jumpi\n      dup1\n      0x715018a6\n      eq\n      tag_6\n      jumpi\n      dup1\n      0x8da5cb5b\n      eq\n      tag_7\n      jumpi\n      jump(tag_2)\n    tag_1:\n      jumpi(tag_2, calldatasize)\n        /* \"@openzeppelin/contracts/proxy/Proxy.sol\":2898:2909  _fallback() */\n      tag_16\n        /* \"@openzeppelin/contracts/proxy/Proxy.sol\":2898:2907  _fallback */\n      tag_17\n        /* \"@openzeppelin/contracts/proxy/Proxy.sol\":2898:2909  _fallback() */\n      jump\t// in\n    tag_16:\n        /* \"contracts/OurSuperToken.sol\":285:1574  contract OurSuperToken is SuperTokenBase, Ownable {... */\n      stop\n    tag_2:\n        /* \"@openzeppelin/contracts/proxy/Proxy.sol\":2675:2686  _fallback() */\n      tag_20\n        /* \"@openzeppelin/contracts/proxy/Proxy.sol\":2675:2684  _fallback */\n      tag_17\n        /* \"@openzeppelin/contracts/proxy/Proxy.sol\":2675:2686  _fallback() */\n      jump\t// in\n    tag_20:\n        /* \"contracts/OurSuperToken.sol\":285:1574  contract OurSuperToken is SuperTokenBase, Ownable {... */\n      stop\n        /* \"contracts/OurSuperToken.sol\":1292:1452  function transferFrom(address holder,address spender, address recipient,uint256 amount) external {... */\n    tag_3:\n      callvalue\n      dup1\n      iszero\n      tag_21\n      jumpi\n      0x00\n      dup1\n      revert\n    tag_21:\n      pop\n      tag_22\n      0x04\n      dup1\n      calldatasize\n      sub\n      dup2\n      add\n      swap1\n      tag_23\n      swap2\n      swap1\n      tag_24\n      jump\t// in\n    tag_23:\n      tag_25\n      jump\t// in\n    tag_22:\n      stop\n        /* \"contracts/OurSuperToken.sol\":1070:1156  function totalSupply() external view returns (uint t) {... */\n    tag_4:\n      callvalue\n      dup1\n      iszero\n      tag_26\n      jumpi\n      0x00\n      dup1\n      revert\n    tag_26:\n      pop\n      tag_27\n      tag_28\n      jump\t// in\n    tag_27:\n      mload(0x40)\n      tag_29\n      swap2\n      swap1\n      tag_30\n      jump\t// in\n    tag_29:\n      mload(0x40)\n      dup1\n      swap2\n      sub\n      swap1\n      return\n        /* \"contracts/base/UUPSProxy.sol\":1049:1295  function initializeProxy(address initialAddress) external {... */\n    tag_5:\n      callvalue\n      dup1\n      iszero\n      tag_31\n      jumpi\n      0x00\n      dup1\n      revert\n    tag_31:\n      pop\n      tag_32\n      0x04\n      dup1\n      calldatasize\n      sub\n      dup2\n      add\n      swap1\n      tag_33\n      swap2\n      swap1\n      tag_34\n      jump\t// in\n    tag_33:\n      tag_35\n      jump\t// in\n    tag_32:\n      stop\n        /* \"@openzeppelin/contracts/access/Ownable.sol\":1831:1932  function renounceOwnership() public virtual onlyOwner {... */\n    tag_6:\n      callvalue\n      dup1\n      iszero\n      tag_36\n      jumpi\n      0x00\n      dup1\n      revert\n    tag_36:\n      pop\n      tag_37\n      tag_38\n      jump\t// in\n    tag_37:\n      stop\n        /* \"@openzeppelin/contracts/access/Ownable.sol\":1201:1286  function owner() public view virtual returns (address) {... */\n    tag_7:\n      callvalue\n      dup1\n      iszero\n      tag_39\n      jumpi\n      0x00\n      dup1\n      revert\n    tag_39:\n      pop\n      tag_40\n      tag_41\n      jump\t// in\n    tag_40:\n      mload(0x40)\n      tag_42\n      swap2\n      swap1\n      tag_43\n      jump\t// in\n    tag_42:\n      mload(0x40)\n      dup1\n      swap2\n      sub\n      swap1\n      return\n        /* \"contracts/OurSuperToken.sol\":933:1064  function mint(address receiver, uint256 amount, bytes memory userData) external onlyOwner {... */\n    tag_8:\n      callvalue\n      dup1\n      iszero\n      tag_44\n      jumpi\n      0x00\n      dup1\n      revert\n    tag_44:\n      pop\n      tag_45\n      0x04\n      dup1\n      calldatasize\n      sub\n      dup2\n      add\n      swap1\n      tag_46\n      swap2\n      swap1\n      tag_47\n      jump\t// in\n    tag_46:\n      tag_48\n      jump\t// in\n    tag_45:\n      stop\n        /* \"contracts/OurSuperToken.sol\":542:795  function initialize(... */\n    tag_9:\n      callvalue\n      dup1\n      iszero\n      tag_49\n      jumpi\n      0x00\n      dup1\n      revert\n    tag_49:\n      pop\n      tag_50\n      0x04\n      dup1\n      calldatasize\n      sub\n      dup2\n      add\n      swap1\n      tag_51\n      swap2\n      swap1\n      tag_52\n      jump\t// in\n    tag_51:\n      tag_53\n      jump\t// in\n    tag_50:\n      stop\n        /* \"contracts/OurSuperToken.sol\":1161:1286  function approve(address account,address spender,uint256 amount) external {... */\n    tag_10:\n      callvalue\n      dup1\n      iszero\n      tag_54\n      jumpi\n      0x00\n      dup1\n      revert\n    tag_54:\n      pop\n      tag_55\n      0x04\n      dup1\n      calldatasize\n      sub\n      dup2\n      add\n      swap1\n      tag_56\n      swap2\n      swap1\n      tag_57\n      jump\t// in\n    tag_56:\n      tag_58\n      jump\t// in\n    tag_55:\n      stop\n        /* \"@openzeppelin/contracts/access/Ownable.sol\":2081:2279  function transferOwnership(address newOwner) public virtual onlyOwner {... */\n    tag_11:\n      callvalue\n      dup1\n      iszero\n      tag_59\n      jumpi\n      0x00\n      dup1\n      revert\n    tag_59:\n      pop\n      tag_60\n      0x04\n      dup1\n      calldatasize\n      sub\n      dup2\n      add\n      swap1\n      tag_61\n      swap2\n      swap1\n      tag_34\n      jump\t// in\n    tag_61:\n      tag_62\n      jump\t// in\n    tag_60:\n      stop\n        /* \"contracts/OurSuperToken.sol\":1458:1570  function burn(uint256 amount, bytes memory userData) external {... */\n    tag_12:\n      callvalue\n      dup1\n      iszero\n      tag_63\n      jumpi\n      0x00\n      dup1\n      revert\n    tag_63:\n      pop\n      tag_64\n      0x04\n      dup1\n      calldatasize\n      sub\n      dup2\n      add\n      swap1\n      tag_65\n      swap2\n      swap1\n      tag_66\n      jump\t// in\n    tag_65:\n      tag_67\n      jump\t// in\n    tag_64:\n      stop\n        /* \"@openzeppelin/contracts/proxy/Proxy.sol\":2322:2432  function _fallback() internal virtual {... */\n    tag_17:\n        /* \"@openzeppelin/contracts/proxy/Proxy.sol\":2370:2387  _beforeFallback() */\n      tag_69\n        /* \"@openzeppelin/contracts/proxy/Proxy.sol\":2370:2385  _beforeFallback */\n      tag_70\n        /* \"@openzeppelin/contracts/proxy/Proxy.sol\":2370:2387  _beforeFallback() */\n      jump\t// in\n    tag_69:\n        /* \"@openzeppelin/contracts/proxy/Proxy.sol\":2397:2425  _delegate(_implementation()) */\n      tag_71\n        /* \"@openzeppelin/contracts/proxy/Proxy.sol\":2407:2424  _implementation() */\n      tag_72\n        /* \"@openzeppelin/contracts/proxy/Proxy.sol\":2407:2422  _implementation */\n      tag_73\n        /* \"@openzeppelin/contracts/proxy/Proxy.sol\":2407:2424  _implementation() */\n      jump\t// in\n    tag_72:\n        /* \"@openzeppelin/contracts/proxy/Proxy.sol\":2397:2406  _delegate */\n      tag_74\n        /* \"@openzeppelin/contracts/proxy/Proxy.sol\":2397:2425  _delegate(_implementation()) */\n      jump\t// in\n    tag_71:\n        /* \"@openzeppelin/contracts/proxy/Proxy.sol\":2322:2432  function _fallback() internal virtual {... */\n      jump\t// out\n        /* \"contracts/OurSuperToken.sol\":1292:1452  function transferFrom(address holder,address spender, address recipient,uint256 amount) external {... */\n    tag_25:\n        /* \"contracts/OurSuperToken.sol\":1399:1445  _transferFrom(holder,spender,recipient,amount) */\n      tag_76\n        /* \"contracts/OurSuperToken.sol\":1413:1419  holder */\n      dup5\n        /* \"contracts/OurSuperToken.sol\":1420:1427  spender */\n      dup5\n        /* \"contracts/OurSuperToken.sol\":1428:1437  recipient */\n      dup5\n        /* \"contracts/OurSuperToken.sol\":1438:1444  amount */\n      dup5\n        /* \"contracts/OurSuperToken.sol\":1399:1412  _transferFrom */\n      tag_77\n        /* \"contracts/OurSuperToken.sol\":1399:1445  _transferFrom(holder,spender,recipient,amount) */\n      jump\t// in\n    tag_76:\n        /* \"contracts/OurSuperToken.sol\":1292:1452  function transferFrom(address holder,address spender, address recipient,uint256 amount) external {... */\n      pop\n      pop\n      pop\n      pop\n      jump\t// out\n        /* \"contracts/OurSuperToken.sol\":1070:1156  function totalSupply() external view returns (uint t) {... */\n    tag_28:\n        /* \"contracts/OurSuperToken.sol\":1116:1122  uint t */\n      0x00\n        /* \"contracts/OurSuperToken.sol\":1134:1148  _totalSupply() */\n      tag_79\n        /* \"contracts/OurSuperToken.sol\":1134:1146  _totalSupply */\n      tag_80\n        /* \"contracts/OurSuperToken.sol\":1134:1148  _totalSupply() */\n      jump\t// in\n    tag_79:\n      pop\n        /* \"contracts/OurSuperToken.sol\":1070:1156  function totalSupply() external view returns (uint t) {... */\n      swap1\n      jump\t// out\n        /* \"contracts/base/UUPSProxy.sol\":1049:1295  function initializeProxy(address initialAddress) external {... */\n    tag_35:\n        /* \"contracts/base/UUPSProxy.sol\":1141:1142  0 */\n      0x00\n        /* \"contracts/base/UUPSProxy.sol\":1115:1143  initialAddress == address(0) */\n      0xffffffffffffffffffffffffffffffffffffffff\n      and\n        /* \"contracts/base/UUPSProxy.sol\":1115:1129  initialAddress */\n      dup2\n        /* \"contracts/base/UUPSProxy.sol\":1115:1143  initialAddress == address(0) */\n      0xffffffffffffffffffffffffffffffffffffffff\n      and\n      sub\n        /* \"contracts/base/UUPSProxy.sol\":1111:1165  if (initialAddress == address(0)) revert ZeroAddress() */\n      tag_82\n      jumpi\n        /* \"contracts/base/UUPSProxy.sol\":1152:1165  ZeroAddress() */\n      mload(0x40)\n      0xd92e233d00000000000000000000000000000000000000000000000000000000\n      dup2\n      mstore\n      0x04\n      add\n      mload(0x40)\n      dup1\n      swap2\n      sub\n      swap1\n      revert\n        /* \"contracts/base/UUPSProxy.sol\":1111:1165  if (initialAddress == address(0)) revert ZeroAddress() */\n    tag_82:\n        /* \"contracts/base/UUPSProxy.sol\":1202:1203  0 */\n      0x00\n        /* \"contracts/base/UUPSProxy.sol\":1173:1204  _implementation() != address(0) */\n      0xffffffffffffffffffffffffffffffffffffffff\n      and\n        /* \"contracts/base/UUPSProxy.sol\":1173:1190  _implementation() */\n      tag_83\n        /* \"contracts/base/UUPSProxy.sol\":1173:1188  _implementation */\n      tag_73\n        /* \"contracts/base/UUPSProxy.sol\":1173:1190  _implementation() */\n      jump\t// in\n    tag_83:\n        /* \"contracts/base/UUPSProxy.sol\":1173:1204  _implementation() != address(0) */\n      0xffffffffffffffffffffffffffffffffffffffff\n      and\n      eq\n        /* \"contracts/base/UUPSProxy.sol\":1169:1226  if (_implementation() != address(0)) revert Initialized() */\n      tag_84\n      jumpi\n        /* \"contracts/base/UUPSProxy.sol\":1213:1226  Initialized() */\n      mload(0x40)\n      0x5daa87a000000000000000000000000000000000000000000000000000000000\n      dup2\n      mstore\n      0x04\n      add\n      mload(0x40)\n      dup1\n      swap2\n      sub\n      swap1\n      revert\n        /* \"contracts/base/UUPSProxy.sol\":1169:1226  if (_implementation() != address(0)) revert Initialized() */\n    tag_84:\n        /* \"contracts/base/UUPSProxy.sol\":1273:1287  initialAddress */\n      dup1\n        /* \"contracts/base/UUPSProxy.sol\":1251:1271  _IMPLEMENTATION_SLOT */\n      0x360894a13ba1a3210667c828492db98dca3e2076cc3735a920a3ca505d382bbc\n        /* \"contracts/base/UUPSProxy.sol\":1244:1288  sstore(_IMPLEMENTATION_SLOT, initialAddress) */\n      sstore\n        /* \"contracts/base/UUPSProxy.sol\":1049:1295  function initializeProxy(address initialAddress) external {... */\n      pop\n      jump\t// out\n        /* \"@openzeppelin/contracts/access/Ownable.sol\":1831:1932  function renounceOwnership() public virtual onlyOwner {... */\n    tag_38:\n        /* \"@openzeppelin/contracts/access/Ownable.sol\":1094:1107  _checkOwner() */\n      tag_86\n        /* \"@openzeppelin/contracts/access/Ownable.sol\":1094:1105  _checkOwner */\n      tag_87\n        /* \"@openzeppelin/contracts/access/Ownable.sol\":1094:1107  _checkOwner() */\n      jump\t// in\n    tag_86:\n        /* \"@openzeppelin/contracts/access/Ownable.sol\":1895:1925  _transferOwnership(address(0)) */\n      tag_89\n        /* \"@openzeppelin/contracts/access/Ownable.sol\":1922:1923  0 */\n      0x00\n        /* \"@openzeppelin/contracts/access/Ownable.sol\":1895:1913  _transferOwnership */\n      tag_90\n        /* \"@openzeppelin/contracts/access/Ownable.sol\":1895:1925  _transferOwnership(address(0)) */\n      jump\t// in\n    tag_89:\n        /* \"@openzeppelin/contracts/access/Ownable.sol\":1831:1932  function renounceOwnership() public virtual onlyOwner {... */\n      jump\t// out\n        /* \"@openzeppelin/contracts/access/Ownable.sol\":1201:1286  function owner() public view virtual returns (address) {... */\n    tag_41:\n        /* \"@openzeppelin/contracts/access/Ownable.sol\":1247:1254  address */\n      0x00\n        /* \"@openzeppelin/contracts/access/Ownable.sol\":1273:1279  _owner */\n      0x20\n      0x00\n      swap1\n      sload\n      swap1\n      0x0100\n      exp\n      swap1\n      div\n      0xffffffffffffffffffffffffffffffffffffffff\n      and\n        /* \"@openzeppelin/contracts/access/Ownable.sol\":1266:1279  return _owner */\n      swap1\n      pop\n        /* \"@openzeppelin/contracts/access/Ownable.sol\":1201:1286  function owner() public view virtual returns (address) {... */\n      swap1\n      jump\t// out\n        /* \"contracts/OurSuperToken.sol\":933:1064  function mint(address receiver, uint256 amount, bytes memory userData) external onlyOwner {... */\n    tag_48:\n        /* \"@openzeppelin/contracts/access/Ownable.sol\":1094:1107  _checkOwner() */\n      tag_93\n        /* \"@openzeppelin/contracts/access/Ownable.sol\":1094:1105  _checkOwner */\n      tag_87\n        /* \"@openzeppelin/contracts/access/Ownable.sol\":1094:1107  _checkOwner() */\n      jump\t// in\n    tag_93:\n        /* \"contracts/OurSuperToken.sol\":1027:1060  _mint(receiver, amount, userData) */\n      tag_95\n        /* \"contracts/OurSuperToken.sol\":1033:1041  receiver */\n      dup4\n        /* \"contracts/OurSuperToken.sol\":1043:1049  amount */\n      dup4\n        /* \"contracts/OurSuperToken.sol\":1051:1059  userData */\n      dup4\n        /* \"contracts/OurSuperToken.sol\":1027:1032  _mint */\n      tag_96\n        /* \"contracts/OurSuperToken.sol\":1027:1060  _mint(receiver, amount, userData) */\n      jump\t// in\n    tag_95:\n        /* \"contracts/OurSuperToken.sol\":933:1064  function mint(address receiver, uint256 amount, bytes memory userData) external onlyOwner {... */\n      pop\n      pop\n      pop\n      jump\t// out\n        /* \"contracts/OurSuperToken.sol\":542:795  function initialize(... */\n    tag_53:\n        /* \"contracts/OurSuperToken.sol\":713:747  _initialize(factory, name, symbol) */\n      tag_98\n        /* \"contracts/OurSuperToken.sol\":725:732  factory */\n      dup7\n        /* \"contracts/OurSuperToken.sol\":734:738  name */\n      dup7\n        /* \"contracts/OurSuperToken.sol\":740:746  symbol */\n      dup7\n        /* \"contracts/OurSuperToken.sol\":713:724  _initialize */\n      tag_99\n        /* \"contracts/OurSuperToken.sol\":713:747  _initialize(factory, name, symbol) */\n      jump\t// in\n    tag_98:\n        /* \"contracts/OurSuperToken.sol\":751:791  _mint(receiver, initialSupply, userData) */\n      tag_100\n        /* \"contracts/OurSuperToken.sol\":757:765  receiver */\n      dup3\n        /* \"contracts/OurSuperToken.sol\":767:780  initialSupply */\n      dup5\n        /* \"contracts/OurSuperToken.sol\":782:790  userData */\n      dup4\n        /* \"contracts/OurSuperToken.sol\":751:756  _mint */\n      tag_96\n        /* \"contracts/OurSuperToken.sol\":751:791  _mint(receiver, initialSupply, userData) */\n      jump\t// in\n    tag_100:\n        /* \"contracts/OurSuperToken.sol\":542:795  function initialize(... */\n      pop\n      pop\n      pop\n      pop\n      pop\n      pop\n      jump\t// out\n        /* \"contracts/OurSuperToken.sol\":1161:1286  function approve(address account,address spender,uint256 amount) external {... */\n    tag_58:\n        /* \"contracts/OurSuperToken.sol\":1245:1279  _approve(account, spender, amount) */\n      tag_102\n        /* \"contracts/OurSuperToken.sol\":1254:1261  account */\n      dup4\n        /* \"contracts/OurSuperToken.sol\":1263:1270  spender */\n      dup4\n        /* \"contracts/OurSuperToken.sol\":1272:1278  amount */\n      dup4\n        /* \"contracts/OurSuperToken.sol\":1245:1253  _approve */\n      tag_103\n        /* \"contracts/OurSuperToken.sol\":1245:1279  _approve(account, spender, amount) */\n      jump\t// in\n    tag_102:\n        /* \"contracts/OurSuperToken.sol\":1161:1286  function approve(address account,address spender,uint256 amount) external {... */\n      pop\n      pop\n      pop\n      jump\t// out\n        /* \"@openzeppelin/contracts/access/Ownable.sol\":2081:2279  function transferOwnership(address newOwner) public virtual onlyOwner {... */\n    tag_62:\n        /* \"@openzeppelin/contracts/access/Ownable.sol\":1094:1107  _checkOwner() */\n      tag_105\n        /* \"@openzeppelin/contracts/access/Ownable.sol\":1094:1105  _checkOwner */\n      tag_87\n        /* \"@openzeppelin/contracts/access/Ownable.sol\":1094:1107  _checkOwner() */\n      jump\t// in\n    tag_105:\n        /* \"@openzeppelin/contracts/access/Ownable.sol\":2189:2190  0 */\n      0x00\n        /* \"@openzeppelin/contracts/access/Ownable.sol\":2169:2191  newOwner != address(0) */\n      0xffffffffffffffffffffffffffffffffffffffff\n      and\n        /* \"@openzeppelin/contracts/access/Ownable.sol\":2169:2177  newOwner */\n      dup2\n        /* \"@openzeppelin/contracts/access/Ownable.sol\":2169:2191  newOwner != address(0) */\n      0xffffffffffffffffffffffffffffffffffffffff\n      and\n      sub\n        /* \"@openzeppelin/contracts/access/Ownable.sol\":2161:2234  require(newOwner != address(0), \"Ownable: new owner is the zero address\") */\n      tag_107\n      jumpi\n      mload(0x40)\n      0x08c379a000000000000000000000000000000000000000000000000000000000\n      dup2\n      mstore\n      0x04\n      add\n      tag_108\n      swap1\n      tag_109\n      jump\t// in\n    tag_108:\n      mload(0x40)\n      dup1\n      swap2\n      sub\n      swap1\n      revert\n    tag_107:\n        /* \"@openzeppelin/contracts/access/Ownable.sol\":2244:2272  _transferOwnership(newOwner) */\n      tag_110\n        /* \"@openzeppelin/contracts/access/Ownable.sol\":2263:2271  newOwner */\n      dup2\n        /* \"@openzeppelin/contracts/access/Ownable.sol\":2244:2262  _transferOwnership */\n      tag_90\n        /* \"@openzeppelin/contracts/access/Ownable.sol\":2244:2272  _transferOwnership(newOwner) */\n      jump\t// in\n    tag_110:\n        /* \"@openzeppelin/contracts/access/Ownable.sol\":2081:2279  function transferOwnership(address newOwner) public virtual onlyOwner {... */\n      pop\n      jump\t// out\n        /* \"contracts/OurSuperToken.sol\":1458:1570  function burn(uint256 amount, bytes memory userData) external {... */\n    tag_67:\n        /* \"contracts/OurSuperToken.sol\":1530:1563  _burn(msg.sender,amount,userData) */\n      tag_112\n        /* \"contracts/OurSuperToken.sol\":1536:1546  msg.sender */\n      caller\n        /* \"contracts/OurSuperToken.sol\":1547:1553  amount */\n      dup4\n        /* \"contracts/OurSuperToken.sol\":1554:1562  userData */\n      dup4\n        /* \"contracts/OurSuperToken.sol\":1530:1535  _burn */\n      tag_113\n        /* \"contracts/OurSuperToken.sol\":1530:1563  _burn(msg.sender,amount,userData) */\n      jump\t// in\n    tag_112:\n        /* \"contracts/OurSuperToken.sol\":1458:1570  function burn(uint256 amount, bytes memory userData) external {... */\n      pop\n      pop\n      jump\t// out\n        /* \"@openzeppelin/contracts/proxy/Proxy.sol\":3198:3244  function _beforeFallback() internal virtual {} */\n    tag_70:\n      jump\t// out\n        /* \"contracts/base/UUPSProxy.sol\":1395:1547  function _implementation()... */\n    tag_73:\n        /* \"contracts/base/UUPSProxy.sol\":1472:1484  address impl */\n      0x00\n        /* \"contracts/base/UUPSProxy.sol\":1519:1539  _IMPLEMENTATION_SLOT */\n      0x360894a13ba1a3210667c828492db98dca3e2076cc3735a920a3ca505d382bbc\n        /* \"contracts/base/UUPSProxy.sol\":1513:1540  sload(_IMPLEMENTATION_SLOT) */\n      sload\n        /* \"contracts/base/UUPSProxy.sol\":1505:1540  impl := sload(_IMPLEMENTATION_SLOT) */\n      swap1\n      pop\n        /* \"contracts/base/UUPSProxy.sol\":1395:1547  function _implementation()... */\n      swap1\n      jump\t// out\n        /* \"@openzeppelin/contracts/proxy/Proxy.sol\":948:1843  function _delegate(address implementation) internal virtual {... */\n    tag_74:\n        /* \"@openzeppelin/contracts/proxy/Proxy.sol\":1286:1300  calldatasize() */\n      calldatasize\n        /* \"@openzeppelin/contracts/proxy/Proxy.sol\":1283:1284  0 */\n      0x00\n        /* \"@openzeppelin/contracts/proxy/Proxy.sol\":1280:1281  0 */\n      dup1\n        /* \"@openzeppelin/contracts/proxy/Proxy.sol\":1267:1301  calldatacopy(0, 0, calldatasize()) */\n      calldatacopy\n        /* \"@openzeppelin/contracts/proxy/Proxy.sol\":1500:1501  0 */\n      0x00\n        /* \"@openzeppelin/contracts/proxy/Proxy.sol\":1497:1498  0 */\n      dup1\n        /* \"@openzeppelin/contracts/proxy/Proxy.sol\":1481:1495  calldatasize() */\n      calldatasize\n        /* \"@openzeppelin/contracts/proxy/Proxy.sol\":1478:1479  0 */\n      0x00\n        /* \"@openzeppelin/contracts/proxy/Proxy.sol\":1462:1476  implementation */\n      dup5\n        /* \"@openzeppelin/contracts/proxy/Proxy.sol\":1455:1460  gas() */\n      gas\n        /* \"@openzeppelin/contracts/proxy/Proxy.sol\":1442:1502  delegatecall(gas(), implementation, 0, calldatasize(), 0, 0) */\n      delegatecall\n        /* \"@openzeppelin/contracts/proxy/Proxy.sol\":1576:1592  returndatasize() */\n      returndatasize\n        /* \"@openzeppelin/contracts/proxy/Proxy.sol\":1573:1574  0 */\n      0x00\n        /* \"@openzeppelin/contracts/proxy/Proxy.sol\":1570:1571  0 */\n      dup1\n        /* \"@openzeppelin/contracts/proxy/Proxy.sol\":1555:1593  returndatacopy(0, 0, returndatasize()) */\n      returndatacopy\n        /* \"@openzeppelin/contracts/proxy/Proxy.sol\":1614:1620  result */\n      dup1\n        /* \"@openzeppelin/contracts/proxy/Proxy.sol\":1686:1687  0 */\n      0x00\n        /* \"@openzeppelin/contracts/proxy/Proxy.sol\":1681:1747  case 0 {... */\n      dup2\n      eq\n      tag_118\n      jumpi\n        /* \"@openzeppelin/contracts/proxy/Proxy.sol\":1796:1812  returndatasize() */\n      returndatasize\n        /* \"@openzeppelin/contracts/proxy/Proxy.sol\":1793:1794  0 */\n      0x00\n        /* \"@openzeppelin/contracts/proxy/Proxy.sol\":1786:1813  return(0, returndatasize()) */\n      return\n        /* \"@openzeppelin/contracts/proxy/Proxy.sol\":1681:1747  case 0 {... */\n    tag_118:\n        /* \"@openzeppelin/contracts/proxy/Proxy.sol\":1716:1732  returndatasize() */\n      returndatasize\n        /* \"@openzeppelin/contracts/proxy/Proxy.sol\":1713:1714  0 */\n      0x00\n        /* \"@openzeppelin/contracts/proxy/Proxy.sol\":1706:1733  revert(0, returndatasize()) */\n      revert\n        /* \"contracts/base/SuperTokenBase.sol\":2858:3056  function _transferFrom(... */\n    tag_77:\n        /* \"contracts/base/SuperTokenBase.sol\":2993:2997  this */\n      address\n        /* \"contracts/base/SuperTokenBase.sol\":2973:3016  ISuperToken(address(this)).selfTransferFrom */\n      0xffffffffffffffffffffffffffffffffffffffff\n      and\n      0x41b706be\n        /* \"contracts/base/SuperTokenBase.sol\":3017:3023  holder */\n      dup6\n        /* \"contracts/base/SuperTokenBase.sol\":3025:3032  spender */\n      dup6\n        /* \"contracts/base/SuperTokenBase.sol\":3034:3043  recipient */\n      dup6\n        /* \"contracts/base/SuperTokenBase.sol\":3045:3051  amount */\n      dup6\n        /* \"contracts/base/SuperTokenBase.sol\":2973:3052  ISuperToken(address(this)).selfTransferFrom(holder, spender, recipient, amount) */\n      mload(0x40)\n      dup6\n      0xffffffff\n      and\n      0xe0\n      shl\n      dup2\n      mstore\n      0x04\n      add\n      tag_120\n      swap5\n      swap4\n      swap3\n      swap2\n      swap1\n      tag_121\n      jump\t// in\n    tag_120:\n      0x00\n      mload(0x40)\n      dup1\n      dup4\n      sub\n      dup2\n      0x00\n      dup8\n      dup1\n      extcodesize\n      iszero\n      dup1\n      iszero\n      tag_122\n      jumpi\n      0x00\n      dup1\n      revert\n    tag_122:\n      pop\n      gas\n      call\n      iszero\n      dup1\n      iszero\n      tag_124\n      jumpi\n      returndatasize\n      0x00\n      dup1\n      returndatacopy\n      revert(0x00, returndatasize)\n    tag_124:\n      pop\n      pop\n      pop\n      pop\n        /* \"contracts/base/SuperTokenBase.sol\":2858:3056  function _transferFrom(... */\n      pop\n      pop\n      pop\n      pop\n      jump\t// out\n        /* \"contracts/base/SuperTokenBase.sol\":1324:1437  function _totalSupply() internal view returns (uint256 t) {... */\n    tag_80:\n        /* \"contracts/base/SuperTokenBase.sol\":1371:1380  uint256 t */\n      0x00\n        /* \"contracts/base/SuperTokenBase.sol\":1413:1417  this */\n      address\n        /* \"contracts/base/SuperTokenBase.sol\":1393:1431  ISuperToken(address(this)).totalSupply */\n      0xffffffffffffffffffffffffffffffffffffffff\n      and\n      0x18160ddd\n        /* \"contracts/base/SuperTokenBase.sol\":1393:1433  ISuperToken(address(this)).totalSupply() */\n      mload(0x40)\n      dup2\n      0xffffffff\n      and\n      0xe0\n      shl\n      dup2\n      mstore\n      0x04\n      add\n      0x20\n      mload(0x40)\n      dup1\n      dup4\n      sub\n      dup2\n      dup7\n      gas\n      staticcall\n      iszero\n      dup1\n      iszero\n      tag_127\n      jumpi\n      returndatasize\n      0x00\n      dup1\n      returndatacopy\n      revert(0x00, returndatasize)\n    tag_127:\n      pop\n      pop\n      pop\n      pop\n      mload(0x40)\n      returndatasize\n      not(0x1f)\n      0x1f\n      dup3\n      add\n      and\n      dup3\n      add\n      dup1\n      0x40\n      mstore\n      pop\n      dup2\n      add\n      swap1\n      tag_128\n      swap2\n      swap1\n      tag_129\n      jump\t// in\n    tag_128:\n        /* \"contracts/base/SuperTokenBase.sol\":1386:1433  return ISuperToken(address(this)).totalSupply() */\n      swap1\n      pop\n        /* \"contracts/base/SuperTokenBase.sol\":1324:1437  function _totalSupply() internal view returns (uint256 t) {... */\n      swap1\n      jump\t// out\n        /* \"@openzeppelin/contracts/access/Ownable.sol\":1359:1489  function _checkOwner() internal view virtual {... */\n    tag_87:\n        /* \"@openzeppelin/contracts/access/Ownable.sol\":1433:1445  _msgSender() */\n      tag_131\n        /* \"@openzeppelin/contracts/access/Ownable.sol\":1433:1443  _msgSender */\n      tag_132\n        /* \"@openzeppelin/contracts/access/Ownable.sol\":1433:1445  _msgSender() */\n      jump\t// in\n    tag_131:\n        /* \"@openzeppelin/contracts/access/Ownable.sol\":1422:1445  owner() == _msgSender() */\n      0xffffffffffffffffffffffffffffffffffffffff\n      and\n        /* \"@openzeppelin/contracts/access/Ownable.sol\":1422:1429  owner() */\n      tag_133\n        /* \"@openzeppelin/contracts/access/Ownable.sol\":1422:1427  owner */\n      tag_41\n        /* \"@openzeppelin/contracts/access/Ownable.sol\":1422:1429  owner() */\n      jump\t// in\n    tag_133:\n        /* \"@openzeppelin/contracts/access/Ownable.sol\":1422:1445  owner() == _msgSender() */\n      0xffffffffffffffffffffffffffffffffffffffff\n      and\n      eq\n        /* \"@openzeppelin/contracts/access/Ownable.sol\":1414:1482  require(owner() == _msgSender(), \"Ownable: caller is not the owner\") */\n      tag_134\n      jumpi\n      mload(0x40)\n      0x08c379a000000000000000000000000000000000000000000000000000000000\n      dup2\n      mstore\n      0x04\n      add\n      tag_135\n      swap1\n      tag_136\n      jump\t// in\n    tag_135:\n      mload(0x40)\n      dup1\n      swap2\n      sub\n      swap1\n      revert\n    tag_134:\n        /* \"@openzeppelin/contracts/access/Ownable.sol\":1359:1489  function _checkOwner() internal view virtual {... */\n      jump\t// out\n        /* \"@openzeppelin/contracts/access/Ownable.sol\":2433:2620  function _transferOwnership(address newOwner) internal virtual {... */\n    tag_90:\n        /* \"@openzeppelin/contracts/access/Ownable.sol\":2506:2522  address oldOwner */\n      0x00\n        /* \"@openzeppelin/contracts/access/Ownable.sol\":2525:2531  _owner */\n      0x20\n      0x00\n      swap1\n      sload\n      swap1\n      0x0100\n      exp\n      swap1\n      div\n      0xffffffffffffffffffffffffffffffffffffffff\n      and\n        /* \"@openzeppelin/contracts/access/Ownable.sol\":2506:2531  address oldOwner = _owner */\n      swap1\n      pop\n        /* \"@openzeppelin/contracts/access/Ownable.sol\":2550:2558  newOwner */\n      dup2\n        /* \"@openzeppelin/contracts/access/Ownable.sol\":2541:2547  _owner */\n      0x20\n      0x00\n        /* \"@openzeppelin/contracts/access/Ownable.sol\":2541:2558  _owner = newOwner */\n      0x0100\n      exp\n      dup2\n      sload\n      dup2\n      0xffffffffffffffffffffffffffffffffffffffff\n      mul\n      not\n      and\n      swap1\n      dup4\n      0xffffffffffffffffffffffffffffffffffffffff\n      and\n      mul\n      or\n      swap1\n      sstore\n      pop\n        /* \"@openzeppelin/contracts/access/Ownable.sol\":2604:2612  newOwner */\n      dup2\n        /* \"@openzeppelin/contracts/access/Ownable.sol\":2573:2613  OwnershipTransferred(oldOwner, newOwner) */\n      0xffffffffffffffffffffffffffffffffffffffff\n      and\n        /* \"@openzeppelin/contracts/access/Ownable.sol\":2594:2602  oldOwner */\n      dup2\n        /* \"@openzeppelin/contracts/access/Ownable.sol\":2573:2613  OwnershipTransferred(oldOwner, newOwner) */\n      0xffffffffffffffffffffffffffffffffffffffff\n      and\n      0x8be0079c531659141344cd1fd0a4f28419497f9722a3daafe3b4186f6b6457e0\n      mload(0x40)\n      mload(0x40)\n      dup1\n      swap2\n      sub\n      swap1\n      log3\n        /* \"@openzeppelin/contracts/access/Ownable.sol\":2496:2620  {... */\n      pop\n        /* \"@openzeppelin/contracts/access/Ownable.sol\":2433:2620  function _transferOwnership(address newOwner) internal virtual {... */\n      pop\n      jump\t// out\n        /* \"contracts/base/SuperTokenBase.sol\":1676:1826  function _mint(address account, uint256 amount, bytes memory userData) internal {... */\n    tag_96:\n        /* \"contracts/base/SuperTokenBase.sol\":1780:1784  this */\n      address\n        /* \"contracts/base/SuperTokenBase.sol\":1760:1795  ISuperToken(address(this)).selfMint */\n      0xffffffffffffffffffffffffffffffffffffffff\n      and\n      0xc68d4283\n        /* \"contracts/base/SuperTokenBase.sol\":1796:1803  account */\n      dup5\n        /* \"contracts/base/SuperTokenBase.sol\":1805:1811  amount */\n      dup5\n        /* \"contracts/base/SuperTokenBase.sol\":1813:1821  userData */\n      dup5\n        /* \"contracts/base/SuperTokenBase.sol\":1760:1822  ISuperToken(address(this)).selfMint(account, amount, userData) */\n      mload(0x40)\n      dup5\n      0xffffffff\n      and\n      0xe0\n      shl\n      dup2\n      mstore\n      0x04\n      add\n      tag_139\n      swap4\n      swap3\n      swap2\n      swap1\n      tag_140\n      jump\t// in\n    tag_139:\n      0x00\n      mload(0x40)\n      dup1\n      dup4\n      sub\n      dup2\n      0x00\n      dup8\n      dup1\n      extcodesize\n      iszero\n      dup1\n      iszero\n      tag_141\n      jumpi\n      0x00\n      dup1\n      revert\n    tag_141:\n      pop\n      gas\n      call\n      iszero\n      dup1\n      iszero\n      tag_143\n      jumpi\n      returndatasize\n      0x00\n      dup1\n      returndatacopy\n      revert(0x00, returndatasize)\n    tag_143:\n      pop\n      pop\n      pop\n      pop\n        /* \"contracts/base/SuperTokenBase.sol\":1676:1826  function _mint(address account, uint256 amount, bytes memory userData) internal {... */\n      pop\n      pop\n      pop\n      jump\t// out\n        /* \"contracts/base/SuperTokenBase.sol\":1021:1266  function _initialize(address factory, string memory name, string memory symbol) internal {... */\n    tag_99:\n        /* \"contracts/base/SuperTokenBase.sol\":1133:1140  factory */\n      dup3\n        /* \"contracts/base/SuperTokenBase.sol\":1114:1168  ISuperTokenFactory(factory).initializeCustomSuperToken */\n      0xffffffffffffffffffffffffffffffffffffffff\n      and\n      0xd412d344\n        /* \"contracts/base/SuperTokenBase.sol\":1177:1181  this */\n      address\n        /* \"contracts/base/SuperTokenBase.sol\":1114:1183  ISuperTokenFactory(factory).initializeCustomSuperToken(address(this)) */\n      mload(0x40)\n      dup3\n      0xffffffff\n      and\n      0xe0\n      shl\n      dup2\n      mstore\n      0x04\n      add\n      tag_145\n      swap2\n      swap1\n      tag_43\n      jump\t// in\n    tag_145:\n      0x00\n      mload(0x40)\n      dup1\n      dup4\n      sub\n      dup2\n      0x00\n      dup8\n      dup1\n      extcodesize\n      iszero\n      dup1\n      iszero\n      tag_146\n      jumpi\n      0x00\n      dup1\n      revert\n    tag_146:\n      pop\n      gas\n      call\n      iszero\n      dup1\n      iszero\n      tag_148\n      jumpi\n      returndatasize\n      0x00\n      dup1\n      returndatacopy\n      revert(0x00, returndatasize)\n    tag_148:\n      pop\n      pop\n      pop\n      pop\n        /* \"contracts/base/SuperTokenBase.sol\":1207:1211  this */\n      address\n        /* \"contracts/base/SuperTokenBase.sol\":1187:1224  ISuperToken(address(this)).initialize */\n      0xffffffffffffffffffffffffffffffffffffffff\n      and\n      0x42fe0980\n        /* \"contracts/base/SuperTokenBase.sol\":1240:1241  0 */\n      0x00\n        /* \"contracts/base/SuperTokenBase.sol\":1245:1247  18 */\n      0x12\n        /* \"contracts/base/SuperTokenBase.sol\":1249:1253  name */\n      dup6\n        /* \"contracts/base/SuperTokenBase.sol\":1255:1261  symbol */\n      dup6\n        /* \"contracts/base/SuperTokenBase.sol\":1187:1262  ISuperToken(address(this)).initialize(IERC20(address(0)), 18, name, symbol) */\n      mload(0x40)\n      dup6\n      0xffffffff\n      and\n      0xe0\n      shl\n      dup2\n      mstore\n      0x04\n      add\n      tag_149\n      swap5\n      swap4\n      swap3\n      swap2\n      swap1\n      tag_150\n      jump\t// in\n    tag_149:\n      0x00\n      mload(0x40)\n      dup1\n      dup4\n      sub\n      dup2\n      0x00\n      dup8\n      dup1\n      extcodesize\n      iszero\n      dup1\n      iszero\n      tag_151\n      jumpi\n      0x00\n      dup1\n      revert\n    tag_151:\n      pop\n      gas\n      call\n      iszero\n      dup1\n      iszero\n      tag_153\n      jumpi\n      returndatasize\n      0x00\n      dup1\n      returndatacopy\n      revert(0x00, returndatasize)\n    tag_153:\n      pop\n      pop\n      pop\n      pop\n        /* \"contracts/base/SuperTokenBase.sol\":1021:1266  function _initialize(address factory, string memory name, string memory symbol) internal {... */\n      pop\n      pop\n      pop\n      jump\t// out\n        /* \"contracts/base/SuperTokenBase.sol\":2409:2561  function _approve(address account, address spender, uint256 amount) internal {... */\n    tag_103:\n        /* \"contracts/base/SuperTokenBase.sol\":2510:2514  this */\n      address\n        /* \"contracts/base/SuperTokenBase.sol\":2490:2531  ISuperToken(address(this)).selfApproveFor */\n      0xffffffffffffffffffffffffffffffffffffffff\n      and\n      0x66a12fb6\n        /* \"contracts/base/SuperTokenBase.sol\":2532:2539  account */\n      dup5\n        /* \"contracts/base/SuperTokenBase.sol\":2541:2548  spender */\n      dup5\n        /* \"contracts/base/SuperTokenBase.sol\":2550:2556  amount */\n      dup5\n        /* \"contracts/base/SuperTokenBase.sol\":2490:2557  ISuperToken(address(this)).selfApproveFor(account, spender, amount) */\n      mload(0x40)\n      dup5\n      0xffffffff\n      and\n      0xe0\n      shl\n      dup2\n      mstore\n      0x04\n      add\n      tag_155\n      swap4\n      swap3\n      swap2\n      swap1\n      tag_156\n      jump\t// in\n    tag_155:\n      0x00\n      mload(0x40)\n      dup1\n      dup4\n      sub\n      dup2\n      0x00\n      dup8\n      dup1\n      extcodesize\n      iszero\n      dup1\n      iszero\n      tag_157\n      jumpi\n      0x00\n      dup1\n      revert\n    tag_157:\n      pop\n      gas\n      call\n      iszero\n      dup1\n      iszero\n      tag_159\n      jumpi\n      returndatasize\n      0x00\n      dup1\n      returndatacopy\n      revert(0x00, returndatasize)\n    tag_159:\n      pop\n      pop\n      pop\n      pop\n        /* \"contracts/base/SuperTokenBase.sol\":2409:2561  function _approve(address account, address spender, uint256 amount) internal {... */\n      pop\n      pop\n      pop\n      jump\t// out\n        /* \"contracts/base/SuperTokenBase.sol\":2055:2199  function _burn(address from, uint256 amount, bytes memory userData) internal {... */\n    tag_113:\n        /* \"contracts/base/SuperTokenBase.sol\":2156:2160  this */\n      address\n        /* \"contracts/base/SuperTokenBase.sol\":2136:2171  ISuperToken(address(this)).selfBurn */\n      0xffffffffffffffffffffffffffffffffffffffff\n      and\n      0x9d876741\n        /* \"contracts/base/SuperTokenBase.sol\":2172:2176  from */\n      dup5\n        /* \"contracts/base/SuperTokenBase.sol\":2178:2184  amount */\n      dup5\n        /* \"contracts/base/SuperTokenBase.sol\":2186:2194  userData */\n      dup5\n        /* \"contracts/base/SuperTokenBase.sol\":2136:2195  ISuperToken(address(this)).selfBurn(from, amount, userData) */\n      mload(0x40)\n      dup5\n      0xffffffff\n      and\n      0xe0\n      shl\n      dup2\n      mstore\n      0x04\n      add\n      tag_161\n      swap4\n      swap3\n      swap2\n      swap1\n      tag_140\n      jump\t// in\n    tag_161:\n      0x00\n      mload(0x40)\n      dup1\n      dup4\n      sub\n      dup2\n      0x00\n      dup8\n      dup1\n      extcodesize\n      iszero\n      dup1\n      iszero\n      tag_162\n      jumpi\n      0x00\n      dup1\n      revert\n    tag_162:\n      pop\n      gas\n      call\n      iszero\n      dup1\n      iszero\n      tag_164\n      jumpi\n      returndatasize\n      0x00\n      dup1\n      returndatacopy\n      revert(0x00, returndatasize)\n    tag_164:\n      pop\n      pop\n      pop\n      pop\n        /* \"contracts/base/SuperTokenBase.sol\":2055:2199  function _burn(address from, uint256 amount, bytes memory userData) internal {... */\n      pop\n      pop\n      pop\n      jump\t// out\n        /* \"@openzeppelin/contracts/utils/Context.sol\":640:736  function _msgSender() internal view virtual returns (address) {... */\n    tag_132:\n        /* \"@openzeppelin/contracts/utils/Context.sol\":693:700  address */\n      0x00\n        /* \"@openzeppelin/contracts/utils/Context.sol\":719:729  msg.sender */\n      caller\n        /* \"@openzeppelin/contracts/utils/Context.sol\":712:729  return msg.sender */\n      swap1\n      pop\n        /* \"@openzeppelin/contracts/utils/Context.sol\":640:736  function _msgSender() internal view virtual returns (address) {... */\n      swap1\n      jump\t// out\n        /* \"#utility.yul\":7:82   */\n    tag_166:\n        /* \"#utility.yul\":40:46   */\n      0x00\n        /* \"#utility.yul\":73:75   */\n      0x40\n        /* \"#utility.yul\":67:76   */\n      mload\n        /* \"#utility.yul\":57:76   */\n      swap1\n      pop\n        /* \"#utility.yul\":7:82   */\n      swap1\n      jump\t// out\n        /* \"#utility.yul\":88:205   */\n    tag_167:\n        /* \"#utility.yul\":197:198   */\n      0x00\n        /* \"#utility.yul\":194:195   */\n      dup1\n        /* \"#utility.yul\":187:199   */\n      revert\n        /* \"#utility.yul\":211:328   */\n    tag_168:\n        /* \"#utility.yul\":320:321   */\n      0x00\n        /* \"#utility.yul\":317:318   */\n      dup1\n        /* \"#utility.yul\":310:322   */\n      revert\n        /* \"#utility.yul\":334:460   */\n    tag_169:\n        /* \"#utility.yul\":371:378   */\n      0x00\n        /* \"#utility.yul\":411:453   */\n      0xffffffffffffffffffffffffffffffffffffffff\n        /* \"#utility.yul\":404:409   */\n      dup3\n        /* \"#utility.yul\":400:454   */\n      and\n        /* \"#utility.yul\":389:454   */\n      swap1\n      pop\n        /* \"#utility.yul\":334:460   */\n      swap2\n      swap1\n      pop\n      jump\t// out\n        /* \"#utility.yul\":466:562   */\n    tag_170:\n        /* \"#utility.yul\":503:510   */\n      0x00\n        /* \"#utility.yul\":532:556   */\n      tag_218\n        /* \"#utility.yul\":550:555   */\n      dup3\n        /* \"#utility.yul\":532:556   */\n      tag_169\n      jump\t// in\n    tag_218:\n        /* \"#utility.yul\":521:556   */\n      swap1\n      pop\n        /* \"#utility.yul\":466:562   */\n      swap2\n      swap1\n      pop\n      jump\t// out\n        /* \"#utility.yul\":568:690   */\n    tag_171:\n        /* \"#utility.yul\":641:665   */\n      tag_220\n        /* \"#utility.yul\":659:664   */\n      dup2\n        /* \"#utility.yul\":641:665   */\n      tag_170\n      jump\t// in\n    tag_220:\n        /* \"#utility.yul\":634:639   */\n      dup2\n        /* \"#utility.yul\":631:666   */\n      eq\n        /* \"#utility.yul\":621:684   */\n      tag_221\n      jumpi\n        /* \"#utility.yul\":680:681   */\n      0x00\n        /* \"#utility.yul\":677:678   */\n      dup1\n        /* \"#utility.yul\":670:682   */\n      revert\n        /* \"#utility.yul\":621:684   */\n    tag_221:\n        /* \"#utility.yul\":568:690   */\n      pop\n      jump\t// out\n        /* \"#utility.yul\":696:835   */\n    tag_172:\n        /* \"#utility.yul\":742:747   */\n      0x00\n        /* \"#utility.yul\":780:786   */\n      dup2\n        /* \"#utility.yul\":767:787   */\n      calldataload\n        /* \"#utility.yul\":758:787   */\n      swap1\n      pop\n        /* \"#utility.yul\":796:829   */\n      tag_223\n        /* \"#utility.yul\":823:828   */\n      dup2\n        /* \"#utility.yul\":796:829   */\n      tag_171\n      jump\t// in\n    tag_223:\n        /* \"#utility.yul\":696:835   */\n      swap3\n      swap2\n      pop\n      pop\n      jump\t// out\n        /* \"#utility.yul\":841:918   */\n    tag_173:\n        /* \"#utility.yul\":878:885   */\n      0x00\n        /* \"#utility.yul\":907:912   */\n      dup2\n        /* \"#utility.yul\":896:912   */\n      swap1\n      pop\n        /* \"#utility.yul\":841:918   */\n      swap2\n      swap1\n      pop\n      jump\t// out\n        /* \"#utility.yul\":924:1046   */\n    tag_174:\n        /* \"#utility.yul\":997:1021   */\n      tag_226\n        /* \"#utility.yul\":1015:1020   */\n      dup2\n        /* \"#utility.yul\":997:1021   */\n      tag_173\n      jump\t// in\n    tag_226:\n        /* \"#utility.yul\":990:995   */\n      dup2\n        /* \"#utility.yul\":987:1022   */\n      eq\n        /* \"#utility.yul\":977:1040   */\n      tag_227\n      jumpi\n        /* \"#utility.yul\":1036:1037   */\n      0x00\n        /* \"#utility.yul\":1033:1034   */\n      dup1\n        /* \"#utility.yul\":1026:1038   */\n      revert\n        /* \"#utility.yul\":977:1040   */\n    tag_227:\n        /* \"#utility.yul\":924:1046   */\n      pop\n      jump\t// out\n        /* \"#utility.yul\":1052:1191   */\n    tag_175:\n        /* \"#utility.yul\":1098:1103   */\n      0x00\n        /* \"#utility.yul\":1136:1142   */\n      dup2\n        /* \"#utility.yul\":1123:1143   */\n      calldataload\n        /* \"#utility.yul\":1114:1143   */\n      swap1\n      pop\n        /* \"#utility.yul\":1152:1185   */\n      tag_229\n        /* \"#utility.yul\":1179:1184   */\n      dup2\n        /* \"#utility.yul\":1152:1185   */\n      tag_174\n      jump\t// in\n    tag_229:\n        /* \"#utility.yul\":1052:1191   */\n      swap3\n      swap2\n      pop\n      pop\n      jump\t// out\n        /* \"#utility.yul\":1197:1962   */\n    tag_24:\n        /* \"#utility.yul\":1283:1289   */\n      0x00\n        /* \"#utility.yul\":1291:1297   */\n      dup1\n        /* \"#utility.yul\":1299:1305   */\n      0x00\n        /* \"#utility.yul\":1307:1313   */\n      dup1\n        /* \"#utility.yul\":1356:1359   */\n      0x80\n        /* \"#utility.yul\":1344:1353   */\n      dup6\n        /* \"#utility.yul\":1335:1342   */\n      dup8\n        /* \"#utility.yul\":1331:1354   */\n      sub\n        /* \"#utility.yul\":1327:1360   */\n      slt\n        /* \"#utility.yul\":1324:1444   */\n      iszero\n      tag_231\n      jumpi\n        /* \"#utility.yul\":1363:1442   */\n      tag_232\n      tag_167\n      jump\t// in\n    tag_232:\n        /* \"#utility.yul\":1324:1444   */\n    tag_231:\n        /* \"#utility.yul\":1483:1484   */\n      0x00\n        /* \"#utility.yul\":1508:1561   */\n      tag_233\n        /* \"#utility.yul\":1553:1560   */\n      dup8\n        /* \"#utility.yul\":1544:1550   */\n      dup3\n        /* \"#utility.yul\":1533:1542   */\n      dup9\n        /* \"#utility.yul\":1529:1551   */\n      add\n        /* \"#utility.yul\":1508:1561   */\n      tag_172\n      jump\t// in\n    tag_233:\n        /* \"#utility.yul\":1498:1561   */\n      swap5\n      pop\n        /* \"#utility.yul\":1454:1571   */\n      pop\n        /* \"#utility.yul\":1610:1612   */\n      0x20\n        /* \"#utility.yul\":1636:1689   */\n      tag_234\n        /* \"#utility.yul\":1681:1688   */\n      dup8\n        /* \"#utility.yul\":1672:1678   */\n      dup3\n        /* \"#utility.yul\":1661:1670   */\n      dup9\n        /* \"#utility.yul\":1657:1679   */\n      add\n        /* \"#utility.yul\":1636:1689   */\n      tag_172\n      jump\t// in\n    tag_234:\n        /* \"#utility.yul\":1626:1689   */\n      swap4\n      pop\n        /* \"#utility.yul\":1581:1699   */\n      pop\n        /* \"#utility.yul\":1738:1740   */\n      0x40\n        /* \"#utility.yul\":1764:1817   */\n      tag_235\n        /* \"#utility.yul\":1809:1816   */\n      dup8\n        /* \"#utility.yul\":1800:1806   */\n      dup3\n        /* \"#utility.yul\":1789:1798   */\n      dup9\n        /* \"#utility.yul\":1785:1807   */\n      add\n        /* \"#utility.yul\":1764:1817   */\n      tag_172\n      jump\t// in\n    tag_235:\n        /* \"#utility.yul\":1754:1817   */\n      swap3\n      pop\n        /* \"#utility.yul\":1709:1827   */\n      pop\n        /* \"#utility.yul\":1866:1868   */\n      0x60\n        /* \"#utility.yul\":1892:1945   */\n      tag_236\n        /* \"#utility.yul\":1937:1944   */\n      dup8\n        /* \"#utility.yul\":1928:1934   */\n      dup3\n        /* \"#utility.yul\":1917:1926   */\n      dup9\n        /* \"#utility.yul\":1913:1935   */\n      add\n        /* \"#utility.yul\":1892:1945   */\n      tag_175\n      jump\t// in\n    tag_236:\n        /* \"#utility.yul\":1882:1945   */\n      swap2\n      pop\n        /* \"#utility.yul\":1837:1955   */\n      pop\n        /* \"#utility.yul\":1197:1962   */\n      swap3\n      swap6\n      swap2\n      swap5\n      pop\n      swap3\n      pop\n      jump\t// out\n        /* \"#utility.yul\":1968:2086   */\n    tag_176:\n        /* \"#utility.yul\":2055:2079   */\n      tag_238\n        /* \"#utility.yul\":2073:2078   */\n      dup2\n        /* \"#utility.yul\":2055:2079   */\n      tag_173\n      jump\t// in\n    tag_238:\n        /* \"#utility.yul\":2050:2053   */\n      dup3\n        /* \"#utility.yul\":2043:2080   */\n      mstore\n        /* \"#utility.yul\":1968:2086   */\n      pop\n      pop\n      jump\t// out\n        /* \"#utility.yul\":2092:2314   */\n    tag_30:\n        /* \"#utility.yul\":2185:2189   */\n      0x00\n        /* \"#utility.yul\":2223:2225   */\n      0x20\n        /* \"#utility.yul\":2212:2221   */\n      dup3\n        /* \"#utility.yul\":2208:2226   */\n      add\n        /* \"#utility.yul\":2200:2226   */\n      swap1\n      pop\n        /* \"#utility.yul\":2236:2307   */\n      tag_240\n        /* \"#utility.yul\":2304:2305   */\n      0x00\n        /* \"#utility.yul\":2293:2302   */\n      dup4\n        /* \"#utility.yul\":2289:2306   */\n      add\n        /* \"#utility.yul\":2280:2286   */\n      dup5\n        /* \"#utility.yul\":2236:2307   */\n      tag_176\n      jump\t// in\n    tag_240:\n        /* \"#utility.yul\":2092:2314   */\n      swap3\n      swap2\n      pop\n      pop\n      jump\t// out\n        /* \"#utility.yul\":2320:2649   */\n    tag_34:\n        /* \"#utility.yul\":2379:2385   */\n      0x00\n        /* \"#utility.yul\":2428:2430   */\n      0x20\n        /* \"#utility.yul\":2416:2425   */\n      dup3\n        /* \"#utility.yul\":2407:2414   */\n      dup5\n        /* \"#utility.yul\":2403:2426   */\n      sub\n        /* \"#utility.yul\":2399:2431   */\n      slt\n        /* \"#utility.yul\":2396:2515   */\n      iszero\n      tag_242\n      jumpi\n        /* \"#utility.yul\":2434:2513   */\n      tag_243\n      tag_167\n      jump\t// in\n    tag_243:\n        /* \"#utility.yul\":2396:2515   */\n    tag_242:\n        /* \"#utility.yul\":2554:2555   */\n      0x00\n        /* \"#utility.yul\":2579:2632   */\n      tag_244\n        /* \"#utility.yul\":2624:2631   */\n      dup5\n        /* \"#utility.yul\":2615:2621   */\n      dup3\n        /* \"#utility.yul\":2604:2613   */\n      dup6\n        /* \"#utility.yul\":2600:2622   */\n      add\n        /* \"#utility.yul\":2579:2632   */\n      tag_172\n      jump\t// in\n    tag_244:\n        /* \"#utility.yul\":2569:2632   */\n      swap2\n      pop\n        /* \"#utility.yul\":2525:2642   */\n      pop\n        /* \"#utility.yul\":2320:2649   */\n      swap3\n      swap2\n      pop\n      pop\n      jump\t// out\n        /* \"#utility.yul\":2655:2773   */\n    tag_177:\n        /* \"#utility.yul\":2742:2766   */\n      tag_246\n        /* \"#utility.yul\":2760:2765   */\n      dup2\n        /* \"#utility.yul\":2742:2766   */\n      tag_170\n      jump\t// in\n    tag_246:\n        /* \"#utility.yul\":2737:2740   */\n      dup3\n        /* \"#utility.yul\":2730:2767   */\n      mstore\n        /* \"#utility.yul\":2655:2773   */\n      pop\n      pop\n      jump\t// out\n        /* \"#utility.yul\":2779:3001   */\n    tag_43:\n        /* \"#utility.yul\":2872:2876   */\n      0x00\n        /* \"#utility.yul\":2910:2912   */\n      0x20\n        /* \"#utility.yul\":2899:2908   */\n      dup3\n        /* \"#utility.yul\":2895:2913   */\n      add\n        /* \"#utility.yul\":2887:2913   */\n      swap1\n      pop\n        /* \"#utility.yul\":2923:2994   */\n      tag_248\n        /* \"#utility.yul\":2991:2992   */\n      0x00\n        /* \"#utility.yul\":2980:2989   */\n      dup4\n        /* \"#utility.yul\":2976:2993   */\n      add\n        /* \"#utility.yul\":2967:2973   */\n      dup5\n        /* \"#utility.yul\":2923:2994   */\n      tag_177\n      jump\t// in\n    tag_248:\n        /* \"#utility.yul\":2779:3001   */\n      swap3\n      swap2\n      pop\n      pop\n      jump\t// out\n        /* \"#utility.yul\":3007:3124   */\n    tag_178:\n        /* \"#utility.yul\":3116:3117   */\n      0x00\n        /* \"#utility.yul\":3113:3114   */\n      dup1\n        /* \"#utility.yul\":3106:3118   */\n      revert\n        /* \"#utility.yul\":3130:3247   */\n    tag_179:\n        /* \"#utility.yul\":3239:3240   */\n      0x00\n        /* \"#utility.yul\":3236:3237   */\n      dup1\n        /* \"#utility.yul\":3229:3241   */\n      revert\n        /* \"#utility.yul\":3253:3355   */\n    tag_180:\n        /* \"#utility.yul\":3294:3300   */\n      0x00\n        /* \"#utility.yul\":3345:3347   */\n      0x1f\n        /* \"#utility.yul\":3341:3348   */\n      not\n        /* \"#utility.yul\":3336:3338   */\n      0x1f\n        /* \"#utility.yul\":3329:3334   */\n      dup4\n        /* \"#utility.yul\":3325:3339   */\n      add\n        /* \"#utility.yul\":3321:3349   */\n      and\n        /* \"#utility.yul\":3311:3349   */\n      swap1\n      pop\n        /* \"#utility.yul\":3253:3355   */\n      swap2\n      swap1\n      pop\n      jump\t// out\n        /* \"#utility.yul\":3361:3541   */\n    tag_181:\n        /* \"#utility.yul\":3409:3486   */\n      0x4e487b7100000000000000000000000000000000000000000000000000000000\n        /* \"#utility.yul\":3406:3407   */\n      0x00\n        /* \"#utility.yul\":3399:3487   */\n      mstore\n        /* \"#utility.yul\":3506:3510   */\n      0x41\n        /* \"#utility.yul\":3503:3504   */\n      0x04\n        /* \"#utility.yul\":3496:3511   */\n      mstore\n        /* \"#utility.yul\":3530:3534   */\n      0x24\n        /* \"#utility.yul\":3527:3528   */\n      0x00\n        /* \"#utility.yul\":3520:3535   */\n      revert\n        /* \"#utility.yul\":3547:3828   */\n    tag_182:\n        /* \"#utility.yul\":3630:3657   */\n      tag_254\n        /* \"#utility.yul\":3652:3656   */\n      dup3\n        /* \"#utility.yul\":3630:3657   */\n      tag_180\n      jump\t// in\n    tag_254:\n        /* \"#utility.yul\":3622:3628   */\n      dup2\n        /* \"#utility.yul\":3618:3658   */\n      add\n        /* \"#utility.yul\":3760:3766   */\n      dup2\n        /* \"#utility.yul\":3748:3758   */\n      dup2\n        /* \"#utility.yul\":3745:3767   */\n      lt\n        /* \"#utility.yul\":3724:3742   */\n      0xffffffffffffffff\n        /* \"#utility.yul\":3712:3722   */\n      dup3\n        /* \"#utility.yul\":3709:3743   */\n      gt\n        /* \"#utility.yul\":3706:3768   */\n      or\n        /* \"#utility.yul\":3703:3791   */\n      iszero\n      tag_255\n      jumpi\n        /* \"#utility.yul\":3771:3789   */\n      tag_256\n      tag_181\n      jump\t// in\n    tag_256:\n        /* \"#utility.yul\":3703:3791   */\n    tag_255:\n        /* \"#utility.yul\":3811:3821   */\n      dup1\n        /* \"#utility.yul\":3807:3809   */\n      0x40\n        /* \"#utility.yul\":3800:3822   */\n      mstore\n        /* \"#utility.yul\":3590:3828   */\n      pop\n        /* \"#utility.yul\":3547:3828   */\n      pop\n      pop\n      jump\t// out\n        /* \"#utility.yul\":3834:3963   */\n    tag_183:\n        /* \"#utility.yul\":3868:3874   */\n      0x00\n        /* \"#utility.yul\":3895:3915   */\n      tag_258\n      tag_166\n      jump\t// in\n    tag_258:\n        /* \"#utility.yul\":3885:3915   */\n      swap1\n      pop\n        /* \"#utility.yul\":3924:3957   */\n      tag_259\n        /* \"#utility.yul\":3952:3956   */\n      dup3\n        /* \"#utility.yul\":3944:3950   */\n      dup3\n        /* \"#utility.yul\":3924:3957   */\n      tag_182\n      jump\t// in\n    tag_259:\n        /* \"#utility.yul\":3834:3963   */\n      swap2\n      swap1\n      pop\n      jump\t// out\n        /* \"#utility.yul\":3969:4276   */\n    tag_184:\n        /* \"#utility.yul\":4030:4034   */\n      0x00\n        /* \"#utility.yul\":4120:4138   */\n      0xffffffffffffffff\n        /* \"#utility.yul\":4112:4118   */\n      dup3\n        /* \"#utility.yul\":4109:4139   */\n      gt\n        /* \"#utility.yul\":4106:4162   */\n      iszero\n      tag_261\n      jumpi\n        /* \"#utility.yul\":4142:4160   */\n      tag_262\n      tag_181\n      jump\t// in\n    tag_262:\n        /* \"#utility.yul\":4106:4162   */\n    tag_261:\n        /* \"#utility.yul\":4180:4209   */\n      tag_263\n        /* \"#utility.yul\":4202:4208   */\n      dup3\n        /* \"#utility.yul\":4180:4209   */\n      tag_180\n      jump\t// in\n    tag_263:\n        /* \"#utility.yul\":4172:4209   */\n      swap1\n      pop\n        /* \"#utility.yul\":4264:4268   */\n      0x20\n        /* \"#utility.yul\":4258:4262   */\n      dup2\n        /* \"#utility.yul\":4254:4269   */\n      add\n        /* \"#utility.yul\":4246:4269   */\n      swap1\n      pop\n        /* \"#utility.yul\":3969:4276   */\n      swap2\n      swap1\n      pop\n      jump\t// out\n        /* \"#utility.yul\":4282:4428   */\n    tag_185:\n        /* \"#utility.yul\":4379:4385   */\n      dup3\n        /* \"#utility.yul\":4374:4377   */\n      dup2\n        /* \"#utility.yul\":4369:4372   */\n      dup4\n        /* \"#utility.yul\":4356:4386   */\n      calldatacopy\n        /* \"#utility.yul\":4420:4421   */\n      0x00\n        /* \"#utility.yul\":4411:4417   */\n      dup4\n        /* \"#utility.yul\":4406:4409   */\n      dup4\n        /* \"#utility.yul\":4402:4418   */\n      add\n        /* \"#utility.yul\":4395:4422   */\n      mstore\n        /* \"#utility.yul\":4282:4428   */\n      pop\n      pop\n      pop\n      jump\t// out\n        /* \"#utility.yul\":4434:4857   */\n    tag_186:\n        /* \"#utility.yul\":4511:4516   */\n      0x00\n        /* \"#utility.yul\":4536:4601   */\n      tag_266\n        /* \"#utility.yul\":4552:4600   */\n      tag_267\n        /* \"#utility.yul\":4593:4599   */\n      dup5\n        /* \"#utility.yul\":4552:4600   */\n      tag_184\n      jump\t// in\n    tag_267:\n        /* \"#utility.yul\":4536:4601   */\n      tag_183\n      jump\t// in\n    tag_266:\n        /* \"#utility.yul\":4527:4601   */\n      swap1\n      pop\n        /* \"#utility.yul\":4624:4630   */\n      dup3\n        /* \"#utility.yul\":4617:4622   */\n      dup2\n        /* \"#utility.yul\":4610:4631   */\n      mstore\n        /* \"#utility.yul\":4662:4666   */\n      0x20\n        /* \"#utility.yul\":4655:4660   */\n      dup2\n        /* \"#utility.yul\":4651:4667   */\n      add\n        /* \"#utility.yul\":4700:4703   */\n      dup5\n        /* \"#utility.yul\":4691:4697   */\n      dup5\n        /* \"#utility.yul\":4686:4689   */\n      dup5\n        /* \"#utility.yul\":4682:4698   */\n      add\n        /* \"#utility.yul\":4679:4704   */\n      gt\n        /* \"#utility.yul\":4676:4788   */\n      iszero\n      tag_268\n      jumpi\n        /* \"#utility.yul\":4707:4786   */\n      tag_269\n      tag_179\n      jump\t// in\n    tag_269:\n        /* \"#utility.yul\":4676:4788   */\n    tag_268:\n        /* \"#utility.yul\":4797:4851   */\n      tag_270\n        /* \"#utility.yul\":4844:4850   */\n      dup5\n        /* \"#utility.yul\":4839:4842   */\n      dup3\n        /* \"#utility.yul\":4834:4837   */\n      dup6\n        /* \"#utility.yul\":4797:4851   */\n      tag_185\n      jump\t// in\n    tag_270:\n        /* \"#utility.yul\":4517:4857   */\n      pop\n        /* \"#utility.yul\":4434:4857   */\n      swap4\n      swap3\n      pop\n      pop\n      pop\n      jump\t// out\n        /* \"#utility.yul\":4876:5214   */\n    tag_187:\n        /* \"#utility.yul\":4931:4936   */\n      0x00\n        /* \"#utility.yul\":4980:4983   */\n      dup3\n        /* \"#utility.yul\":4973:4977   */\n      0x1f\n        /* \"#utility.yul\":4965:4971   */\n      dup4\n        /* \"#utility.yul\":4961:4978   */\n      add\n        /* \"#utility.yul\":4957:4984   */\n      slt\n        /* \"#utility.yul\":4947:5069   */\n      tag_272\n      jumpi\n        /* \"#utility.yul\":4988:5067   */\n      tag_273\n      tag_178\n      jump\t// in\n    tag_273:\n        /* \"#utility.yul\":4947:5069   */\n    tag_272:\n        /* \"#utility.yul\":5105:5111   */\n      dup2\n        /* \"#utility.yul\":5092:5112   */\n      calldataload\n        /* \"#utility.yul\":5130:5208   */\n      tag_274\n        /* \"#utility.yul\":5204:5207   */\n      dup5\n        /* \"#utility.yul\":5196:5202   */\n      dup3\n        /* \"#utility.yul\":5189:5193   */\n      0x20\n        /* \"#utility.yul\":5181:5187   */\n      dup7\n        /* \"#utility.yul\":5177:5194   */\n      add\n        /* \"#utility.yul\":5130:5208   */\n      tag_186\n      jump\t// in\n    tag_274:\n        /* \"#utility.yul\":5121:5208   */\n      swap2\n      pop\n        /* \"#utility.yul\":4937:5214   */\n      pop\n        /* \"#utility.yul\":4876:5214   */\n      swap3\n      swap2\n      pop\n      pop\n      jump\t// out\n        /* \"#utility.yul\":5220:6017   */\n    tag_47:\n        /* \"#utility.yul\":5306:5312   */\n      0x00\n        /* \"#utility.yul\":5314:5320   */\n      dup1\n        /* \"#utility.yul\":5322:5328   */\n      0x00\n        /* \"#utility.yul\":5371:5373   */\n      0x60\n        /* \"#utility.yul\":5359:5368   */\n      dup5\n        /* \"#utility.yul\":5350:5357   */\n      dup7\n        /* \"#utility.yul\":5346:5369   */\n      sub\n        /* \"#utility.yul\":5342:5374   */\n      slt\n        /* \"#utility.yul\":5339:5458   */\n      iszero\n      tag_276\n      jumpi\n        /* \"#utility.yul\":5377:5456   */\n      tag_277\n      tag_167\n      jump\t// in\n    tag_277:\n        /* \"#utility.yul\":5339:5458   */\n    tag_276:\n        /* \"#utility.yul\":5497:5498   */\n      0x00\n        /* \"#utility.yul\":5522:5575   */\n      tag_278\n        /* \"#utility.yul\":5567:5574   */\n      dup7\n        /* \"#utility.yul\":5558:5564   */\n      dup3\n        /* \"#utility.yul\":5547:5556   */\n      dup8\n        /* \"#utility.yul\":5543:5565   */\n      add\n        /* \"#utility.yul\":5522:5575   */\n      tag_172\n      jump\t// in\n    tag_278:\n        /* \"#utility.yul\":5512:5575   */\n      swap4\n      pop\n        /* \"#utility.yul\":5468:5585   */\n      pop\n        /* \"#utility.yul\":5624:5626   */\n      0x20\n        /* \"#utility.yul\":5650:5703   */\n      tag_279\n        /* \"#utility.yul\":5695:5702   */\n      dup7\n        /* \"#utility.yul\":5686:5692   */\n      dup3\n        /* \"#utility.yul\":5675:5684   */\n      dup8\n        /* \"#utility.yul\":5671:5693   */\n      add\n        /* \"#utility.yul\":5650:5703   */\n      tag_175\n      jump\t// in\n    tag_279:\n        /* \"#utility.yul\":5640:5703   */\n      swap3\n      pop\n        /* \"#utility.yul\":5595:5713   */\n      pop\n        /* \"#utility.yul\":5780:5782   */\n      0x40\n        /* \"#utility.yul\":5769:5778   */\n      dup5\n        /* \"#utility.yul\":5765:5783   */\n      add\n        /* \"#utility.yul\":5752:5784   */\n      calldataload\n        /* \"#utility.yul\":5811:5829   */\n      0xffffffffffffffff\n        /* \"#utility.yul\":5803:5809   */\n      dup2\n        /* \"#utility.yul\":5800:5830   */\n      gt\n        /* \"#utility.yul\":5797:5914   */\n      iszero\n      tag_280\n      jumpi\n        /* \"#utility.yul\":5833:5912   */\n      tag_281\n      tag_168\n      jump\t// in\n    tag_281:\n        /* \"#utility.yul\":5797:5914   */\n    tag_280:\n        /* \"#utility.yul\":5938:6000   */\n      tag_282\n        /* \"#utility.yul\":5992:5999   */\n      dup7\n        /* \"#utility.yul\":5983:5989   */\n      dup3\n        /* \"#utility.yul\":5972:5981   */\n      dup8\n        /* \"#utility.yul\":5968:5990   */\n      add\n        /* \"#utility.yul\":5938:6000   */\n      tag_187\n      jump\t// in\n    tag_282:\n        /* \"#utility.yul\":5928:6000   */\n      swap2\n      pop\n        /* \"#utility.yul\":5723:6010   */\n      pop\n        /* \"#utility.yul\":5220:6017   */\n      swap3\n      pop\n      swap3\n      pop\n      swap3\n      jump\t// out\n        /* \"#utility.yul\":6023:6331   */\n    tag_188:\n        /* \"#utility.yul\":6085:6089   */\n      0x00\n        /* \"#utility.yul\":6175:6193   */\n      0xffffffffffffffff\n        /* \"#utility.yul\":6167:6173   */\n      dup3\n        /* \"#utility.yul\":6164:6194   */\n      gt\n        /* \"#utility.yul\":6161:6217   */\n      iszero\n      tag_284\n      jumpi\n        /* \"#utility.yul\":6197:6215   */\n      tag_285\n      tag_181\n      jump\t// in\n    tag_285:\n        /* \"#utility.yul\":6161:6217   */\n    tag_284:\n        /* \"#utility.yul\":6235:6264   */\n      tag_286\n        /* \"#utility.yul\":6257:6263   */\n      dup3\n        /* \"#utility.yul\":6235:6264   */\n      tag_180\n      jump\t// in\n    tag_286:\n        /* \"#utility.yul\":6227:6264   */\n      swap1\n      pop\n        /* \"#utility.yul\":6319:6323   */\n      0x20\n        /* \"#utility.yul\":6313:6317   */\n      dup2\n        /* \"#utility.yul\":6309:6324   */\n      add\n        /* \"#utility.yul\":6301:6324   */\n      swap1\n      pop\n        /* \"#utility.yul\":6023:6331   */\n      swap2\n      swap1\n      pop\n      jump\t// out\n        /* \"#utility.yul\":6337:6762   */\n    tag_189:\n        /* \"#utility.yul\":6415:6420   */\n      0x00\n        /* \"#utility.yul\":6440:6506   */\n      tag_288\n        /* \"#utility.yul\":6456:6505   */\n      tag_289\n        /* \"#utility.yul\":6498:6504   */\n      dup5\n        /* \"#utility.yul\":6456:6505   */\n      tag_188\n      jump\t// in\n    tag_289:\n        /* \"#utility.yul\":6440:6506   */\n      tag_183\n      jump\t// in\n    tag_288:\n        /* \"#utility.yul\":6431:6506   */\n      swap1\n      pop\n        /* \"#utility.yul\":6529:6535   */\n      dup3\n        /* \"#utility.yul\":6522:6527   */\n      dup2\n        /* \"#utility.yul\":6515:6536   */\n      mstore\n        /* \"#utility.yul\":6567:6571   */\n      0x20\n        /* \"#utility.yul\":6560:6565   */\n      dup2\n        /* \"#utility.yul\":6556:6572   */\n      add\n        /* \"#utility.yul\":6605:6608   */\n      dup5\n        /* \"#utility.yul\":6596:6602   */\n      dup5\n        /* \"#utility.yul\":6591:6594   */\n      dup5\n        /* \"#utility.yul\":6587:6603   */\n      add\n        /* \"#utility.yul\":6584:6609   */\n      gt\n        /* \"#utility.yul\":6581:6693   */\n      iszero\n      tag_290\n      jumpi\n        /* \"#utility.yul\":6612:6691   */\n      tag_291\n      tag_179\n      jump\t// in\n    tag_291:\n        /* \"#utility.yul\":6581:6693   */\n    tag_290:\n        /* \"#utility.yul\":6702:6756   */\n      tag_292\n        /* \"#utility.yul\":6749:6755   */\n      dup5\n        /* \"#utility.yul\":6744:6747   */\n      dup3\n        /* \"#utility.yul\":6739:6742   */\n      dup6\n        /* \"#utility.yul\":6702:6756   */\n      tag_185\n      jump\t// in\n    tag_292:\n        /* \"#utility.yul\":6421:6762   */\n      pop\n        /* \"#utility.yul\":6337:6762   */\n      swap4\n      swap3\n      pop\n      pop\n      pop\n      jump\t// out\n        /* \"#utility.yul\":6782:7122   */\n    tag_190:\n        /* \"#utility.yul\":6838:6843   */\n      0x00\n        /* \"#utility.yul\":6887:6890   */\n      dup3\n        /* \"#utility.yul\":6880:6884   */\n      0x1f\n        /* \"#utility.yul\":6872:6878   */\n      dup4\n        /* \"#utility.yul\":6868:6885   */\n      add\n        /* \"#utility.yul\":6864:6891   */\n      slt\n        /* \"#utility.yul\":6854:6976   */\n      tag_294\n      jumpi\n        /* \"#utility.yul\":6895:6974   */\n      tag_295\n      tag_178\n      jump\t// in\n    tag_295:\n        /* \"#utility.yul\":6854:6976   */\n    tag_294:\n        /* \"#utility.yul\":7012:7018   */\n      dup2\n        /* \"#utility.yul\":6999:7019   */\n      calldataload\n        /* \"#utility.yul\":7037:7116   */\n      tag_296\n        /* \"#utility.yul\":7112:7115   */\n      dup5\n        /* \"#utility.yul\":7104:7110   */\n      dup3\n        /* \"#utility.yul\":7097:7101   */\n      0x20\n        /* \"#utility.yul\":7089:7095   */\n      dup7\n        /* \"#utility.yul\":7085:7102   */\n      add\n        /* \"#utility.yul\":7037:7116   */\n      tag_189\n      jump\t// in\n    tag_296:\n        /* \"#utility.yul\":7028:7116   */\n      swap2\n      pop\n        /* \"#utility.yul\":6844:7122   */\n      pop\n        /* \"#utility.yul\":6782:7122   */\n      swap3\n      swap2\n      pop\n      pop\n      jump\t// out\n        /* \"#utility.yul\":7128:8723   */\n    tag_52:\n        /* \"#utility.yul\":7261:7267   */\n      0x00\n        /* \"#utility.yul\":7269:7275   */\n      dup1\n        /* \"#utility.yul\":7277:7283   */\n      0x00\n        /* \"#utility.yul\":7285:7291   */\n      dup1\n        /* \"#utility.yul\":7293:7299   */\n      0x00\n        /* \"#utility.yul\":7301:7307   */\n      dup1\n        /* \"#utility.yul\":7350:7353   */\n      0xc0\n        /* \"#utility.yul\":7338:7347   */\n      dup8\n        /* \"#utility.yul\":7329:7336   */\n      dup10\n        /* \"#utility.yul\":7325:7348   */\n      sub\n        /* \"#utility.yul\":7321:7354   */\n      slt\n        /* \"#utility.yul\":7318:7438   */\n      iszero\n      tag_298\n      jumpi\n        /* \"#utility.yul\":7357:7436   */\n      tag_299\n      tag_167\n      jump\t// in\n    tag_299:\n        /* \"#utility.yul\":7318:7438   */\n    tag_298:\n        /* \"#utility.yul\":7477:7478   */\n      0x00\n        /* \"#utility.yul\":7502:7555   */\n      tag_300\n        /* \"#utility.yul\":7547:7554   */\n      dup10\n        /* \"#utility.yul\":7538:7544   */\n      dup3\n        /* \"#utility.yul\":7527:7536   */\n      dup11\n        /* \"#utility.yul\":7523:7545   */\n      add\n        /* \"#utility.yul\":7502:7555   */\n      tag_172\n      jump\t// in\n    tag_300:\n        /* \"#utility.yul\":7492:7555   */\n      swap7\n      pop\n        /* \"#utility.yul\":7448:7565   */\n      pop\n        /* \"#utility.yul\":7632:7634   */\n      0x20\n        /* \"#utility.yul\":7621:7630   */\n      dup8\n        /* \"#utility.yul\":7617:7635   */\n      add\n        /* \"#utility.yul\":7604:7636   */\n      calldataload\n        /* \"#utility.yul\":7663:7681   */\n      0xffffffffffffffff\n        /* \"#utility.yul\":7655:7661   */\n      dup2\n        /* \"#utility.yul\":7652:7682   */\n      gt\n        /* \"#utility.yul\":7649:7766   */\n      iszero\n      tag_301\n      jumpi\n        /* \"#utility.yul\":7685:7764   */\n      tag_302\n      tag_168\n      jump\t// in\n    tag_302:\n        /* \"#utility.yul\":7649:7766   */\n    tag_301:\n        /* \"#utility.yul\":7790:7853   */\n      tag_303\n        /* \"#utility.yul\":7845:7852   */\n      dup10\n        /* \"#utility.yul\":7836:7842   */\n      dup3\n        /* \"#utility.yul\":7825:7834   */\n      dup11\n        /* \"#utility.yul\":7821:7843   */\n      add\n        /* \"#utility.yul\":7790:7853   */\n      tag_190\n      jump\t// in\n    tag_303:\n        /* \"#utility.yul\":7780:7853   */\n      swap6\n      pop\n        /* \"#utility.yul\":7575:7863   */\n      pop\n        /* \"#utility.yul\":7930:7932   */\n      0x40\n        /* \"#utility.yul\":7919:7928   */\n      dup8\n        /* \"#utility.yul\":7915:7933   */\n      add\n        /* \"#utility.yul\":7902:7934   */\n      calldataload\n        /* \"#utility.yul\":7961:7979   */\n      0xffffffffffffffff\n        /* \"#utility.yul\":7953:7959   */\n      dup2\n        /* \"#utility.yul\":7950:7980   */\n      gt\n        /* \"#utility.yul\":7947:8064   */\n      iszero\n      tag_304\n      jumpi\n        /* \"#utility.yul\":7983:8062   */\n      tag_305\n      tag_168\n      jump\t// in\n    tag_305:\n        /* \"#utility.yul\":7947:8064   */\n    tag_304:\n        /* \"#utility.yul\":8088:8151   */\n      tag_306\n        /* \"#utility.yul\":8143:8150   */\n      dup10\n        /* \"#utility.yul\":8134:8140   */\n      dup3\n        /* \"#utility.yul\":8123:8132   */\n      dup11\n        /* \"#utility.yul\":8119:8141   */\n      add\n        /* \"#utility.yul\":8088:8151   */\n      tag_190\n      jump\t// in\n    tag_306:\n        /* \"#utility.yul\":8078:8151   */\n      swap5\n      pop\n        /* \"#utility.yul\":7873:8161   */\n      pop\n        /* \"#utility.yul\":8200:8202   */\n      0x60\n        /* \"#utility.yul\":8226:8279   */\n      tag_307\n        /* \"#utility.yul\":8271:8278   */\n      dup10\n        /* \"#utility.yul\":8262:8268   */\n      dup3\n        /* \"#utility.yul\":8251:8260   */\n      dup11\n        /* \"#utility.yul\":8247:8269   */\n      add\n        /* \"#utility.yul\":8226:8279   */\n      tag_175\n      jump\t// in\n    tag_307:\n        /* \"#utility.yul\":8216:8279   */\n      swap4\n      pop\n        /* \"#utility.yul\":8171:8289   */\n      pop\n        /* \"#utility.yul\":8328:8331   */\n      0x80\n        /* \"#utility.yul\":8355:8408   */\n      tag_308\n        /* \"#utility.yul\":8400:8407   */\n      dup10\n        /* \"#utility.yul\":8391:8397   */\n      dup3\n        /* \"#utility.yul\":8380:8389   */\n      dup11\n        /* \"#utility.yul\":8376:8398   */\n      add\n        /* \"#utility.yul\":8355:8408   */\n      tag_172\n      jump\t// in\n    tag_308:\n        /* \"#utility.yul\":8345:8408   */\n      swap3\n      pop\n        /* \"#utility.yul\":8299:8418   */\n      pop\n        /* \"#utility.yul\":8485:8488   */\n      0xa0\n        /* \"#utility.yul\":8474:8483   */\n      dup8\n        /* \"#utility.yul\":8470:8489   */\n      add\n        /* \"#utility.yul\":8457:8490   */\n      calldataload\n        /* \"#utility.yul\":8517:8535   */\n      0xffffffffffffffff\n        /* \"#utility.yul\":8509:8515   */\n      dup2\n        /* \"#utility.yul\":8506:8536   */\n      gt\n        /* \"#utility.yul\":8503:8620   */\n      iszero\n      tag_309\n      jumpi\n        /* \"#utility.yul\":8539:8618   */\n      tag_310\n      tag_168\n      jump\t// in\n    tag_310:\n        /* \"#utility.yul\":8503:8620   */\n    tag_309:\n        /* \"#utility.yul\":8644:8706   */\n      tag_311\n        /* \"#utility.yul\":8698:8705   */\n      dup10\n        /* \"#utility.yul\":8689:8695   */\n      dup3\n        /* \"#utility.yul\":8678:8687   */\n      dup11\n        /* \"#utility.yul\":8674:8696   */\n      add\n        /* \"#utility.yul\":8644:8706   */\n      tag_187\n      jump\t// in\n    tag_311:\n        /* \"#utility.yul\":8634:8706   */\n      swap2\n      pop\n        /* \"#utility.yul\":8428:8716   */\n      pop\n        /* \"#utility.yul\":7128:8723   */\n      swap3\n      swap6\n      pop\n      swap3\n      swap6\n      pop\n      swap3\n      swap6\n      jump\t// out\n        /* \"#utility.yul\":8729:9348   */\n    tag_57:\n        /* \"#utility.yul\":8806:8812   */\n      0x00\n        /* \"#utility.yul\":8814:8820   */\n      dup1\n        /* \"#utility.yul\":8822:8828   */\n      0x00\n        /* \"#utility.yul\":8871:8873   */\n      0x60\n        /* \"#utility.yul\":8859:8868   */\n      dup5\n        /* \"#utility.yul\":8850:8857   */\n      dup7\n        /* \"#utility.yul\":8846:8869   */\n      sub\n        /* \"#utility.yul\":8842:8874   */\n      slt\n        /* \"#utility.yul\":8839:8958   */\n      iszero\n      tag_313\n      jumpi\n        /* \"#utility.yul\":8877:8956   */\n      tag_314\n      tag_167\n      jump\t// in\n    tag_314:\n        /* \"#utility.yul\":8839:8958   */\n    tag_313:\n        /* \"#utility.yul\":8997:8998   */\n      0x00\n        /* \"#utility.yul\":9022:9075   */\n      tag_315\n        /* \"#utility.yul\":9067:9074   */\n      dup7\n        /* \"#utility.yul\":9058:9064   */\n      dup3\n        /* \"#utility.yul\":9047:9056   */\n      dup8\n        /* \"#utility.yul\":9043:9065   */\n      add\n        /* \"#utility.yul\":9022:9075   */\n      tag_172\n      jump\t// in\n    tag_315:\n        /* \"#utility.yul\":9012:9075   */\n      swap4\n      pop\n        /* \"#utility.yul\":8968:9085   */\n      pop\n        /* \"#utility.yul\":9124:9126   */\n      0x20\n        /* \"#utility.yul\":9150:9203   */\n      tag_316\n        /* \"#utility.yul\":9195:9202   */\n      dup7\n        /* \"#utility.yul\":9186:9192   */\n      dup3\n        /* \"#utility.yul\":9175:9184   */\n      dup8\n        /* \"#utility.yul\":9171:9193   */\n      add\n        /* \"#utility.yul\":9150:9203   */\n      tag_172\n      jump\t// in\n    tag_316:\n        /* \"#utility.yul\":9140:9203   */\n      swap3\n      pop\n        /* \"#utility.yul\":9095:9213   */\n      pop\n        /* \"#utility.yul\":9252:9254   */\n      0x40\n        /* \"#utility.yul\":9278:9331   */\n      tag_317\n        /* \"#utility.yul\":9323:9330   */\n      dup7\n        /* \"#utility.yul\":9314:9320   */\n      dup3\n        /* \"#utility.yul\":9303:9312   */\n      dup8\n        /* \"#utility.yul\":9299:9321   */\n      add\n        /* \"#utility.yul\":9278:9331   */\n      tag_175\n      jump\t// in\n    tag_317:\n        /* \"#utility.yul\":9268:9331   */\n      swap2\n      pop\n        /* \"#utility.yul\":9223:9341   */\n      pop\n        /* \"#utility.yul\":8729:9348   */\n      swap3\n      pop\n      swap3\n      pop\n      swap3\n      jump\t// out\n        /* \"#utility.yul\":9354:10006   */\n    tag_66:\n        /* \"#utility.yul\":9431:9437   */\n      0x00\n        /* \"#utility.yul\":9439:9445   */\n      dup1\n        /* \"#utility.yul\":9488:9490   */\n      0x40\n        /* \"#utility.yul\":9476:9485   */\n      dup4\n        /* \"#utility.yul\":9467:9474   */\n      dup6\n        /* \"#utility.yul\":9463:9486   */\n      sub\n        /* \"#utility.yul\":9459:9491   */\n      slt\n        /* \"#utility.yul\":9456:9575   */\n      iszero\n      tag_319\n      jumpi\n        /* \"#utility.yul\":9494:9573   */\n      tag_320\n      tag_167\n      jump\t// in\n    tag_320:\n        /* \"#utility.yul\":9456:9575   */\n    tag_319:\n        /* \"#utility.yul\":9614:9615   */\n      0x00\n        /* \"#utility.yul\":9639:9692   */\n      tag_321\n        /* \"#utility.yul\":9684:9691   */\n      dup6\n        /* \"#utility.yul\":9675:9681   */\n      dup3\n        /* \"#utility.yul\":9664:9673   */\n      dup7\n        /* \"#utility.yul\":9660:9682   */\n      add\n        /* \"#utility.yul\":9639:9692   */\n      tag_175\n      jump\t// in\n    tag_321:\n        /* \"#utility.yul\":9629:9692   */\n      swap3\n      pop\n        /* \"#utility.yul\":9585:9702   */\n      pop\n        /* \"#utility.yul\":9769:9771   */\n      0x20\n        /* \"#utility.yul\":9758:9767   */\n      dup4\n        /* \"#utility.yul\":9754:9772   */\n      add\n        /* \"#utility.yul\":9741:9773   */\n      calldataload\n        /* \"#utility.yul\":9800:9818   */\n      0xffffffffffffffff\n        /* \"#utility.yul\":9792:9798   */\n      dup2\n        /* \"#utility.yul\":9789:9819   */\n      gt\n        /* \"#utility.yul\":9786:9903   */\n      iszero\n      tag_322\n      jumpi\n        /* \"#utility.yul\":9822:9901   */\n      tag_323\n      tag_168\n      jump\t// in\n    tag_323:\n        /* \"#utility.yul\":9786:9903   */\n    tag_322:\n        /* \"#utility.yul\":9927:9989   */\n      tag_324\n        /* \"#utility.yul\":9981:9988   */\n      dup6\n        /* \"#utility.yul\":9972:9978   */\n      dup3\n        /* \"#utility.yul\":9961:9970   */\n      dup7\n        /* \"#utility.yul\":9957:9979   */\n      add\n        /* \"#utility.yul\":9927:9989   */\n      tag_187\n      jump\t// in\n    tag_324:\n        /* \"#utility.yul\":9917:9989   */\n      swap2\n      pop\n        /* \"#utility.yul\":9712:9999   */\n      pop\n        /* \"#utility.yul\":9354:10006   */\n      swap3\n      pop\n      swap3\n      swap1\n      pop\n      jump\t// out\n        /* \"#utility.yul\":10012:10181   */\n    tag_191:\n        /* \"#utility.yul\":10096:10107   */\n      0x00\n        /* \"#utility.yul\":10130:10136   */\n      dup3\n        /* \"#utility.yul\":10125:10128   */\n      dup3\n        /* \"#utility.yul\":10118:10137   */\n      mstore\n        /* \"#utility.yul\":10170:10174   */\n      0x20\n        /* \"#utility.yul\":10165:10168   */\n      dup3\n        /* \"#utility.yul\":10161:10175   */\n      add\n        /* \"#utility.yul\":10146:10175   */\n      swap1\n      pop\n        /* \"#utility.yul\":10012:10181   */\n      swap3\n      swap2\n      pop\n      pop\n      jump\t// out\n        /* \"#utility.yul\":10187:10412   */\n    tag_192:\n        /* \"#utility.yul\":10327:10361   */\n      0x4f776e61626c653a206e6577206f776e657220697320746865207a65726f2061\n        /* \"#utility.yul\":10323:10324   */\n      0x00\n        /* \"#utility.yul\":10315:10321   */\n      dup3\n        /* \"#utility.yul\":10311:10325   */\n      add\n        /* \"#utility.yul\":10304:10362   */\n      mstore\n        /* \"#utility.yul\":10396:10404   */\n      0x6464726573730000000000000000000000000000000000000000000000000000\n        /* \"#utility.yul\":10391:10393   */\n      0x20\n        /* \"#utility.yul\":10383:10389   */\n      dup3\n        /* \"#utility.yul\":10379:10394   */\n      add\n        /* \"#utility.yul\":10372:10405   */\n      mstore\n        /* \"#utility.yul\":10187:10412   */\n      pop\n      jump\t// out\n        /* \"#utility.yul\":10418:10784   */\n    tag_193:\n        /* \"#utility.yul\":10560:10563   */\n      0x00\n        /* \"#utility.yul\":10581:10648   */\n      tag_328\n        /* \"#utility.yul\":10645:10647   */\n      0x26\n        /* \"#utility.yul\":10640:10643   */\n      dup4\n        /* \"#utility.yul\":10581:10648   */\n      tag_191\n      jump\t// in\n    tag_328:\n        /* \"#utility.yul\":10574:10648   */\n      swap2\n      pop\n        /* \"#utility.yul\":10657:10750   */\n      tag_329\n        /* \"#utility.yul\":10746:10749   */\n      dup3\n        /* \"#utility.yul\":10657:10750   */\n      tag_192\n      jump\t// in\n    tag_329:\n        /* \"#utility.yul\":10775:10777   */\n      0x40\n        /* \"#utility.yul\":10770:10773   */\n      dup3\n        /* \"#utility.yul\":10766:10778   */\n      add\n        /* \"#utility.yul\":10759:10778   */\n      swap1\n      pop\n        /* \"#utility.yul\":10418:10784   */\n      swap2\n      swap1\n      pop\n      jump\t// out\n        /* \"#utility.yul\":10790:11209   */\n    tag_109:\n        /* \"#utility.yul\":10956:10960   */\n      0x00\n        /* \"#utility.yul\":10994:10996   */\n      0x20\n        /* \"#utility.yul\":10983:10992   */\n      dup3\n        /* \"#utility.yul\":10979:10997   */\n      add\n        /* \"#utility.yul\":10971:10997   */\n      swap1\n      pop\n        /* \"#utility.yul\":11043:11052   */\n      dup2\n        /* \"#utility.yul\":11037:11041   */\n      dup2\n        /* \"#utility.yul\":11033:11053   */\n      sub\n        /* \"#utility.yul\":11029:11030   */\n      0x00\n        /* \"#utility.yul\":11018:11027   */\n      dup4\n        /* \"#utility.yul\":11014:11031   */\n      add\n        /* \"#utility.yul\":11007:11054   */\n      mstore\n        /* \"#utility.yul\":11071:11202   */\n      tag_331\n        /* \"#utility.yul\":11197:11201   */\n      dup2\n        /* \"#utility.yul\":11071:11202   */\n      tag_193\n      jump\t// in\n    tag_331:\n        /* \"#utility.yul\":11063:11202   */\n      swap1\n      pop\n        /* \"#utility.yul\":10790:11209   */\n      swap2\n      swap1\n      pop\n      jump\t// out\n        /* \"#utility.yul\":11215:11768   */\n    tag_121:\n        /* \"#utility.yul\":11392:11396   */\n      0x00\n        /* \"#utility.yul\":11430:11433   */\n      0x80\n        /* \"#utility.yul\":11419:11428   */\n      dup3\n        /* \"#utility.yul\":11415:11434   */\n      add\n        /* \"#utility.yul\":11407:11434   */\n      swap1\n      pop\n        /* \"#utility.yul\":11444:11515   */\n      tag_333\n        /* \"#utility.yul\":11512:11513   */\n      0x00\n        /* \"#utility.yul\":11501:11510   */\n      dup4\n        /* \"#utility.yul\":11497:11514   */\n      add\n        /* \"#utility.yul\":11488:11494   */\n      dup8\n        /* \"#utility.yul\":11444:11515   */\n      tag_177\n      jump\t// in\n    tag_333:\n        /* \"#utility.yul\":11525:11597   */\n      tag_334\n        /* \"#utility.yul\":11593:11595   */\n      0x20\n        /* \"#utility.yul\":11582:11591   */\n      dup4\n        /* \"#utility.yul\":11578:11596   */\n      add\n        /* \"#utility.yul\":11569:11575   */\n      dup7\n        /* \"#utility.yul\":11525:11597   */\n      tag_177\n      jump\t// in\n    tag_334:\n        /* \"#utility.yul\":11607:11679   */\n      tag_335\n        /* \"#utility.yul\":11675:11677   */\n      0x40\n        /* \"#utility.yul\":11664:11673   */\n      dup4\n        /* \"#utility.yul\":11660:11678   */\n      add\n        /* \"#utility.yul\":11651:11657   */\n      dup6\n        /* \"#utility.yul\":11607:11679   */\n      tag_177\n      jump\t// in\n    tag_335:\n        /* \"#utility.yul\":11689:11761   */\n      tag_336\n        /* \"#utility.yul\":11757:11759   */\n      0x60\n        /* \"#utility.yul\":11746:11755   */\n      dup4\n        /* \"#utility.yul\":11742:11760   */\n      add\n        /* \"#utility.yul\":11733:11739   */\n      dup5\n        /* \"#utility.yul\":11689:11761   */\n      tag_176\n      jump\t// in\n    tag_336:\n        /* \"#utility.yul\":11215:11768   */\n      swap6\n      swap5\n      pop\n      pop\n      pop\n      pop\n      pop\n      jump\t// out\n        /* \"#utility.yul\":11774:11917   */\n    tag_194:\n        /* \"#utility.yul\":11831:11836   */\n      0x00\n        /* \"#utility.yul\":11862:11868   */\n      dup2\n        /* \"#utility.yul\":11856:11869   */\n      mload\n        /* \"#utility.yul\":11847:11869   */\n      swap1\n      pop\n        /* \"#utility.yul\":11878:11911   */\n      tag_338\n        /* \"#utility.yul\":11905:11910   */\n      dup2\n        /* \"#utility.yul\":11878:11911   */\n      tag_174\n      jump\t// in\n    tag_338:\n        /* \"#utility.yul\":11774:11917   */\n      swap3\n      swap2\n      pop\n      pop\n      jump\t// out\n        /* \"#utility.yul\":11923:12274   */\n    tag_129:\n        /* \"#utility.yul\":11993:11999   */\n      0x00\n        /* \"#utility.yul\":12042:12044   */\n      0x20\n        /* \"#utility.yul\":12030:12039   */\n      dup3\n        /* \"#utility.yul\":12021:12028   */\n      dup5\n        /* \"#utility.yul\":12017:12040   */\n      sub\n        /* \"#utility.yul\":12013:12045   */\n      slt\n        /* \"#utility.yul\":12010:12129   */\n      iszero\n      tag_340\n      jumpi\n        /* \"#utility.yul\":12048:12127   */\n      tag_341\n      tag_167\n      jump\t// in\n    tag_341:\n        /* \"#utility.yul\":12010:12129   */\n    tag_340:\n        /* \"#utility.yul\":12168:12169   */\n      0x00\n        /* \"#utility.yul\":12193:12257   */\n      tag_342\n        /* \"#utility.yul\":12249:12256   */\n      dup5\n        /* \"#utility.yul\":12240:12246   */\n      dup3\n        /* \"#utility.yul\":12229:12238   */\n      dup6\n        /* \"#utility.yul\":12225:12247   */\n      add\n        /* \"#utility.yul\":12193:12257   */\n      tag_194\n      jump\t// in\n    tag_342:\n        /* \"#utility.yul\":12183:12257   */\n      swap2\n      pop\n        /* \"#utility.yul\":12139:12267   */\n      pop\n        /* \"#utility.yul\":11923:12274   */\n      swap3\n      swap2\n      pop\n      pop\n      jump\t// out\n        /* \"#utility.yul\":12280:12462   */\n    tag_195:\n        /* \"#utility.yul\":12420:12454   */\n      0x4f776e61626c653a2063616c6c6572206973206e6f7420746865206f776e6572\n        /* \"#utility.yul\":12416:12417   */\n      0x00\n        /* \"#utility.yul\":12408:12414   */\n      dup3\n        /* \"#utility.yul\":12404:12418   */\n      add\n        /* \"#utility.yul\":12397:12455   */\n      mstore\n        /* \"#utility.yul\":12280:12462   */\n      pop\n      jump\t// out\n        /* \"#utility.yul\":12468:12834   */\n    tag_196:\n        /* \"#utility.yul\":12610:12613   */\n      0x00\n        /* \"#utility.yul\":12631:12698   */\n      tag_345\n        /* \"#utility.yul\":12695:12697   */\n      0x20\n        /* \"#utility.yul\":12690:12693   */\n      dup4\n        /* \"#utility.yul\":12631:12698   */\n      tag_191\n      jump\t// in\n    tag_345:\n        /* \"#utility.yul\":12624:12698   */\n      swap2\n      pop\n        /* \"#utility.yul\":12707:12800   */\n      tag_346\n        /* \"#utility.yul\":12796:12799   */\n      dup3\n        /* \"#utility.yul\":12707:12800   */\n      tag_195\n      jump\t// in\n    tag_346:\n        /* \"#utility.yul\":12825:12827   */\n      0x20\n        /* \"#utility.yul\":12820:12823   */\n      dup3\n        /* \"#utility.yul\":12816:12828   */\n      add\n        /* \"#utility.yul\":12809:12828   */\n      swap1\n      pop\n        /* \"#utility.yul\":12468:12834   */\n      swap2\n      swap1\n      pop\n      jump\t// out\n        /* \"#utility.yul\":12840:13259   */\n    tag_136:\n        /* \"#utility.yul\":13006:13010   */\n      0x00\n        /* \"#utility.yul\":13044:13046   */\n      0x20\n        /* \"#utility.yul\":13033:13042   */\n      dup3\n        /* \"#utility.yul\":13029:13047   */\n      add\n        /* \"#utility.yul\":13021:13047   */\n      swap1\n      pop\n        /* \"#utility.yul\":13093:13102   */\n      dup2\n        /* \"#utility.yul\":13087:13091   */\n      dup2\n        /* \"#utility.yul\":13083:13103   */\n      sub\n        /* \"#utility.yul\":13079:13080   */\n      0x00\n        /* \"#utility.yul\":13068:13077   */\n      dup4\n        /* \"#utility.yul\":13064:13081   */\n      add\n        /* \"#utility.yul\":13057:13104   */\n      mstore\n        /* \"#utility.yul\":13121:13252   */\n      tag_348\n        /* \"#utility.yul\":13247:13251   */\n      dup2\n        /* \"#utility.yul\":13121:13252   */\n      tag_196\n      jump\t// in\n    tag_348:\n        /* \"#utility.yul\":13113:13252   */\n      swap1\n      pop\n        /* \"#utility.yul\":12840:13259   */\n      swap2\n      swap1\n      pop\n      jump\t// out\n        /* \"#utility.yul\":13265:13363   */\n    tag_197:\n        /* \"#utility.yul\":13316:13322   */\n      0x00\n        /* \"#utility.yul\":13350:13355   */\n      dup2\n        /* \"#utility.yul\":13344:13356   */\n      mload\n        /* \"#utility.yul\":13334:13356   */\n      swap1\n      pop\n        /* \"#utility.yul\":13265:13363   */\n      swap2\n      swap1\n      pop\n      jump\t// out\n        /* \"#utility.yul\":13369:13537   */\n    tag_198:\n        /* \"#utility.yul\":13452:13463   */\n      0x00\n        /* \"#utility.yul\":13486:13492   */\n      dup3\n        /* \"#utility.yul\":13481:13484   */\n      dup3\n        /* \"#utility.yul\":13474:13493   */\n      mstore\n        /* \"#utility.yul\":13526:13530   */\n      0x20\n        /* \"#utility.yul\":13521:13524   */\n      dup3\n        /* \"#utility.yul\":13517:13531   */\n      add\n        /* \"#utility.yul\":13502:13531   */\n      swap1\n      pop\n        /* \"#utility.yul\":13369:13537   */\n      swap3\n      swap2\n      pop\n      pop\n      jump\t// out\n        /* \"#utility.yul\":13543:13789   */\n    tag_199:\n        /* \"#utility.yul\":13624:13625   */\n      0x00\n        /* \"#utility.yul\":13634:13747   */\n    tag_352:\n        /* \"#utility.yul\":13648:13654   */\n      dup4\n        /* \"#utility.yul\":13645:13646   */\n      dup2\n        /* \"#utility.yul\":13642:13655   */\n      lt\n        /* \"#utility.yul\":13634:13747   */\n      iszero\n      tag_354\n      jumpi\n        /* \"#utility.yul\":13733:13734   */\n      dup1\n        /* \"#utility.yul\":13728:13731   */\n      dup3\n        /* \"#utility.yul\":13724:13735   */\n      add\n        /* \"#utility.yul\":13718:13736   */\n      mload\n        /* \"#utility.yul\":13714:13715   */\n      dup2\n        /* \"#utility.yul\":13709:13712   */\n      dup5\n        /* \"#utility.yul\":13705:13716   */\n      add\n        /* \"#utility.yul\":13698:13737   */\n      mstore\n        /* \"#utility.yul\":13670:13672   */\n      0x20\n        /* \"#utility.yul\":13667:13668   */\n      dup2\n        /* \"#utility.yul\":13663:13673   */\n      add\n        /* \"#utility.yul\":13658:13673   */\n      swap1\n      pop\n        /* \"#utility.yul\":13634:13747   */\n      jump(tag_352)\n    tag_354:\n        /* \"#utility.yul\":13781:13782   */\n      0x00\n        /* \"#utility.yul\":13772:13778   */\n      dup5\n        /* \"#utility.yul\":13767:13770   */\n      dup5\n        /* \"#utility.yul\":13763:13779   */\n      add\n        /* \"#utility.yul\":13756:13783   */\n      mstore\n        /* \"#utility.yul\":13605:13789   */\n      pop\n        /* \"#utility.yul\":13543:13789   */\n      pop\n      pop\n      pop\n      jump\t// out\n        /* \"#utility.yul\":13795:14168   */\n    tag_200:\n        /* \"#utility.yul\":13881:13884   */\n      0x00\n        /* \"#utility.yul\":13909:13947   */\n      tag_356\n        /* \"#utility.yul\":13941:13946   */\n      dup3\n        /* \"#utility.yul\":13909:13947   */\n      tag_197\n      jump\t// in\n    tag_356:\n        /* \"#utility.yul\":13963:14033   */\n      tag_357\n        /* \"#utility.yul\":14026:14032   */\n      dup2\n        /* \"#utility.yul\":14021:14024   */\n      dup6\n        /* \"#utility.yul\":13963:14033   */\n      tag_198\n      jump\t// in\n    tag_357:\n        /* \"#utility.yul\":13956:14033   */\n      swap4\n      pop\n        /* \"#utility.yul\":14042:14107   */\n      tag_358\n        /* \"#utility.yul\":14100:14106   */\n      dup2\n        /* \"#utility.yul\":14095:14098   */\n      dup6\n        /* \"#utility.yul\":14088:14092   */\n      0x20\n        /* \"#utility.yul\":14081:14086   */\n      dup7\n        /* \"#utility.yul\":14077:14093   */\n      add\n        /* \"#utility.yul\":14042:14107   */\n      tag_199\n      jump\t// in\n    tag_358:\n        /* \"#utility.yul\":14132:14161   */\n      tag_359\n        /* \"#utility.yul\":14154:14160   */\n      dup2\n        /* \"#utility.yul\":14132:14161   */\n      tag_180\n      jump\t// in\n    tag_359:\n        /* \"#utility.yul\":14127:14130   */\n      dup5\n        /* \"#utility.yul\":14123:14162   */\n      add\n        /* \"#utility.yul\":14116:14162   */\n      swap2\n      pop\n        /* \"#utility.yul\":13885:14168   */\n      pop\n        /* \"#utility.yul\":13795:14168   */\n      swap3\n      swap2\n      pop\n      pop\n      jump\t// out\n        /* \"#utility.yul\":14174:14703   */\n    tag_140:\n        /* \"#utility.yul\":14341:14345   */\n      0x00\n        /* \"#utility.yul\":14379:14381   */\n      0x60\n        /* \"#utility.yul\":14368:14377   */\n      dup3\n        /* \"#utility.yul\":14364:14382   */\n      add\n        /* \"#utility.yul\":14356:14382   */\n      swap1\n      pop\n        /* \"#utility.yul\":14392:14463   */\n      tag_361\n        /* \"#utility.yul\":14460:14461   */\n      0x00\n        /* \"#utility.yul\":14449:14458   */\n      dup4\n        /* \"#utility.yul\":14445:14462   */\n      add\n        /* \"#utility.yul\":14436:14442   */\n      dup7\n        /* \"#utility.yul\":14392:14463   */\n      tag_177\n      jump\t// in\n    tag_361:\n        /* \"#utility.yul\":14473:14545   */\n      tag_362\n        /* \"#utility.yul\":14541:14543   */\n      0x20\n        /* \"#utility.yul\":14530:14539   */\n      dup4\n        /* \"#utility.yul\":14526:14544   */\n      add\n        /* \"#utility.yul\":14517:14523   */\n      dup6\n        /* \"#utility.yul\":14473:14545   */\n      tag_176\n      jump\t// in\n    tag_362:\n        /* \"#utility.yul\":14592:14601   */\n      dup2\n        /* \"#utility.yul\":14586:14590   */\n      dup2\n        /* \"#utility.yul\":14582:14602   */\n      sub\n        /* \"#utility.yul\":14577:14579   */\n      0x40\n        /* \"#utility.yul\":14566:14575   */\n      dup4\n        /* \"#utility.yul\":14562:14580   */\n      add\n        /* \"#utility.yul\":14555:14603   */\n      mstore\n        /* \"#utility.yul\":14620:14696   */\n      tag_363\n        /* \"#utility.yul\":14691:14695   */\n      dup2\n        /* \"#utility.yul\":14682:14688   */\n      dup5\n        /* \"#utility.yul\":14620:14696   */\n      tag_200\n      jump\t// in\n    tag_363:\n        /* \"#utility.yul\":14612:14696   */\n      swap1\n      pop\n        /* \"#utility.yul\":14174:14703   */\n      swap5\n      swap4\n      pop\n      pop\n      pop\n      pop\n      jump\t// out\n        /* \"#utility.yul\":14709:14769   */\n    tag_201:\n        /* \"#utility.yul\":14737:14740   */\n      0x00\n        /* \"#utility.yul\":14758:14763   */\n      dup2\n        /* \"#utility.yul\":14751:14763   */\n      swap1\n      pop\n        /* \"#utility.yul\":14709:14769   */\n      swap2\n      swap1\n      pop\n      jump\t// out\n        /* \"#utility.yul\":14775:14917   */\n    tag_202:\n        /* \"#utility.yul\":14825:14834   */\n      0x00\n        /* \"#utility.yul\":14858:14911   */\n      tag_366\n        /* \"#utility.yul\":14876:14910   */\n      tag_367\n        /* \"#utility.yul\":14885:14909   */\n      tag_368\n        /* \"#utility.yul\":14903:14908   */\n      dup5\n        /* \"#utility.yul\":14885:14909   */\n      tag_169\n      jump\t// in\n    tag_368:\n        /* \"#utility.yul\":14876:14910   */\n      tag_201\n      jump\t// in\n    tag_367:\n        /* \"#utility.yul\":14858:14911   */\n      tag_169\n      jump\t// in\n    tag_366:\n        /* \"#utility.yul\":14845:14911   */\n      swap1\n      pop\n        /* \"#utility.yul\":14775:14917   */\n      swap2\n      swap1\n      pop\n      jump\t// out\n        /* \"#utility.yul\":14923:15049   */\n    tag_203:\n        /* \"#utility.yul\":14973:14982   */\n      0x00\n        /* \"#utility.yul\":15006:15043   */\n      tag_370\n        /* \"#utility.yul\":15037:15042   */\n      dup3\n        /* \"#utility.yul\":15006:15043   */\n      tag_202\n      jump\t// in\n    tag_370:\n        /* \"#utility.yul\":14993:15043   */\n      swap1\n      pop\n        /* \"#utility.yul\":14923:15049   */\n      swap2\n      swap1\n      pop\n      jump\t// out\n        /* \"#utility.yul\":15055:15195   */\n    tag_204:\n        /* \"#utility.yul\":15119:15128   */\n      0x00\n        /* \"#utility.yul\":15152:15189   */\n      tag_372\n        /* \"#utility.yul\":15183:15188   */\n      dup3\n        /* \"#utility.yul\":15152:15189   */\n      tag_203\n      jump\t// in\n    tag_372:\n        /* \"#utility.yul\":15139:15189   */\n      swap1\n      pop\n        /* \"#utility.yul\":15055:15195   */\n      swap2\n      swap1\n      pop\n      jump\t// out\n        /* \"#utility.yul\":15201:15360   */\n    tag_205:\n        /* \"#utility.yul\":15302:15353   */\n      tag_374\n        /* \"#utility.yul\":15347:15352   */\n      dup2\n        /* \"#utility.yul\":15302:15353   */\n      tag_204\n      jump\t// in\n    tag_374:\n        /* \"#utility.yul\":15297:15300   */\n      dup3\n        /* \"#utility.yul\":15290:15354   */\n      mstore\n        /* \"#utility.yul\":15201:15360   */\n      pop\n      pop\n      jump\t// out\n        /* \"#utility.yul\":15366:15452   */\n    tag_206:\n        /* \"#utility.yul\":15412:15419   */\n      0x00\n        /* \"#utility.yul\":15441:15446   */\n      dup2\n        /* \"#utility.yul\":15430:15446   */\n      swap1\n      pop\n        /* \"#utility.yul\":15366:15452   */\n      swap2\n      swap1\n      pop\n      jump\t// out\n        /* \"#utility.yul\":15458:15544   */\n    tag_207:\n        /* \"#utility.yul\":15493:15500   */\n      0x00\n        /* \"#utility.yul\":15533:15537   */\n      0xff\n        /* \"#utility.yul\":15526:15531   */\n      dup3\n        /* \"#utility.yul\":15522:15538   */\n      and\n        /* \"#utility.yul\":15511:15538   */\n      swap1\n      pop\n        /* \"#utility.yul\":15458:15544   */\n      swap2\n      swap1\n      pop\n      jump\t// out\n        /* \"#utility.yul\":15550:15706   */\n    tag_208:\n        /* \"#utility.yul\":15607:15616   */\n      0x00\n        /* \"#utility.yul\":15640:15700   */\n      tag_378\n        /* \"#utility.yul\":15656:15699   */\n      tag_379\n        /* \"#utility.yul\":15665:15698   */\n      tag_380\n        /* \"#utility.yul\":15692:15697   */\n      dup5\n        /* \"#utility.yul\":15665:15698   */\n      tag_206\n      jump\t// in\n    tag_380:\n        /* \"#utility.yul\":15656:15699   */\n      tag_201\n      jump\t// in\n    tag_379:\n        /* \"#utility.yul\":15640:15700   */\n      tag_207\n      jump\t// in\n    tag_378:\n        /* \"#utility.yul\":15627:15700   */\n      swap1\n      pop\n        /* \"#utility.yul\":15550:15706   */\n      swap2\n      swap1\n      pop\n      jump\t// out\n        /* \"#utility.yul\":15712:15857   */\n    tag_209:\n        /* \"#utility.yul\":15806:15850   */\n      tag_382\n        /* \"#utility.yul\":15844:15849   */\n      dup2\n        /* \"#utility.yul\":15806:15850   */\n      tag_208\n      jump\t// in\n    tag_382:\n        /* \"#utility.yul\":15801:15804   */\n      dup3\n        /* \"#utility.yul\":15794:15851   */\n      mstore\n        /* \"#utility.yul\":15712:15857   */\n      pop\n      pop\n      jump\t// out\n        /* \"#utility.yul\":15863:15962   */\n    tag_210:\n        /* \"#utility.yul\":15915:15921   */\n      0x00\n        /* \"#utility.yul\":15949:15954   */\n      dup2\n        /* \"#utility.yul\":15943:15955   */\n      mload\n        /* \"#utility.yul\":15933:15955   */\n      swap1\n      pop\n        /* \"#utility.yul\":15863:15962   */\n      swap2\n      swap1\n      pop\n      jump\t// out\n        /* \"#utility.yul\":15968:16345   */\n    tag_211:\n        /* \"#utility.yul\":16056:16059   */\n      0x00\n        /* \"#utility.yul\":16084:16123   */\n      tag_385\n        /* \"#utility.yul\":16117:16122   */\n      dup3\n        /* \"#utility.yul\":16084:16123   */\n      tag_210\n      jump\t// in\n    tag_385:\n        /* \"#utility.yul\":16139:16210   */\n      tag_386\n        /* \"#utility.yul\":16203:16209   */\n      dup2\n        /* \"#utility.yul\":16198:16201   */\n      dup6\n        /* \"#utility.yul\":16139:16210   */\n      tag_191\n      jump\t// in\n    tag_386:\n        /* \"#utility.yul\":16132:16210   */\n      swap4\n      pop\n        /* \"#utility.yul\":16219:16284   */\n      tag_387\n        /* \"#utility.yul\":16277:16283   */\n      dup2\n        /* \"#utility.yul\":16272:16275   */\n      dup6\n        /* \"#utility.yul\":16265:16269   */\n      0x20\n        /* \"#utility.yul\":16258:16263   */\n      dup7\n        /* \"#utility.yul\":16254:16270   */\n      add\n        /* \"#utility.yul\":16219:16284   */\n      tag_199\n      jump\t// in\n    tag_387:\n        /* \"#utility.yul\":16309:16338   */\n      tag_388\n        /* \"#utility.yul\":16331:16337   */\n      dup2\n        /* \"#utility.yul\":16309:16338   */\n      tag_180\n      jump\t// in\n    tag_388:\n        /* \"#utility.yul\":16304:16307   */\n      dup5\n        /* \"#utility.yul\":16300:16339   */\n      add\n        /* \"#utility.yul\":16293:16339   */\n      swap2\n      pop\n        /* \"#utility.yul\":16060:16345   */\n      pop\n        /* \"#utility.yul\":15968:16345   */\n      swap3\n      swap2\n      pop\n      pop\n      jump\t// out\n        /* \"#utility.yul\":16351:17128   */\n    tag_150:\n        /* \"#utility.yul\":16589:16593   */\n      0x00\n        /* \"#utility.yul\":16627:16630   */\n      0x80\n        /* \"#utility.yul\":16616:16625   */\n      dup3\n        /* \"#utility.yul\":16612:16631   */\n      add\n        /* \"#utility.yul\":16604:16631   */\n      swap1\n      pop\n        /* \"#utility.yul\":16641:16726   */\n      tag_390\n        /* \"#utility.yul\":16723:16724   */\n      0x00\n        /* \"#utility.yul\":16712:16721   */\n      dup4\n        /* \"#utility.yul\":16708:16725   */\n      add\n        /* \"#utility.yul\":16699:16705   */\n      dup8\n        /* \"#utility.yul\":16641:16726   */\n      tag_205\n      jump\t// in\n    tag_390:\n        /* \"#utility.yul\":16736:16815   */\n      tag_391\n        /* \"#utility.yul\":16811:16813   */\n      0x20\n        /* \"#utility.yul\":16800:16809   */\n      dup4\n        /* \"#utility.yul\":16796:16814   */\n      add\n        /* \"#utility.yul\":16787:16793   */\n      dup7\n        /* \"#utility.yul\":16736:16815   */\n      tag_209\n      jump\t// in\n    tag_391:\n        /* \"#utility.yul\":16862:16871   */\n      dup2\n        /* \"#utility.yul\":16856:16860   */\n      dup2\n        /* \"#utility.yul\":16852:16872   */\n      sub\n        /* \"#utility.yul\":16847:16849   */\n      0x40\n        /* \"#utility.yul\":16836:16845   */\n      dup4\n        /* \"#utility.yul\":16832:16850   */\n      add\n        /* \"#utility.yul\":16825:16873   */\n      mstore\n        /* \"#utility.yul\":16890:16968   */\n      tag_392\n        /* \"#utility.yul\":16963:16967   */\n      dup2\n        /* \"#utility.yul\":16954:16960   */\n      dup6\n        /* \"#utility.yul\":16890:16968   */\n      tag_211\n      jump\t// in\n    tag_392:\n        /* \"#utility.yul\":16882:16968   */\n      swap1\n      pop\n        /* \"#utility.yul\":17015:17024   */\n      dup2\n        /* \"#utility.yul\":17009:17013   */\n      dup2\n        /* \"#utility.yul\":17005:17025   */\n      sub\n        /* \"#utility.yul\":17000:17002   */\n      0x60\n        /* \"#utility.yul\":16989:16998   */\n      dup4\n        /* \"#utility.yul\":16985:17003   */\n      add\n        /* \"#utility.yul\":16978:17026   */\n      mstore\n        /* \"#utility.yul\":17043:17121   */\n      tag_393\n        /* \"#utility.yul\":17116:17120   */\n      dup2\n        /* \"#utility.yul\":17107:17113   */\n      dup5\n        /* \"#utility.yul\":17043:17121   */\n      tag_211\n      jump\t// in\n    tag_393:\n        /* \"#utility.yul\":17035:17121   */\n      swap1\n      pop\n        /* \"#utility.yul\":16351:17128   */\n      swap6\n      swap5\n      pop\n      pop\n      pop\n      pop\n      pop\n      jump\t// out\n        /* \"#utility.yul\":17134:17576   */\n    tag_156:\n        /* \"#utility.yul\":17283:17287   */\n      0x00\n        /* \"#utility.yul\":17321:17323   */\n      0x60\n        /* \"#utility.yul\":17310:17319   */\n      dup3\n        /* \"#utility.yul\":17306:17324   */\n      add\n        /* \"#utility.yul\":17298:17324   */\n      swap1\n      pop\n        /* \"#utility.yul\":17334:17405   */\n      tag_395\n        /* \"#utility.yul\":17402:17403   */\n      0x00\n        /* \"#utility.yul\":17391:17400   */\n      dup4\n        /* \"#utility.yul\":17387:17404   */\n      add\n        /* \"#utility.yul\":17378:17384   */\n      dup7\n        /* \"#utility.yul\":17334:17405   */\n      tag_177\n      jump\t// in\n    tag_395:\n        /* \"#utility.yul\":17415:17487   */\n      tag_396\n        /* \"#utility.yul\":17483:17485   */\n      0x20\n        /* \"#utility.yul\":17472:17481   */\n      dup4\n        /* \"#utility.yul\":17468:17486   */\n      add\n        /* \"#utility.yul\":17459:17465   */\n      dup6\n        /* \"#utility.yul\":17415:17487   */\n      tag_177\n      jump\t// in\n    tag_396:\n        /* \"#utility.yul\":17497:17569   */\n      tag_397\n        /* \"#utility.yul\":17565:17567   */\n      0x40\n        /* \"#utility.yul\":17554:17563   */\n      dup4\n        /* \"#utility.yul\":17550:17568   */\n      add\n        /* \"#utility.yul\":17541:17547   */\n      dup5\n        /* \"#utility.yul\":17497:17569   */\n      tag_176\n      jump\t// in\n    tag_397:\n        /* \"#utility.yul\":17134:17576   */\n      swap5\n      swap4\n      pop\n      pop\n      pop\n      pop\n      jump\t// out\n\n    auxdata: 0xa264697066735822122076fecc16430e00f96c163f9bf0806d89204dd350e2c045a612cdb05b3cbac5c964736f6c63430008120033\n}\n",
				"bytecode": {
					"linkReferences": {},
					"object": "608060405234801561001057600080fd5b5061002d61002261003260201b60201c565b61003a60201b60201c565b610100565b600033905090565b6000602060009054906101000a900473ffffffffffffffffffffffffffffffffffffffff16905081602060006101000a81548173ffffffffffffffffffffffffffffffffffffffff021916908373ffffffffffffffffffffffffffffffffffffffff1602179055508173ffffffffffffffffffffffffffffffffffffffff168173ffffffffffffffffffffffffffffffffffffffff167f8be0079c531659141344cd1fd0a4f28419497f9722a3daafe3b4186f6b6457e060405160405180910390a35050565b6112c08061010f6000396000f3fe6080604052600436106100955760003560e01c806394d008ef1161005957806394d008ef1461016d578063a6a0559814610196578063e1f21c67146101bf578063f2fde38b146101e8578063fe9d930314610211576100a4565b806315dacbea146100ae57806318160ddd146100d75780634a0687ef14610102578063715018a61461012b5780638da5cb5b14610142576100a4565b366100a4576100a261023a565b005b6100ac61023a565b005b3480156100ba57600080fd5b506100d560048036038101906100d091906109f4565b610254565b005b3480156100e357600080fd5b506100ec610266565b6040516100f99190610a6a565b60405180910390f35b34801561010e57600080fd5b5061012960048036038101906101249190610a85565b610274565b005b34801561013757600080fd5b5061014061036d565b005b34801561014e57600080fd5b50610157610381565b6040516101649190610ac1565b60405180910390f35b34801561017957600080fd5b50610194600480360381019061018f9190610c22565b6103ab565b005b3480156101a257600080fd5b506101bd60048036038101906101b89190610d32565b6103c3565b005b3480156101cb57600080fd5b506101e660048036038101906101e19190610e13565b6103e1565b005b3480156101f457600080fd5b5061020f600480360381019061020a9190610a85565b6103f1565b005b34801561021d57600080fd5b5061023860048036038101906102339190610e66565b610474565b005b610242610483565b61025261024d610485565b6104ae565b565b610260848484846104d4565b50505050565b600061027061054b565b5090565b600073ffffffffffffffffffffffffffffffffffffffff168173ffffffffffffffffffffffffffffffffffffffff16036102da576040517fd92e233d00000000000000000000000000000000000000000000000000000000815260040160405180910390fd5b600073ffffffffffffffffffffffffffffffffffffffff166102fa610485565b73ffffffffffffffffffffffffffffffffffffffff1614610347576040517f5daa87a000000000000000000000000000000000000000000000000000000000815260040160405180910390fd5b807f360894a13ba1a3210667c828492db98dca3e2076cc3735a920a3ca505d382bbc5550565b6103756105c1565b61037f600061063f565b565b6000602060009054906101000a900473ffffffffffffffffffffffffffffffffffffffff16905090565b6103b36105c1565b6103be838383610705565b505050565b6103ce868686610779565b6103d9828483610705565b505050505050565b6103ec83838361085c565b505050565b6103f96105c1565b600073ffffffffffffffffffffffffffffffffffffffff168173ffffffffffffffffffffffffffffffffffffffff1603610468576040517f08c379a000000000000000000000000000000000000000000000000000000000815260040161045f90610f45565b60405180910390fd5b6104718161063f565b50565b61047f3383836108d0565b5050565b565b60007f360894a13ba1a3210667c828492db98dca3e2076cc3735a920a3ca505d382bbc54905090565b3660008037600080366000845af43d6000803e80600081146104cf573d6000f35b3d6000fd5b3073ffffffffffffffffffffffffffffffffffffffff166341b706be858585856040518563ffffffff1660e01b81526004016105139493929190610f65565b600060405180830381600087803b15801561052d57600080fd5b505af1158015610541573d6000803e3d6000fd5b5050505050505050565b60003073ffffffffffffffffffffffffffffffffffffffff166318160ddd6040518163ffffffff1660e01b8152600401602060405180830381865afa158015610598573d6000803e3d6000fd5b505050506040513d601f19601f820116820180604052508101906105bc9190610fbf565b905090565b6105c9610944565b73ffffffffffffffffffffffffffffffffffffffff166105e7610381565b73ffffffffffffffffffffffffffffffffffffffff161461063d576040517f08c379a000000000000000000000000000000000000000000000000000000000815260040161063490611038565b60405180910390fd5b565b6000602060009054906101000a900473ffffffffffffffffffffffffffffffffffffffff16905081602060006101000a81548173ffffffffffffffffffffffffffffffffffffffff021916908373ffffffffffffffffffffffffffffffffffffffff1602179055508173ffffffffffffffffffffffffffffffffffffffff168173ffffffffffffffffffffffffffffffffffffffff167f8be0079c531659141344cd1fd0a4f28419497f9722a3daafe3b4186f6b6457e060405160405180910390a35050565b3073ffffffffffffffffffffffffffffffffffffffff1663c68d42838484846040518463ffffffff1660e01b8152600401610742939291906110d7565b600060405180830381600087803b15801561075c57600080fd5b505af1158015610770573d6000803e3d6000fd5b50505050505050565b8273ffffffffffffffffffffffffffffffffffffffff1663d412d344306040518263ffffffff1660e01b81526004016107b29190610ac1565b600060405180830381600087803b1580156107cc57600080fd5b505af11580156107e0573d6000803e3d6000fd5b505050503073ffffffffffffffffffffffffffffffffffffffff166342fe09806000601285856040518563ffffffff1660e01b81526004016108259493929190611200565b600060405180830381600087803b15801561083f57600080fd5b505af1158015610853573d6000803e3d6000fd5b50505050505050565b3073ffffffffffffffffffffffffffffffffffffffff166366a12fb68484846040518463ffffffff1660e01b815260040161089993929190611253565b600060405180830381600087803b1580156108b357600080fd5b505af11580156108c7573d6000803e3d6000fd5b50505050505050565b3073ffffffffffffffffffffffffffffffffffffffff16639d8767418484846040518463ffffffff1660e01b815260040161090d939291906110d7565b600060405180830381600087803b15801561092757600080fd5b505af115801561093b573d6000803e3d6000fd5b50505050505050565b600033905090565b6000604051905090565b600080fd5b600080fd5b600073ffffffffffffffffffffffffffffffffffffffff82169050919050565b600061098b82610960565b9050919050565b61099b81610980565b81146109a657600080fd5b50565b6000813590506109b881610992565b92915050565b6000819050919050565b6109d1816109be565b81146109dc57600080fd5b50565b6000813590506109ee816109c8565b92915050565b60008060008060808587031215610a0e57610a0d610956565b5b6000610a1c878288016109a9565b9450506020610a2d878288016109a9565b9350506040610a3e878288016109a9565b9250506060610a4f878288016109df565b91505092959194509250565b610a64816109be565b82525050565b6000602082019050610a7f6000830184610a5b565b92915050565b600060208284031215610a9b57610a9a610956565b5b6000610aa9848285016109a9565b91505092915050565b610abb81610980565b82525050565b6000602082019050610ad66000830184610ab2565b92915050565b600080fd5b600080fd5b6000601f19601f8301169050919050565b7f4e487b7100000000000000000000000000000000000000000000000000000000600052604160045260246000fd5b610b2f82610ae6565b810181811067ffffffffffffffff82111715610b4e57610b4d610af7565b5b80604052505050565b6000610b6161094c565b9050610b6d8282610b26565b919050565b600067ffffffffffffffff821115610b8d57610b8c610af7565b5b610b9682610ae6565b9050602081019050919050565b82818337600083830152505050565b6000610bc5610bc084610b72565b610b57565b905082815260208101848484011115610be157610be0610ae1565b5b610bec848285610ba3565b509392505050565b600082601f830112610c0957610c08610adc565b5b8135610c19848260208601610bb2565b91505092915050565b600080600060608486031215610c3b57610c3a610956565b5b6000610c49868287016109a9565b9350506020610c5a868287016109df565b925050604084013567ffffffffffffffff811115610c7b57610c7a61095b565b5b610c8786828701610bf4565b9150509250925092565b600067ffffffffffffffff821115610cac57610cab610af7565b5b610cb582610ae6565b9050602081019050919050565b6000610cd5610cd084610c91565b610b57565b905082815260208101848484011115610cf157610cf0610ae1565b5b610cfc848285610ba3565b509392505050565b600082601f830112610d1957610d18610adc565b5b8135610d29848260208601610cc2565b91505092915050565b60008060008060008060c08789031215610d4f57610d4e610956565b5b6000610d5d89828a016109a9565b965050602087013567ffffffffffffffff811115610d7e57610d7d61095b565b5b610d8a89828a01610d04565b955050604087013567ffffffffffffffff811115610dab57610daa61095b565b5b610db789828a01610d04565b9450506060610dc889828a016109df565b9350506080610dd989828a016109a9565b92505060a087013567ffffffffffffffff811115610dfa57610df961095b565b5b610e0689828a01610bf4565b9150509295509295509295565b600080600060608486031215610e2c57610e2b610956565b5b6000610e3a868287016109a9565b9350506020610e4b868287016109a9565b9250506040610e5c868287016109df565b9150509250925092565b60008060408385031215610e7d57610e7c610956565b5b6000610e8b858286016109df565b925050602083013567ffffffffffffffff811115610eac57610eab61095b565b5b610eb885828601610bf4565b9150509250929050565b600082825260208201905092915050565b7f4f776e61626c653a206e6577206f776e657220697320746865207a65726f206160008201527f6464726573730000000000000000000000000000000000000000000000000000602082015250565b6000610f2f602683610ec2565b9150610f3a82610ed3565b604082019050919050565b60006020820190508181036000830152610f5e81610f22565b9050919050565b6000608082019050610f7a6000830187610ab2565b610f876020830186610ab2565b610f946040830185610ab2565b610fa16060830184610a5b565b95945050505050565b600081519050610fb9816109c8565b92915050565b600060208284031215610fd557610fd4610956565b5b6000610fe384828501610faa565b91505092915050565b7f4f776e61626c653a2063616c6c6572206973206e6f7420746865206f776e6572600082015250565b6000611022602083610ec2565b915061102d82610fec565b602082019050919050565b6000602082019050818103600083015261105181611015565b9050919050565b600081519050919050565b600082825260208201905092915050565b60005b83811015611092578082015181840152602081019050611077565b60008484015250505050565b60006110a982611058565b6110b38185611063565b93506110c3818560208601611074565b6110cc81610ae6565b840191505092915050565b60006060820190506110ec6000830186610ab2565b6110f96020830185610a5b565b818103604083015261110b818461109e565b9050949350505050565b6000819050919050565b600061113a61113561113084610960565b611115565b610960565b9050919050565b600061114c8261111f565b9050919050565b600061115e82611141565b9050919050565b61116e81611153565b82525050565b6000819050919050565b600060ff82169050919050565b60006111a66111a161119c84611174565b611115565b61117e565b9050919050565b6111b68161118b565b82525050565b600081519050919050565b60006111d2826111bc565b6111dc8185610ec2565b93506111ec818560208601611074565b6111f581610ae6565b840191505092915050565b60006080820190506112156000830187611165565b61122260208301866111ad565b818103604083015261123481856111c7565b9050818103606083015261124881846111c7565b905095945050505050565b60006060820190506112686000830186610ab2565b6112756020830185610ab2565b6112826040830184610a5b565b94935050505056fea264697066735822122076fecc16430e00f96c163f9bf0806d89204dd350e2c045a612cdb05b3cbac5c964736f6c63430008120033",
					"opcodes": "PUSH1 0x80 PUSH1 0x40 MSTORE CALLVALUE DUP1 ISZERO PUSH2 0x10 JUMPI PUSH1 0x0 DUP1 REVERT JUMPDEST POP PUSH2 0x2D PUSH2 0x22 PUSH2 0x32 PUSH1 0x20 SHL PUSH1 0x20 SHR JUMP JUMPDEST PUSH2 0x3A PUSH1 0x20 SHL PUSH1 0x20 SHR JUMP JUMPDEST PUSH2 0x100 JUMP JUMPDEST PUSH1 0x0 CALLER SWAP1 POP SWAP1 JUMP JUMPDEST PUSH1 0x0 PUSH1 0x20 PUSH1 0x0 SWAP1 SLOAD SWAP1 PUSH2 0x100 EXP SWAP1 DIV PUSH20 0xFFFFFFFFFFFFFFFFFFFFFFFFFFFFFFFFFFFFFFFF AND SWAP1 POP DUP2 PUSH1 0x20 PUSH1 0x0 PUSH2 0x100 EXP DUP2 SLOAD DUP2 PUSH20 0xFFFFFFFFFFFFFFFFFFFFFFFFFFFFFFFFFFFFFFFF MUL NOT AND SWAP1 DUP4 PUSH20 0xFFFFFFFFFFFFFFFFFFFFFFFFFFFFFFFFFFFFFFFF AND MUL OR SWAP1 SSTORE POP DUP2 PUSH20 0xFFFFFFFFFFFFFFFFFFFFFFFFFFFFFFFFFFFFFFFF AND DUP2 PUSH20 0xFFFFFFFFFFFFFFFFFFFFFFFFFFFFFFFFFFFFFFFF AND PUSH32 0x8BE0079C531659141344CD1FD0A4F28419497F9722A3DAAFE3B4186F6B6457E0 PUSH1 0x40 MLOAD PUSH1 0x40 MLOAD DUP1 SWAP2 SUB SWAP1 LOG3 POP POP JUMP JUMPDEST PUSH2 0x12C0 DUP1 PUSH2 0x10F PUSH1 0x0 CODECOPY PUSH1 0x0 RETURN INVALID PUSH1 0x80 PUSH1 0x40 MSTORE PUSH1 0x4 CALLDATASIZE LT PUSH2 0x95 JUMPI PUSH1 0x0 CALLDATALOAD PUSH1 0xE0 SHR DUP1 PUSH4 0x94D008EF GT PUSH2 0x59 JUMPI DUP1 PUSH4 0x94D008EF EQ PUSH2 0x16D JUMPI DUP1 PUSH4 0xA6A05598 EQ PUSH2 0x196 JUMPI DUP1 PUSH4 0xE1F21C67 EQ PUSH2 0x1BF JUMPI DUP1 PUSH4 0xF2FDE38B EQ PUSH2 0x1E8 JUMPI DUP1 PUSH4 0xFE9D9303 EQ PUSH2 0x211 JUMPI PUSH2 0xA4 JUMP JUMPDEST DUP1 PUSH4 0x15DACBEA EQ PUSH2 0xAE JUMPI DUP1 PUSH4 0x18160DDD EQ PUSH2 0xD7 JUMPI DUP1 PUSH4 0x4A0687EF EQ PUSH2 0x102 JUMPI DUP1 PUSH4 0x715018A6 EQ PUSH2 0x12B JUMPI DUP1 PUSH4 0x8DA5CB5B EQ PUSH2 0x142 JUMPI PUSH2 0xA4 JUMP JUMPDEST CALLDATASIZE PUSH2 0xA4 JUMPI PUSH2 0xA2 PUSH2 0x23A JUMP JUMPDEST STOP JUMPDEST PUSH2 0xAC PUSH2 0x23A JUMP JUMPDEST STOP JUMPDEST CALLVALUE DUP1 ISZERO PUSH2 0xBA JUMPI PUSH1 0x0 DUP1 REVERT JUMPDEST POP PUSH2 0xD5 PUSH1 0x4 DUP1 CALLDATASIZE SUB DUP2 ADD SWAP1 PUSH2 0xD0 SWAP2 SWAP1 PUSH2 0x9F4 JUMP JUMPDEST PUSH2 0x254 JUMP JUMPDEST STOP JUMPDEST CALLVALUE DUP1 ISZERO PUSH2 0xE3 JUMPI PUSH1 0x0 DUP1 REVERT JUMPDEST POP PUSH2 0xEC PUSH2 0x266 JUMP JUMPDEST PUSH1 0x40 MLOAD PUSH2 0xF9 SWAP2 SWAP1 PUSH2 0xA6A JUMP JUMPDEST PUSH1 0x40 MLOAD DUP1 SWAP2 SUB SWAP1 RETURN JUMPDEST CALLVALUE DUP1 ISZERO PUSH2 0x10E JUMPI PUSH1 0x0 DUP1 REVERT JUMPDEST POP PUSH2 0x129 PUSH1 0x4 DUP1 CALLDATASIZE SUB DUP2 ADD SWAP1 PUSH2 0x124 SWAP2 SWAP1 PUSH2 0xA85 JUMP JUMPDEST PUSH2 0x274 JUMP JUMPDEST STOP JUMPDEST CALLVALUE DUP1 ISZERO PUSH2 0x137 JUMPI PUSH1 0x0 DUP1 REVERT JUMPDEST POP PUSH2 0x140 PUSH2 0x36D JUMP JUMPDEST STOP JUMPDEST CALLVALUE DUP1 ISZERO PUSH2 0x14E JUMPI PUSH1 0x0 DUP1 REVERT JUMPDEST POP PUSH2 0x157 PUSH2 0x381 JUMP JUMPDEST PUSH1 0x40 MLOAD PUSH2 0x164 SWAP2 SWAP1 PUSH2 0xAC1 JUMP JUMPDEST PUSH1 0x40 MLOAD DUP1 SWAP2 SUB SWAP1 RETURN JUMPDEST CALLVALUE DUP1 ISZERO PUSH2 0x179 JUMPI PUSH1 0x0 DUP1 REVERT JUMPDEST POP PUSH2 0x194 PUSH1 0x4 DUP1 CALLDATASIZE SUB DUP2 ADD SWAP1 PUSH2 0x18F SWAP2 SWAP1 PUSH2 0xC22 JUMP JUMPDEST PUSH2 0x3AB JUMP JUMPDEST STOP JUMPDEST CALLVALUE DUP1 ISZERO PUSH2 0x1A2 JUMPI PUSH1 0x0 DUP1 REVERT JUMPDEST POP PUSH2 0x1BD PUSH1 0x4 DUP1 CALLDATASIZE SUB DUP2 ADD SWAP1 PUSH2 0x1B8 SWAP2 SWAP1 PUSH2 0xD32 JUMP JUMPDEST PUSH2 0x3C3 JUMP JUMPDEST STOP JUMPDEST CALLVALUE DUP1 ISZERO PUSH2 0x1CB JUMPI PUSH1 0x0 DUP1 REVERT JUMPDEST POP PUSH2 0x1E6 PUSH1 0x4 DUP1 CALLDATASIZE SUB DUP2 ADD SWAP1 PUSH2 0x1E1 SWAP2 SWAP1 PUSH2 0xE13 JUMP JUMPDEST PUSH2 0x3E1 JUMP JUMPDEST STOP JUMPDEST CALLVALUE DUP1 ISZERO PUSH2 0x1F4 JUMPI PUSH1 0x0 DUP1 REVERT JUMPDEST POP PUSH2 0x20F PUSH1 0x4 DUP1 CALLDATASIZE SUB DUP2 ADD SWAP1 PUSH2 0x20A SWAP2 SWAP1 PUSH2 0xA85 JUMP JUMPDEST PUSH2 0x3F1 JUMP JUMPDEST STOP JUMPDEST CALLVALUE DUP1 ISZERO PUSH2 0x21D JUMPI PUSH1 0x0 DUP1 REVERT JUMPDEST POP PUSH2 0x238 PUSH1 0x4 DUP1 CALLDATASIZE SUB DUP2 ADD SWAP1 PUSH2 0x233 SWAP2 SWAP1 PUSH2 0xE66 JUMP JUMPDEST PUSH2 0x474 JUMP JUMPDEST STOP JUMPDEST PUSH2 0x242 PUSH2 0x483 JUMP JUMPDEST PUSH2 0x252 PUSH2 0x24D PUSH2 0x485 JUMP JUMPDEST PUSH2 0x4AE JUMP JUMPDEST JUMP JUMPDEST PUSH2 0x260 DUP5 DUP5 DUP5 DUP5 PUSH2 0x4D4 JUMP JUMPDEST POP POP POP POP JUMP JUMPDEST PUSH1 0x0 PUSH2 0x270 PUSH2 0x54B JUMP JUMPDEST POP SWAP1 JUMP JUMPDEST PUSH1 0x0 PUSH20 0xFFFFFFFFFFFFFFFFFFFFFFFFFFFFFFFFFFFFFFFF AND DUP2 PUSH20 0xFFFFFFFFFFFFFFFFFFFFFFFFFFFFFFFFFFFFFFFF AND SUB PUSH2 0x2DA JUMPI PUSH1 0x40 MLOAD PUSH32 0xD92E233D00000000000000000000000000000000000000000000000000000000 DUP2 MSTORE PUSH1 0x4 ADD PUSH1 0x40 MLOAD DUP1 SWAP2 SUB SWAP1 REVERT JUMPDEST PUSH1 0x0 PUSH20 0xFFFFFFFFFFFFFFFFFFFFFFFFFFFFFFFFFFFFFFFF AND PUSH2 0x2FA PUSH2 0x485 JUMP JUMPDEST PUSH20 0xFFFFFFFFFFFFFFFFFFFFFFFFFFFFFFFFFFFFFFFF AND EQ PUSH2 0x347 JUMPI PUSH1 0x40 MLOAD PUSH32 0x5DAA87A000000000000000000000000000000000000000000000000000000000 DUP2 MSTORE PUSH1 0x4 ADD PUSH1 0x40 MLOAD DUP1 SWAP2 SUB SWAP1 REVERT JUMPDEST DUP1 PUSH32 0x360894A13BA1A3210667C828492DB98DCA3E2076CC3735A920A3CA505D382BBC SSTORE POP JUMP JUMPDEST PUSH2 0x375 PUSH2 0x5C1 JUMP JUMPDEST PUSH2 0x37F PUSH1 0x0 PUSH2 0x63F JUMP JUMPDEST JUMP JUMPDEST PUSH1 0x0 PUSH1 0x20 PUSH1 0x0 SWAP1 SLOAD SWAP1 PUSH2 0x100 EXP SWAP1 DIV PUSH20 0xFFFFFFFFFFFFFFFFFFFFFFFFFFFFFFFFFFFFFFFF AND SWAP1 POP SWAP1 JUMP JUMPDEST PUSH2 0x3B3 PUSH2 0x5C1 JUMP JUMPDEST PUSH2 0x3BE DUP4 DUP4 DUP4 PUSH2 0x705 JUMP JUMPDEST POP POP POP JUMP JUMPDEST PUSH2 0x3CE DUP7 DUP7 DUP7 PUSH2 0x779 JUMP JUMPDEST PUSH2 0x3D9 DUP3 DUP5 DUP4 PUSH2 0x705 JUMP JUMPDEST POP POP POP POP POP POP JUMP JUMPDEST PUSH2 0x3EC DUP4 DUP4 DUP4 PUSH2 0x85C JUMP JUMPDEST POP POP POP JUMP JUMPDEST PUSH2 0x3F9 PUSH2 0x5C1 JUMP JUMPDEST PUSH1 0x0 PUSH20 0xFFFFFFFFFFFFFFFFFFFFFFFFFFFFFFFFFFFFFFFF AND DUP2 PUSH20 0xFFFFFFFFFFFFFFFFFFFFFFFFFFFFFFFFFFFFFFFF AND SUB PUSH2 0x468 JUMPI PUSH1 0x40 MLOAD PUSH32 0x8C379A000000000000000000000000000000000000000000000000000000000 DUP2 MSTORE PUSH1 0x4 ADD PUSH2 0x45F SWAP1 PUSH2 0xF45 JUMP JUMPDEST PUSH1 0x40 MLOAD DUP1 SWAP2 SUB SWAP1 REVERT JUMPDEST PUSH2 0x471 DUP2 PUSH2 0x63F JUMP JUMPDEST POP JUMP JUMPDEST PUSH2 0x47F CALLER DUP4 DUP4 PUSH2 0x8D0 JUMP JUMPDEST POP POP JUMP JUMPDEST JUMP JUMPDEST PUSH1 0x0 PUSH32 0x360894A13BA1A3210667C828492DB98DCA3E2076CC3735A920A3CA505D382BBC SLOAD SWAP1 POP SWAP1 JUMP JUMPDEST CALLDATASIZE PUSH1 0x0 DUP1 CALLDATACOPY PUSH1 0x0 DUP1 CALLDATASIZE PUSH1 0x0 DUP5 GAS DELEGATECALL RETURNDATASIZE PUSH1 0x0 DUP1 RETURNDATACOPY DUP1 PUSH1 0x0 DUP2 EQ PUSH2 0x4CF JUMPI RETURNDATASIZE PUSH1 0x0 RETURN JUMPDEST RETURNDATASIZE PUSH1 0x0 REVERT JUMPDEST ADDRESS PUSH20 0xFFFFFFFFFFFFFFFFFFFFFFFFFFFFFFFFFFFFFFFF AND PUSH4 0x41B706BE DUP6 DUP6 DUP6 DUP6 PUSH1 0x40 MLOAD DUP6 PUSH4 0xFFFFFFFF AND PUSH1 0xE0 SHL DUP2 MSTORE PUSH1 0x4 ADD PUSH2 0x513 SWAP5 SWAP4 SWAP3 SWAP2 SWAP1 PUSH2 0xF65 JUMP JUMPDEST PUSH1 0x0 PUSH1 0x40 MLOAD DUP1 DUP4 SUB DUP2 PUSH1 0x0 DUP8 DUP1 EXTCODESIZE ISZERO DUP1 ISZERO PUSH2 0x52D JUMPI PUSH1 0x0 DUP1 REVERT JUMPDEST POP GAS CALL ISZERO DUP1 ISZERO PUSH2 0x541 JUMPI RETURNDATASIZE PUSH1 0x0 DUP1 RETURNDATACOPY RETURNDATASIZE PUSH1 0x0 REVERT JUMPDEST POP POP POP POP POP POP POP POP JUMP JUMPDEST PUSH1 0x0 ADDRESS PUSH20 0xFFFFFFFFFFFFFFFFFFFFFFFFFFFFFFFFFFFFFFFF AND PUSH4 0x18160DDD PUSH1 0x40 MLOAD DUP2 PUSH4 0xFFFFFFFF AND PUSH1 0xE0 SHL DUP2 MSTORE PUSH1 0x4 ADD PUSH1 0x20 PUSH1 0x40 MLOAD DUP1 DUP4 SUB DUP2 DUP7 GAS STATICCALL ISZERO DUP1 ISZERO PUSH2 0x598 JUMPI RETURNDATASIZE PUSH1 0x0 DUP1 RETURNDATACOPY RETURNDATASIZE PUSH1 0x0 REVERT JUMPDEST POP POP POP POP PUSH1 0x40 MLOAD RETURNDATASIZE PUSH1 0x1F NOT PUSH1 0x1F DUP3 ADD AND DUP3 ADD DUP1 PUSH1 0x40 MSTORE POP DUP2 ADD SWAP1 PUSH2 0x5BC SWAP2 SWAP1 PUSH2 0xFBF JUMP JUMPDEST SWAP1 POP SWAP1 JUMP JUMPDEST PUSH2 0x5C9 PUSH2 0x944 JUMP JUMPDEST PUSH20 0xFFFFFFFFFFFFFFFFFFFFFFFFFFFFFFFFFFFFFFFF AND PUSH2 0x5E7 PUSH2 0x381 JUMP JUMPDEST PUSH20 0xFFFFFFFFFFFFFFFFFFFFFFFFFFFFFFFFFFFFFFFF AND EQ PUSH2 0x63D JUMPI PUSH1 0x40 MLOAD PUSH32 0x8C379A000000000000000000000000000000000000000000000000000000000 DUP2 MSTORE PUSH1 0x4 ADD PUSH2 0x634 SWAP1 PUSH2 0x1038 JUMP JUMPDEST PUSH1 0x40 MLOAD DUP1 SWAP2 SUB SWAP1 REVERT JUMPDEST JUMP JUMPDEST PUSH1 0x0 PUSH1 0x20 PUSH1 0x0 SWAP1 SLOAD SWAP1 PUSH2 0x100 EXP SWAP1 DIV PUSH20 0xFFFFFFFFFFFFFFFFFFFFFFFFFFFFFFFFFFFFFFFF AND SWAP1 POP DUP2 PUSH1 0x20 PUSH1 0x0 PUSH2 0x100 EXP DUP2 SLOAD DUP2 PUSH20 0xFFFFFFFFFFFFFFFFFFFFFFFFFFFFFFFFFFFFFFFF MUL NOT AND SWAP1 DUP4 PUSH20 0xFFFFFFFFFFFFFFFFFFFFFFFFFFFFFFFFFFFFFFFF AND MUL OR SWAP1 SSTORE POP DUP2 PUSH20 0xFFFFFFFFFFFFFFFFFFFFFFFFFFFFFFFFFFFFFFFF AND DUP2 PUSH20 0xFFFFFFFFFFFFFFFFFFFFFFFFFFFFFFFFFFFFFFFF AND PUSH32 0x8BE0079C531659141344CD1FD0A4F28419497F9722A3DAAFE3B4186F6B6457E0 PUSH1 0x40 MLOAD PUSH1 0x40 MLOAD DUP1 SWAP2 SUB SWAP1 LOG3 POP POP JUMP JUMPDEST ADDRESS PUSH20 0xFFFFFFFFFFFFFFFFFFFFFFFFFFFFFFFFFFFFFFFF AND PUSH4 0xC68D4283 DUP5 DUP5 DUP5 PUSH1 0x40 MLOAD DUP5 PUSH4 0xFFFFFFFF AND PUSH1 0xE0 SHL DUP2 MSTORE PUSH1 0x4 ADD PUSH2 0x742 SWAP4 SWAP3 SWAP2 SWAP1 PUSH2 0x10D7 JUMP JUMPDEST PUSH1 0x0 PUSH1 0x40 MLOAD DUP1 DUP4 SUB DUP2 PUSH1 0x0 DUP8 DUP1 EXTCODESIZE ISZERO DUP1 ISZERO PUSH2 0x75C JUMPI PUSH1 0x0 DUP1 REVERT JUMPDEST POP GAS CALL ISZERO DUP1 ISZERO PUSH2 0x770 JUMPI RETURNDATASIZE PUSH1 0x0 DUP1 RETURNDATACOPY RETURNDATASIZE PUSH1 0x0 REVERT JUMPDEST POP POP POP POP POP POP POP JUMP JUMPDEST DUP3 PUSH20 0xFFFFFFFFFFFFFFFFFFFFFFFFFFFFFFFFFFFFFFFF AND PUSH4 0xD412D344 ADDRESS PUSH1 0x40 MLOAD DUP3 PUSH4 0xFFFFFFFF AND PUSH1 0xE0 SHL DUP2 MSTORE PUSH1 0x4 ADD PUSH2 0x7B2 SWAP2 SWAP1 PUSH2 0xAC1 JUMP JUMPDEST PUSH1 0x0 PUSH1 0x40 MLOAD DUP1 DUP4 SUB DUP2 PUSH1 0x0 DUP8 DUP1 EXTCODESIZE ISZERO DUP1 ISZERO PUSH2 0x7CC JUMPI PUSH1 0x0 DUP1 REVERT JUMPDEST POP GAS CALL ISZERO DUP1 ISZERO PUSH2 0x7E0 JUMPI RETURNDATASIZE PUSH1 0x0 DUP1 RETURNDATACOPY RETURNDATASIZE PUSH1 0x0 REVERT JUMPDEST POP POP POP POP ADDRESS PUSH20 0xFFFFFFFFFFFFFFFFFFFFFFFFFFFFFFFFFFFFFFFF AND PUSH4 0x42FE0980 PUSH1 0x0 PUSH1 0x12 DUP6 DUP6 PUSH1 0x40 MLOAD DUP6 PUSH4 0xFFFFFFFF AND PUSH1 0xE0 SHL DUP2 MSTORE PUSH1 0x4 ADD PUSH2 0x825 SWAP5 SWAP4 SWAP3 SWAP2 SWAP1 PUSH2 0x1200 JUMP JUMPDEST PUSH1 0x0 PUSH1 0x40 MLOAD DUP1 DUP4 SUB DUP2 PUSH1 0x0 DUP8 DUP1 EXTCODESIZE ISZERO DUP1 ISZERO PUSH2 0x83F JUMPI PUSH1 0x0 DUP1 REVERT JUMPDEST POP GAS CALL ISZERO DUP1 ISZERO PUSH2 0x853 JUMPI RETURNDATASIZE PUSH1 0x0 DUP1 RETURNDATACOPY RETURNDATASIZE PUSH1 0x0 REVERT JUMPDEST POP POP POP POP POP POP POP JUMP JUMPDEST ADDRESS PUSH20 0xFFFFFFFFFFFFFFFFFFFFFFFFFFFFFFFFFFFFFFFF AND PUSH4 0x66A12FB6 DUP5 DUP5 DUP5 PUSH1 0x40 MLOAD DUP5 PUSH4 0xFFFFFFFF AND PUSH1 0xE0 SHL DUP2 MSTORE PUSH1 0x4 ADD PUSH2 0x899 SWAP4 SWAP3 SWAP2 SWAP1 PUSH2 0x1253 JUMP JUMPDEST PUSH1 0x0 PUSH1 0x40 MLOAD DUP1 DUP4 SUB DUP2 PUSH1 0x0 DUP8 DUP1 EXTCODESIZE ISZERO DUP1 ISZERO PUSH2 0x8B3 JUMPI PUSH1 0x0 DUP1 REVERT JUMPDEST POP GAS CALL ISZERO DUP1 ISZERO PUSH2 0x8C7 JUMPI RETURNDATASIZE PUSH1 0x0 DUP1 RETURNDATACOPY RETURNDATASIZE PUSH1 0x0 REVERT JUMPDEST POP POP POP POP POP POP POP JUMP JUMPDEST ADDRESS PUSH20 0xFFFFFFFFFFFFFFFFFFFFFFFFFFFFFFFFFFFFFFFF AND PUSH4 0x9D876741 DUP5 DUP5 DUP5 PUSH1 0x40 MLOAD DUP5 PUSH4 0xFFFFFFFF AND PUSH1 0xE0 SHL DUP2 MSTORE PUSH1 0x4 ADD PUSH2 0x90D SWAP4 SWAP3 SWAP2 SWAP1 PUSH2 0x10D7 JUMP JUMPDEST PUSH1 0x0 PUSH1 0x40 MLOAD DUP1 DUP4 SUB DUP2 PUSH1 0x0 DUP8 DUP1 EXTCODESIZE ISZERO DUP1 ISZERO PUSH2 0x927 JUMPI PUSH1 0x0 DUP1 REVERT JUMPDEST POP GAS CALL ISZERO DUP1 ISZERO PUSH2 0x93B JUMPI RETURNDATASIZE PUSH1 0x0 DUP1 RETURNDATACOPY RETURNDATASIZE PUSH1 0x0 REVERT JUMPDEST POP POP POP POP POP POP POP JUMP JUMPDEST PUSH1 0x0 CALLER SWAP1 POP SWAP1 JUMP JUMPDEST PUSH1 0x0 PUSH1 0x40 MLOAD SWAP1 POP SWAP1 JUMP JUMPDEST PUSH1 0x0 DUP1 REVERT JUMPDEST PUSH1 0x0 DUP1 REVERT JUMPDEST PUSH1 0x0 PUSH20 0xFFFFFFFFFFFFFFFFFFFFFFFFFFFFFFFFFFFFFFFF DUP3 AND SWAP1 POP SWAP2 SWAP1 POP JUMP JUMPDEST PUSH1 0x0 PUSH2 0x98B DUP3 PUSH2 0x960 JUMP JUMPDEST SWAP1 POP SWAP2 SWAP1 POP JUMP JUMPDEST PUSH2 0x99B DUP2 PUSH2 0x980 JUMP JUMPDEST DUP2 EQ PUSH2 0x9A6 JUMPI PUSH1 0x0 DUP1 REVERT JUMPDEST POP JUMP JUMPDEST PUSH1 0x0 DUP2 CALLDATALOAD SWAP1 POP PUSH2 0x9B8 DUP2 PUSH2 0x992 JUMP JUMPDEST SWAP3 SWAP2 POP POP JUMP JUMPDEST PUSH1 0x0 DUP2 SWAP1 POP SWAP2 SWAP1 POP JUMP JUMPDEST PUSH2 0x9D1 DUP2 PUSH2 0x9BE JUMP JUMPDEST DUP2 EQ PUSH2 0x9DC JUMPI PUSH1 0x0 DUP1 REVERT JUMPDEST POP JUMP JUMPDEST PUSH1 0x0 DUP2 CALLDATALOAD SWAP1 POP PUSH2 0x9EE DUP2 PUSH2 0x9C8 JUMP JUMPDEST SWAP3 SWAP2 POP POP JUMP JUMPDEST PUSH1 0x0 DUP1 PUSH1 0x0 DUP1 PUSH1 0x80 DUP6 DUP8 SUB SLT ISZERO PUSH2 0xA0E JUMPI PUSH2 0xA0D PUSH2 0x956 JUMP JUMPDEST JUMPDEST PUSH1 0x0 PUSH2 0xA1C DUP8 DUP3 DUP9 ADD PUSH2 0x9A9 JUMP JUMPDEST SWAP5 POP POP PUSH1 0x20 PUSH2 0xA2D DUP8 DUP3 DUP9 ADD PUSH2 0x9A9 JUMP JUMPDEST SWAP4 POP POP PUSH1 0x40 PUSH2 0xA3E DUP8 DUP3 DUP9 ADD PUSH2 0x9A9 JUMP JUMPDEST SWAP3 POP POP PUSH1 0x60 PUSH2 0xA4F DUP8 DUP3 DUP9 ADD PUSH2 0x9DF JUMP JUMPDEST SWAP2 POP POP SWAP3 SWAP6 SWAP2 SWAP5 POP SWAP3 POP JUMP JUMPDEST PUSH2 0xA64 DUP2 PUSH2 0x9BE JUMP JUMPDEST DUP3 MSTORE POP POP JUMP JUMPDEST PUSH1 0x0 PUSH1 0x20 DUP3 ADD SWAP1 POP PUSH2 0xA7F PUSH1 0x0 DUP4 ADD DUP5 PUSH2 0xA5B JUMP JUMPDEST SWAP3 SWAP2 POP POP JUMP JUMPDEST PUSH1 0x0 PUSH1 0x20 DUP3 DUP5 SUB SLT ISZERO PUSH2 0xA9B JUMPI PUSH2 0xA9A PUSH2 0x956 JUMP JUMPDEST JUMPDEST PUSH1 0x0 PUSH2 0xAA9 DUP5 DUP3 DUP6 ADD PUSH2 0x9A9 JUMP JUMPDEST SWAP2 POP POP SWAP3 SWAP2 POP POP JUMP JUMPDEST PUSH2 0xABB DUP2 PUSH2 0x980 JUMP JUMPDEST DUP3 MSTORE POP POP JUMP JUMPDEST PUSH1 0x0 PUSH1 0x20 DUP3 ADD SWAP1 POP PUSH2 0xAD6 PUSH1 0x0 DUP4 ADD DUP5 PUSH2 0xAB2 JUMP JUMPDEST SWAP3 SWAP2 POP POP JUMP JUMPDEST PUSH1 0x0 DUP1 REVERT JUMPDEST PUSH1 0x0 DUP1 REVERT JUMPDEST PUSH1 0x0 PUSH1 0x1F NOT PUSH1 0x1F DUP4 ADD AND SWAP1 POP SWAP2 SWAP1 POP JUMP JUMPDEST PUSH32 0x4E487B7100000000000000000000000000000000000000000000000000000000 PUSH1 0x0 MSTORE PUSH1 0x41 PUSH1 0x4 MSTORE PUSH1 0x24 PUSH1 0x0 REVERT JUMPDEST PUSH2 0xB2F DUP3 PUSH2 0xAE6 JUMP JUMPDEST DUP2 ADD DUP2 DUP2 LT PUSH8 0xFFFFFFFFFFFFFFFF DUP3 GT OR ISZERO PUSH2 0xB4E JUMPI PUSH2 0xB4D PUSH2 0xAF7 JUMP JUMPDEST JUMPDEST DUP1 PUSH1 0x40 MSTORE POP POP POP JUMP JUMPDEST PUSH1 0x0 PUSH2 0xB61 PUSH2 0x94C JUMP JUMPDEST SWAP1 POP PUSH2 0xB6D DUP3 DUP3 PUSH2 0xB26 JUMP JUMPDEST SWAP2 SWAP1 POP JUMP JUMPDEST PUSH1 0x0 PUSH8 0xFFFFFFFFFFFFFFFF DUP3 GT ISZERO PUSH2 0xB8D JUMPI PUSH2 0xB8C PUSH2 0xAF7 JUMP JUMPDEST JUMPDEST PUSH2 0xB96 DUP3 PUSH2 0xAE6 JUMP JUMPDEST SWAP1 POP PUSH1 0x20 DUP2 ADD SWAP1 POP SWAP2 SWAP1 POP JUMP JUMPDEST DUP3 DUP2 DUP4 CALLDATACOPY PUSH1 0x0 DUP4 DUP4 ADD MSTORE POP POP POP JUMP JUMPDEST PUSH1 0x0 PUSH2 0xBC5 PUSH2 0xBC0 DUP5 PUSH2 0xB72 JUMP JUMPDEST PUSH2 0xB57 JUMP JUMPDEST SWAP1 POP DUP3 DUP2 MSTORE PUSH1 0x20 DUP2 ADD DUP5 DUP5 DUP5 ADD GT ISZERO PUSH2 0xBE1 JUMPI PUSH2 0xBE0 PUSH2 0xAE1 JUMP JUMPDEST JUMPDEST PUSH2 0xBEC DUP5 DUP3 DUP6 PUSH2 0xBA3 JUMP JUMPDEST POP SWAP4 SWAP3 POP POP POP JUMP JUMPDEST PUSH1 0x0 DUP3 PUSH1 0x1F DUP4 ADD SLT PUSH2 0xC09 JUMPI PUSH2 0xC08 PUSH2 0xADC JUMP JUMPDEST JUMPDEST DUP2 CALLDATALOAD PUSH2 0xC19 DUP5 DUP3 PUSH1 0x20 DUP7 ADD PUSH2 0xBB2 JUMP JUMPDEST SWAP2 POP POP SWAP3 SWAP2 POP POP JUMP JUMPDEST PUSH1 0x0 DUP1 PUSH1 0x0 PUSH1 0x60 DUP5 DUP7 SUB SLT ISZERO PUSH2 0xC3B JUMPI PUSH2 0xC3A PUSH2 0x956 JUMP JUMPDEST JUMPDEST PUSH1 0x0 PUSH2 0xC49 DUP7 DUP3 DUP8 ADD PUSH2 0x9A9 JUMP JUMPDEST SWAP4 POP POP PUSH1 0x20 PUSH2 0xC5A DUP7 DUP3 DUP8 ADD PUSH2 0x9DF JUMP JUMPDEST SWAP3 POP POP PUSH1 0x40 DUP5 ADD CALLDATALOAD PUSH8 0xFFFFFFFFFFFFFFFF DUP2 GT ISZERO PUSH2 0xC7B JUMPI PUSH2 0xC7A PUSH2 0x95B JUMP JUMPDEST JUMPDEST PUSH2 0xC87 DUP7 DUP3 DUP8 ADD PUSH2 0xBF4 JUMP JUMPDEST SWAP2 POP POP SWAP3 POP SWAP3 POP SWAP3 JUMP JUMPDEST PUSH1 0x0 PUSH8 0xFFFFFFFFFFFFFFFF DUP3 GT ISZERO PUSH2 0xCAC JUMPI PUSH2 0xCAB PUSH2 0xAF7 JUMP JUMPDEST JUMPDEST PUSH2 0xCB5 DUP3 PUSH2 0xAE6 JUMP JUMPDEST SWAP1 POP PUSH1 0x20 DUP2 ADD SWAP1 POP SWAP2 SWAP1 POP JUMP JUMPDEST PUSH1 0x0 PUSH2 0xCD5 PUSH2 0xCD0 DUP5 PUSH2 0xC91 JUMP JUMPDEST PUSH2 0xB57 JUMP JUMPDEST SWAP1 POP DUP3 DUP2 MSTORE PUSH1 0x20 DUP2 ADD DUP5 DUP5 DUP5 ADD GT ISZERO PUSH2 0xCF1 JUMPI PUSH2 0xCF0 PUSH2 0xAE1 JUMP JUMPDEST JUMPDEST PUSH2 0xCFC DUP5 DUP3 DUP6 PUSH2 0xBA3 JUMP JUMPDEST POP SWAP4 SWAP3 POP POP POP JUMP JUMPDEST PUSH1 0x0 DUP3 PUSH1 0x1F DUP4 ADD SLT PUSH2 0xD19 JUMPI PUSH2 0xD18 PUSH2 0xADC JUMP JUMPDEST JUMPDEST DUP2 CALLDATALOAD PUSH2 0xD29 DUP5 DUP3 PUSH1 0x20 DUP7 ADD PUSH2 0xCC2 JUMP JUMPDEST SWAP2 POP POP SWAP3 SWAP2 POP POP JUMP JUMPDEST PUSH1 0x0 DUP1 PUSH1 0x0 DUP1 PUSH1 0x0 DUP1 PUSH1 0xC0 DUP8 DUP10 SUB SLT ISZERO PUSH2 0xD4F JUMPI PUSH2 0xD4E PUSH2 0x956 JUMP JUMPDEST JUMPDEST PUSH1 0x0 PUSH2 0xD5D DUP10 DUP3 DUP11 ADD PUSH2 0x9A9 JUMP JUMPDEST SWAP7 POP POP PUSH1 0x20 DUP8 ADD CALLDATALOAD PUSH8 0xFFFFFFFFFFFFFFFF DUP2 GT ISZERO PUSH2 0xD7E JUMPI PUSH2 0xD7D PUSH2 0x95B JUMP JUMPDEST JUMPDEST PUSH2 0xD8A DUP10 DUP3 DUP11 ADD PUSH2 0xD04 JUMP JUMPDEST SWAP6 POP POP PUSH1 0x40 DUP8 ADD CALLDATALOAD PUSH8 0xFFFFFFFFFFFFFFFF DUP2 GT ISZERO PUSH2 0xDAB JUMPI PUSH2 0xDAA PUSH2 0x95B JUMP JUMPDEST JUMPDEST PUSH2 0xDB7 DUP10 DUP3 DUP11 ADD PUSH2 0xD04 JUMP JUMPDEST SWAP5 POP POP PUSH1 0x60 PUSH2 0xDC8 DUP10 DUP3 DUP11 ADD PUSH2 0x9DF JUMP JUMPDEST SWAP4 POP POP PUSH1 0x80 PUSH2 0xDD9 DUP10 DUP3 DUP11 ADD PUSH2 0x9A9 JUMP JUMPDEST SWAP3 POP POP PUSH1 0xA0 DUP8 ADD CALLDATALOAD PUSH8 0xFFFFFFFFFFFFFFFF DUP2 GT ISZERO PUSH2 0xDFA JUMPI PUSH2 0xDF9 PUSH2 0x95B JUMP JUMPDEST JUMPDEST PUSH2 0xE06 DUP10 DUP3 DUP11 ADD PUSH2 0xBF4 JUMP JUMPDEST SWAP2 POP POP SWAP3 SWAP6 POP SWAP3 SWAP6 POP SWAP3 SWAP6 JUMP JUMPDEST PUSH1 0x0 DUP1 PUSH1 0x0 PUSH1 0x60 DUP5 DUP7 SUB SLT ISZERO PUSH2 0xE2C JUMPI PUSH2 0xE2B PUSH2 0x956 JUMP JUMPDEST JUMPDEST PUSH1 0x0 PUSH2 0xE3A DUP7 DUP3 DUP8 ADD PUSH2 0x9A9 JUMP JUMPDEST SWAP4 POP POP PUSH1 0x20 PUSH2 0xE4B DUP7 DUP3 DUP8 ADD PUSH2 0x9A9 JUMP JUMPDEST SWAP3 POP POP PUSH1 0x40 PUSH2 0xE5C DUP7 DUP3 DUP8 ADD PUSH2 0x9DF JUMP JUMPDEST SWAP2 POP POP SWAP3 POP SWAP3 POP SWAP3 JUMP JUMPDEST PUSH1 0x0 DUP1 PUSH1 0x40 DUP4 DUP6 SUB SLT ISZERO PUSH2 0xE7D JUMPI PUSH2 0xE7C PUSH2 0x956 JUMP JUMPDEST JUMPDEST PUSH1 0x0 PUSH2 0xE8B DUP6 DUP3 DUP7 ADD PUSH2 0x9DF JUMP JUMPDEST SWAP3 POP POP PUSH1 0x20 DUP4 ADD CALLDATALOAD PUSH8 0xFFFFFFFFFFFFFFFF DUP2 GT ISZERO PUSH2 0xEAC JUMPI PUSH2 0xEAB PUSH2 0x95B JUMP JUMPDEST JUMPDEST PUSH2 0xEB8 DUP6 DUP3 DUP7 ADD PUSH2 0xBF4 JUMP JUMPDEST SWAP2 POP POP SWAP3 POP SWAP3 SWAP1 POP JUMP JUMPDEST PUSH1 0x0 DUP3 DUP3 MSTORE PUSH1 0x20 DUP3 ADD SWAP1 POP SWAP3 SWAP2 POP POP JUMP JUMPDEST PUSH32 0x4F776E61626C653A206E6577206F776E657220697320746865207A65726F2061 PUSH1 0x0 DUP3 ADD MSTORE PUSH32 0x6464726573730000000000000000000000000000000000000000000000000000 PUSH1 0x20 DUP3 ADD MSTORE POP JUMP JUMPDEST PUSH1 0x0 PUSH2 0xF2F PUSH1 0x26 DUP4 PUSH2 0xEC2 JUMP JUMPDEST SWAP2 POP PUSH2 0xF3A DUP3 PUSH2 0xED3 JUMP JUMPDEST PUSH1 0x40 DUP3 ADD SWAP1 POP SWAP2 SWAP1 POP JUMP JUMPDEST PUSH1 0x0 PUSH1 0x20 DUP3 ADD SWAP1 POP DUP2 DUP2 SUB PUSH1 0x0 DUP4 ADD MSTORE PUSH2 0xF5E DUP2 PUSH2 0xF22 JUMP JUMPDEST SWAP1 POP SWAP2 SWAP1 POP JUMP JUMPDEST PUSH1 0x0 PUSH1 0x80 DUP3 ADD SWAP1 POP PUSH2 0xF7A PUSH1 0x0 DUP4 ADD DUP8 PUSH2 0xAB2 JUMP JUMPDEST PUSH2 0xF87 PUSH1 0x20 DUP4 ADD DUP7 PUSH2 0xAB2 JUMP JUMPDEST PUSH2 0xF94 PUSH1 0x40 DUP4 ADD DUP6 PUSH2 0xAB2 JUMP JUMPDEST PUSH2 0xFA1 PUSH1 0x60 DUP4 ADD DUP5 PUSH2 0xA5B JUMP JUMPDEST SWAP6 SWAP5 POP POP POP POP POP JUMP JUMPDEST PUSH1 0x0 DUP2 MLOAD SWAP1 POP PUSH2 0xFB9 DUP2 PUSH2 0x9C8 JUMP JUMPDEST SWAP3 SWAP2 POP POP JUMP JUMPDEST PUSH1 0x0 PUSH1 0x20 DUP3 DUP5 SUB SLT ISZERO PUSH2 0xFD5 JUMPI PUSH2 0xFD4 PUSH2 0x956 JUMP JUMPDEST JUMPDEST PUSH1 0x0 PUSH2 0xFE3 DUP5 DUP3 DUP6 ADD PUSH2 0xFAA JUMP JUMPDEST SWAP2 POP POP SWAP3 SWAP2 POP POP JUMP JUMPDEST PUSH32 0x4F776E61626C653A2063616C6C6572206973206E6F7420746865206F776E6572 PUSH1 0x0 DUP3 ADD MSTORE POP JUMP JUMPDEST PUSH1 0x0 PUSH2 0x1022 PUSH1 0x20 DUP4 PUSH2 0xEC2 JUMP JUMPDEST SWAP2 POP PUSH2 0x102D DUP3 PUSH2 0xFEC JUMP JUMPDEST PUSH1 0x20 DUP3 ADD SWAP1 POP SWAP2 SWAP1 POP JUMP JUMPDEST PUSH1 0x0 PUSH1 0x20 DUP3 ADD SWAP1 POP DUP2 DUP2 SUB PUSH1 0x0 DUP4 ADD MSTORE PUSH2 0x1051 DUP2 PUSH2 0x1015 JUMP JUMPDEST SWAP1 POP SWAP2 SWAP1 POP JUMP JUMPDEST PUSH1 0x0 DUP2 MLOAD SWAP1 POP SWAP2 SWAP1 POP JUMP JUMPDEST PUSH1 0x0 DUP3 DUP3 MSTORE PUSH1 0x20 DUP3 ADD SWAP1 POP SWAP3 SWAP2 POP POP JUMP JUMPDEST PUSH1 0x0 JUMPDEST DUP4 DUP2 LT ISZERO PUSH2 0x1092 JUMPI DUP1 DUP3 ADD MLOAD DUP2 DUP5 ADD MSTORE PUSH1 0x20 DUP2 ADD SWAP1 POP PUSH2 0x1077 JUMP JUMPDEST PUSH1 0x0 DUP5 DUP5 ADD MSTORE POP POP POP POP JUMP JUMPDEST PUSH1 0x0 PUSH2 0x10A9 DUP3 PUSH2 0x1058 JUMP JUMPDEST PUSH2 0x10B3 DUP2 DUP6 PUSH2 0x1063 JUMP JUMPDEST SWAP4 POP PUSH2 0x10C3 DUP2 DUP6 PUSH1 0x20 DUP7 ADD PUSH2 0x1074 JUMP JUMPDEST PUSH2 0x10CC DUP2 PUSH2 0xAE6 JUMP JUMPDEST DUP5 ADD SWAP2 POP POP SWAP3 SWAP2 POP POP JUMP JUMPDEST PUSH1 0x0 PUSH1 0x60 DUP3 ADD SWAP1 POP PUSH2 0x10EC PUSH1 0x0 DUP4 ADD DUP7 PUSH2 0xAB2 JUMP JUMPDEST PUSH2 0x10F9 PUSH1 0x20 DUP4 ADD DUP6 PUSH2 0xA5B JUMP JUMPDEST DUP2 DUP2 SUB PUSH1 0x40 DUP4 ADD MSTORE PUSH2 0x110B DUP2 DUP5 PUSH2 0x109E JUMP JUMPDEST SWAP1 POP SWAP5 SWAP4 POP POP POP POP JUMP JUMPDEST PUSH1 0x0 DUP2 SWAP1 POP SWAP2 SWAP1 POP JUMP JUMPDEST PUSH1 0x0 PUSH2 0x113A PUSH2 0x1135 PUSH2 0x1130 DUP5 PUSH2 0x960 JUMP JUMPDEST PUSH2 0x1115 JUMP JUMPDEST PUSH2 0x960 JUMP JUMPDEST SWAP1 POP SWAP2 SWAP1 POP JUMP JUMPDEST PUSH1 0x0 PUSH2 0x114C DUP3 PUSH2 0x111F JUMP JUMPDEST SWAP1 POP SWAP2 SWAP1 POP JUMP JUMPDEST PUSH1 0x0 PUSH2 0x115E DUP3 PUSH2 0x1141 JUMP JUMPDEST SWAP1 POP SWAP2 SWAP1 POP JUMP JUMPDEST PUSH2 0x116E DUP2 PUSH2 0x1153 JUMP JUMPDEST DUP3 MSTORE POP POP JUMP JUMPDEST PUSH1 0x0 DUP2 SWAP1 POP SWAP2 SWAP1 POP JUMP JUMPDEST PUSH1 0x0 PUSH1 0xFF DUP3 AND SWAP1 POP SWAP2 SWAP1 POP JUMP JUMPDEST PUSH1 0x0 PUSH2 0x11A6 PUSH2 0x11A1 PUSH2 0x119C DUP5 PUSH2 0x1174 JUMP JUMPDEST PUSH2 0x1115 JUMP JUMPDEST PUSH2 0x117E JUMP JUMPDEST SWAP1 POP SWAP2 SWAP1 POP JUMP JUMPDEST PUSH2 0x11B6 DUP2 PUSH2 0x118B JUMP JUMPDEST DUP3 MSTORE POP POP JUMP JUMPDEST PUSH1 0x0 DUP2 MLOAD SWAP1 POP SWAP2 SWAP1 POP JUMP JUMPDEST PUSH1 0x0 PUSH2 0x11D2 DUP3 PUSH2 0x11BC JUMP JUMPDEST PUSH2 0x11DC DUP2 DUP6 PUSH2 0xEC2 JUMP JUMPDEST SWAP4 POP PUSH2 0x11EC DUP2 DUP6 PUSH1 0x20 DUP7 ADD PUSH2 0x1074 JUMP JUMPDEST PUSH2 0x11F5 DUP2 PUSH2 0xAE6 JUMP JUMPDEST DUP5 ADD SWAP2 POP POP SWAP3 SWAP2 POP POP JUMP JUMPDEST PUSH1 0x0 PUSH1 0x80 DUP3 ADD SWAP1 POP PUSH2 0x1215 PUSH1 0x0 DUP4 ADD DUP8 PUSH2 0x1165 JUMP JUMPDEST PUSH2 0x1222 PUSH1 0x20 DUP4 ADD DUP7 PUSH2 0x11AD JUMP JUMPDEST DUP2 DUP2 SUB PUSH1 0x40 DUP4 ADD MSTORE PUSH2 0x1234 DUP2 DUP6 PUSH2 0x11C7 JUMP JUMPDEST SWAP1 POP DUP2 DUP2 SUB PUSH1 0x60 DUP4 ADD MSTORE PUSH2 0x1248 DUP2 DUP5 PUSH2 0x11C7 JUMP JUMPDEST SWAP1 POP SWAP6 SWAP5 POP POP POP POP POP JUMP JUMPDEST PUSH1 0x0 PUSH1 0x60 DUP3 ADD SWAP1 POP PUSH2 0x1268 PUSH1 0x0 DUP4 ADD DUP7 PUSH2 0xAB2 JUMP JUMPDEST PUSH2 0x1275 PUSH1 0x20 DUP4 ADD DUP6 PUSH2 0xAB2 JUMP JUMPDEST PUSH2 0x1282 PUSH1 0x40 DUP4 ADD DUP5 PUSH2 0xA5B JUMP JUMPDEST SWAP5 SWAP4 POP POP POP POP JUMP INVALID LOG2 PUSH5 0x6970667358 0x22 SLT KECCAK256 PUSH23 0xFECC16430E00F96C163F9BF0806D89204DD350E2C045A6 SLT 0xCD 0xB0 JUMPDEST EXTCODECOPY 0xBA 0xC5 0xC9 PUSH5 0x736F6C6343 STOP ADDMOD SLT STOP CALLER "
				},
				"gasEstimates": {
					"creation": {
						"codeDepositCost": "960000",
						"executionCost": "infinite",
						"totalCost": "infinite"
					},
					"external": {
						"": "infinite",
						"approve(address,address,uint256)": "infinite",
						"burn(uint256,bytes)": "infinite",
						"initialize(address,string,string,uint256,address,bytes)": "infinite",
						"initializeProxy(address)": "24811",
						"mint(address,uint256,bytes)": "infinite",
						"owner()": "2611",
						"renounceOwnership()": "30465",
						"totalSupply()": "infinite",
						"transferFrom(address,address,address,uint256)": "infinite",
						"transferOwnership(address)": "30810"
					}
				},
				"methodIdentifiers": {
					"approve(address,address,uint256)": "e1f21c67",
					"burn(uint256,bytes)": "fe9d9303",
					"initialize(address,string,string,uint256,address,bytes)": "a6a05598",
					"initializeProxy(address)": "4a0687ef",
					"mint(address,uint256,bytes)": "94d008ef",
					"owner()": "8da5cb5b",
					"renounceOwnership()": "715018a6",
					"totalSupply()": "18160ddd",
					"transferFrom(address,address,address,uint256)": "15dacbea",
					"transferOwnership(address)": "f2fde38b"
				}
			},
			"storageLayout": {
				"storage": [
					{
						"astId": 2824,
						"contract": "contracts/OurSuperToken.sol:OurSuperToken",
						"label": "_storagePaddings",
						"offset": 0,
						"slot": "0",
						"type": "t_array(t_uint256)32_storage"
					},
					{
						"astId": 7,
						"contract": "contracts/OurSuperToken.sol:OurSuperToken",
						"label": "_owner",
						"offset": 0,
						"slot": "32",
						"type": "t_address"
					}
				],
				"types": {
					"t_address": {
						"encoding": "inplace",
						"label": "address",
						"numberOfBytes": "20"
					},
					"t_array(t_uint256)32_storage": {
						"base": "t_uint256",
						"encoding": "inplace",
						"label": "uint256[32]",
						"numberOfBytes": "1024"
					},
					"t_uint256": {
						"encoding": "inplace",
						"label": "uint256",
						"numberOfBytes": "32"
					}
				}
			},
			"userdoc": {
				"errors": {
					"Initialized()": [
						{
							"notice": "Thrown when the logic contract has been set"
						}
					],
					"ZeroAddress()": [
						{
							"notice": "Thrown when the logic contract address is zero"
						}
					]
				},
				"kind": "user",
				"methods": {
					"initialize(address,string,string,uint256,address,bytes)": {
						"notice": "Initializer, used AFTER factory upgrade"
					},
					"initializeProxy(address)": {
						"notice": "Stores the logic contract address only once."
					},
					"mint(address,uint256,bytes)": {
						"notice": "Mints tokens, only the owner may do this"
					}
				},
				"notice": "Only the owner may mint",
				"version": 1
			}
		}
	}
}